:040000006F105059D4
:100004000000000000000000080200000A020000D6
:1000140000000000921D000000000000000000002D
:10002400921D0000921D000000000000000000006E
:10003400921D000000000000921D0000000000005E
:10004400921D0000921D0000921D0000921D0000F0
:10005400921D0000921D0000921D0000921D0000E0
:10006400921D0000921D0000921D0000921D0000D0
:10007400921D0000921D0000921D0000921D0000C0
:10008400F6070000921D0000921D0000921D000062
:10009400921D0000921D0000921D0000921D0000A0
:1000A400921D0000921D0000921D0000921D000090
:1000B400921D0000921D0000921D0000921D000080
:1000C400921D0000921D0000921D0000921D000070
:1000D400921D0000921D000028070000921D0000E0
:1000E400921D0000921D0000921D0000921D000050
:0C00F400921D0000921D0000921D0000F3
:10010000397101436EC619A0397141536AC866CA74
:1001100062CC5ECE19A0397101535AD056D252D456
:100120004ED64AD826DA22DC06DE330161408282CE
:1001300041114AC026C222C406C68282B24D410184
:10014000024D924C224CB24B4101024B924A224A40
:10015000B2494101024992442244B24041018280A5
:100160003D432A876373C3029377F700BDEFADE584
:10017000937606FF3D8ABA960CC34CC30CC74CC796
:100180004107E36BD7FE11E28280B306C3408A06C3
:100190009702000096966780A6002307B700A30683
:1001A000B7002306B700A305B7002305B700A304D3
:1001B000B7002304B700A303B7002303B700A302CB
:1001C000B7002302B700A301B7002301B700A300C3
:1001D000B7002300B700828093F5F50F9396850052
:1001E000D58D93960501D58D61B79396270097021B
:1001F000000096968682E78086FA9680C1171D8F4A
:100200003E96E374C3F8A5B701A0B707EFBE37E782
:1002100000E0938707083CC701A0EFF27FF17971F6
:10022000AA848545114502CA02CC02CE02D002D270
:1002300002D402D602C602C8EF20A02C854537059D
:100240000200EF20E02D9147FC82371401408D47DA
:100250003ECC4C08E147130504803ECEEF10D07829
:10026000A147FC824C089147130504803ECE3744D9
:100270000040EF107077B7070C000C101305044016
:100280003ED426D002D223160102EF20405C054660
:100290009305404213050440EF20C06593076013A7
:1002A0007C8685475C87680085473EC8EF20C0058F
:1002B000854513050440EF208062456161BDEFF282
:1002C0003FE739711306C00281454808513D854515
:1002D00005453704024002C602C8EF20A0201305DE
:1002E000C406EF10D052B74400408D673EDC9387C0
:1002F00044403ECA13070008938751844C081305F5
:10030000C4063AD43AD03ECC02D202D602D802DA9F
:1003100002DE02CEEF107059054689451305C4066A
:10032000EF10705D930700127C8685475C8768003C
:1003300085473EC8EF10507D1305C4068545EF1074
:10034000505A05469305000413850440EF20E05DF4
:10035000216109B5EFF23FDC9387819403D74740D1
:1003600093070040AA8A998F3E84C207C1831389EC
:10037000819463F3F5002E8483540940930900406F
:100380004204C204C180B3899940C209418093D913
:10039000090163E88902035509402286D6854A95FA
:1003A000EF20F04083570940A297C207C183231072
:1003B000F940835749403E944204418023128940CA
:1003C00069B303550940938404C0A2944E86D68530
:1003D000C2044A95EF20B03DC1802686B3853A011C
:1003E00013858194EF20B03C23109940D9B7EFF2E8
:1003F0003FD401118545114502C202C402C602C89C
:1004000002CA02CC02CEEF20C00F85450545EF2081
:10041000400F371501404C009307000B1305058072
:100420007C8202C6EF10505C854708083EC83ECA71
:100430003ECC3ECEEF10907285450545EF107075AD
:10044000374500001305C523EF20D052056119B3CD
:10045000EFF21FCE0565397185451305858002CA07
:1004600002CC02CE02C402C62318010002D802DA6E
:1004700002DC02DE02D002D202D423160102EF20F7
:100480004008E177FC8237150140E1473ECE4C0839
:100490008D47130505C0373401403ECCEF10D054D2
:1004A0009307F0312C00130504C03EC602C4230894
:1004B0000100EF204022C167938707073ED8B707A6
:1004C0001F0391073EDA0C1893070010130504C0B0
:1004D0003EDE02DCEF20C026B717000493870780BA
:1004E0003ED00C109167130504C02316F10202D20E
:1004F00002D4EF20202E130504C0A145EF200034C4
:10050000130504C08545EF20C031130504C085459F
:10051000EF20402E8545130504C0EF20202F3745DE
:10052000000013058531EF20B033216125B1EFF2D2
:100530003FC04111EF0010639D4763E0A70E854760
:100540003395A7009377F50ECDEF41896307050C2E
:10055000EF20E009938781819843A5462A843307D9
:10056000E54063F0E60AB724014088C39D4605468E
:10057000914513850440EF1070188545138504409C
:10058000EF1050161389044089454A85EF10102357
:1005900065DD13850440EF10F021AA84EF00F04FD1
:1005A0009306A1001306E1006C002A89392D21CDA4
:1005B000914763EA27053C8563F397021545EF00F1
:1005C0003058308537450000A68513050525EF20F6
:1005D00030293745000013050528EF20B0399387EF
:1005E000C18198439306703E3307E44063FBE60005
:1005F000308537450000A6851305C52A80C3EF2046
:100600003026410181BE374500001305052EEF203D
:1006100070361D45EF00D052EDB70145E5BFEFF252
:100620003FB10545EF10F04D7164EF2080361305A2
:100630000420EF20003C13050420C5364931B707DC
:10064000002083A587083745000013054534EF20B7
:1006500030213745000013054535EF20B031413BCF
:10066000C53BB9213745000013058536EF20903092
:10067000EF00B04F3745000013058538EF20902F6D
:10068000EF00F018EF009001374500001305453AE0
:10069000EF20502E0D45FD22AA8537450000130599
:1006A000453BEF20F01B1145F12A2A841145D92A38
:1006B0002946B355C4023376C5023745000093F589
:1006C000F50F1305453CEF20B0191D45C522AA853D
:1006D000374500001305853DEF2090181545F92298
:1006E000AA85374500001305853FEF2070174D455B
:1006F000512AF526AA85374500001305C540EF208D
:10070000301645454122E52EAA85374500001305E0
:100710000542EF20F014EF10604BEF00101D013D7B
:100720002945EF20A029C5BF011152C6374A004014
:100730009305404213050A4022CE26CC4ACA4EC831
:10074000EF20602115E9374400409305505213050E
:100750000440EF20402009C913050440EF20801E0B
:100760001375F50FEF1020267244E2445249C24936
:10077000324A0561730020301384418437090240F6
:100780008327090704201309C9069309000893F475
:10079000F40F4A85B389F940814593B714001CA032
:1007A000EF1030144A8593050008EF10F0151C2057
:1007B00085454A859E078507A2972326F900EF10F5
:1007C000501213050A40EF20E0179E04C20993D986
:1007D0000901138514002295CE85AD3E014926946A
:1007E000E37339F7B3072401883305091379F90F47
:1007F000EF10601DF5B741114EC026C44AC222C693
:100800001389418403440900B70402401385C406D8
:100810001374F40F9337140081452300F900EF108F
:10082000500C1385C40693050008EF10F00D8347A4
:1008300009001385C40685459E078507CA975CC5D0
:10084000EF10300A1E04130514004A9593050008A2
:10085000113685449389418413091008B307940025
:10086000CE9788238504EF100016E39924FF3705FF
:100870002000EF10B0093244A244124982494101DC
:10088000730020309307502A63E7A700938701D5B0
:10089000AA9788238280014582809307502A63E6C5
:1008A000A700938701D5AA978CA382809307402A3B
:1008B00063EAA700938701D5AA9788339C23220572
:1008C0005D8D8280014582809307402A63E8A700FE
:1008D000938701D53E950CA1A1810CB18280814600
:1008E0008147138701D51306402AB305D700882115
:1008F00085063E9593170501C183E398C6FE03451F
:10090000572A0347472A2205598D1D8D1335150097
:10091000828081460147938701D51306402AB3851B
:10092000D7008C2185062E9742074183E399C6FEA6
:100930002392E72A814601471306302AB385E70050
:100940008C210507AD8EE31BC7FEA381D72A8280C9
:10095000EFF20FFEEF10007C37050108B704010825
:10096000EF105001138401D51389642A1C300C2028
:100970002685A207DD8D8904EF1090030904E39713
:1009800024FFEF10C07A6FF0EFFCB70601089387E1
:1009900001D51386662A9A22890689074207418370
:1009A000238FE7FE2183A38FE7FEE396C6FE8280B6
:1009B000EFF20FF8138401D51306602A81451385E1
:1009C00001D5EFF0EFF9E54614B485660547938647
:1009D000565038B078B036A438A8B146130780070F
:1009E00054A458A893068012697716A81307474A9B
:1009F000930630337AA856B46957FD76A306E420EF
:100A0000F906214738BC76BC1167B706E80313071F
:100A100007F8938686707AAC34C037075203B7065E
:100A20001C02130707329386263518D4232CD40CC6
:100A30002322E416B7860807657793864621650763
:100A40008D672326D40E231DE4169387A773930680
:100A5000E02E371707FA1EA013060032A947231805
:100A6000D40E13071780930650FB5CA07CB4A3033D
:100A7000F402A30AF40CA301F416A308F41E231B2A
:100A8000C40C2304D416232EE4162319C41E930782
:100A90002035231AF41EB7F701089387E741232472
:100AA000F4209D47230BD41E2306F4206FF08FEA19
:100AB000EFF20FE8D93D253501ED3745000013056C
:100AC0000547EF20206BED35A93559356FF08FE8DC
:100AD000374500001305454AEF20C069C5BF91475F
:100AE00063EAA700931725001165130505453E9598
:100AF00008418280374500001305C54C8280894734
:100B000063EAA700931725001165130545463E9536
:100B100008418280374500001305454D8280AA8830
:100B20000145638E080285CD1DCA95CA0DCB85CBC4
:100B3000138801D5034598002380A8000345A80029
:100B400088A18345B80005450CA20346C80090A2C1
:100B50008346D80014A30347E80098A382808280CC
:100B6000130830066360A8069388F5FF93F8F80F22
:100B70002D430148636913059308F6FF93F8F80FB6
:100B8000794363621305DD4863EFD8029308B0032D
:100B900063EBE80263E9F802EFF28FD9138801D51D
:100BA000A304A8002305B800A305C8002306D800A5
:100BB000A306E8002307F800A93B593B05484285F6
:100BC0006FF04FD90148428582808147B1C929CA57
:100BD000A1CA11476366A704EFF2EFD39167060538
:100BE00093878743AA9703DA07009167938747445F
:100BF000AA9783D9070091679387C7423E950A2138
:100C00003684B2842E895D312310A900528579394A
:100C10008AA04E85613985470AA03E856FF0EFD2E4
:100C20003E858280EFF24FCE41112E8C9165AA8BCA
:100C3000B2849385C52235460A85BA893E8A3689AB
:100C4000EF20E03613F73B0093D72B0019E78946D6
:100C500063E58601FD1793F7F70F130BD016338B5F
:100C60006B03939A070193DA0A01420B135B0B01A2
:100C700019E3F5475C8181470144850713F7F70FB6
:100C800063608707EF10F0211385F4FF5A9556959E
:100C900022954205556413040418418133058502E9
:100CA0000564130404E19307C00333048902B38786
:100CB000F90222953E955295EF101019EF10701E13
:100CC000374500005288CE874A87A686628693857C
:100CD0000B7D1305855AEF20A03841016FF04FC6F8
:100CE0003307F10018233A944204418079B7EFF2B8
:100CF0008FC2011136C63AC43EC2AE843289AA8977
:100D0000EF10F00E91652A8435469385C5220808B8
:100D1000EF20E029D565938505183356B402B24615
:100D2000224792473374B4028565938505E13355B4
:100D3000B4023374B40288A29306C003B355D4023C
:100D40003374D4020CA380A3814793F6370013B702
:100D500016001307D7166377E6022380F90081E6B1
:100D6000F5472309F10085479CA09C2018103E9769
:100D7000034707FF637DE60005062300C900056100
:100D80006FF0AFBC8507C207198EC1837DBF198E76
:100D90008507D9BFEFF2CFB941119307F1001307CF
:100DA000E1009306D10070009305B1001305A10086
:100DB000BD330DC108859C871887948610868C8565
:100DC0009535374500001305855DEF20A03A4101B8
:100DD0006FF04FB8374500001305C55FFDB7EFF260
:100DE0002FB5854537050018EF1080730545EF10C6
:100DF000005DEF10401D0545EF10E05E1305100685
:100E0000EF10C07765DD13050020EF10005F05458A
:100E1000EF10605FEF10F009EF10B00829651305BF
:100E2000F5C3EF103005EF10D007AD3737450000A0
:100E300013054559EF2000346FF0CFB1EFF24FAFFB
:100E400041119307F1001307E1009306D1007000F0
:100E50009305B1001305A100593D9C87188794861E
:100E600010868C850885ED391DC10C850348F1007D
:100E70001C87988614869085374500009385057DEC
:100E800013058562EF20C01D41016FF0AFAC3745FF
:100E9000000013058566EF20E02DFDB7EFF24FA9A6
:100EA0001145EF100015A9659385555A630CB500DF
:100EB0003D37A9679385575A1145EF10C011BD3FC3
:100EC0006FF04FA91305B007EF10406B0DC9374500
:100ED00000001305C553EF20E02937450000130536
:100EE0004557EF2020290545EF10604DEF10607C3D
:100EF00085450545EF10606BEF10A07AC9B7130563
:100F0000A007EF10A06771D937450000130585557C
:100F1000D9B7EFF2EFA1B7070020938707009A2710
:100F2000C84793070010631DF700B747000083A56B
:100F3000876AEF10F037932715003E856FF08FA179
:100F400001EFB747000083A5876AEF107036894725
:100F5000E345A0FE9547D5B785469547E31FD7FCE7
:100F6000B747000083A5876AEF109034B327A0002D
:100F70008D07E1B7EFF2CF9BAA8711471305803E9B
:100F8000636DF70011658A0713054569AA979C43AD
:100F9000828713052004EFF07F919307803EB3858D
:100FA000A74013050032B385A5023735014013056C
:100FB00005C0B3C5F502C205C181EF1010096FF07D
:100FC0006F991305000FC1BF1305F017E9B713059B
:100FD000D020D1B7EFF2CF95372401409D4605468A
:100FE000994513050440EF007071854513050440D1
:100FF000EF00506F9304044089452685EF00107C74
:1010000065DD13050440EF00F07A6FF0AF94EFF266
:101010002F9279718545314502C202C402C6EF1094
:10102000404E93070010371401407C82C1471305DE
:1010300004803EC64C008D473EC4EF10E01A1305F5
:10104000048093050010EF10402993070004130556
:1010500004804C007C8202C6EF10001913060002C7
:1010600081450808EFF0CF8F854513050020EF106C
:101070004049316537240140EF10C0351305044065
:10108000EF00B059B7070E003ECE0C088547130598
:1010900004402302F10202C802CA02CC02D0EF00CF
:1010A000D05B854513050440EF00906013050440B4
:1010B000EF001061930404402685EF0010616DFD80
:1010C0001305044037240140EF00B06013040440CE
:1010D0002285EF00B0606DFD374500001305C56E39
:1010E000EF20400945616FF0EF86EFF2CF823704C1
:1010F00000208324040085470111639FF40E13042C
:1011000004005C28639A070E37190140930500100C
:1011100013050980EF10A01D2945EF10300A5D3D31
:10112000EF10704AB747000083A50771EF10B02099
:10113000B747000083A54771EF10F01F48C4D13BAB
:1011400089479305001048C0130509801CC044A8B6
:10115000EF10A0184840EFF09F981C3418242A89FB
:1011600048443EC63AC4EF10F052B24722472A869E
:1011700037450000AE8613058571CA85EF10506EA5
:101180004C204D45EFF06FF14840ED335C38A9EF4E
:1011900083294400E9779387A70AFC8437490040F4
:1011A000938719FA230D9100A30D3101230EF1004D
:1011B000814413090940154A3C08A6978C234A85A7
:1011C000EF10C077930500084A85EF1020787DD98D
:1011D0008504E39344FF374500008547CE8513051A
:1011E000C5745CB8EF10D0671145992A37450000E7
:1011F0001305C576EF10107805616FE01FF5EFE27B
:101200003FF337040020374500001304040005496C
:101210001305C56A2320240123280400231A04008F
:10122000EF10507537150140930500101305058028
:10123000EF10E00B13052003EF104078613BEF1037
:101240009038B747000083A50771EF10D00EB7475D
:10125000000083A54771EF10100E48C45D39AA84C1
:1012600048C0093B2685EF00B01A894726851CC077
:10127000230A2401EFF0BF86AA8537450000130535
:10128000C56CEF10F05D114565283745000013056A
:10129000C576EF10306E6FE0FFEBB707002003A5B7
:1012A00047008280B70700209387070088A78CB784
:1012B0008280B71702409843B706FFF01367170004
:1012C00098C3D843758FD8C39843B706F7FEFD1669
:1012D000758F98C39843B706FCFFFD16758F98C3AA
:1012E000D843B70601FFFD16758FD8C337079F0097
:1012F00098C7D843B706C1FFFD16D8C3D843D8C393
:10130000D843D8C3D843758FD8C3D843B706000194
:10131000D8C39843558F98C3984393166700E3DD6D
:1013200006FED843B7160240719BD8C3D843136753
:101330002700D8C32147DC42B18BE39EE7FE8280C1
:10134000EFE21FDF938401828C40638BA5002A8427
:101350002A863745000013054579EF10705080C08C
:101360006FE05FDF03A501828280EFE27FDC2396DE
:10137000018223850182A38701821547238201828E
:1013800069468145138541032382E180EFE05FDDFB
:101390001306C0038145138581FFEFE07FDC3755DD
:1013A000000013054588EF10F05C6FE0BFDA2E9562
:1013B000814713F7F70F6365B7001375F50F828048
:1013C0003307F600182385073A9542054181D5B7C2
:1013D000EFE27FD4938701091307A0FA98A388B39B
:1013E000B0A3AA892E8A3289938401090D4411CAB7
:1013F00089C91385340013043900EF10503B13746E
:10140000F40FCA854E8552865D37B38784009309F1
:10141000240005041374F40F88A326949307500541
:10142000374900401CA093F9F90F01441309094002
:101430009377F40F63E5370105456FE01FD1B3875C
:1014400084008C234A85EF10604F930500084A857D
:10145000EF10C04F7DD90504E1BF914763F3B70298
:10146000EFE21FCD2421130635002A840831A6851A
:101470002694353F3C303385A740133515006FE087
:101480007FCD014582809307C00363E7C700EFE289
:101490003FCA3D3F6FE01FCC01458280EFE25FC94C
:1014A000411148866C0005461305100815374101A7
:1014B0006FE05FCAEFE2DFC71E2141112C001397D6
:1014C0008700A183D98F7C843E2121461397870012
:1014D000A183D98F7C855E2113978700A183D98F43
:1014E0007C867E211305200813978700A183D98F5E
:1014F0007C87F93D41016FE0FFC5EFE27FC34111F9
:1015000048866C00054613053008D93541016FE067
:101510007FC4EFE2FFC1411148866C000546130508
:1015200040087D3541016FE0FFC2EFE27FC01E2120
:1015300001114C0013978700A183D98F7C823E2133
:10154000694613978700A183D98F7C835E21139707
:101550008700A183D98F7C847E2113978700A18384
:10156000D98F7C851E2513978700A183D98F7C8610
:101570003E2513978700A183D98F7C875E2513971B
:101580008700A183D98FFC807E2513978700A183D4
:10159000D98FFC811E2913978700A183D98FFC82E4
:1015A0003E2913978700A183D98FFC835E29139767
:1015B0008700A183D98FFC847E2913978700A1839C
:1015C000D98FFC851E2D1305500813978700A18322
:1015D000D98FFC86F53B05616FE0DFB7EFE25FB5C1
:1015E0001E21397113978700A183D98F7C823E21F8
:1015F00013978700A183D98F7C835E21139787007F
:10160000A183D98F7C847E2113978700A183D98FF2
:101610007C851E2513978700A183D98F7C863E2564
:1016200013978700A183D98F7C875E251397870046
:10163000A183D98FFC807E2513978700A183D98F42
:10164000FC811E2913978700A183D98FFC823E2934
:1016500013978700A183D98FFC835E291397870096
:10166000A183D98FFC847E2913978700A183D98F0A
:10167000FC851E2D13978700A183D98FFC863E2DF4
:1016800013978700A183D98FFC875E2D139787005E
:10169000A183D98F2310F1027E2D13978700A18398
:1016A000D98F2311F1021E3113978700A183D98F9F
:1016B0002312F1023E3113978700A183D98F2313A0
:1016C000F1025E3113978700A183D98F2314F102B1
:1016D0007E3113978700A183D98F2315F102130759
:1016E0002003930780023306F50010225400BE96B3
:1016F00090A28507E399E7FE1307C0033306F500C0
:1017000010225400BE9690A28507E399E7FE4C0094
:101710001306C00313056008EFF0FFD621616FE0E8
:101720007FA3EFE2FFA041114886CC8609466C00FA
:101730001305F008EFF0DFC941016FE0BFA1EFE250
:10174000BF9CB1476388F500B1450545D93F0145C8
:101750006FE01F9F04211C3103492500A204DD8C8A
:101760003C31C204C18422093369F90093870483A0
:10177000C2074209C1831307300613590941E365C3
:10178000F7FC9307F9FFC207C1832D47E36EF7FA11
:1017900040215C31794722045D8C420441849307E7
:1017A000F4FFC207C183E361F7FA7C217831A20715
:1017B000D98F139A07015D47135A0A41E366F7F878
:1017C0001C251835A207D98F939A07011307B00378
:1017D00093DA0A41E36AF7F630253C3522065D8E3E
:1017E000131B0601135B0B41E360C7F693840403EC
:1017F00093F4F40F1379F90F1374F40F137AFA0FAB
:1018000093FAFA0F137BFB0FDA875687D28622866C
:10181000AE892685CA85EFF0AFB4AA8BDA875687E2
:10182000D2862286CA852685EFF0CFBF63830B0060
:1018300081494E85EFF09FC6054519BFEFE25F8FE6
:10184000411181C9B1450945E93D014541016FE0BB
:101850007F904D45EFF00F83688419216885FD2640
:101860006886E52E68872800EFF0DFC40545F9BFDC
:10187000EFE21F8C91476388F500B1450D45553562
:1018800001456FE03F8D3C213831A207D98F139479
:10189000070115474184E362F7FE1C210C311D4509
:1018A000A207DD8DEFF04F829375F40F4945EFE00D
:1018B000DFFE0145EFF07FC40545E1B7EFE25F874A
:1018C00081C9B1451145B13D014422856FE09F8832
:1018D0002E847926AA8501C51145A135FDB7054796
:1018E00093844182A387E18223800400A52E85474B
:1018F0002A846318F50088A003C54180EFF07FC1FA
:10190000E9B7A1451145313D0544C1B7EFE25F821A
:10191000011199C5B1451545EFF0BFE0014429A873
:101920009384F1828020A14509C403C4418209E85F
:101930009D451545EFF0FFDE228505616FE09F8133
:101940009126AA8519C51545EFF0BFDD2380040057
:10195000F1B74800152E2A8401E9A9451545EFF095
:101960005FDC23800400C9BF69464C001385410336
:10197000EF10E0634800EFF05FBB054423800400F4
:1019800065BFEFE2EFFA397191C9B1451945EFF042
:101990005FD90144228521616FE0CFFB4800952685
:1019A0002A8411E5A9451945EFF0BFD7E5B713061D
:1019B000C0034C00138581FFEF10605F4800EFF01B
:1019C000FFC10544C1BF1386E182142295451387E8
:1019D000E1829387C18263EAD50C11668A061306F9
:1019E000067BB296944282869306A00A6314D502BF
:1019F0001306A0FA2388C104854696A314A3828007
:101A000092239306160096A393860105B29688A2A8
:101A1000894614A392239306F00363FCC6082300AF
:101A2000070071A092239306160096A393860105E2
:101A3000B29688A22383A182A38201828D4671F986
:101A40009146C1BF92239306160096A39386010583
:101A5000B2961386518288A21422850693F6F60F59
:101A600014A203C66182E3FDC6FC6DB79223930600
:101A7000160096A393860105B29688A2954651BF9B
:101A8000930650056310D50292239306160096A381
:101A900093860105B29688A205462385C18223005C
:101AA00007008DBF23900700DDBF230006002390B1
:101AB00007008280EFE2CFE78D47411163FFB70255
:101AC0003421103100213C31A206B285DD8E228501
:101AD0002394D18236C632C4EFF0CFFCEFF02FF260
:101AE000B246224637450000A2851305857CEF10DB
:101AF0002057054541016FE0EFE5854763F4B702E4
:101B000010310021B285228532C4EFF0AFF9EFF039
:101B10000FEF224637550000A28513058581EF108F
:101B20002054C1BF3755000013054585EF10806470
:101B3000EFF0EFEC7DBF14211307A00A6396E608CF
:101B4000EFE20FDFB307B50003C7F7FF93075005B8
:101B50002A84631BF702EFF05F901C30B54515C176
:101B600011472C20130534006387E7046360F702F4
:101B70000947638CE702636DF70205476383E70259
:101B8000B9453E85EFF0FFB9014531A81947638A91
:101B9000E70263E5E70213070002E393E7FE193F5C
:101BA00019A0EFF0DFB96FE0EFDAEFF03FC9E5BF62
:101BB000EFF01FCCCDBFEFF07FD0F5B7EFF01FD522
:101BC000DDB7EFF01FDCC5B701458280EFE24FD6ED
:101BD0001384A1821C2099CB9384C1828E2013850B
:101BE0000105913F239004002300040083C7F18284
:101BF00091CF138441821C2091EBAD208547631760
:101C0000F50008A003C54180EFF0BF906FE08FD4CE
:101C1000EFE20FD2138481821E204111488613D730
:101C20008700D8865C87EFE09FEB1220AA853755A6
:101C300000001305058AEF10A0426C000D46130545
:101C4000000AEFF0EFF841016FE0CFD003D58182B9
:101C500001E50565130505E182801305001082800A
:101C600001458280138701831C23A546850793F7CE
:101C7000F70F63E5F6001CA30145828023000700EF
:101C800005458280014582803DC9EFE26FCA930716
:101C9000B00741112A843EA1231005004D45EFE015
:101CA0007FBE4AA04945EFE0FFBD6AA01D45EFE0B9
:101CB000FFBF1307E1009306D10070009305B10048
:101CC0000AA49307F1001305A100EFE05FE51C856E
:101CD0009387077D3EA49C855EA41C867EA49C867B
:101CE0001EA81C873EA89C875EA8EFF03FF69307CE
:101CF00000106AA81EAC054541016FE0AFC5014563
:101D0000828051C5EFE2CFC201112A844800EFF072
:101D1000BFF73C821307007D7AAC1EA03C831545BB
:101D2000B75400003EA03C875EA0BC807EA0BC8172
:101D30001EA4BC823EA4BC835EA4BC847EA43C845E
:101D40001EA83C853EA8BC855EA8BC867EA89307DD
:101D5000803E1EAC3EAC5EAC1EB0930700323EB07F
:101D6000EFE0DFB43C864AB09385C48C7EB0294650
:101D700013058402EF10A02329469385C48C130514
:101D80002403EF10C022054505616FE0AFBC01459B
:101D9000828001A097F1FF1F938141AF173100208E
:101DA0001301412617350000130505D197E5FF1FE4
:101DB000938545251386818163FAC500832205003A
:101DC00023A0550011059105E3EAC5FE1385818125
:101DD0009385410D6377B500232005001105E36D60
:101DE000B5FEFD42739002BC8D4273904280930217
:101DF00080087390023097E2FFFF9382E22093E223
:101E0000320073905230EFF0CFCA97F2FFFF938207
:101E100042817390123473002030EFE26FB1B72724
:101E2000014093870740631CF5008545130500209A
:101E3000392781451305002019276FE0AFB1B73767
:101E4000014093870780E31AF5FE8545130500409E
:101E5000FD25814513050040C5B75C413707F1E01A
:101E60001307F7EF944D7D8F9C41D58FD44DD58FBF
:101E7000D441A206D58FD98F5CC11C4537F7F1FF3D
:101E80001307D77FD4457D8F9C49D58F944586060F
:101E9000D58FD98F1CC55C55370710FF7D177D8FF7
:101EA000DC29FD1793F7F70FD207D98F5CD5828015
:101EB0001C4589C593E717001CC58280F99BEDBFBF
:101EC0001C4593E787001CC5828008450D81058964
:101ED00082801C4593E747001CC582800845098124
:101EE000058982801C4591C537075000D98F1CC5D4
:101EF00082803707B0FF7D17F98FD5BFA54763F7FD
:101F0000B7048D47138765FF3307F7020328C50021
:101F10009D47B397E70093C7F7FFB3F70701B39661
:101F2000E600DD8E54C5994763E3C70495477D16E7
:101F30003306F6025859FD47B397C70093C7F7FF1A
:101F4000F98F3396C5005D8E50D982800D47338757
:101F5000E502032805019D47B397E70093C7F7FF04
:101F6000B3F70701B396E600DD8E14C96DBFB14724
:101F700063E2C702954765163306F6021859FD4716
:101F8000B397C70093C7F7FFF98F3396C5005D8EEF
:101F900010D9828095474D163306F6025855FD47F5
:101FA000B397C70093C7F7FFF98FB395C500DD8DD1
:101FB0004CD58280684542054181828008416D8D03
:101FC0003335A0008280EFE2AF960545412B0145F5
:101FD00071236FE02F984111B777004002C69387B5
:101FE00007C03EC6B2473E952AC6B2478CC34101E0
:101FF00082804111B777004002C6938707C03EC672
:10200000B2473E952AC6B2478A23410182801C41CD
:1020100041677917F98F1CC1232005002322050091
:1020200023240500B70702402326050013878700F5
:102030006316E500D8431367F70001A81387C701AB
:102040006317E500D8431367070FD8C3B1A81387F8
:1020500007036318E500D8438566938606F0558F1D
:10206000EDB7138747046315E500D843BD66C5BFC8
:10207000138787056316E500D843B7060F00C5B779
:102080001387C7066316E500D843B706F000C1BF43
:10209000138707086316E500D843B706000FC1B7DA
:1020A00013874709E308E5F882801C4161773D0703
:1020B00094517D8F9C45D58F9449D58FD449D58F28
:1020C000944DD58FD44DD58FD451D58F9455D58F70
:1020D000D98F1CC1DC455CC19C411CC5DC415CC581
:1020E00082801C4189C593E717001CC1828041672B
:1020F0007917F98FDDBF1C4101C6DD8D0CC18280CF
:1021000093C5F5FFFD8DDDBF4CC18280B70702404E
:10211000C8C38280B70767453727024093873712C5
:102120005CC3B797EFCD9387B79A5CC3828037279C
:1021300002401C4B93E707081CCB828037270240E4
:102140005C470545858B91E7484741891335150064
:102150000D058280EFD2DFFD2A848544C5376318E0
:10216000950019E0154529A0D13F7D14CDBF7DD83C
:102170006FD05FFEEFD2DFFBAA8437050B00EFF0D4
:102180007FFD91476314F502372402401C48370550
:102190000B0093E727001CC844C81C4893E70704BA
:1021A0001CC8EFF03FFB1C48F59B1CC86FD09FFA82
:1021B000EFD21FF84111AA8415652EC6EFF09FF9E2
:1021C0009147B245631FF500372402401C4815654E
:1021D00093E717001CC88EA0EFF0DFF71C48F99BAF
:1021E0001CC841016FD01FF79C4513F7070113F876
:1021F000F70001C7D8413368E80037270240145B75
:102200003707000F758F4DEB8546A388D1823717AE
:1022100001406315E5009A2135839AA18E2113F7B9
:10222000F50F39C318418146854E3D4F930F80020B
:1022300093028004214E3396DE00B3F8C50063118B
:1022400016039398260033131F011343F3FF3377CC
:10225000E300B318180133E7E8006397F70750C9A4
:102260008506E39AC6FD18C11307F00F6375B7041E
:1022700054412146854E3D4F930F800293028004C6
:10228000414EB398CE0033F715016392E80213175D
:10229000260001173313EF001343F3FFB376D30087
:1022A0003317E800D98E6395F703232A1501050635
:1022B000E319C6FD54C1828037170140E310E5F6EB
:1022C00003C7118321DF81BFE39C57F810C949BFC1
:1022D000E39F57FC23281501D9BFB71701406316A8
:1022E000F50083C7118391C3B5810CC98280B717EC
:1022F00001406316F50083C7118391C3B5814CC9B2
:10230000828023AAA182828003A74183854714216A
:102310006310F7021C31639CE7023C21960793E7A8
:1023200007F837E700E093F7F70F36972300F740F9
:10233000054793D756003317D700544189CE93876A
:1023400007048A07B7E600E0B69798C38280EDF3EA
:102350003C219607F9B793870706E5B71C41B745B7
:10236000024003A64580939627003D473317D700C8
:102370001347F7FF718F5C4110458E070A06D18F16
:1023800050450606D18FB397D700D98F23A2F58089
:1023900082800A0585473395A700639AF500B74701
:1023A000024003A74780598D23A2A7808280B747A8
:1023B000024003A747801345F5FF798DF5B73777BE
:1023C00000401C4309C593E707101CC3828093F7A4
:1023D000F7EFE5BFB7160240DC4251777D17F98F62
:1023E0005D8DC8C28280371702405C5309C593E7F0
:1023F00017005CD38280F99BEDBF371702401C5356
:102400005D8D08D3828001C9371702401C53A16635
:10241000D58F1CD38280B71602409C5261777D17FE
:10242000F98F9CD28280371702405C439146B18B72
:102430006385D700A1466382D706B7177A009387D2
:1024400007201CC1371602405C42370700201307E3
:1024500087019183BD8BBA9794231C41B3D7D700D2
:102460005CC15442A1829D8ABA969422B3D6D70009
:1024700014C55442AD829D8A36971823B3D7E7001E
:102480005CC558423983937637001387818036972D
:102490001823B3D7E7021CC982805C435843C16646
:1024A000C983BD8B758F8907C5466393D700C9471C
:1024B00001EF3747024003270780418B09CF3717C9
:1024C0007A001307072021A83717024058439316B4
:1024D000E700E3D606FE37173D0013070790B387E2
:1024E000E70285B799C5371702405C4B5D8D48CB35
:1024F0008280B7170240D84B1345F5FF798DC8CBC2
:10250000828099C5371702401C4F5D8D08CF8280AD
:10251000B7170240984F1345F5FF798D88CF828019
:1025200099C5371702405C4F5D8D48CF8280B71741
:102530000240D84F1345F5FF798DC8CF828099C5E9
:10254000371702405C475D8D48C78280B71702404D
:10255000D8471345F5FF798DC8C7828001C9371761
:1025600002401C53C166D58F1CD38280B71602402F
:102570009C5241777D17F98F9CD2828093575500EA
:1025800005476399E700B71702409C4333D5A7007E
:102590000589828009476396E700B71702409C537C
:1025A000F5B7B7170240DC53D5B7B737004003D7AC
:1025B000078089C5598D2390A78082801345F5FF38
:1025C000798DD5BFB737004003D747801367070120
:1025D0002392E78082803737004083574780C207C5
:1025E000C183BD9BC207C1832312F7808280373627
:1025F0000040835686810357868142074183E31A50
:10260000D7FE373600408356C6818357C681C2073E
:10261000C183E39AD7FEB735004003D6858103D541
:10262000858142054181E31AC5FE630CA700B736D8
:10263000004003D7C68183D7C681C207C183E39A0E
:10264000E7FE42055D8D8280EFD29FAE41112AC622
:10265000EFF05FF73245B7370040135705014205E9
:10266000239CE7804181239EA780EFF0DFF64101A4
:102670006FD05FAEEFD2DFAB41112AC6EFF09FF40F
:102680003245B7370040135705013D8B420523946F
:10269000E78041812396A780EFF0FFF341016FD0DF
:1026A0007FAB373700408357478093F70702E5DF5A
:1026B00082803737004083574780C207C183DD9B44
:1026C000C207C1832312F780373700408357478002
:1026D000A18BEDDF82801E2137370140130707C031
:1026E000C207C1836304E502370700406300E502C7
:1026F00013070740630CE500371700409306078077
:102700006306D500130707C06316E500BA2193F7E7
:10271000F7F8D98FFA2193F7F7CFC207C183D98F82
:102720001EA1DE215EB59E211EB5B73701409387FD
:1027300007C06314F5009C251EB985475EA98280F9
:102740001E3103D88500C207C18393F7F7EFC20794
:10275000C1831EB11E3156215A2DC20713960601A0
:102760004207962141831377C7F8558FB621C1835D
:1027700093F7F7DFB3E60601A206D58FB73601401F
:10278000C207938606C04182C183631FD502FD76CE
:102790009386F67FF58FB62503D8C500A206D58FA0
:1027A000D621C207C183A20693F7F7BFD58FF5766E
:1027B000FD16F18EF225C207C183336606011206AB
:1027C000D18E13960601418252A15AADFA215ABD0B
:1027D0001EB18280BA219E21D98FDA21D98FFA21A8
:1027E000D98F9A25D98FBA25D98FDA25D98F231277
:1027F000F50482801E2189C593E717001EA18280FF
:10280000C207C183F99BC207C183CDBF835745046B
:1028100091C52167D98F2312F5048280C607C5832D
:10282000DDBF1E2189C593E707081EA18280C2076C
:10283000C18393F7F7F7C207C183C5BF5E2DC207F7
:10284000C183DD9BDD8D4EAD82804EBD8280EFD297
:102850003F8E1629F577FD17F58FF621DA25797168
:10286000D58F1EA95625FD779387379FF58FD621E3
:102870002A842EC6D58F9625D58FB625D58F5EA5F1
:102880005E29C207C18393F7F7CFD98F5EA9680885
:10289000EFF07FB9B747014093870780B245631EC9
:1028A000F402A2576547B387E702984193064006B2
:1028B0000A07B3D7E70233D7D702B3F7D702120715
:1028C000920793872703B3D7D702BD8BD98FC2074F
:1028D000C1831EA445616FD0FF879257E1B791C5B0
:1028E0005E250967D98F5EA582805A25F977FD1785
:1028F000F98FD5BF13F7F50F85471583B395B7004B
:102900006319F7009307C500984301CED98D8CC396
:102910008280894693074501E318D7FE9307050196
:10292000E5B793C5F5FFF98DDDB75E2901C6DD8DED
:102930004EA9828093C5F5FFFD8DDDBF93F5F51F90
:102940004EA182804A211375F51F82800A216D8D68
:102950003335A000828013F7F50F85461583B397B2
:10296000B6006311D7025A25F98F1A210145420793
:10297000418381CB0545A181B315B5006D8F3335FA
:10298000E000828089466314D7001A29F1BF5A29D2
:10299000E1BFB707002083A7870837177A0013071E
:1029A0000720B3D7E70293F7F70F238DF1821307C0
:1029B000803EB387E702239CF1828280B7F700E074
:1029C000D8438146799BD8C303D781833306A702B6
:1029D00090CBD4CB98431367070198C398431367F0
:1029E000170298C3D843058B75DF9843799B98C32A
:1029F0008280EFD2EFF32A8411650111854511051C
:102A0000EFF03FB0930700207C82371501408D47DF
:102A10003EC44C00E147130505803EC6EFF0CFFCF5
:102A200022C837440140B70708000C08130504808A
:102A30003ECC02CA231E0100EFF07FE1854513055D
:102A40000480EFF0DFE905616FD0CFF0EFD2AFEC9B
:102A5000B7440140AE8932890144938404806345C0
:102A600024014A856FD06FEE930500042685EFF0B0
:102A7000FFED7DD9B387890083850700268505048E
:102A8000C205C181EFF09FEBD9BF1387C1801C4302
:102A90009386410D3E95636BD500B7560020938613
:102AA000068063E5A60008C33E858280FD57EDBF22
:102AB00093567501B7078000FD1713D6750193F67D
:102AC000F60F1308F00FB3F8A7001357F501ED8FB9
:102AD0001376F60FFD8163810603630C06018DE218
:102AE00011E2B1C3638E08026305B70405451DE713
:102AF0008280F5D779558280E39E08FE6309D6026D
:102B000011E2EDD7E314B7FEE342D6FE63C7C60079
:102B1000E3EE17FD0145E3FDF8FC01E77D558280FA
:102B2000F5DD054582800145E39208FC8280F9DBF2
:102B3000D1B78146E1BF797122D4135475014ECECD
:102B400052CC9319950006D626D24AD056CA5AC8F6
:102B50001374F40F93D99900135AF50169C49307BC
:102B6000F00F6308F40E9397390037070004B3E9B8
:102B7000E700130414F88144014B13D77501939AAD
:102B800095001377F70F93DA9A0013D9F50145CF23
:102B90009307F00F630CF7028E0A130717F8B707B5
:102BA0000004B3EAFA003A94014633452A01BD47CE
:102BB000AA869305140063E09710172700001307F7
:102BC000E7D18A04BA949C40BA9782871304F40F21
:102BD00063960A0C93E424000946C1BF014513071C
:102BE000F00FB7074000B2502254A6075E07A58336
:102BF0007E05D98F92540259F249624AD24A424B19
:102C00005D8D45618280CA86D689328B8947630F84
:102C1000FB088D47E304FBFC854736856310FB1AF0
:102C200001478147C9B7639D090413D77501939A7A
:102C300095001377F70F91440144054B93DA9A00FE
:102C400013D9F50131F7639D0A0093E4140005469A
:102C5000A9BF63920902A1441304F00F094B31BFCD
:102C60005685F92C9307B5FF098CB39AFA00130423
:102C7000A4F801461DBFB1441304F00F0D4BF5BD80
:102C80004E852EC6752C9307B5FF1304A0F8B39993
:102C9000F900098C8144014BB245C5B593E4340079
:102CA0000D4621B78947D286E315FBF63685130713
:102CB000F00F81470DBF41639306F3FF13D609015F
:102CC00093D80A01B3F7D900B3FADA00338857036F
:102CD000B389F80213570801B30A5603D6994E97E1
:102CE00033061603637357011A96C167FD17B3764F
:102CF000F7003378F800C206C2969399660093579E
:102D00000701B3393001E982B2979A07B3E6D900D7
:102D1000B3E9D7009397490063D9070013D7190087
:102D200093F71900B369F7002E841307F407635073
:102D3000E00493F7790099C793F7F900914663830C
:102D4000D70091099397490063D90700B70700F8A6
:102D5000FD17B3F9F900130704089307E00F63CBDD
:102D6000E70493976900A5831377F70FADBD8547F7
:102D7000B386E74011C76D4601478147E345D6E674
:102D80001307E4093397E9003337E000B3D7D900DC
:102D9000D98F13F7770019C713F7F700914663032C
:102DA000D700910713975700634C07009A07A58334
:102DB000014715BD1307F00F814735B52E84B5B710
:102DC000054781470DB5411106C622C415CD2A8499
:102DD000852A9307E0093387A7409307600963C0FA
:102DE000E704A1469377F70F63D5A6006115331466
:102DF000A40026042580260413559400B2402244E2
:102E0000DE075D8D41018280014426041355940044
:102E1000B24022448147DE075D8D410182809307E5
:102E2000900963DDE7009307B5019546B317F400F9
:102E3000898EB337F0003354D4005D8C954763D648
:102E4000A7009307B5FF3314F400B70600FCFD1686
:102E5000937774003376D40085C39377F40091455B
:102E6000638CB70011069317560063D707009307CA
:102E7000F009758E3387A740131466002580260459
:102E800013559400B24022449377F70FDE075D8D0F
:102E900041018280135775011377F70F4111930792
:102EA000170022C426C21314950006C693F7E70F35
:102EB00025809354F50185C79357340013070738CD
:102EC0007604B2075207B1831395F401D98FC98FE5
:102ED000B240228522449244BE854101828005EBA6
:102EE00039C42285B128A94763C6A7042D47098F95
:102EF000930755013357E4003314F4009317C700C8
:102F000013079038098FB1831377F77F5DBF01CC2A
:102F100013573400B7070800D98FB2077604B1837E
:102F20001307F07F79BF1307F07F814759BF01472F
:102F3000814741BF130755FF3317E40001447DBFAC
:102F4000C167637CF5029307F00F1307000263EB80
:102F5000A700972700009387679CAA9788233305CB
:102F6000A74082802181972700009387279BAA97FB
:102F7000882361473305A7408280B7070001636D4E
:102F8000F50061819727000093874799AA978823C6
:102F900021473305A740828041819727000093870E
:102FA000E797AA97882341473305A7408280B3C794
:102FB000A5008D8B3307C50081E78D4763EDC70002
:102FC000AA87637EE508942185078505A38FD7FE30
:102FD000E3EBE7FE828093763500AA8789CA9421C5
:102FE00085078505A38FD7FE93F63700C5BF937677
:102FF000C7FF138606FE63F0C70683A3050083A2FE
:10300000450083AF850003AFC50083AE050103AE65
:10301000450103A3850183A8C5019385450223A02B
:10302000770003A8C5FF23A2570023A4F70123A616
:10303000E70123A8D70123AAC70123AC670023AE69
:1030400017019387470223AE07FF75B79041910799
:10305000910523AEC7FEE3EBD7FEE3E6E7F68280F9
:1030600039713EDA2ED232D436D63AD842DC46DE38
:103070009387018122CC804326CA06CEAA8409C444
:103080001C4C99E32285FD290C4454102686228588
:1030900036C6EF009013F2406244D2442161828030
:1030A000011126CA4AC806CE22CC4EC652C4AA84F2
:1030B0002E8901C51C4D91E3F1219C4C804499E37C
:1030C0002685C9219727000093874797631BF40241
:1030D000C0405E24A18BB1C71C48A1C7FD59294A35
:1030E0001C4483450900FD17B1E91CC463DD0706D4
:1030F0002286A94526856920FD576308F5022945E2
:1031000035A097270000938767956314F4008044E7
:10311000C9B79727000093876790E31CF4FAC0446F
:103120004DBFA2852685192A55D97D55F2406244A6
:10313000D2444249B249224A056182801CC4050931
:1031400063D70700184C63CAE700638845011C4039
:103150001387170018C08CA361B7228626850D201F
:10316000E31035F9D9B71C401387170018C0294759
:1031700098A371B793870181AA8588436FF05FF2A6
:10318000011122CC26CA4AC806CE4EC6AA842E8970
:10319000328401C51C4D91E3F526972700009387E3
:1031A000E7896317F406C0401C4C1CC45E24A18B45
:1031B000C1C31C48B5CF1C4808409379F90F137957
:1031C000F90F1D8D5C486346F500A2852685692CA4
:1031D00025E51C440505FD171CC41C40138717007A
:1031E00018C0238037015C486388A7005E24858B64
:1031F00081CBA9476316F900A2852685B5240DED7C
:10320000F24062444A85D2444249B2490561828013
:1032100097270000938787846314F400804469B77C
:10322000971700009387877FE310F4F8C044ADBF81
:10323000A2852685212041D17D59D9B74111938797
:10324000018126C2844322C44AC006C62A892E842C
:1032500089C49C4C99E326853526971700009387EF
:10326000E77D631BF402C0400317C40093170701F6
:10327000C18393F68700ADEA93F6070195EEA54763
:103280002320F900136707045AA47D55B240224455
:103290009244024941018280971700009387077C7E
:1032A0006314F4008044C9B7971700009387077729
:1032B000E31CF4FAC0444DBF918B9DC34C5889C99F
:1032C000930744046384F5004A85292B232A0402CA
:1032D0005E242322040093F7B7FD5EA41C481CC0A3
:1032E0005E2493E787005EA41C4899EB5E241307D5
:1032F000002093F707286385E700A2854A85912976
:103300005E2413F717001DC35C4823240400B30791
:10331000F0401CCC1C480145B5FB8317C40013F7D3
:1033200007082DD793E707045EA485B7898B01476B
:1033300091E3584818C4F9BFDE25011122CC26CAF2
:1033400006CE4AC84EC613F78700AA842E8479EBAE
:10335000D841634DE000B841634AE0000145F240C6
:103360006244D2444249B2490561828058547DD7B3
:1033700003A904009396370123A0040063DB06062B
:1033800070485E24918B99C75C401D8E5C5899C330
:103390003C401D8E5C540C50814626858297FD571B
:1033A0005A24631DF5009440F54763E8D706B70734
:1033B00040208507B3D7D700858BA5C31C4823229F
:1033C00004001CC09317370163D80700FD5763142E
:1033D000F5009C4091E368C84C5823A02401BDDD52
:1033E000930744046384F5002685ED2E232A040206
:1033F000B5B70C500146854626850297FD572A86AB
:10340000E311F5F89C40B5DF75476385E700594740
:103410006393E70423A0240191B7136707045AA418
:103420007D5535BF83A90501E38A09F203A905008B
:103430008D8B23A0350133093941014791E3D849E8
:1034400018C4E35D20F11C540C50CA864E862685B4
:1034500082976347A0005E2493E707045EA4C9B780
:10346000AA993309A940F1BF9C49A5C3011122CCF7
:1034700006CE2A8411C51C4D81E72EC62122B245F5
:10348000971700009387875B639CF5004C408397F8
:10349000C5009DC722856244F24005616FF0DFE9F7
:1034A000971700009387875B6394F5000C44C5B7BA
:1034B0009717000093878756E39BF5FC4C44C1BFE8
:1034C000F2406244014505618280014582804111DC
:1034D00022C406C62A844EA572A5232005002322F5
:1034E0000500232405002322050623280500232A9E
:1034F0000500232C0500214681451305C505EFC0B5
:103500003FC697170000938787B25CD097170000DB
:103510009387A7B41CD497170000938787B85CD40F
:10352000971700009387E7BA00D01CD8B240224416
:103530004101828097050000938545F391AA4111CE
:1035400026C2130680069384F5FFB384C4024AC0E2
:103550002E8922C406C6938544070D2E2A8401CDE8
:103560002320050023222501310508C41386840683
:103570008145EFC0FFBE2285B240224492440249F9
:10358000410182801C4DA5E7411106C622C4970760
:103590000000938767FA1CD5938741819C432324BD
:1035A000050423260504232805046314F500854734
:1035B0001CCD2A84352848C022851D2808C42285B0
:1035C000052848C4484001469145EFF05FF00844A3
:1035D0000546A545EFF0BFEF48440946C945EFF061
:1035E0001FEF85471CCCB24022444101828082807B
:1035F00041119387418126C284434AC006C69C4C30
:1036000022C42A8981E72685EFF0DFF793848404BA
:103610008044DC40FD1763D607009C40B9CF84404E
:10362000C5BF0317C40039E7C17785072322040605
:103630002320040023220400232404005CC4232844
:103640000400232A0400232C04002146814513058D
:10365000C405EFC0FFB0232A0402232C0402232454
:103660000404232604042285B240224492440249E1
:10367000410182801304840671BF91454A85EFF0B1
:103680001FEC88C049FDB1472320F9000144E1BF88
:10369000797122D44AD052CC56CA5AC85EC606D6D0
:1036A00026D24ECE2A8AAE8A130485040149054BE0
:1036B000FD5B09ECB25022544A8592540259F249FA
:1036C000624AD24A424BB24B45618280044483290C
:1036D0004400FD1963D409000040E1BFDE24637B90
:1036E000FB008397E40063877701A6855285829A61
:1036F0003369A90093848406E9BF1971A6DAAE8400
:103700008395E500A2DC86DE328463DB0500DE24DF
:1037100023A0060093F7070885E7930700401DA044
:10372000300836C6EF007020B246E34205FE72470D
:10373000BD67F98F7977BA9793B717009CC2F1BF2D
:10374000930700041CC0F6506654D6540145096125
:103750008280DE25011122CC06CE26CA4AC8898B7A
:103760002E8489CF930774041CC01CC885475CC88D
:10377000F2406244D24442490561828074003000C4
:10378000AA84EFF09FF7A2452A892685012219E92C
:103790008317C40013F7072061FFF19B93E727000D
:1037A0005EA4C9B797070000938707D99CD45E240D
:1037B00008C008C893E707085EA4A2475CC8B247E0
:1037C00081CF8315E4002685EF00D01811C55E2453
:1037D000F19B93E717005EA45E243369F90023167A
:1037E000240179B7DDC183A7C5FF411122C406C6F4
:1037F00026C21384C5FF63D307003E94AA84EF005A
:10380000301C9387C1839C4381EF2322040023AEA5
:1038100081822244B2402685924441016F00701A91
:10382000637EF40014403307D4006396E7009843A6
:10383000DC43369718C05CC0D9BFBA87D84319C3D8
:10384000E37DE4FE94433386D700631F8600104077
:10385000B29694C33386D700E31DC7FA104358438A
:10386000B29694C3D8C375B76375C400B1479CC002
:103870004DB71040B306C4006316D7001443584335
:10388000B29614C058C0C0C369B78280011126CA5D
:1038900093843500F19806CE22CC4AC84EC6A104C6
:1038A000B14763F3F404B14463E2B4042A89EF003E
:1038B00030119387C18398433A8439E09387018418
:1038C0009C4391E781454A85252F23A0A184A685A5
:1038D0004A853D27FD5963193507B1472320F90073
:1038E0004A85EF00100E29A0E3D004FCB1471CC1AB
:1038F0000145F2406244D2444249B24905618280A6
:103900001C40858F63CF0702AD4663F6F6001CC0EE
:103910003E9404C031A05C406313870223AEF18261
:103920004A85EF00100A1305B4009307440061991B
:103930003307F5405DDF3A94898F1CC05DBF5CC3DF
:10394000C5B72287404095BF130435007198E30244
:1039500085FCB305A4404A856525E31C35FBB5BF4E
:103960001C46FD171CC663DA0700184E63C5E70046
:10397000A9476394F5006FF0BF801C422E85138722
:10398000170018C28CA38280011122CC26CA4AC813
:103990004EC652C406CE2A89AE893284B304D600FC
:1039A0007D5A63149400014509A80C204E864A856F
:1039B000EFF01FFB0504E31645FFF2406244D244DA
:1039C0004249B249224A05618280357122CD26CB17
:1039D0004AC94EC706CF52C556C35AC1DEDEE2DC25
:1039E000E6DAAA89AE843289368409C51C4D99E38A
:1039F000EFF05FB997170000938747046398F40CC2
:103A000083A44900DE24A18BE5C79C48F5C3930736
:103A10000002A304F1029307000302D22305F1027E
:103A200022C6930B5002971A0000938A2A05054C70
:103A3000294B4A841C2099C3639F770DB30C244102
:103A4000638E0C00E6864A86A6854E85EFF0DFF38E
:103A5000FD57630FF51C9256E69636D21C206389FB
:103A6000071CFD571309140002C802CE3ECA02CC3F
:103A7000A309010482D483450900154656852D27E4
:103A800013041900C24751E913F7070109C71307C7
:103A90000002A309E10413F7870009C71307B00266
:103AA000A309E104834609001307A002638FE60619
:103AB000F2474A84814625461820930514001307CF
:103AC00007FD6377E60AB5CA3ECE85A897170000C2
:103AD0009387C7F86395F40083A4890025B79717E7
:103AE00000009387A7F3E39FF4F083A4C90019BFF4
:103AF000A6854E85EFF08FF419D97D55FA406A44BA
:103B0000DA444A49BA492A4A9A4A0A4BF65B665C41
:103B1000D65C0D618280050431BF330555413315F4
:103B2000AC00C98F3EC82289B9B732479306470017
:103B3000184336C6634707023ACE18209307E002BF
:103B4000631DF70418309307A002631BF702B24706
:103B50000904138747009C433AC663C107023ECA63
:103B60002DA83307E04093E727003ACE3EC8F1B7CF
:103B7000B387670385462E84BA973DBFFD57C5B707
:103B8000050402CA81468147254618209305140082
:103B9000130707FD6374E606F9F20C200D461715AE
:103BA0000000130525EE092511CD97170000938716
:103BB00067ED1D8D93070004B397A70042450504E8
:103BC0005D8D2AC80C201946171500001305C5EB9A
:103BD000130914002304B102C12B35C197C7FFFF9D
:103BE0009387474295E74247B2471377071009CFBB
:103BF00091073EC69257D2973ED225BDB387670341
:103C000085462E84BA9751B79D07E19BA107D5B78A
:103C1000780097060000938666D726860C084E85A6
:103C200097000000E7000000FD572A8AE314F5FC26
:103C3000DE2493F70704E39207EC1255C1B5780030
:103C400097060000938686D426860C084E85012AA6
:103C5000E1BF797156CA9C49BA8A984522D426D2C6
:103C60004ECE52CC06D64AD05AC85EC6AA892E84F9
:103C7000B284368A63D3E700BA879CC00347340412
:103C800019C385079CC01C4093F7070281C79C405D
:103C900089079CC00329040013796900631A09008D
:103CA000130B9401FD5B5C449840998F634CF904BD
:103CB0001C408346340493F70702B336D000A5EBCB
:103CC00013063404D2854E85829AFD576303F504AA
:103CD0001C4011469840998B544481446397C70017
:103CE000B384E64063D3040081441C441848635401
:103CF000F700998FBE94014969047D5B63982405A0
:103D0000014509A885465A86D2854E85829A631E4A
:103D100075017D55B250225492540259F249624ABB
:103D2000D24A424BB24B456182800509ADBF330791
:103D3000D40013060003A301C70403475404938768
:103D40001600A2978906A381E7049DBF85462286B7
:103D5000D2854E85829AE30E65FB050945B77971D8
:103D600022D426D24AD04ECE06D652CC56CA5AC8F3
:103D7000B689942D930790063289AA842E841386DF
:103D80003504638DF60263E2D706930780056386E8
:103D9000F61863EDD700638E062093073004638E18
:103DA000F60A930A24042301D404C9A09307300619
:103DB0006385F60A93074006E395F6FE1C40084328
:103DC00093F6070893054500C5C61C410CC363D88C
:103DD00007001307D002B307F040A301E4049716CD
:103DE00000009386E6CA294765A893070007638207
:103DF000F61663E5D7029307E0066389F618930782
:103E0000F006E390F6FA0C401C4313F805081385FE
:103E100047006307080608C39C4385A8930750071B
:103E2000E383F6FE930780076389F6129307300752
:103E3000E399F6F61C43D04181459386470014C3AD
:103E400083AA070056858D2601C53305554148C014
:103E50005C401CC8A301040461A81C43930A240409
:103E6000938647009C4314C32301F4048547D5B7C8
:103E700093F607041C410CC3B9DAC207C18781BF9E
:103E800093F5050408C3C9D99E231307F006638779
:103E9000E60E971600009386A6BF2947A3010404E7
:103EA0004C400CC463C5050008406D9908C099E3F7
:103EB000B28A89CDB28AB3F5E702FD1AB6958C2194
:103EC0002380BA00B3D5E70263F0E70CA147631E75
:103ED000F7001C40858B91CB58401C4863C7E70016
:103EE00093070003A38FFAFEFD1A3306564110C84C
:103EF0004E87CA867000A2852685EFF09FD57D5A31
:103F0000631D450B7D55B250225492540259F2491B
:103F1000624AD24A424B45618280A382D5049716F9
:103F200000009386E6B60C40084313F805081C41D0
:103F30001105630D080208C313F7150001C793E5C7
:103F400005020CC04147B9FB0C4093F5F5FD0CC0D0
:103F5000B1B79C4193E707029CC193078007A30276
:103F6000F404971600009386E6B375BF13F80504B2
:103F700008C3E30308FCC207C1837DBF9716000096
:103F8000938606B1214719BFAE8735B794411C43CC
:103F9000CC4913F80608138547006306080008C3D8
:103FA0009C438CC339A008C393F606049C43F5DAFE
:103FB0008EA323280400B28A25BF14485686CA85DA
:103FC00026858299E30045F51C40898B8DE7B24731
:103FD0004844E35AF5F23E853DB785465686CA8584
:103FE00026858299E30065F3050A5C443247998F80
:103FF000E345FAFEE9BF014A930A94017D5BF5B7F8
:10400000411122C42A842E8523A8010C06C6EFE0A4
:10401000DFA7FD576317F5009387010D9C4391C3FC
:104020001CC0B240224441018280411122C42E842E
:104030008395E50006C67922634905007C48AA9766
:104040007CC8B2402244410182805E247D777D1786
:10405000F98F5EA4FDB7DE25011122CC26CA4AC81D
:104060004EC606CE93F70710AA842E843289B689ED
:1040700091C78395E5008946014609225E247D7734
:104080007D17F98F5EA48315E4006244F240CE866A
:104090004A86B24942492685D244056125A8411184
:1040A00022C42E848395E50006C6C928FD575A24EC
:1040B000631AF500FD77FD17F98F5EA4B240224424
:1040C000410182808567D98F5EA468C8C5BF83958A
:1040D000E50005A8411122C42A842E85B2853686C2
:1040E00023A8010C06C6EFE07F96FD576317F50085
:1040F0009387010D9C4391C31CC0B24022444101EF
:104100008280411122C42A842E8523A8010C06C670
:10411000C520FD576317F5009387010D9C4391C39C
:104120001CC0B240224441018280411122C42A8431
:104130002E85B28523A8010C06C6C920FD5763173A
:10414000F5009387010D9C4391C31CC0B2402244EB
:1041500041018280411122C42A842E8523A8010CAA
:1041600006C65D20FD576317F5009387010D9C433C
:1041700091C31CC0B240224441018280411122C43B
:104180002A842E85B285368623A8010C06C65920BE
:10419000FD576317F5009387010D9C4391C31CC025
:1041A000B24022444101828093F5F50F2A966314B0
:1041B000C500014582801C21E38EB7FE0505C5BF01
:1041C00082808280411122C42A842E85B28536865F
:1041D00023A8010C06C6A920FD576317F500938795
:1041E000010D9C4391C31CC0B24022444101828016
:1041F0009307800523A8F10C7D55828093078005E5
:1042000023A8F10C7D5582809307800523A8F10C2B
:10421000014582809307800523A8F10C7D5582809B
:104220009307800523A8F10C7D558280001F1C1F79
:104230001E1F1E1F1F1E1F1E1F0000004F50413259
:1042400020496E697469616C697A65640D000000CB
:10425000426C6F6F642064657465637465642120CB
:104260004144432076616C75653A2025752C2054B5
:1042700068726573686F6C643A2025750D0A0000DA
:1042800053797374656D207374617465206368611C
:104290006E67656420746F2053544154455F4D45EB
:1042A00041535552494E470D000000005761697453
:1042B000696E6720666F7220626C6F6F642E2E2E9F
:1042C000204144432076616C75653A2025752C2089
:1042D0005468726573686F6C643A2025750D0A0026
:1042E0004572726F723A20496E76616C6964207310
:1042F000747269702074797065206F7220666169CC
:104300006C656420746F2067657420706172616DE4
:1043100065746572730D000054494D312050574D3E
:1043200020496E697469616C697A6564202832304D
:104330004B487A2C2031303025252064757479293A
:104340000D0A000053797374656D436C6B3A2564F4
:104350000D0A00005468697320697320616E20653E
:1043600078616D706C650D00506172616D6574658A
:1043700072205461626C6520496E697469616C6970
:104380007A65640D00000000554152542050726F50
:10439000746F636F6C20496E697469616C697A65CA
:1043A000640D000052544320436F6E666967757256
:1043B00065640D004D6F64656C204E6F3A20256476
:1043C0000D0A000046572056657273696F6E3A20D9
:1043D00025642E25640D0A00506172616D65746557
:1043E00072205461626C652056657273696F6E3A13
:1043F0002025640D0A0000005465737420436F7516
:104400006E743A2025640D0A00000000537472692E
:104410007020547970653A2025730D0A0000000061
:10442000556E69743A2025730D0A00002800D600E5
:104430006401F201280000002A00D8006601F4019E
:104440002A0000002C00DA006801F6012C000000B0
:10445000F0440000004500000C4500001845000035
:1044600028450000D8440000E0440000E844000073
:10447000506172616D65746572207461626C652053
:10448000636865636B73756D206572726F722C2043
:104490006C6F6164696E672064656661756C7473C6
:1044A0002E0D0000506172616D657465722074613B
:1044B000626C65206C6F616465642073756363650D
:1044C000737366756C6C792E0D000000556E6B6E03
:1044D0006F776E003F0000006D6D6F6C2F4C000019
:1044E0006D672F644C000000676D2F646C00000046
:1044F000426C6F6F6420476C75636F7365000000DA
:1045000055726963204163696400000043686F6C01
:1045100065737465726F6C00547269676C7963655A
:104520007269646573000000426C6F6F6420476CB1
:1045300075636F736520284741562900506F776572
:1045400072204F6E205265736574204F63637572DD
:104550007265642E2E2E0D0045787465726E616C46
:10456000205265736574204F636375727265642EA3
:104570002E2E0D004E6F206E65656420746F2072C4
:1045800065636F6E666967757265205254432E2E9F
:104590002E0D000052544320496E697469616C69A4
:1045A0007A65640D000000005254432054696D6523
:1045B000205365743A20253032642F253032642F21
:1045C0002530326420253032643A253032643A2571
:1045D0003032640D0A0000005254432053796E6358
:1045E0006564207769746820506172616D657465D7
:1045F00072205461626C650D000000004661696CB8
:10460000656420746F206765742074696D65206629
:10461000726F6D20506172616D65746572205461B6
:10462000626C650D00000000506172616D6574651B
:1046300072205461626C652054696D652055706408
:10464000617465643A20253032642F253032642F3E
:104650002530326420253032643A253032643A25E0
:104660003032640D0A0000004661696C6564207494
:104670006F207570646174652074696D6520696E62
:1046800020506172616D65746572205461626C6561
:104690000D000000920F0000C20F0000C80F0000C4
:1046A000CE0F0000920F00000000004053747269AA
:1046B0007020496E736572746564204576656E740A
:1046C0002052656365697665640D000053747269F4
:1046D0007020446574656374656420617320747927
:1046E00070653A2025730D0A00000000537472694A
:1046F0007020446574656374696F6E204D6F6475D6
:104700006C6520496E697469616C697A65640D0035
:1047100033335340000080395374726970205479E8
:1047200070652044657465637465643A2025732060
:10473000285431563D252E3266562C2050333D25C7
:10474000642C2050353D2564290D0A0053656E7494
:10475000205374726970205479706520746F204200
:104760004C453A2025640D0A00000000537973740B
:10477000656D206E6F772077616974696E6720665A
:104780006F7220626C6F6F642073616D706C652E48
:104790002E2E0D0053797374656D2053746174650A
:1047A0003A202564202D3E2025640D0A00000000DB
:1047B000E8190000001A0000241A0000441A000042
:1047C0006C1A0000801A0000537472697020696EC0
:1047D000736572746564206E6F7469666963617471
:1047E000696F6E2072656365697665642E20506915
:1047F0006E333D25642C2050696E353D25642C2098
:1048000042617474657279566F6C746167653D2599
:10481000646D560D0A000000537472697020696E51
:10482000736572746564206E6F7469666963617420
:10483000696F6E2072656365697665642E205069C4
:104840006E333D25642C2050696E353D25640D0A7C
:1048500000000000537472697020696E7365727491
:104860006564206E6F74696669636174696F6E2038
:10487000776974686F75742070696E2073746174E1
:1048800075730D00554152542050726F746F636FF1
:104890006C20696E697469616C697A65640D0000E9
:1048A00053656E64696E67207374726970207479E1
:1048B00070652061636B3A2025732C20426174740B
:1048C0006572793A2025646D560D0A004131323304
:1048D0003435363738390000DEE3FFFF30E3FFFFC1
:1048E00030E3FFFF2EE3FFFF34E3FFFF34E3FFFF7E
:1048F00004E3FFFF2EE3FFFF34E3FFFF04E3FFFFCA
:1049000034E3FFFF2EE3FFFFCCE3FFFFCCE3FFFF29
:10491000CCE3FFFF04E3FFFF0001020203030303F4
:10492000040404040404040405050505050505053F
:10493000050505050505050506060606060606061F
:104940000606060606060606060606060606060607
:1049500006060606060606060707070707070707EF
:1049600007070707070707070707070707070707D7
:1049700007070707070707070707070707070707C7
:1049800007070707070707070707070707070707B7
:10499000070707070707070708080808080808089F
:1049A0000808080808080808080808080808080887
:1049B0000808080808080808080808080808080877
:1049C0000808080808080808080808080808080867
:1049D0000808080808080808080808080808080857
:1049E0000808080808080808080808080808080847
:1049F0000808080808080808080808080808080837
:104A00000808080808080808080808080808080826
:104A10000808080808080808000000000000000056
:104A20000000000000000000000000000000000086
:104A30000000000000000000000000000000000076
:104A40000000000000000000000000000000000066
:104A50000000000000000000000000000000000056
:104A60000000000000000000000000000000000046
:104A70000000000000000000232D302B200000006B
:104A8000686C4C006566674546470000303132333C
:104A9000343536373839414243444546000000003A
:104AA00030313233343536373839616263646566A4
:044AB0000000000002
:104AB40000000000050000000101000000000000EB
:104AC40000000000000000000000000001020304D8
:104AD400010203040607080900000000384A000028
:104AE400584A0000184A00000000000000000000BE
:104AF40000000000000000000000000000000000B2
:104B040000000000000000000000000000000000A1
:104B14000000000000000000000000000000000091
:104B24000000000000000000000000000000000081
:104B340000000000000000000024F4000500000054
:104B4400020406085C090020280000202800002038
:00000001FF
