:040000006F00F01489
:100004000000000000000000FA050000FC050000EC
:10001400000000004C090000000000000000000087
:100024004C0900004C090000000000000000000022
:100034000C060000000000004C0900000000000055
:100044004C0900004C0900004C0900004C09000058
:100054004C0900004C0900004C0900004C09000048
:100064004C0900004C0900004C0900004C09000038
:100074004C0900004C0900004C0900004C09000028
:100084004C0900004C0900004C0900004C09000018
:100094004C0900004C0900004C0900004C09000008
:1000A4004C0900004C0900004C0900004C090000F8
:1000B4004C0900004C0900004C0900004C090000E8
:1000C4004C0900004C0900004C0900004C090000D8
:1000D4004C0900004C0900004C0900004C090000C8
:1000E4004C0900004C0900004C0900004C090000B8
:0C00F4004C0900004C0900004C09000001
:10010000397101436EC619A0397141536AC866CA74
:1001100062CC5ECE19A0397101535AD056D252D456
:100120004ED64AD826DA22DC06DE330161408282CE
:1001300041114AC026C222C406C68282B24D410184
:10014000024D924C224CB24B4101024B924A224A40
:10015000B2494101024992442244B24041018280A5
:100160003D432A876373C3029377F700BDEFADE584
:10017000937606FF3D8ABA960CC34CC30CC74CC796
:100180004107E36BD7FE11E28280B306C3408A06C3
:100190009702000096966780A6002307B700A30683
:1001A000B7002306B700A305B7002305B700A304D3
:1001B000B7002304B700A303B7002303B700A302CB
:1001C000B7002302B700A301B7002301B700A300C3
:1001D000B7002300B700828093F5F50F9396850052
:1001E000D58D93960501D58D61B79396270097021B
:1001F000000096968682E78086FA9680C1171D8F4A
:100200003E96E374C3F8A5B7EFF21FF041118545A0
:10021000314537140140EF00501FC1490D49930B80
:1002200000044C00130504C0231271014EC64AC4D9
:10023000EF00E07A130504C093050004EF00D00D31
:10024000130B00084C00130504C0231261014EC6B5
:100250004AC4EF00C078130504C093050008EF00FE
:10026000B00B9144894A4C001305048023125101BC
:1002700026C6EF00C076E1474C0013050480648277
:100280003EC64AC4EF00A075A147130A80044C0083
:10029000130504807C8252C6EF0060744C00130585
:1002A00004802312710126C6EF00607385474C005D
:1002B000130504C07C8226C6EF0060724C00130553
:1002C00004802312310126C6EF0060714C00130533
:1002D00004802312610126C6EF006070930700407E
:1002E0004C00130504C07C8252C6EF00406F856746
:1002F000938707804C00130504C07C8252C6EF0030
:10030000006E4C00130504C02312510126C6EF00F5
:10031000006DE1774C00130504C07C824EC64AC4D0
:10032000EF00E06B130504C0A165EF00A07D93070B
:1003300000104C00130504807C824EC64AC4EF00B6
:10034000006A9305001013050480EF00A07B4101B3
:10035000C5BBEFF2FFDD4111854537050200EF0017
:10036000B00CF16737440040938707203EC08A8570
:10037000B7070C00130504403EC402C22316010057
:10038000EF00700C05461305044093055052EF0032
:10039000D015854513050440EF00D01341015DBB26
:1003A000EFF21FD94122094541209307200D631622
:1003B000F504372500001305C505EF00F03F4D4556
:1003C000A520D92AAA853725000013058508EF0046
:1003D000702D45459128CD22AA85372500001305AB
:1003E000C509EF00302C1545A520AA85372500004A
:1003F0001305050BEF00102BB1BB372500001305CB
:10040000050765BFEFF2DFD20545EF00C073752128
:10041000EF003012D53B353F61373725000013051B
:10042000450CEF0070393DB39307502A63E7A700EE
:1004300093870183AA97882382800145828093074E
:10044000502A63E6A70093870183AA978CA3828032
:100450009307402A63EAA70093870183AA9788330A
:100460009C2322055D8D82800145828081468147E3
:10047000138701831306302AB305D7008821850628
:100480003E9593170501C183E398C6FE0345472AAD
:100490000347372A2205598D1D8D1335150082809B
:1004A00081468147138701831306302AB305D7009D
:1004B0008C218506AE97C207C183E399C6FEA301CE
:1004C000F72AA1832302F72A814681471306502A7F
:1004D000B305F7008C218507AD8EE39BC7FEA30211
:1004E000D72A8280EFF2DFC43725000013054519B3
:1004F000EF00902C85B1EFF2BFC389651306602A27
:100500009385051A13850183EF00B00E513FD93F43
:1005100091B1EFF2FFC13725000013058518EF00F8
:10052000B0290DB9EFF2DFC0372500001305051122
:10053000EF0090281306602A8145138501830D3151
:10054000C93F2D3739E13725000013058512EF002B
:10055000B0265537138401832C303725000013054E
:100560004515EF0030144C203725000013054516C3
:10057000EF0050131C246C3037250000A207DD8DDE
:1005800013054517EF001012F1B6372500001305CB
:100590004514EF0070227DBF914763EAA7009317CF
:1005A000250009651305850E3E9508418280372593
:1005B0000000130585108280894763EAA70093171E
:1005C000250009651305C50F3E9508418280372532
:1005D0000000130585108280EFF29FB51387018319
:1005E0007C235433A207D58F8507C207C1835CB330
:1005F000A1837CA37535FD35B1BE01A0B707EFBE61
:1006000037E700E0938707083CC701A083A78181F3
:10061000850723ACF180B7F700E023A20700730041
:100620002030EFF2FFB04D45013505051544337418
:1006300085024D45A2852135A5356D352285A93F19
:10064000AA85372500001305854BEF00B0056937F3
:100650001545FD3B9375F50F372500001305054D36
:10066000EF005004C5BCB7F700E023A0070023A2A9
:100670000700814694C70147D8C737070020832564
:1006800007081307803E814633D6E5023D4790CBED
:10069000D4CB98C38280144103A781810546AA87E1
:1006A0006381C60291CA0945638DA6020D47638B1B
:1006B000E60423A0070021A09DC110C158C18145B7
:1006C00039A881CD50418145118F4D466379E600AF
:1006D000094718C114A5854519A0232005002E85BA
:1006E000828081CDD4438145158F9306703EE3F817
:1006F000E6FE0D4798C390B7F9BF23A007002384F7
:100700000700D1BFCDFD23A0070023940700E1B768
:10071000EFF29F9FC539813F372500001305454EF5
:10072000EF009009B707002083A5070837250000D0
:100730001305C54FEF000077712CAA8537250000FF
:1007400013050551EF00007637140140130504C06E
:1007500093050008452E130404C0938481AD372A05
:100760000000B72A0000138B41AE85659385058094
:100770002285B92E933515002685313F930500401B
:10078000AA8B2285B12693351500138541AE2137FA
:10079000AA8963880B029C2499CF13850A52EF0023
:1007A000B00193050004228589260546098E93052C
:1007B00000042285A52E9C3489C713054A53EF00F7
:1007C000A07F6387090283478B00938941AE81CB69
:1007D0003725000013054554EF00007E993583C787
:1007E000990099C73725000013058555EF00C07C97
:1007F0002945AD2383A781811307803E9305000817
:10080000B3D7E7022285858B99E3ED2CB9BF292662
:10081000A9BFB71702409843B706FFF01367170048
:1008200098C3D843758FD8C39843B706F7FEFD1613
:10083000758F98C39843B706FCFFFD16758F98C354
:10084000D843B70601FFFD16758FD8C337079F0041
:1008500098C7B746024003A706801367070123A085
:10086000E680D843B706C1FFFD16D8C3D843D8C326
:10087000D84313670740D8C3D843758FD8C3D8432C
:10088000B7063C00558FD8C39843B7060001558F73
:1008900098C3984393166700E3DD06FED843B71666
:1008A0000240719BD8C3D84313672700D8C32147A0
:1008B000DC42B18BE39EE7FE8280B7160240DC4249
:1008C000370700201146B18B130707086385C7005F
:1008D00021466388C702B7177A00938707201CC395
:1008E000B7170240DC43918393F6F700B707002067
:1008F00093870700B69794231C43B3D7D7001CC334
:100900008280DC42D4424166C983BD8BF18E890767
:1009100045466393C700C94781EEB746024083A6A8
:100920000680C18A89CEB7167A009386062021A850
:10093000B7160240D4421396E600E35606FEB716F9
:100940003D0093860690B387D70251BF01A097015F
:100950000020938121F3174100201301A16A17257C
:100960000000130565CA97F5FF1F9385A5691386D7
:10097000818163FAC5008322050023A0550011057B
:100980009105E3EAC5FE13858181938541AF6377C5
:10099000B500232005001105E36DB5FEFD427390FF
:1009A00002BC8D42739042809302800873900230A3
:1009B00097F2FFFF9382426593E2320073905230C8
:1009C000EFF03FE5970200009382C2D47390123497
:1009D00073002030B7F7FF1F03A5477082809C4546
:1009E00013F7070113F8F70001C7D8413368E8008F
:1009F00037270240145B3707000F758F4DEB854694
:100A0000238ED180371701406315E5009A21358385
:100A10009AA18E2113F7F50F39C318418146854EEF
:100A20003D4F930F800293028004214E3396DE00E7
:100A3000B3F8C500631116039398260033131F0102
:100A40001343F3FF3377E300B318180133E7E800EB
:100A50006397F70750C98506E39AC6FD18C11307C7
:100A6000F00F6375B70454412146854E3D4F930FF7
:100A7000800293028004414EB398CE0033F71501F3
:100A80006392E8021317260001173313EF00134394
:100A9000F3FFB376D3003317E800D98E6395F703DD
:100AA000232A15010506E319C6FD54C182803717B4
:100AB0000140E310E5F603C7C18121DF81BFE39C5C
:100AC00057F810C949BFE39F57FC23281501D9BF28
:100AD000B71701406316F50083C7C18191C3B58183
:100AE00008456D8D3335A0008280B717014063162D
:100AF000F50083C7C18191C3B58148456D8D3335FC
:100B0000A0008280B71701406316F50083C7C1813A
:100B100091C3B5810CC98280B71701406316F500F7
:100B200083C7C18191C3B5814CC98280B717014089
:100B30006316F50083C7C18191C3B58119C20CC981
:100B400082804CC9828023A0A18282803717024014
:100B50005C439146B18B6385D700A1466382D7067B
:100B6000B7177A00938707201CC1371602405C42F2
:100B700037070020130707019183BD8BBA97942391
:100B80001C41B3D7D7005CC15442A1829D8ABA965A
:100B90009422B3D6D70014C55442AD829D8A3697AD
:100BA0001823B3D7E7005CC55842398393763700E2
:100BB0001387418036971823B3D7E7021CC9828078
:100BC0005C435843C166C983BD8B758F8907C54691
:100BD0006393D700C94701EF3747024003270780D7
:100BE000418B09CF37177A001307072021A8371741
:100BF000024058439316E700E3D606FE37173D0040
:100C000013070790B387E70285B799C537170240E6
:100C10001C4F5D8D08CF8280B7170240984F134557
:100C2000F5FF798D88CF828099C5371702405C4FD8
:100C30005D8D48CF8280B7170240D84F1345F5FF2E
:100C4000798DC8CF8280EFF2AFCE1629F577FD17E8
:100C5000F58FF621DA257971D58F1EA95625FD77F6
:100C60009387379FF58FD6212A842EC6D58F962558
:100C7000D58FB625D58F5EA55E29C207C18393F7B0
:100C8000F7CFD98F5EA96808D135B7470140938760
:100C90000780B245631EF402A2576547B387E70297
:100CA0009841930640060A07B3D7E70233D7D70225
:100CB000B3F7D7021207920793872703B3D7D70258
:100CC000BD8BD98FC207C1831EA445616FF08FC849
:100CD0009257E1B791C55E250967D98F5EA58280DD
:100CE0005A25F977FD17F98FD5BF13F7F50F85470B
:100CF0001583B395B7006319F7009307C5009843B0
:100D000001CED98D8CC38280894693074501E318B3
:100D1000D7FE93070501E5B793C5F5FFF98DDDB75C
:100D200093F5F51F4EA182800A216D8D3335A00009
:100D30008280B707002083A7070837177A001307B8
:100D40000720B3D7E70293F7F70F2383F182130746
:100D5000803EB387E7022392F1828280B7F700E0FA
:100D6000D8438146799BD8C303D741823306A70273
:100D700090CBD4CB98431367070198C3984313676C
:100D8000170298C3D843058B75DF9843799B98C3A6
:100D90008280EFF24FB8B7440140AE8932890144F6
:100DA00093840480634524014A856FF00FBA93054C
:100DB00000042685953F65DDB3878900838507009C
:100DC00026850504C205C181A13FE9BF1387818043
:100DD0001C43938641AF3E95636BD500B756002008
:100DE0009386068063E5A60008C33E858280FD5792
:100DF000EDBFB3C7A5008D8B3307C50081E78D47D5
:100E000063EDC700AA87637EE50894218507850501
:100E1000A38FD7FEE3EBE7FE828093763500AA87A7
:100E200089CA942185078505A38FD7FE93F63700DD
:100E3000C5BF9376C7FF138606FE63F0C70683A37C
:100E4000050083A2450083AF850003AFC50083AED4
:100E5000050103AE450103A3850183A8C501938560
:100E6000450223A0770003A8C5FF23A2570023A4AF
:100E7000F70123A6E70123A8D70123AAC70123ACC2
:100E8000670023AE17019387470223AE07FF75B7AC
:100E900090419107910523AEC7FEE3EBD7FEE3E651
:100EA000E7F6828039713EDA2ED232D436D63AD87D
:100EB00042DC46DE9387C18022CC804326CA06CE20
:100EC000AA8409C41C4C99E32285ED290C445410D2
:100ED0002686228536C6EF007012F2406244D24464
:100EE00021618280011126CA4AC806CE22CC4EC694
:100EF00052C4AA842E8901C51C4D91E3E1219C4C6A
:100F0000804499E326857D29971700009387076819
:100F1000631BF402C0405E24A18BB1C71C48A1C76B
:100F2000FD59294A1C4483450900FD17B1E91CC439
:100F300063DD07062286A94526856120FD576308E3
:100F4000F502294535A0971700009387276663149B
:100F5000F4008044C9B79717000093872761E31C0A
:100F6000F4FAC0444DBFA2852685112A55D97D5576
:100F7000F2406244D2444249B249224A0561828029
:100F80001CC4050963D70700184C63CAE7006388CF
:100F900045011C401387170018C08CA361B7228637
:100FA00026850520E31035F9D9B71C4013871700B3
:100FB00018C0294798A371B79387C180AA85884331
:100FC00015B7011122CC26CA4AC806CE4EC6AA843D
:100FD0002E89328401C51C4D91E3ED269717000040
:100FE0009387C75A6317F406C0401C4C1CC45E2488
:100FF000A18BC1C31C48B5CF1C4808409379F90F99
:101000001379F90F1D8D5C486346F500A28526858E
:10101000692C25E51C440505FD171CC41C401387DD
:10102000170018C0238037015C486388A7005E243E
:10103000858B81CBA9476316F900A2852685B52447
:101040000DEDF24062444A85D2444249B2490561FD
:10105000828097170000938767556314F4008044DB
:1010600069B79717000093876750E310F4F8C044FE
:10107000ADBFA2852685212041D17D59D9B7411127
:101080009387C18026C2844322C44AC006C62A89E7
:101090002E8489C49C4C99E326852D269717000041
:1010A0009387C74E631BF402C0400317C400931715
:1010B0000701C18393F68700ADEA93F6070195EE29
:1010C000A5472320F900136707045AA47D55B240B1
:1010D000224492440249410182809717000093877D
:1010E000E74C6314F4008044C9B797170000938756
:1010F000E747E31CF4FAC0444DBF918B9DC34C58A5
:1011000089C9930744046384F5004A853123232A5F
:1011100004025E242322040093F7B7FD5EA41C485A
:101120001CC05E2493E787005EA41C4899EB5E24F4
:101130001307002093F707286385E700A2854A85F7
:10114000A1215E2413F717001DC35C48232404006B
:10115000B307F0401CCC1C480145B5FB8317C40005
:1011600013F707082DD793E707045EA485B7898B8B
:10117000014791E3584818C4F9BFDE25011122CC7C
:1011800026CA06CE4AC84EC613F78700AA842E8404
:1011900079EBD841634DE000B841634AE000014576
:1011A000F2406244D2444249B249056182805854B7
:1011B0007DD703A904009396370123A0040063DBC5
:1011C000060670485E24918B99C75C401D8E5C5862
:1011D00099C33C401D8E5C540C50814626858297F5
:1011E000FD575A24631DF5009440F54763E8D70680
:1011F000B70740208507B3D7D700858BA5C31C4808
:10120000232204001CC09317370163D80700FD5741
:101210006314F5009C4091E368C84C5823A0240156
:10122000BDDD930744046384F5002685F526232A53
:101230000402B5B70C500146854626850297FD5736
:101240002A86E311F5F89C40B5DF75476385E70012
:1012500059476393E70423A0240191B71367070458
:101260005AA47D5535BF83A90501E38A09F203A974
:1012700005008D8B23A0350133093941014791E3E6
:10128000D84918C4E35D20F11C540C50CA864E8620
:10129000268582976347A0005E2493E707045EA437
:1012A000C9B7AA993309A940F1BF9C49B9CF011127
:1012B00022CC06CE2A8411C51C4D81E72EC61922E8
:1012C000B245971700009387672C639BF5004C404D
:1012D0008397C50095C722856244F240056171BDC0
:1012E000971700009387872C6394F5000C44CDB7C3
:1012F0009717000093878727E39CF5FC4C44C9BFF0
:10130000F2406244014505618280014582804111BD
:1013100022C406C62A844EA572A5232005002322D6
:101320000500232405002322050623280500232A7F
:101330000500232C0500214681451305C505EFE076
:101340003FE297170000938767B15CD097170000C2
:10135000938787B31CD497170000938767B75CD433
:10136000971700009387C7B900D01CD8B240224419
:101370004101828097050000938565F3A9A2411180
:1013800026C2130680069384F5FFB384C4024AC0C4
:101390002E8922C406C6938544071D262A8401CDC2
:1013A0002320050023222501310508C41386840665
:1013B0008145EFE0FFDA2285B2402244924402499F
:1013C000410182801C4DADE3411106C622C497073E
:1013D0000000938767FA1CD5938701819C432324DF
:1013E000050423260504232805046314F500854716
:1013F0001CCD2A841D2848C02285052808C42285C2
:101400002D2048C4484001469145113708440546FF
:10141000A545F53D48440946C945D53D85471CCC01
:10142000B240224441018280828041119387018130
:1014300026C284434AC006C69C4C22C42A8999E32A
:1014400026854937938484048044DC40FD1763D6A5
:1014500007009C40B9CF8440C5BF0317C40039E7DB
:10146000C1778507232204062320040023220400D9
:10147000232404005CC423280400232A0400232C12
:101480000400214681451305C405EFE07FCD232AE2
:101490000402232C040223240404232604042285AA
:1014A000B2402244924402494101828013048406DE
:1014B00071BF91454A85E13588C051FDB147232070
:1014C000F9000144E9BF797122D44AD052CC56CAFE
:1014D0005AC85EC606D626D24ECE2A8AAE8A1304D3
:1014E00085040149054BFD5B09ECB25022544A8545
:1014F00092540259F249624AD24A424BB24B456178
:101500008280044483294400FD1963D4090000400B
:10151000E1BFDE24637BFB008397E40063877701F0
:10152000A6855285829A3369A90093848406E9BF0F
:101530001971A6DAAE848395E500A2DC86DE3284DA
:1015400063DB0500DE2423A0060093F7070885E788
:10155000930700401DA0300836C6EF00F01FB246CA
:10156000E34205FE7247BD67F98F7977BA9793B763
:1015700017009CC2F1BF930700041CC0F6506654CC
:10158000D654014509618280DE25011122CC06CEA8
:1015900026CA4AC8898B2E8489CF930774041CC03D
:1015A0001CC885475CC8F2406244D2444249056188
:1015B000828074003000AA84A53FA2452A8926852E
:1015C000012219E98317C40013F7072069FFF19B73
:1015D00093E727005EA4D1B7970700009387C7D988
:1015E0009CD45E2408C008C893E707085EA4A247FD
:1015F0005CC8B24781CF8315E4002685EF007018E0
:1016000011C55E24F19B93E717005EA45E24336945
:10161000F9002316240141BFDDC183A7C5FF411195
:1016200022C406C626C21384C5FF63D307003E94B6
:10163000AA84EF00D01B938781829C4381EF2322F1
:10164000040023A481822244B240268592444101B1
:101650006F00101A637EF40014403307D4006396C1
:10166000E7009843DC43369718C05CC0D9BFBA87FF
:10167000D84319C3E37DE4FE94433386D700631F48
:1016800086001040B29694C33386D700E31DC7FA94
:1016900010435843B29694C3D8C375B76375C4005A
:1016A000B1479CC04DB71040B306C4006316D700C5
:1016B00014435843B29614C058C0C0C369B782805F
:1016C000011126CA93843500F19806CE22CC4AC86F
:1016D0004EC6A104B14763F3F404B14463E2B40419
:1016E0002A89EF00D0109387818298433A8439E0A9
:1016F0009387C1829C4391E781454A850D2F23A69C
:10170000A182A6854A852527FD5963193507B1476A
:101710002320F9004A85EF00B00D29A0E3D004FC96
:10172000B1471CC10145F2406244D2444249B2492A
:10173000056182801C40858F63CF0702AD4663F64A
:10174000F6001CC03E9404C031A05C4063138702C5
:1017500023A4F1824A85EF00B0091305B400930772
:10176000440061993307F5405DDF3A94898F1CC0CE
:101770005DBF5CC3C5B72287404095BF13043500E9
:101780007198E30285FCB305A4404A854D25E31C0E
:1017900035FBB5BF1C46FD171CC663DA0700184EA3
:1017A00063C5E700A9476394F5006FF09F811C4271
:1017B0002E851387170018C28CA38280011122CCBA
:1017C00026CA4AC84EC652C406CE2A89AE89328479
:1017D000B304D6007D5A63149400014501A80C207F
:1017E0004E864A85453F0504E31745FFF2406244B3
:1017F000D2444249B249224A05618280357122CDE4
:1018000026CB4AC94EC706CF52C556C35AC1DEDEE3
:10181000E2DCE6DAAA89AE843289368409C51C4D39
:1018200099E3EFF03FBA97170000938727D66397A5
:10183000F40C83A44900DE24A18BFDC39C48EDC3B6
:1018400093070002A304F1029307000302D22305C9
:10185000F10222C6930B5002971A0000938A0AD70E
:10186000054C294B4A841C2099C3639E770DB30C09
:101870002441638D0C00E6864A86A6854E853D3F51
:10188000FD57630FF51C9256E69636D21C206389ED
:10189000071CFD571309140002C802CE3ECA02CC31
:1018A000A309010482D483450900154656852527DE
:1018B00013041900C24751E913F7070109C71307B9
:1018C0000002A309E10413F7870009C71307B00258
:1018D000A309E104834609001307A002638FE6060B
:1018E000F2474A84814625461820930514001307C1
:1018F00007FD6377E60AB5CA3ECE85A897170000B4
:101900009387C7CA6395F40083A489002DB79717FE
:1019100000009387A7C5E390F4F283A4C90021BF18
:10192000A6854E85EFF0AFF501DD7D55FA406A449E
:10193000DA444A49BA492A4A9A4A0A4BF65B665C33
:10194000D65C0D618280050439BF330555413315DE
:10195000AC00C98F3EC82289B9B732479306470009
:10196000184336C6634707023ACE18209307E002B1
:10197000631DF70418309307A002631BF702B247F8
:101980000904138747009C433AC663C107023ECA55
:101990002DA83307E04093E727003ACE3EC8F1B7C1
:1019A000B387670385462E84BA973DBFFD57C5B7F9
:1019B000050402CA81468147254618209305140074
:1019C000130707FD6374E606F9F20C200D461715A0
:1019D0000000130525C0012511CD9717000093873E
:1019E00067BF1D8D93070004B397A7004245050408
:1019F0005D8D2AC80C201946171500001305C5BDBA
:101A0000130914002304B102F92335C197E7FFFF3E
:101A10009387475F95E74247B2471377071009CF8F
:101A200091073EC69257D2973ED22DBDB38767032A
:101A300085462E84BA9751B79D07E19BA107D5B77C
:101A40007800970600009386A6D726860C084E8558
:101A500097000000E7000000FD572A8AE314F5FC18
:101A6000DE2493F70704E39207EC1255C1B5780022
:101A7000970600009386C6D426860C084E85012A58
:101A8000E1BF797156CA9C49BA8A984522D426D2B8
:101A90004ECE52CC06D64AD05AC85EC6AA892E84EB
:101AA000B284368A63D3E700BA879CC00347340404
:101AB00019C385079CC01C4093F7070281C79C404F
:101AC00089079CC00329040013796900631A09007F
:101AD000130B9401FD5B5C449840998F634CF904AF
:101AE0001C408346340493F70702B336D000A5EBBD
:101AF00013063404D2854E85829AFD576303F5049C
:101B00001C4011469840998B544481446397C70008
:101B1000B384E64063D3040081441C4418486354F2
:101B2000F700998FBE94014969047D5B6398240591
:101B3000014509A885465A86D2854E85829A631E3C
:101B400075017D55B250225492540259F249624AAD
:101B5000D24A424BB24B456182800509ADBF330783
:101B6000D40013060003A301C7040347540493875A
:101B70001600A2978906A381E7049DBF85462286A9
:101B8000D2854E85829AE30E65FB050945B77971CA
:101B900022D426D24AD04ECE06D652CC56CA5AC8E5
:101BA000B689942D930790063289AA842E841386D1
:101BB0003504638DF60263E2D706930780056385DB
:101BC000F61863EDD700638D062093073004638E0B
:101BD000F60A930A24042301D404C9A0930730060B
:101BE0006385F60A93074006E395F6FE1C4008431A
:101BF00093F6070893054500C5C61C410CC363D87E
:101C000007001307D002B307F040A301E4049716BE
:101C100000009386E69C294765A893070007638127
:101C2000F61663E5D7029307E0066388F618930774
:101C3000F006E390F6FA0C401C4313F805081385F0
:101C400047006307080608C39C4385A8930750070D
:101C5000E383F6FE930780076388F6129307300745
:101C6000E399F6F61C43D04181459386470014C39F
:101C700083AA07005685852601C53305554148C00E
:101C80005C401CC8A301040461A81C43930A2404FB
:101C9000938647009C4314C32301F4048547D5B7BA
:101CA00093F607041C410CC3B9DAC207C18781BF90
:101CB00093F5050408C3C9D99E231307F00663866C
:101CC000E60E971600009386A6912947A301040407
:101CD0004C400CC463C5050008406D9908C099E3E9
:101CE000B28A89CDB28AB3F5E702FD1AB6958C2186
:101CF0002380BA00B3D5E70263FFE70AA147631E5A
:101D0000F7001C40858B91CB58401C4863C7E70007
:101D100093070003A38FFAFEFD1A3306564110C83D
:101D20004E87CA867000A2852685A13B7D5A631D19
:101D3000450B7D55B250225492540259F249624AE1
:101D4000D24A424B45618280A382D5049716000097
:101D5000938606890C40084313F805081C411105B9
:101D6000630D080208C313F7150001C793E50502C8
:101D70000CC04147A1FF0C4093F5F5FD0CC0B9B76D
:101D80009C4193E707029CC193078007A302F404D8
:101D9000971600009386068675BF13F8050408C3DE
:101DA000E30308FCC207C1837DBF9716000093863A
:101DB0002683214721BFAE873DB794411C43CC49C0
:101DC00013F80608138547006306080008C39C4300
:101DD0008CC339A008C393F606049C43F5DA8EA39E
:101DE00023280400B28A2DBF14485686CA8526854A
:101DF0008299E30045F51C40898B8DE7B247484442
:101E0000E35AF5F23E853DB785465686CA85268556
:101E10008299E30065F3050A5C443247998FE345F4
:101E2000FAFEE9BF014A930A94017D5BF5B74111BF
:101E300022C42A842E8523A801AE06C6EFE01FF92E
:101E4000FD576317F500938701AF9C4391C31CC0F6
:101E5000B240224441018280411122C42E848395E4
:101E6000E50006C67922634905007C48AA977CC82C
:101E7000B2402244410182805E247D777D17F98F34
:101E80005EA4FDB7DE25011122CC26CA4AC84EC683
:101E900006CE93F70710AA842E843289B68991C79B
:101EA0008395E5008946014609225E247D777D17EA
:101EB000F98F5EA48315E4006244F240CE864A8620
:101EC000B24942492685D244056125A8411122C460
:101ED0002E848395E50006C6C928FD575A24631A47
:101EE000F500FD77FD17F98F5EA4B2402244410151
:101EF00082808567D98F5EA468C8C5BF8395E500D9
:101F000005A8411122C42A842E85B285368623A8CD
:101F100001AE06C6EFE0FFE7FD576317F5009387B4
:101F200001AF9C4391C31CC0B24022444101828056
:101F3000411122C42A842E8523A801AE06C6C520DD
:101F4000FD576317F500938701AF9C4391C31CC0F5
:101F5000B240224441018280411122C42A842E854C
:101F6000B28523A801AE06C6C920FD576317F50048
:101F7000938701AF9C4391C31CC0B24022444101EE
:101F80008280411122C42A842E8523A801AE06C670
:101F90005D20FD576317F500938701AF9C4391C304
:101FA0001CC0B240224441018280411122C42A84D3
:101FB0002E85B285368623A801AE06C65920FD5768
:101FC0006317F500938701AF9C4391C31CC0B240D7
:101FD00022444101828093F5F50F2A966314C500CF
:101FE000014582801C21E38EB7FE0505C5BF8280B6
:101FF0008280411122C42A842E85B285368623A888
:1020000001AE06C6A920FD576317F500938701AFFF
:102010009C4391C31CC0B24022444101828093077B
:10202000800523A8F1AE7D5582809307800523A803
:10203000F1AE7D5582809307800523A8F1AE01455E
:1020400082809307800523A8F1AE7D558280930797
:10205000800523A8F1AE7D5582800000AE94C7B004
:10206000C4A3CABD3A20B9A48F53C4A3CABD0D00EE
:10207000AE94C7B0C4A3CABD3A20CAB9D3C3D5DF92
:10208000C4A3CABD0D000000AE94C7B09C79D4872C
:10209000ED97C4BF3A2025730D0A0000AE94C7B077
:1020A0009C79C1BF86CECEBB3A2025730D0A0000B5
:1020B000C0DBD38B9C79C1BFB4CE94B53A202564E4
:1020C0000D0A000050313420434833325632303349
:1020D0004738523620CFB5BD79B3F5CABCBBAFCDBA
:1020E000EAB3C90D00000000842400008C24000025
:1020F00094240000A0240000AC2400004824000028
:102100005024000058240000CEB4D6AA00000000DD
:10211000B3F5CABCBBAF85A294B5B4FAB461B1ED56
:102120002E2E2E0D0000000085A294B5B1EDD0A397
:10213000F29ECAA794A1A3ACDD64C8EBC4ACD54A97
:10214000D6B50D0085A294B5B1EDD0A3F29EB3C96A
:10215000B9A60D00AE61C6B7D0CDCC963A202564A5
:102160000D0A0000ED67F377B0E6B1BE3A202564B2
:102170000D0A0000B4FAB461B1EDB0E6B1BE3A2088
:1021800025640D0A0000000085A294B5B1EDDD6460
:10219000C8EB0D0085A294B5B1EDB1A3B4E60D0076
:1021A0003A370001010000010018080C000000018E
:1021B00028000000000000000000000000000000F7
:1021C000000000000000000000000000000000000F
:1021D00000000000000000000000000000000000FF
:1021E00000000000000000000000000000000000EF
:1021F00000000000000000000000000000000000DF
:1024400000000000000000006D6D6F6C2F4C00005C
:102450006D672F644C000000676D2F646C000000F6
:10246000C6B7B9DCD2BA9C79D4870000B2CDC7B068
:102470009C79D48700000000B2CDE1E19C79D4873B
:1024800000000000D1AACCC700000000C4F2CBE1DC
:1024900000000000BF82C491B9CCB4BC00000000B1
:1024A000C8FDCBE1B8CAD3CDD6AC0000D1AACCC709
:1024B00028474156290000009C79D487ED97C4BF76
:1024C000C7D093519EE93A2025730D0A0000000001
:1024D000AE94C7B09C79D487B4CE94B53A20256425
:1024E0000D0A00005031342056322E3120CFB5BDB8
:1024F00079D2D186A284D30D000000005379737481
:10250000656D436C6B3A20256420487A0D0A000003
:102510004368697049443A20253038780D0A000034
:10252000997A9C79B5BD4B455931B0B4E649B0B400
:10253000CFC20D00997A9C79B5BD4B455931E94C14
:10254000B0B40D00997A9C79B5BD4B455932B0B401
:10255000E649B0B4CFC20D00997A9C79B5BD4B4520
:102560005932E94CB0B40D0000000000000000003A
:10257000000000000000000000000000000000005B
:10258000000000000000000000000000000000004B
:10259000000000000000000000000000000000003B
:1025A000000000000000000000000000000000002B
:1025B000000000000000000000000000000000001B
:1025C0000000000000000000232D302B2000000040
:1025D000686C4C0065666745464700003031323311
:1025E000343536373839414243444546000000000F
:1025F0003031323334353637383961626364656679
:0426000000000000D6
:10260400000000000000000001020304060708099E
:102614000000000001020304010203040607080984
:102624000000000088250000A8250000682500009F
:102634000000000000000000000000000000000096
:102644000000000000000000000000000000000086
:102654000000000000000000000000000000000076
:102664000000000000000000000000000000000066
:102674000000000000000000000000000000000056
:10268400004495080204060874030020200000207A
:082694002000002000000000FE
:00000001FF
