:040000006F10803DC0
:100004000000000000000000080200000A020000D6
:1000140000000000D61300000000000000000000F3
:10002400D6130000D61300000000000000000000FA
:10003400D613000000000000D613000000000000EA
:10004400D6130000D6130000D6130000D613000008
:10005400D6130000D6130000D6130000D6130000F8
:10006400D6130000D6130000D6130000D6130000E8
:10007400D6130000D6130000D6130000D6130000D8
:10008400D6130000D6130000D6130000D6130000C8
:10009400D6130000D6130000D6130000D6130000B8
:1000A400D6130000D6130000D6130000D6130000A8
:1000B400D6130000D6130000D6130000D613000098
:1000C400D6130000D6130000D6130000D613000088
:1000D400D6130000D6130000D6130000D613000078
:1000E400D6130000D6130000D6130000D613000068
:0C00F400D6130000D6130000D613000045
:10010000397101436EC619A0397141536AC866CA74
:1001100062CC5ECE19A0397101535AD056D252D456
:100120004ED64AD826DA22DC06DE330161408282CE
:1001300041114AC026C222C406C68282B24D410184
:10014000024D924C224CB24B4101024B924A224A40
:10015000B2494101024992442244B24041018280A5
:100160003D432A876373C3029377F700BDEFADE584
:10017000937606FF3D8ABA960CC34CC30CC74CC796
:100180004107E36BD7FE11E28280B306C3408A06C3
:100190009702000096966780A6002307B700A30683
:1001A000B7002306B700A305B7002305B700A304D3
:1001B000B7002304B700A303B7002303B700A302CB
:1001C000B7002302B700A301B7002301B700A300C3
:1001D000B7002300B700828093F5F50F9396850052
:1001E000D58D93960501D58D61B79396270097021B
:1001F000000096968682E78086FA9680C1171D8F4A
:100200003E96E374C3F8A5B701A0B707EFBE37E782
:1002100000E0938707083CC701A0EFF2DFEF411130
:100220008545314502C202C402C6EF10C0513714E1
:1002300001409307000C41497C824C008D47130517
:1002400004C04AC63EC4EF10E02E8567938707C0FE
:100250007C824C0093078004130504C03EC6EF1057
:10026000602D930700104C00130504807C824AC661
:10027000EF10402CE1774C00130504C07C824AC685
:10028000EF10402B914489494C0013050480231240
:10029000310126C6EF10002A930700044C00130515
:1002A00004807C8226C6EF10E02885474C001305A9
:1002B00004C07C8226C6EF10E0274C0013050480A2
:1002C0002312210126C6EF10E026930700084C00F8
:1002D000130504807C8226C6EF10C0254C00130550
:1002E00004C02312310126C6EF10C0241305048078
:1002F00093050010EF106036130504C0A165EF10E0
:10030000C035130504C093050004EF104036930573
:100310000008130504C0EF10803541013DB5EFF230
:100320003FE101118545114502C202C402C602C85F
:1003300002CA02CC02CEEF1000418545370502000B
:10034000EF10404291477C8237140140E1473EC69E
:100350004C008D47130504803EC4EF10A01DA1473B
:100360007C824C0093078004130504803EC6EF1086
:10037000601CF16737440040938707203EC80C0893
:10038000B7070C00130504403ECC02CA231E01002F
:10039000EF10203F854513050440EF1060470561CD
:1003A00055BBEFF25FD73714014085659385058013
:1003B000130504C0EF1020272A8A93050040130577
:1003C00004C0EF104026B707002083C60708054782
:1003D000AA8993840708639CE600631A0A003735EC
:1003E00000001305C5BBEF102073EF00700BB707BB
:1003F000002083C617080547138417086399E6028F
:100400006397090237350000130585BEEF10C070F1
:100410003719014093050008130509C0EF10402269
:100420009305000811C9130509C0EF10402423806B
:1004300044012300340111BB130509C0EF10E02172
:10044000FDB7EFF2FFCE37440140930404809305DB
:1004500000022685EF10203E7DD913050480EF10A1
:10046000003DCDB9EFF2DFCC0545EF108021EF0064
:10047000B06DEF10E03C55335D3571651305052017
:10048000EF100042B707002083A54708373500006A
:10049000130585C0EF100057EF00707CAA85373533
:1004A0000000130585C1EF10E05537350000130536
:1004B00085C2EF106066B52605CD373500001305FF
:1004C00005C4EF10606537350000130585C7EF10D0
:1004D000A064853FEF00C07C37350000130585C957
:1004E000EF1080637D3D13052003EF100038DDBF62
:1004F000373500001305C5C5E9B7EFF2DFC19387B3
:100500008183A9641384C188138947059384A45502
:1005100003A701820E2031463E85BA95EF10604355
:100520001A21631D97003A2111CB5A2101CB930761
:10053000C5000904E39E27FD014501B90545F5BF46
:10054000EFF27FBD3289AA892E8A13591900EF0074
:10055000B0710144914A93170401C18363E42701F8
:10056000914429A813151400B307AA008E234E95B1
:100570000504EF00F078AA84E30F55FDEF007070DA
:10058000914701456383F4000945C1B6EFF2DFB737
:10059000130101B09384C188130600409305F00F46
:1005A00008027D3E138981839389E4001384C18806
:1005B0008A201C02CA8531463E958904EF106039B5
:1005C0003109E39734FF5946814513052100493E1F
:1005D0008D679387A7737C808547DC81B7071806F2
:1005E00085073EC485679387C7C00A207C86B737D6
:1005F00001019387A7803EC831051C02A9446146CA
:100600008A853E954482EF10C034B707A4A493872F
:10061000073202CE3ECCA147A30FF100B73700004E
:1006200083A707D22A2061463ED031051C023E95A1
:100630002C0802D202D402D6EF10A03113062003F8
:1006400081450818313ED1472304F10493078025E2
:100650002315F104B7070A009387077DBEC6B707C5
:100660000500A9074A20BEC8B7071400D107230810
:100670009102BECAB70496001C0231051309400658
:10068000138A2403A94A3E95130620030C18231944
:10069000210352DA231C5105EF10A02B130620036F
:1006A0008145C810753C8D47230EF1069307800CD9
:1006B000231FF1066A20B7073C001387077D938745
:1006C00067043EC5930720033AC12316F108370794
:1006D00028001C023105130727033E95130620034B
:1006E000CC103AC32302510723132107D2D4EF10B1
:1006F000402613062003814528099D340A249307C8
:1007000000192319F10AB70982001C023105938BE5
:10071000047D3E959389C9089384040A130BC0088D
:10072000130620032C09230C5109231D210952CF44
:100730002308210B5EDB4EDD26DF2310610DEF1059
:100740004021130620038145E801193C2A24930720
:1007500020032302F10E9307401F2313F10E3105EE
:100760001C02130620033E95EC012306510D2317AE
:10077000210DD2C9DED5CED7A6D9231A610FEF102D
:10078000401D7224014781479306F6FFC206C182CD
:1007900093150701C18163EED5001307015032970D
:1007A000A30FF7BE9377160089CF094513010150B7
:1007B00041BA0C02BA958C210507AE9793F7F70F53
:1007C000C1BF37E400080C0213050480953B71FD9E
:1007D0001304048023A08182D1BFEFF27F95938719
:1007E00081836977138647051307A75585469AA322
:1007F000B6A3D6A323A40700B107E39AC7FEEF0070
:10080000B04637E5000813050580EF00F04B2A8459
:10081000EF003047914705456313F400853B6FF0C7
:100820007F93EFF25F8F9387C1883707540098C397
:10083000370784001307C706D8C33707E800130734
:10084000670B98C737076C011307A71137350000EE
:10085000D8C7130505CBB7E90008EF10E02B938448
:1008600001821389098023A02401413919E92A84CE
:1008700037350000130545CCEF10002A22856FF0B4
:10088000DF8C23A0340195392A8411E53735000027
:100890001305C5CDD5B737350000130545CFEF108B
:1008A000A027253F2A8401E523A02401C1BF3735B5
:1008B0000000130505D1EF1020260544C1B71947E4
:1008C0006367A704AA870545A9C583A60182B1C2AB
:1008D0001395170085071387C18886073A95BA973D
:1008E000035805009E230945B3870741D117C20766
:1008F000C1836360F602EFF2BF83B1062E853E86A8
:10090000B3850601EF10E00401456FF0BF84054593
:1009100082808280994763EDA7148547638B051415
:10092000EFF28FFE83A60182130101BF13890182BA
:1009300063840610930715001387C1888607131870
:100940001500BA973A989A23835708009389C1886B
:100950001D8F5117420741838947636FC70CB14709
:10096000B307F5021387818337EA0008138C81836C
:100970003E975E238507C207C1835EA3C207C98F66
:100980001CC7B7E70008938707806383F6003E8A99
:10099000328BAE8A2A84EF00302D5285EF00D032A0
:1009A0002AC6EF00102E324511478D476316E50821
:1009B000130600409305F00F0808EFF06FFACE8B96
:1009C000938CE9009384C1888A201C08E285314613
:1009D0003E958904EF00F077310CE3979CFE014CC3
:1009E0009D448327090003D70B00B107B385E700B7
:1009F0001305C7001C083E95631584055A86D685E5
:100A0000050CEF001075890BE31D9CFC03D6E90073
:100A1000014781479306F6FFC206C182931507017D
:100A2000C18163E7D502130701413297A30FF7BED7
:100A30009377160095C791473E85130101416FF0EA
:100A40002FF003D62B005116198E420641824DBF5E
:100A50000C08BA958C210507AE9793F7F70F7DBF69
:100A60000C085285F13CAA8779F523204901E9B7A2
:100A700085473E85828013083006636DA8069388FB
:100A8000F5FF93F8F80F2D430548636613079308A5
:100A9000F6FF93F8F80F7943636F1305DD4863ECB5
:100AA000D8049308B00363E8E80463E6F804EFF2BF
:100AB0008FE60111B2892E8AAA8A61462C0001456F
:100AC0003E84BA843689E53B09480DE161462C0035
:100AD00023095101A3094101230A3101A30A21017C
:100AE000230B9100A30B810035352A8842850561CF
:100AF0006FF0AFE505484285828031CDEFF2AFE17E
:100B0000AA8A01110545A9C521C6B9C231C3A9C325
:100B1000B2892E8A61462C0001453E84BA8436890A
:100B2000793B05ED834721012380FA00834731019A
:100B30002300FA00834741012380F90083475101D4
:100B40002300F900834761019CA0834771011CA029
:100B500005616FF08FDF054582800945D5BFEFF253
:100B60002FDD011161462C000145913B854701E9CC
:100B70003C8761462C0085077C87693BAA873E85B8
:100B800005616FF02FDD03A501828280B9C1AA87BC
:100B9000054521C6B9C2114709456360F704EFF264
:100BA0002FD93E85938741813E9508213971B284C2
:100BB0002E89130620036C003684113309ED3C871F
:100BC0002310F900BC809EA0BC811EA021616FF0A3
:100BD0006FD8054582800D45D5BF82809DCDAA87FF
:100BE000054521C211470945636DF702EFF24FD465
:100BF00013854181AA97882339713284AE84130604
:100C000020036C006D3901ED834741029CA083579E
:100C100061021EA021616FF0EFD3054582800D4572
:100C2000D5BF8280ADC9AA87054535CAADCAEFF2E6
:100C30008FCE1308F7FF1378F80F3971054A636FE9
:100C4000050311480945636BF80213854181AA9792
:100C50008823B2842E89130620036C00BA89368457
:100C6000B93905ED639F49018357A1022310F900AB
:100C70008357C1029EA08357E1021EA021616FF03D
:100C8000CFCC835701032310F900835721039EA083
:100C900083574103DDB7054582800D45C5B7828086
:100CA000EFF20FC9373500005D71130545D2EF0033
:100CB000B066853E11C937350000130505D4EF0035
:100CC000B06561616FF00FC9373500001305C5D5F8
:100CD000EF00906461466C080145D536630A050E45
:100CE00037350000130545D7EF0010633735000096
:100CF000130545E6EF00506261466C080545C136B4
:100D00006305051C373500001305C5E7EF00D0600B
:100D100037350000130505F4EF00106013062003BB
:100D20006C080945693E6304052837350000130542
:100D300045F5EF00705E3735000013054502EF0002
:100D4000B05D7C081307A1013408130661014C084B
:100D5000130521015D3363070534373500001305A2
:100D6000C503EF00705B3735000013054510EF0039
:100D7000B05A113DAA85AA84373500001305C51164
:100D8000EF00504861466C080145153E6304053E7E
:100D900037350000130545D7EF00105837350000F0
:100DA0001305051AEF00505793062101100893050B
:100DB000E1000145E13B63040542373500001305BE
:100DC000851BEF007055373500001305C52AC5BDDA
:100DD000373500001305C5D8EF0010548345C10115
:100DE0008346D1019307400633F6F50237350000FC
:100DF0001305C5D933F7F602B3D5F502B3D6F6021B
:100E0000EF00504003460102A9478345F101B37644
:100E1000F60237350000130545DC3356F602EF00C5
:100E2000703E0346F1028355210237350000130559
:100E300005DEEF00303D8344F1028D47035421026B
:100E400093851400B3E5F5021306A4004206373576
:100E500000004182130505E02311C102A307B1027E
:100E6000EF00503A61466C0801456D3411C53735C5
:100E70000000130545E28DBD614681456808EFF02D
:100E80002FAE61466C080145EFF07FA3E31A05E43D
:100E90008347F1026386970083572102639287029A
:100EA000373500001305C5E3EF00104761466C08B5
:100EB0000145A307910223118102EFF0BFA53DB5C3
:100EC00037350000130505E5C5B7373500001305B4
:100ED00045E9EF0070448346F1010346E101AC8629
:100EE00037350000130545EAEF00D0318305D10204
:100EF000A9478306E10213D7F5413346B700198E9F
:100F00003366F60237350000130505EDB3C5F5026B
:100F1000B386F602EF00102F9547373500008304A3
:100F2000D1021546A306F10281458D47F946130506
:100F300085EF0304E1022307F102EF00B02C6146C4
:100F40006C080545EFF01F9D11C5373500001305EE
:100F500085F26DBB614681456808EFF06FA0614680
:100F60006C080545EFF0BF95E31E05D83257B7076B
:100F70000001938707F07D8FB70703009387075021
:100F80006302F702373500001305C5E3EF00D038E0
:100F900061466C080545A306910223078102EFF024
:100FA0007F97BDB337350000130505E5C5B7373565
:100FB0000000130585F6EF003036835621020356F4
:100FC0000102AC87373500001305C5F7EF00902309
:100FD000035661038345410337350000130545FA85
:100FE000EF0050228356E1030356C1038355A1034A
:100FF00093074006B386F602373500001305C5FB9C
:101000003306F602B385F502EF00D01F9307800781
:1010100037350000A4871306C05DFC879305800761
:10102000BD47130585FE0354A103231DF102EF0004
:10103000701D130620036C080945EFF0BF8D11C524
:101040003735000013050501EDB113062003814576
:101050006808EFF0EF90130620036C080945EFF0E5
:101060001F86E31405CCB887930780076317F70042
:101070000357A103BD476302F7023735000013058C
:10108000C5E3EF007029130620036C080945E487C7
:10109000231D8102EFF01F8879B937350000130551
:1010A00005E5C5B70348C1018347A1010347810195
:1010B0008346610103464101834521013735000024
:1010C00013050505EF00101403478101E14793065E
:1010D000C00305073367F7028347A10103464101B7
:1010E00083452101F9070348C10137350000130585
:1010F0000508B3E7D702834661011374F70F93F431
:10110000F70FEF0030108347C101034661018345AB
:101110004101034521012687A286EFF0DF9511C525
:10112000373500001305050B2DB97C081307A10105
:101130003408130661014C0813052101EFF0FF9BF1
:10114000E31D05C0834781016316F4008347A101B5
:101150006387F400373500001305450C19B1834649
:10116000C101373500002686A2851305850DEF00E5
:101170007009D5BE0354210261466C080504231191
:101180008102EFF02FF911C537350000130545E254
:1011900021B1EFF05F9F2A866397A40037350000E6
:1011A00013058513D5BE37350000A6851305C51474
:1011B000EF00500561466C080145EFF04FF0E31970
:1011C00005BC83572102638787003735000013056C
:1011D0000517D9B6373500001305851875BEB080E0
:1011E0002C87B481373500001305051DEF009001F1
:1011F00050089305D1000145EFF05F9E11C53735CA
:1012000000001305052075BEB0828C8637350000BE
:1012100013058521EF00007F05479306A1013008E3
:10122000930561010145EFF0FF9F11C537350000BF
:101230001305452379B6B485B084AC839307400683
:101240003306F602373500001305C524B385F502D1
:10125000B386F602EF00007B61466C080145EFF0B3
:101260000FE603542102EFF09F8F11C537350000C0
:1012700013050528B9B66C086146EFF04FE4035634
:10128000210237350000A28513054529EF0080773C
:1012900061466C08014523118102EFF0AFE725B6E6
:1012A000B71702409843B706FFF01367170098C3BB
:1012B000D843758FD8C39843B706F7FEFD16758FD0
:1012C00098C39843B706FCFFFD16758F98C3D843A3
:1012D000B70601FFFD16758FD8C337079F0098C763
:1012E000B746024003A706801367070123A0E680E4
:1012F000D843B706C1FFFD16D8C3D843D8C3D843D7
:1013000013670740D8C3D843758FD8C3D843B706EF
:101310003C00558FD8C39843B7060001558F98C33A
:10132000984393166700E3DD06FED843B7160240E4
:10133000719BD8C3D84313672700D8C32147DC4229
:10134000B18BE39EE7FE8280B7160240DC42114675
:10135000B18B138741806385C70021466388C7022C
:10136000B7177A00938707201CC3B7170240DC43E6
:10137000918393F6F700B707002093870700B6978D
:1013800094231C43B3D7D7001CC38280DC42D442D1
:101390004166C983BD8BF18E890745466393C700BB
:1013A000C94781EEB746024083A60680C18A89CE2E
:1013B000B7167A009386062021A8B7160240D442B9
:1013C0001396E600E35606FEB7163D009386069098
:1013D000B387D70251BF01A097F1FF1F9381814AC4
:1013E00017410020130101C217250000130585F7DE
:1013F00097F5FF1F938505C11386018263FAC50027
:101400008322050023A0550011059105E3EAC5FEDE
:10141000138501829385018A6377B5002320050037
:101420001105E36DB5FEFD42739002BC8D427390D1
:101430004280930280087390023097F2FFFF9382FC
:10144000A2BC93E2320073905230EFF07FE597F246
:10145000FFFF938262017390123473002030B7F75C
:10146000FF1F03A547708280B707674537270240F3
:10147000938737125CC3B797EFCD9387B79A5CC356
:101480008280372702401C4B93E707081CCB8280E1
:10149000372702405C470545858B91E748474189DE
:1014A000133515000D058280EFE29FC82A8485441C
:1014B000C5376318950019E0154529A0D13F7D1463
:1014C000CDBF7DD86FE01FC9EFE29FC6AA84370564
:1014D0000B00D93F91476313F502372402401C48A3
:1014E00037050B0093E727001CC844C81C4893E746
:1014F00007041CC8553F1C48F59B1CC86FE09FC5DE
:10150000EFE21FC34111AA8415652EC6713F9147B2
:10151000B245631EF500372402401C48156593E769
:1015200017001CC88EA049371C48F99B1CC84101F4
:101530006FE05FC29C4513F7070113F8F70001C77E
:10154000D8413368E80037270240145B3707000FA3
:10155000758F4DEB85462382D18237170140631585
:10156000E5009A2135839AA18E2113F7F50F39C32F
:1015700018418146854E3D4F930F800293028004AF
:10158000214E3396DE00B3F8C5006311160393981D
:10159000260033131F011343F3FF3377E300B3181F
:1015A000180133E7E8006397F70750C98506E39A07
:1015B000C6FD18C11307F00F6375B70454412146E7
:1015C000854E3D4F930F800293028004414EB398A5
:1015D000CE0033F715016392E802131726000117B6
:1015E0003313EF001343F3FFB376D3003317E80050
:1015F000D98E6395F703232A15010506E319C6FD65
:1016000054C1828037170140E310E5F603C74182D9
:1016100021DF81BFE39C57F810C949BFE39F57FC06
:1016200023281501D9BFB71701406316F50083C7FA
:10163000418291C3B58108456D8D3335A00082800C
:10164000B71701406316F50083C7418291C3B58186
:1016500048456D8D3335A0008280B7170140631671
:10166000F50083C7418291C3B5810CC98280B71749
:1016700001406316F50083C7418291C3B5814CC90F
:10168000828023A4A1828280371702405C43914666
:10169000B18B6385D700A1466382D706B7177A005E
:1016A000938707201CC1371602405C423707002091
:1016B000130707019183BD8BBA9794231C41B3D7BD
:1016C000D7005CC15442A1829D8ABA969422B3D6B7
:1016D000D70014C55442AD829D8A36971823B3D7DC
:1016E000E7005CC5584239839376370013878180C1
:1016F00036971823B3D7E7021CC982805C4358434E
:10170000C166C983BD8B758F8907C5466393D700B2
:10171000C94701EF3747024003270780418B09CFB4
:1017200037177A001307072021A8371702405843BC
:101730009316E700E3D606FE37173D001307079020
:10174000B387E70285B799C5371702401C4F5D8DF7
:1017500008CF8280B7170240984F1345F5FF798D67
:1017600088CF828099C5371702405C4F5D8D48CF86
:101770008280B7170240D84F1345F5FF798DC8CF47
:101780008280EFE2FF9A1629F577FD17F58FF62193
:10179000DA257971D58F1EA95625FD779387379F56
:1017A000F58FD6212A842EC6D58F9625D58FB625BE
:1017B000D58F5EA55E29C207C18393F7F7CFD98F76
:1017C0005EA96808D135B747014093870780B245C5
:1017D000631EF402A2576547B387E7029841930658
:1017E00040060A07B3D7E70233D7D702B3F7D702C9
:1017F0001207920793872703B3D7D702BD8BD98FE0
:10180000C207C1831EA445616FE0DF949257E1B720
:1018100091C55E250967D98F5EA582805A25F97723
:10182000FD17F98FD5BF93F5F51F4EA182804A2190
:101830001375F51F82800A216D8D3335A0008280DB
:10184000B707002083A7470837177A001307072038
:10185000B3D7E70293F7F70F2387F1821307803E90
:10186000B387E7022396F1828280B7F700E0D8437E
:101870008146799BD8C303D7C1823306A70290CB98
:10188000D4CB98431367070198C398431367170293
:1018900098C3D843058B75DF9843799B98C38280A2
:1018A000EFE21F892A841165011185451105613D0B
:1018B000930700207C82371501408D473EC44C00C1
:1018C000E147130505803EC6B53122C837440140C3
:1018D000B70708000C08130504803ECC02CA231E7B
:1018E000010045358545130504801D3705616FE00E
:1018F0007F86EFE25F82B7440140AE8932890144BE
:1019000093840480634524014A856FE01F84930516
:10191000000426850D3765DDB387890083850700C0
:1019200026850504C205C181FD3DE9BF1387C1803D
:101930001C439386018A3E95636BD500B756002001
:101940009386068063E5A60008C33E858280FD5726
:10195000EDBFB3C7A5008D8B3307C50081E78D4769
:1019600063EDC700AA87637EE50894218507850596
:10197000A38FD7FEE3EBE7FE828093763500AA873C
:1019800089CA942185078505A38FD7FE93F6370072
:10199000C5BF9376C7FF138606FE63F0C70683A311
:1019A000050083A2450083AF850003AFC50083AE69
:1019B000050103AE450103A3850183A8C5019385F5
:1019C000450223A0770003A8C5FF23A2570023A444
:1019D000F70123A6E70123A8D70123AAC70123AC57
:1019E000670023AE17019387470223AE07FF75B741
:1019F00090419107910523AEC7FEE3EBD7FEE3E6E6
:101A0000E7F6828039713EDA2ED232D436D63AD811
:101A100042DC46DE9387018122CC804326CA06CE73
:101A2000AA8409C41C4C99E32285ED290C44541066
:101A30002686228536C6EF007012F2406244D244F8
:101A400021618280011126CA4AC806CE22CC4EC628
:101A500052C4AA842E8901C51C4D91E3E1219C4CFE
:101A6000804499E326857D29972700009387C787BF
:101A7000631BF402C0405E24A18BB1C71C48A1C700
:101A8000FD59294A1C4483450900FD17B1E91CC4CE
:101A900063DD07062286A94526856120FD57630878
:101AA000F502294535A0972700009387E785631441
:101AB000F4008044C9B7972700009387E780E31CB0
:101AC000F4FAC0444DBFA2852685112A55D97D550B
:101AD000F2406244D2444249B249224A05618280BE
:101AE0001CC4050963D70700184C63CAE700638864
:101AF00045011C401387170018C08CA361B72286CC
:101B000026850520E31035F9D9B71C401387170047
:101B100018C0294798A371B793870181AA85884384
:101B200015B7011122CC26CA4AC806CE4EC6AA84D1
:101B30002E89328401C51C4D91E3ED2697170000D4
:101B40009387877A6317F406C0401C4C1CC45E243C
:101B5000A18BC1C31C48B5CF1C4808409379F90F2D
:101B60001379F90F1D8D5C486346F500A285268523
:101B7000692C25E51C440505FD171CC41C40138772
:101B8000170018C0238037015C486388A7005E24D3
:101B9000858B81CBA9476316F900A2852685B524DC
:101BA0000DEDF24062444A85D2444249B249056192
:101BB000828097170000938727756314F400804490
:101BC00069B79717000093872770E310F4F8C044B3
:101BD000ADBFA2852685212041D17D59D9B74111BC
:101BE0009387018126C2844322C44AC006C62A893B
:101BF0002E8489C49C4C99E326852D2697170000D6
:101C00009387876E631BF402C0400317C4009317C9
:101C10000701C18393F68700ADEA93F6070195EEBD
:101C2000A5472320F900136707045AA47D55B24045
:101C30002244924402494101828097170000938711
:101C4000A76C6314F4008044C9B79717000093870A
:101C5000A767E31CF4FAC0444DBF918B9DC34C5859
:101C600089C9930744046384F5004A853123232AF4
:101C700004025E242322040093F7B7FD5EA41C48EF
:101C80001CC05E2493E787005EA41C4899EB5E2489
:101C90001307002093F707286385E700A2854A858C
:101CA000A1215E2413F717001DC35C482324040000
:101CB000B307F0401CCC1C480145B5FB8317C4009A
:101CC00013F707082DD793E707045EA485B7898B20
:101CD000014791E3584818C4F9BFDE25011122CC11
:101CE00026CA06CE4AC84EC613F78700AA842E8499
:101CF00079EBD841634DE000B841634AE00001450B
:101D0000F2406244D2444249B2490561828058544B
:101D10007DD703A904009396370123A0040063DB59
:101D2000060670485E24918B99C75C401D8E5C58F6
:101D300099C33C401D8E5C540C5081462685829789
:101D4000FD575A24631DF5009440F54763E8D70614
:101D5000B70740208507B3D7D700858BA5C31C489C
:101D6000232204001CC09317370163D80700FD57D6
:101D70006314F5009C4091E368C84C5823A02401EB
:101D8000BDDD930744046384F5002685F526232AE8
:101D90000402B5B70C500146854626850297FD57CB
:101DA0002A86E311F5F89C40B5DF75476385E700A7
:101DB00059476393E70423A0240191B713670704ED
:101DC0005AA47D5535BF83A90501E38A09F203A909
:101DD00005008D8B23A0350133093941014791E37B
:101DE000D84918C4E35D20F11C540C50CA864E86B5
:101DF000268582976347A0005E2493E707045EA4CC
:101E0000C9B7AA993309A940F1BF9C49B9CF0111BB
:101E100022CC06CE2A8411C51C4D81E72EC619227C
:101E2000B245971700009387274C639BF5004C4001
:101E30008397C50095C722856244F240056171BD54
:101E4000971700009387474C6394F5000C44CDB777
:101E50009717000093874747E39CF5FC4C44C9BFA4
:101E6000F240624401450561828001458280411152
:101E700022C406C62A844EA572A52320050023226B
:101E80000500232405002322050623280500232A14
:101E90000500232C0500214681451305C505EFE00B
:101EA0002FAC97170000938787B15CD0971700007D
:101EB0009387A7B31CD497170000938787B75CD488
:101EC000971700009387E7B900D01CD8B24022448E
:101ED0004101828097050000938565F3A9A2411115
:101EE00026C2130680069384F5FFB384C4024AC059
:101EF0002E8922C406C6938544071D262A8401CD57
:101F00002320050023222501310508C413868406F9
:101F10008145EFE0EFA42285B24022449244024979
:101F2000410182801C4DADE3411106C622C49707D2
:101F30000000938767FA1CD59387C1819C432324B3
:101F4000050423260504232805046314F5008547AA
:101F50001CCD2A841D2848C02285052808C4228556
:101F60002D2048C448400146914511370844054694
:101F7000A545F53D48440946C945D53D85471CCC96
:101F8000B240224441018280828041119387C18105
:101F900026C284434AC006C69C4C22C42A8999E3BF
:101FA00026854937938484048044DC40FD1763D63A
:101FB00007009C40B9CF8440C5BF0317C40039E770
:101FC000C17785072322040623200400232204006E
:101FD000232404005CC423280400232A0400232CA7
:101FE0000400214681451305C405EFE06F97232ABD
:101FF0000402232C0402232404042326040422853F
:10200000B240224492440249410182801304840672
:1020100071BF91454A85E13588C051FDB147232004
:10202000F9000144E9BF797122D44AD052CC56CA92
:102030005AC85EC606D626D24ECE2A8AAE8A130467
:1020400085040149054BFD5B09ECB25022544A85D9
:1020500092540259F249624AD24A424BB24B45610C
:102060008280044483294400FD1963D409000040A0
:10207000E1BFDE24637BFB008397E4006387770185
:10208000A6855285829A3369A90093848406E9BFA4
:102090001971A6DAAE848395E500A2DC86DE32846F
:1020A00063DB0500DE2423A0060093F7070885E71D
:1020B000930700401DA0300836C6EF001020B2463E
:1020C000E34205FE7247BD67F98F7977BA9793B7F8
:1020D00017009CC2F1BF930700041CC0F650665461
:1020E000D654014509618280DE25011122CC06CE3D
:1020F00026CA4AC8898B2E8489CF930774041CC0D2
:102100001CC885475CC8F2406244D244424905611C
:10211000828074003000AA84A53FA2452A892685C2
:10212000012219E98317C40013F7072069FFF19B07
:1021300093E727005EA4D1B7970700009387C7D91C
:102140009CD45E2408C008C893E707085EA4A24791
:102150005CC8B24781CF8315E4002685EF00901854
:1021600011C55E24F19B93E717005EA45E243369DA
:10217000F9002316240141BFDDC183A7C5FF41112A
:1021800022C406C626C21384C5FF63D307003E944B
:10219000AA84EF00F01B938701839C4381EF2322E5
:1021A000040023A881822244B24026859244410142
:1021B0006F00301A637EF40014403307D400639636
:1021C000E7009843DC43369718C05CC0D9BFBA8794
:1021D000D84319C3E37DE4FE94433386D700631FDD
:1021E00086001040B29694C33386D700E31DC7FA29
:1021F00010435843B29694C3D8C375B76375C400EF
:10220000B1479CC04DB71040B306C4006316D70059
:1022100014435843B29614C058C0C0C369B78280F3
:10222000011126CA93843500F19806CE22CC4AC803
:102230004EC6A104B14763F3F404B14463E2B404AD
:102240002A89EF00F0109387018398433A8439E09C
:10225000938741839C4391E781454A85152F23AAA3
:10226000A182A6854A852D27FD5963193507B147F7
:102270002320F9004A85EF00D00D29A0E3D004FC0B
:10228000B1471CC10145F2406244D2444249B249BF
:10229000056182801C40858F63CF0702AD4663F6DF
:1022A000F6001CC03E9404C031A05C40631387025A
:1022B00023A8F1824A85EF00D0091305B4009307E3
:1022C000440061993307F5405DDF3A94898F1CC063
:1022D0005DBF5CC3C5B72287404095BF130435007E
:1022E0007198E30285FCB305A4404A855525E31C9B
:1022F00035FBB5BF1C46FD171CC663DA0700184E38
:1023000063C5E700A9476394F5006FF09F811C4205
:102310002E851387170018C28CA38280011122CC4E
:1023200026CA4AC84EC652C406CE2A89AE8932840D
:10233000B304D6007D5A63149400014501A80C2013
:102340004E864A85453F0504E31745FFF240624447
:10235000D2444249B249224A05618280357122CD78
:1023600026CB4AC94EC706CF52C556C35AC1DEDE78
:10237000E2DCE6DAAA89AE843289368409C51C4DCE
:1023800099E3EFF03FBA971700009387E7F563975B
:10239000F40C83A44900DE24A18BFDC39C48EDC34B
:1023A00093070002A304F1029307000302D223055E
:1023B000F10222C6930B5002971A0000938ACAF6C4
:1023C000054C294B4A841C2099C3639E770DB30C9E
:1023D0002441638D0C00E6864A86A6854E853D3FE6
:1023E000FD57630FF51C9256E69636D21C20638982
:1023F000071CFD571309140002C802CE3ECA02CCC6
:10240000A309010482D483450900154656852D276A
:1024100013041900C24751E913F7070109C713074D
:102420000002A309E10413F7870009C71307B002EC
:10243000A309E104834609001307A002638FE6069F
:10244000F2474A8481462546182093051400130755
:1024500007FD6377E60AB5CA3ECE85A89717000048
:10246000938787EA6395F40083A489002DB79717B3
:102470000000938767E5E390F4F283A4C90021BFCD
:10248000A6854E85EFF0AFF501DD7D55FA406A4433
:10249000DA444A49BA492A4A9A4A0A4BF65B665CC8
:1024A000D65C0D618280050439BF33055541331573
:1024B000AC00C98F3EC82289B9B73247930647009E
:1024C000184336C6634707023ACE18209307E00246
:1024D000631DF70418309307A002631BF702B2478D
:1024E0000904138747009C433AC663C107023ECAEA
:1024F0002DA83307E04093E727003ACE3EC8F1B756
:10250000B387670385462E84BA973DBFFD57C5B78D
:10251000050402CA81468147254618209305140008
:10252000130707FD6374E606F9F20C200D46171534
:1025300000001305E5DF092511CD971700009387EB
:1025400027DF1D8D93070004B397A70042450504BC
:102550005D8D2AC80C20194617150000130585DD6E
:10256000130914002304B102C12B35C197E7FFFF03
:10257000938747A995E74247B2471377071009CFDA
:1025800091073EC69257D2973ED22DBDB3876703BF
:1025900085462E84BA9751B79D07E19BA107D5B711
:1025A0007800970600009386A6D726860C084E85ED
:1025B00097000000E7000000FD572A8AE314F5FCAD
:1025C000DE2493F70704E39207EC1255C1B57800B7
:1025D000970600009386C6D426860C084E85012AED
:1025E000E1BF797156CA9C49BA8A984522D426D24D
:1025F0004ECE52CC06D64AD05AC85EC6AA892E8480
:10260000B284368A63D3E700BA879CC00347340498
:1026100019C385079CC01C4093F7070281C79C40E3
:1026200089079CC00329040013796900631A090013
:10263000130B9401FD5B5C449840998F634CF90443
:102640001C408346340493F70702B336D000A5EB51
:1026500013063404D2854E85829AFD576303F50430
:102660001C4011469840998B544481446397C7009D
:10267000B384E64063D3040081441C441848635487
:10268000F700998FBE94014969047D5B6398240526
:10269000014509A885465A86D2854E85829A631ED1
:1026A00075017D55B250225492540259F249624A42
:1026B000D24A424BB24B456182800509ADBF330718
:1026C000D40013060003A301C704034754049387EF
:1026D0001600A2978906A381E7049DBF854622863E
:1026E000D2854E85829AE30E65FB050945B779715F
:1026F00022D426D24AD04ECE06D652CC56CA5AC87A
:10270000B689942D930790063289AA842E84138665
:102710003504638DF60263E2D7069307800563866E
:10272000F61863EDD700638E062093073004638E9E
:10273000F60A930A24042301D404C9A0930730069F
:102740006385F60A93074006E395F6FE1C400843AE
:1027500093F6070893054500C5C61C410CC363D812
:1027600007001307D002B307F040A301E404971653
:1027700000009386A6BC294765A8930700076382DB
:10278000F61663E5D7029307E0066389F618930708
:10279000F006E390F6FA0C401C4313F80508138585
:1027A00047006307080608C39C4385A893075007A2
:1027B000E383F6FE930780076389F61293073007D9
:1027C000E399F6F61C43D04181459386470014C334
:1027D00083AA070056858D2601C53305554148C09B
:1027E0005C401CC8A301040461A81C43930A240490
:1027F000938647009C4314C32301F4048547D5B74F
:1028000093F607041C410CC3B9DAC207C18781BF24
:1028100093F5050408C3C9D99E231307F0066387FF
:10282000E60E97160000938666B12947A3010404BB
:102830004C400CC463C5050008406D9908C099E37D
:10284000B28A89CDB28AB3F5E702FD1AB6958C211A
:102850002380BA00B3D5E70263F0E70CA147631EFB
:10286000F7001C40858B91CB58401C4863C7E7009C
:1028700093070003A38FFAFEFD1A3306564110C8D2
:102880004E87CA867000A2852685EFF09FD57D5AB7
:10289000631D450B7D55B250225492540259F249A2
:1028A000624AD24A424B45618280A382D504971680
:1028B00000009386A6A80C40084313F805081C41A5
:1028C0001105630D080208C313F7150001C793E54E
:1028D00005020CC04147B9FB0C4093F5F5FD0CC057
:1028E000B1B79C4193E707029CC193078007A302FD
:1028F000F404971600009386A6A575BF13F8050487
:1029000008C3E30308FCC207C1837DBF971600001C
:102910009386C6A2214719BFAE8735B794411C43A1
:10292000CC4913F80608138547006306080008C35E
:102930009C438CC339A008C393F606049C43F5DA84
:102940008EA323280400B28A25BF14485686CA8560
:1029500026858299E30045F51C40898B8DE7B247B7
:102960004844E35AF5F23E853DB785465686CA850A
:1029700026858299E30065F3050A5C443247998F06
:10298000E345FAFEE9BF014A930A94017D5BF5B77E
:10299000411122C42A842E8523AE018806C6EFE0A9
:1029A000FFF8FD576317F5009387C1899C4391C3D6
:1029B0001CC0B240224441018280411122C42E84B5
:1029C0008395E50006C67922634905007C48AA97ED
:1029D0007CC8B2402244410182805E247D777D170D
:1029E000F98F5EA4FDB7DE25011122CC26CA4AC8A4
:1029F0004EC606CE93F70710AA842E843289B68974
:102A000091C78395E5008946014609225E247D77BA
:102A10007D17F98F5EA48315E4006244F240CE86F0
:102A20004A86B24942492685D244056125A841110A
:102A300022C42E848395E50006C6C928FD575A2472
:102A4000631AF500FD77FD17F98F5EA4B2402244AA
:102A5000410182808567D98F5EA468C8C5BF839510
:102A6000E50005A8411122C42A842E85B285368648
:102A700023AE018806C6EFE0DFE7FD576317F500D8
:102A80009387C1899C4391C31CC0B2402244410139
:102A90008280411122C42A842E8523AE018806C675
:102AA000C520FD576317F5009387C1899C4391C3E7
:102AB0001CC0B240224441018280411122C42A84B8
:102AC0002E85B28523AE018806C6C920FD5763173F
:102AD000F5009387C1899C4391C31CC0B240224436
:102AE00041018280411122C42A842E8523AE0188AF
:102AF00006C65D20FD576317F5009387C1899C4387
:102B000091C31CC0B240224441018280411122C4C1
:102B10002A842E85B285368623AE018806C65920C2
:102B2000FD576317F5009387C1899C4391C31CC06F
:102B3000B24022444101828093F5F50F2A96631436
:102B4000C500014582801C21E38EB7FE0505C5BF87
:102B500082808280411122C42A842E85B2853686E5
:102B600023AE018806C6A920FD576317F500938799
:102B7000C1899C4391C31CC0B24022444101828060
:102B80009307800523AEF1887D55828093078005E9
:102B900023AEF1887D5582809307800523AEF188AE
:102BA000014582809307800523AEF1887D558280A0
:102BB0009307800523AEF1887D5582804B455931BE
:102BC0002070726573736564202D20457865637588
:102BD00074696E6720706172616D657465722074CE
:102BE0006573740D000000004B455932207072650A
:102BF00073736564202D20546F67676C696E67205E
:102C00004C45440D0000000053797374656D436CAE
:102C10006B3A25640D0A00004368697049443A25FF
:102C20003038780D0A000000B3F5CABCBBAF85A2EE
:102C300094B5B4E683A6C4A3894B2E2E2E0D0000B6
:102C400085A294B5B4E683A6C4A3894BB3F5CABCE8
:102C5000BBAFCAA794A1A3A10D00000085A294B5A3
:102C6000B4E683A6C4A3894BB3F5CABCBBAFB3C952
:102C7000B9A6A3A10D000000B0B4C8CED2E2E649C7
:102C8000E95FCABC85A294B5B4E683A69C79D487D3
:102C90002E2E2E0D000000009C79D487CDEAB3C9FA
:102CA000A3ACCFB5BD79DF4DC8EBD1ADAD680D009C
:102CB00085A294B583A6B4E6B3F5CABCBBAF2E2EED
:102CC0002E0D0000D2D18FC485A294B5855E894BAC
:102CD00041DD64C8EB85A294B50D0000D2D18FC44C
:102CE00085A294B5855E894B42DD64C8EB85A294CC
:102CF000B50D00009F6FB7A8D778C8A185A294B57D
:102D0000A3ACDD64C8EBEE41D44FD6B50D00000096
:102D100085A294B5B3F5CABCBBAFCAA794A10D00F8
:102D20000000803FE95FCABC85A294B583A6B4E6E3
:102D3000C4A3894B9C79D4872E2E2E0D0000000051
:102D400085A294B583A6B4E6C4A3894BB3F5CABCE7
:102D5000BBAFCAA794A1A3A10D0000000D0A9C79E6
:102D6000D487BBF9B1BECFB5BD7985A294B52E2E5F
:102D70002E0D0000D778C8A1BBF9B1BECFB5BD7983
:102D800085A294B5CAA794A1A3A10D00AE94C7B023
:102D9000BBF9B1BE85A294B5A3BA0D00EB8AB3D836
:102DA000E993D6B53A20B5CD3D25642E2530326461
:102DB000562C20BAC4B14D3D25642E2530326456C0
:102DC0000D0A0000D0CDCC963A2025642C20ED676A
:102DD000F377B0E6B1BE3A2025642E25640D0A00D3
:102DE0009C79D487B4CE94B53A2025642C20EE414A
:102DF000D44FCAC2BCFE3A2025640D0A0000000070
:102E0000D0DEB8C485A294B5A3BACAC2BCFE3D2523
:102E1000642C209C79D487B4CE94B53D25640D0AEA
:102E200000000000B8FCD0C2BBF9B1BECFB5BD797F
:102E300085A294B5CAA794A1A3A10D0085A294B5BB
:102E4000B8FCD0C2F29ED743CAA794A1A3A10D009B
:102E500085A294B5B8FCD0C2F29ED743B3C9B9A637
:102E6000A3A10D000D0A9C79D487D3B2F377D0A328
:102E70009CCA85A294B52E2E2E0D0000D778C8A12D
:102E8000D3B2F377D0A39CCA85A294B5CAA794A164
:102E9000A3A10D00AE94C7B0D0A39CCA85A294B5DF
:102EA000A3BA0D0045565F5433D37CB06C3A20254D
:102EB000646D562C20B9A4D7F7EB8A89BA3A20253D
:102EC000642C205433EB8A89BA3A2025640D0A0019
:102ED0009CD8B6C8C6ABD2C63A2025642E25303160
:102EE00064A1E3432C20EB8AB3D8C6ABD2C63A2008
:102EF00025646D560D0A0000D0DEB8C485A294B5D5
:102F0000A3BA9CD8B6C8C6ABD2C63D25642E253020
:102F10003164A1E3432C20EB8AB3D8C6ABD2C63DC3
:102F200025646D560D0A0000B8FCD0C2D3B2F37709
:102F3000D0A39CCA85A294B5CAA794A1A3A10D0051
:102F40000D0A9C79D487D487C6AC85A294B52E2E61
:102F50002E0D0000D778C8A1D1AACCC785A294B500
:102F6000CAA794A1A3A10D00AE94C7B0D1AACCC7A3
:102F7000D487C6AC85A294B5A3BA0D00997A9C7982
:102F8000E993D6B53A20D0C2D487C6AC3D25642C8F
:102F900020D2D1D3C33D25642C20D1AAD2BA3D255D
:102FA000640D0A009C79C1BFB9A087FA3A20256454
:102FB0002D25646D672F644C0D0A00009C79D48721
:102FC0009572D0F2313A2054504C3D25646D732CEB
:102FD000205452443D25646D732C2045563D256494
:102FE0006D730D0A00000000D0DEB8C485A294B550
:102FF000A3BAD0C2D487C6ACE993D6B53D25642C1C
:103000002054504C313D25646D730D0A00000000C2
:10301000B8FCD0C2D1AACCC785A294B5CAA794A146
:10302000A3A10D000D0A9C79D487C8D5C6DA957284
:10303000E96785A294B52E2E2E0D0000D778C8A181
:10304000C8D5C6DA9572E967CAA794A1A3A10D00F5
:10305000AE94C7B0C8D5C6DA9572E967A3BA323064
:10306000253032642D253032642D25303264202500
:103070003032643A253032643A253032640D0A0029
:10308000D0DEB8C49572E9679EE9A3BA3230253024
:1030900032642D253032642D2530326420253032C3
:1030A000643A253032643A253032640D0A0000005B
:1030B000B8FCD0C2C8D5C6DA9572E967CAA794A190
:1030C000A3A10D009572E967B8FCD0C2F29ED74368
:1030D000CAA794A1A3A10D009572E967B8FCD0C25C
:1030E000F29ED743B3C9B9A6A3A1D0C29572E9672E
:1030F000A3BA253032643A253032643A253032643E
:103100000D0A00000D0A9C79D48782E4B7DD855E44
:10311000B9A6C4DC2E2E2E0D00000000AE94C7B060
:10312000BBEE84D3855E894BB5D8D6B73A203078CC
:10313000253038580D0A0000BBEE84D3855E894BDC
:10314000CEB4C7D09351A3A10D000000BBEE84D331
:10315000855E894BD2D1C7D09351A3BA3078253040
:103160003858202D3E203078253038580D0A000080
:1031700082E4B7DD855E85A294B5F29ED743CAA7E7
:1031800094A1A3A10D00000082E4B7DD855E85A2B5
:1031900094B5F29ED743B3C9B9A6A3A10D00000010
:1031A0000D0A9C79D48785A294B5AB40C8A1BAAF6B
:1031B00094B52E2E2E0D0000AB40C8A1D1AACCC7CD
:1031C000D487C6AC85A294B5CAA794A1A3A10D00CB
:1031D000D1AACCC7D487C6ACEB8A89BA85A294B5EC
:1031E000A3BAD0C2D487C6AC3D25642C20D2D1D39B
:1031F000C33D25642C20D1AAD2BA3D25640D0A0016
:10320000AB40C8A1D1AACCC79C79C1BFB9A087FAED
:10321000CAA794A1A3A10D00D1AACCC79C79C1BF14
:10322000B9A087FAA3BA25642D25646D672F644C75
:103230000D0A0000AB40C8A1D1AACCC79572D0F24C
:1032400085A294B5CAA794A1A3A10D00D1AACCC709
:103250009572D0F285A294B528BD4D3129A3BA54F8
:10326000504C3D25646D732C205452443D25646DB3
:10327000732C2045563D25646D730D0A0000000037
:10328000D4F6BCD39C79D487D38B94B5CAA794A128
:10329000A3A10D009C79D487D38B94B5A3BA2564E0
:1032A000202D3E2025640D0A0000000085A294B563
:1032B00083A6B4E6C4A3894B9C79D487CDEAB3C96D
:1032C000A3A10D00000000000000000000000000AD
:1032D00000000000000000000000000000000000EE
:1032E00000000000000000000000000000000000DE
:1032F00000000000000000000000000000000000CE
:1033000000000000000000000000000000000000BD
:1033100000000000000000000000000000000000AD
:1033200000000000232D302B20000000686C4C00B2
:1033300065666745464700003031323334353637ED
:1033400038394142434445460000000030313233B1
:1033500034353637383961626364656600000000D1
:103360000000000000000000010203040607080935
:10337000000000000102030401020304060708091B
:1033800000000000E432000004330000C4320000FA
:10339000000000000000000000000000000000002D
:1033A000000000000000000000000000000000001D
:1033B000000000000000000000000000000000000D
:1033C00000000000000000000000000000000000FD
:1033D00000000000000000000000000000000000ED
:1033E00001010000004495080204060820010020A5
:1033F000200000200203040502000000200000203D
:00000001FF
