:040000006F1030024B
:100004000000000000000000080200000A020000D6
:1000140000000000201800000000000000000000A4
:10002400201800002018000000000000000000005C
:10003400201800000000000020180000000000004C
:1000440020180000201800002018000020180000CC
:1000540020180000201800002018000020180000BC
:1000640020180000201800002018000020180000AC
:10007400201800002018000020180000201800009C
:10008400B40500002018000020180000201800000B
:10009400201800002018000020180000201800007C
:1000A400201800002018000020180000201800006C
:1000B400201800002018000020180000201800005C
:1000C400201800002018000020180000201800004C
:1000D4002018000020180000E6040000201800008A
:1000E400201800002018000020180000201800002C
:0C00F40020180000201800002018000058
:10010000397101436EC619A0397141536AC866CA74
:1001100062CC5ECE19A0397101535AD056D252D456
:100120004ED64AD826DA22DC06DE330161408282CE
:1001300041114AC026C222C406C68282B24D410184
:10014000024D924C224CB24B4101024B924A224A40
:10015000B2494101024992442244B24041018280A5
:100160003D432A876373C3029377F700BDEFADE584
:10017000937606FF3D8ABA960CC34CC30CC74CC796
:100180004107E36BD7FE11E28280B306C3408A06C3
:100190009702000096966780A6002307B700A30683
:1001A000B7002306B700A305B7002305B700A304D3
:1001B000B7002304B700A303B7002303B700A302CB
:1001C000B7002302B700A301B7002301B700A300C3
:1001D000B7002300B700828093F5F50F9396850052
:1001E000D58D93960501D58D61B79396270097021B
:1001F000000096968682E78086FA9680C1171D8F4A
:100200003E96E374C3F8A5B701A0B707EFBE37E782
:1002100000E0938707083CC701A0EFF27FF17971F6
:10022000AA848545114502CA02CC02CE02D002D270
:1002300002D402D602C602C8EF1010458545370524
:100240000200EF1050469147FC82371401408D4761
:100250003ECC4C08E147130504803ECEEF10B01CA5
:10026000A147FC824C089147130504803ECE3744D9
:100270000040EF10501BB7070C000C101305044092
:100280003ED426D002D223160102EF109045054637
:100290009305404213050440EF10104F930760137D
:1002A0007C8685475C87680085473EC8EF10B0298B
:1002B000854513050440EF10D04B456161BDEFF259
:1002C0003FE739711306C00281454808513D854515
:1002D00005453704024002C602C8EF101039130565
:1002E000C406EF102077B74400408D673EDC93874B
:1002F00044403ECA13070008938751834C081305F6
:10030000C4063AD43AD03ECC02D202D602D802DA9F
:1003100002DE02CEEF10C07D054689451305C406F6
:10032000EF10D001930700127C8685475C87680038
:1003300085473EC8EF1030211305C4068545EF10F0
:10034000A07E05469305000413850440EF10304756
:10035000216109B5EFF23FDC9387819303D74740D2
:1003600093070040AA8A998F3E84C207C1831389EC
:10037000819363F3F5002E84835409409309004070
:100380004204C204C180B3899940C209418093D913
:10039000090163E88902035509402286D6854A95FA
:1003A000EF20202A83570940A297C207C183231058
:1003B000F940835749403E944204418023128940CA
:1003C00069B303550940938404C0A2944E86D68530
:1003D000C2044A95EF20E026C1802686B3853A0103
:1003E00013858193EF20E02523109940D9B7EFF2D0
:1003F0003FD40545EF10D0147164EF10D0421305BF
:100400000420EF10504813050420013D4D3DB7076F
:10041000002083A58708374500001305058CEF20D1
:10042000602D374500001305058DEF20E03DE921E3
:10043000374500001305458EEF20003DEF001024E6
:100440003745000013054590EF20003CEF00A071F8
:100450000D45D929AA853745000013050592EF20DF
:1004600060291145D1212A8411457D292946B3559A
:10047000C4023376C5023745000093F5F50F130526
:100480000593EF2020271D456D29AA8537450000DB
:1004900013054594EF20002615456521AA853745AB
:1004A000000013054596EF20E0244D45B529EF00E7
:1004B000C05DAA853745000013058597EF2080238E
:1004C00045459D21EF00605EAA8537450000130574
:1004D000C598EF202022EF10A019EF0040782945A1
:1004E000EF101037CDBF011152C6374A00409305B7
:1004F000404213050A4022CE26CC4ACA4EC8EF100D
:10050000D02E15E93744004093055052130504409E
:10051000EF10B02D09C913050440EF10F02B13752F
:10052000F50FEF0050787244E2445249C249324A12
:10053000056173002030138441833709024083270B
:10054000090704201309C9069309000893F4F40F5E
:100550004A85B389F940814593B714001CA0EF1078
:10056000A05C4A8593050008EF10605E1C2085455D
:100570004A859E078507A2972326F900EF10C05AE7
:1005800013050A40EF1050259E04C20993D90901B2
:10059000138514002295CE85753B01492694E3739B
:1005A00039F7B3072401883305091379F90FEF00F0
:1005B000906FF5B741114EC026C44AC222C61389B6
:1005C000418303440900B70402401385C406137431
:1005D000F40F9337140081452300F900EF10C05445
:1005E0001385C40693050008EF1060568347090081
:1005F0001385C40685459E078507CA975CC5EF101D
:10060000A0521E04130514004A959305000899335F
:1006100085449389418313091008B3079400CE974A
:1006200088238504EF003068E39924FF3705200014
:10063000EF1020523244A244124982494101730012
:10064000203003C781810DC3AA871307F0341145F9
:10065000636EF700EFF2DFAD2E859385C1D4BE95B2
:10066000EF10307E0145FDB41545828082808147C0
:100670000145138701D49306B0353306F7001022E5
:1006800085073295E39BD7FE420541818280416513
:10069000697601477D15938601D405069305D0350B
:1006A000B387E6009C233D8DA14713781500058193
:1006B00063050800318D42054181FD17C207C183E2
:1006C000EDF70507E31EB7FC1375F50F828009C926
:1006D00005478547B7E500086306E5003E8582804B
:1006E000B7D50008EFF2DFA4138401D41306E03578
:1006F000138501D4EF10F074162029671307A7554E
:1007000091476393E602A5370347C4358347B43561
:1007100022075D8F8D476319E500953F0347D43568
:100720008D476313A70081473E852DB4EFF2BF9E2E
:1007300025CD054785476317E50637E9000813848B
:1007400001D45C407828938401D485075CC05C3870
:100750004207E207D98F182CD98F78382207D98F12
:100760001CC43137A30DA4342181230EA4340537D2
:10077000A30EA434EF10603E4A85EF100044914769
:10078000631FF5000144114A9309E035B3878400E3
:100790008E2333058900EF10C045630A4501EF1031
:1007A000603D89473E8555B237D9000849BF0904E5
:1007B000E31E34FDEF10003C8147EDB783C7818114
:1007C00099C7EFF2FF96054595376FF0BF9815452D
:1007D000828083C7818185CF1307F0349147636995
:1007E000A702EFF2FF94138401D49307C4003E954F
:1007F000EF103065AD3DA30DA4342181230EA43448
:1008000079358147A30EA4343E856FF0BF94954798
:100810003E858280EFF2DF91138401D48145130677
:10082000E035138501D4EFF0BF93854634B874AC3E
:10083000B706A4A49386060514D0B7060080A106C7
:1008400054D09306F0032304D402E9679546A30D20
:10085000D4029387A75595661CC0938646A18D67E1
:1008600056BC9387A77399665EA4938646A1854775
:100870007CB41CA8231FD40CE5470567930680FCB5
:100880005CB82300D40E93075730930660F97EA816
:10089000A301D416B147F5761CAC93864686A947CA
:1008A0003CBC2308F402A309F40C230CF414231217
:1008B000D416A30EF41CA301F426B7465802B707BA
:1008C000C800130680029386466B13075740938730
:1008D000A71450AC2324D41E2317E4262328F4267F
:1008E0007933A30DA4342181230EA4344D33A30EF8
:1008F000A43401456FF01F86EFF29F830145C13B91
:1009000015C10545E9332A8411C529372A8401E533
:10091000313D0545213D13371400238CE1802285AC
:100920006FF05F832A84F5B7EFF29F804111930542
:10093000F1000546A30701002933888741016FF0C4
:100940007F81EFF2EFFE41119305E1000946231785
:100950000100C539288741016FF0CFFFEFF24FFD4D
:100960004111CC8705469305F100A53541016FF093
:100970006FFEEFF2EFFB41116C8709469305E10032
:10098000893D41016FF00FFDEFF2EFF82E8AB28939
:10099000AA85054625453689BA843E845D310DE930
:1009A0000546D2852945713905E50546CE852D4593
:1009B000493919ED0546CA853145613111E90546C8
:1009C000A6853545BD3909E50546A28539459539E0
:1009D0006FF0AFF7EFF2CFF541115C85C8874C8718
:1009E000D0865486D8859307300663EEA708FD1598
:1009F00093F5F50F2D4791476363B7087D1613767E
:100A0000F60F7947636DC70693F6F60F5D47636887
:100A1000D70694851307B0036363D7061485636014
:100A2000D70605469305F10025456533AA8721E9D8
:100A300005469305E1002945693BAA8729E105465A
:100A40009305D1002D457133AA8715E905466C0041
:100A500031454133AA8705E505469305B100354583
:100A60008D3BAA8709ED05469305A10039459533CD
:100A7000AA8711E56539AA8719E18933AA873E85D6
:100A800041016FF02FED9147DDBF914763EAA70069
:100A9000931725001165130585993E9508418280BD
:100AA000374500001305859B8280894763EAA700CC
:100AB0009317250011651305C59A3E95084182805C
:100AC000374500001305859B8280EFF26FE6B7077C
:100AD0000020938707009A27C84793070010631DDB
:100AE000F700B747000083A507A5EF10A06593277F
:100AF00015003E856FF00FE601EFB747000083A5B4
:100B000007A5EF1020648947E345A0FE9547D5B7B8
:100B100085469547E31FD7FCB747000083A507A587
:100B2000EF104062B327A0008D07E1B7EFF24FE06E
:100B3000372401409D460546994513050440EF00C2
:100B4000D064854513050440EF00B062930404406F
:100B500089452685EF00706F65DD13050440EF00C1
:100B6000506E6FF02FDFEFF2AFDC797185453145C4
:100B70003714014002C202C402C6EF10E0309307EE
:100B800000108D441305048041494C007C8226C42A
:100B90004AC6EF1040091305048093050010EF10BA
:100BA000A01793070004130504804C007C8202C642
:100BB000EF106007E177130504C04C007C8226C467
:100BC0004AC6EF104006130504C0A165EF10C0141B
:100BD0001306000281450808EFF08FD885451305FC
:100BE0000020EF10602A316537240140EF10E01A31
:100BF00013050440EF00504BB7070E003ECE0C0823
:100C00008547130504402302F10202C802CA02CC40
:100C100002D0EF00704D854513050440EF003052BF
:100C200013050440EF00B052930404402685EF0002
:100C3000B0526DFD1305044037240140EF005052BF
:100C4000130404402285EF0050526DFD374500002B
:100C5000130545A9EF10503B45616FF0AFCFEFF2A0
:100C60008FCB370400208324040085470111639350
:100C7000F40E130404005C28639E070C371901402E
:100C80009305001013050980EF10400A2945EF1065
:100C9000203C693DEF10607CB747000083A587AB1F
:100CA000EF10A052B747000083A5C7ABEF10E0518B
:100CB00048C4213D89479305001048C013050980A9
:100CC0001CC044A8EF1040054840C1331C34182410
:100CD0002A8948443EC63AC4EF101005B24722475D
:100CE0002A8637450000AE86130505ACCA85EF108D
:100CF00070204C204D459D315C38A9EF832944007C
:100D0000E9779387A70AFC8437490040938719FA4B
:100D1000230D9100A30D3101230EF100814413092D
:100D20000940154A3C08A6978C234A85EF10402AB3
:100D3000930500084A85EF10A02A7DD98504E39326
:100D400044FF374500008547CE85130545AF5CB8A5
:100D5000EF10501A05616FF04FBFEFF26FBD37040F
:100D6000002037450000130404000549130545A57C
:100D70002320240123280400231A0400EF10D02884
:100D8000371501409305001013050580EF00107A18
:100D900013052003EF10C02B513BEF10006CB74739
:100DA000000083A587ABEF104042B747000083A542
:100DB000C7ABEF10804148C4093BAA8448C0EF008C
:100DC000700F894726851CC0230A24017D39AA8516
:100DD00037450000130545A7EF10D0116FF08FB70E
:100DE000B70700209387070088A78CB78280B717C2
:100DF00002409843B706FFF01367170098C3D84323
:100E0000758FD8C39843B706F7FEFD16758F98C344
:100E10009843B706FCFFFD16758F98C3D843B706F5
:100E200001FFFD16758FD8C337079F0098C7D843B9
:100E3000B706C1FFFD16D8C3D843D8C3D843D8C31B
:100E4000D843758FD8C3D843B7060001D8C3984399
:100E5000558F98C3984393166700E3DD06FED84389
:100E6000B7160240719BD8C3D84313672700D8C375
:100E70002147DC42B18BE39EE7FE8280EFF24FAB6D
:100E8000239F0180238E0180A38001821547A38CBC
:100E90000180694681451385C10D2382E180EFF011
:100EA0002FAC1306C00381451385010AEFF04FAB49
:100EB00037450000130585B9EF1010156FF08FA9A5
:100EC0002E95814713F7F70F6365B7001375F50F7C
:100ED00082803307F600182385073A954205418141
:100EE000D5B7EFF24FA3938781131307A0FA98A306
:100EF00088B3B0A3AA892E8A3289938481130D44C2
:100F000011CA89C91385340013043900EF106073C6
:100F10001374F40FCA854E8552865D37B3878400FB
:100F20009309240005041374F40F88A326949307EF
:100F30005005374900401CA093F9F90F01441309EB
:100F400009409377F40F63E5370105456FF0EF9F94
:100F5000B38784008C234A85EF108007930500082F
:100F60004A85EF10E0077DD90504E1BF914763F39F
:100F7000B702EFF2EF9B2421130635002A840831D3
:100F8000A6852694353F3C303385A74013351500A0
:100F90006FF04F9C014582809307C00363E7C70051
:100FA000EFF20F993D3F6FF0EF9A01458280EFF22B
:100FB0002F98411148866C00054613051008153717
:100FC00041016FF02F99EFF2AF961E2141112C00D5
:100FD00013978700A183D98F7C843E2121461397E4
:100FE0008700A183D98F7C855E2113978700A18319
:100FF000D98F7C867E211305200813978700A18353
:10100000D98F7C87F93D41016FF0CF94EFF24F9279
:10101000411148866C00054613053008D935410159
:101020006FF04F93EFF2CF90411148866C00054668
:10103000130540087D3541016FF0CF91EFF24F8FDE
:101040001E2101114C0013978700A183D98F7C8248
:101050003E21694613978700A183D98F7C835E2147
:1010600013978700A183D98F7C847E2113978700F3
:10107000A183D98F7C851E2513978700A183D98FE3
:101080007C863E2513978700A183D98F7C875E25B8
:1010900013978700A183D98FFC807E251397870043
:1010A000A183D98FFC811E2913978700A183D98F33
:1010B000FC823E2913978700A183D98FFC835E2988
:1010C00013978700A183D98FFC847E29139787000B
:1010D000A183D98FFC851E2D130550081397870017
:1010E000A183D98FFC86F53B05616FF0AF86EFF2E7
:1010F0002F841E21397113978700A183D98F7C8299
:101100003E2113978700A183D98F7C835E2113979B
:101110008700A183D98F7C847E2113978700A183C8
:10112000D98F7C851E2513978700A183D98F7C8654
:101130003E2513978700A183D98F7C875E2513975F
:101140008700A183D98FFC807E2513978700A18318
:10115000D98FFC811E2913978700A183D98FFC8228
:101160003E2913978700A183D98FFC835E291397AB
:101170008700A183D98FFC847E2913978700A183E0
:10118000D98FFC851E2D13978700A183D98FFC86EC
:101190003E2D13978700A183D98FFC875E2D13976F
:1011A0008700A183D98F2310F1027E2D139787002A
:1011B000A183D98F2311F1021E3113978700A183D8
:1011C000D98F2312F1023E3113978700A183D98F63
:1011D0002313F1025E3113978700A183D98F231463
:1011E000F1027E3113978700A183D98F2315F10275
:1011F00013072003930780023306F50010225400E2
:10120000BE9690A28507E399E7FE1307C003330655
:10121000F50010225400BE9690A28507E399E7FEE0
:101220004C001306C00313056008BD3321616FE055
:101230007FF2EFE2FFEF41114886CC8609466C0051
:101240001305F008793941016FE0DFF0EFE25FEE5E
:10125000B1476388F500B1450545E13F01456FE0C1
:101260007FEF034805001C312E8422082C213368AF
:10127000F8003C31420813580841A205DD8D930760
:101280000883C207C205C18313073006C185E36422
:10129000F7FC9387F5FFC207C1832D47E36DF7FA8B
:1012A00050215C31794722065D8E420641869307C4
:1012B000F6FFC207C183E360F7FA7C217831A20709
:1012C000D98F939607015D47C186E366F7F81C2521
:1012D00018359308B003A207D98F139707014187E8
:1012E000E3EBF8F63C252835A2075D8D9317050141
:1012F000C187E3E2A8F61305080393F7F70F137706
:10130000F70F93F6F60F1376F60F93F5F50F1375A7
:10131000F50FEFF02FEC1375F50F11C10144228585
:10132000EFF0FFC8054525BFEFE29FE0411181C9FD
:10133000B1450945FD3D014541016FE0BFE14D4526
:10134000EFF08FDE688465266885592E6886692EE1
:1013500068872800EFF03FC70545F9BFEFE25FDD82
:1013600091476388F500B1450D45E13501456FE0D2
:101370007FDE3C213831A207D98F139407011D4726
:101380004184E362F7FE1C210C311D45A207DD8D6F
:10139000EFF02FDE9375F40F4945EFF02FDC014598
:1013A000EFF0DFC60545E1B7EFE29FD881C9B1454F
:1013B00011454135014422856FE0DFD92E84052E89
:1013C000AA8501C51145B535FDB7054793849181BF
:1013D000A380E18223800400292E85472A84631894
:1013E000F50088A003C54180EFF0DFC3E9B7A14550
:1013F000114581350544C1B7EFE29FD3011191C575
:10140000B14515453D35014421A8938411828020C2
:10141000A14509C403C4918101E89D451545113DCD
:10142000228505616FE01FD3ED24AA8511C51545FE
:10143000093523800400C1BF4800F12C2A8419E536
:10144000A9451545FD3323800400D9BF69464C00EA
:101450001385C10DEF10E01E4800EFF03FBE0544BC
:101460002380040075BFEFE2BFCC397189C9B14553
:101470001945C1330144228521616FE0BFCD480089
:10148000092E2A8409E5A94519456533EDB71306E8
:10149000C0034C001385010AEF10A01A4800EFF0BA
:1014A0001FC50544C9BF13860182142295451387C1
:1014B00001829387E18163EAD50C11668A061306DF
:1014C00046B1B296944282869306A00A6314D5026E
:1014D0001306A0FA238CC10E854696A314A382801E
:1014E00092239306160096A39386810FB29688A244
:1014F000894614A392239306F00363FCC6082300D5
:10150000070071A092239306160096A39386810F7D
:10151000B29688A2A38DA180238D01808D4671F99A
:101520009146C1BF92239306160096A39386810F1E
:10153000B2961386A18188A21422850693F6F60F2F
:1015400014A203C6B181E3FDC6FC6DB792239306D6
:10155000160096A39386810FB29688A2954651BF36
:10156000930650056310D50292239306160096A3A6
:101570009386810FB29688A20546238EC1802300F0
:1015800007008DBF23900700DDBF230006002390D6
:1015900007008280EFE2DFB98547411163F7B702A8
:1015A00010310021B285228532C6EFF07F83EFF043
:1015B000CFFA324637450000A2851305C5B2EF10B9
:1015C0006013054541016FE0FFB837450000130582
:1015D00085B6EF106023EFF04FF8E5B7142113073D
:1015E000A00A6395E608EFE2BFB4B307B50003C7EE
:1015F000F7FF930750052A84631BF702EFF01F974C
:101600001C30B54515C111472C20130534006387E4
:10161000E7046360F7020947638CE702636DF70232
:1016200005476383E702B9453E85EFF09FC001455A
:1016300031A81947638AE70263E5E702130700024E
:10164000E393E7FE813F19A0EFF05FC06FE09FB02A
:10165000EFF09FCDE5BFEFF07FD0CDBFEFF0DFD44F
:10166000F5B7EFF07FD9DDB7FD3BCDB701458280FF
:10167000EFE21FAC1384C1811C2099CB9384E181DC
:101680008E201385810F993F2390040023000400CE
:1016900083C7118291CF138491811C2091EB9128F3
:1016A00085476317F50008A003C54180EFF09F97B9
:1016B0006FE05FAAEFE2DFA741114886EFF0EFBCD1
:1016C000AA8537450000130545BBEF10A0026C004A
:1016D00005461305000AEFF0DF8041016FE09FA788
:1016E0000565130505E18280130500108280014520
:1016F0008280138721821C23A546850793F7F70F65
:1017000063E5F6001CA30145828023000700054520
:1017100082800145828025CDEFE29FA19307B0072B
:1017200041112A843EA1231005004D45EFF0CF9FC3
:101730004AA04945EFF04F9F6AA01D45EFF06FA00A
:101740000AA49307F1001307E1009306D10070008B
:101750009305B1001305A100EFF00FA31C8505450B
:101760009387077D3EA49C855EA41C867EA49C86F0
:101770001EA81C873EA89C875EA88567938707E103
:101780007EA8930700101EAC41016FE0BF9C01458D
:10179000828049C5EFE2DF9901112A844800A53F04
:1017A0003C821307007D7AAC1EA03C831545B744EC
:1017B00000003EA03C875EA0BC807EA0BC811EA431
:1017C000BC823EA4BC835EA4BC847EA43C841EA8D0
:1017D0003C853EA8BC855EA8BC867EA89307803E5B
:1017E0001EAC3EAC5EAC1EB0930700323EB0EFF0D4
:1017F0004F953C864AB0938544BD7EB0294613057B
:101800008402EF0010642946938544BD1305240328
:10181000EF003063054505616FE0DF93014582808D
:1018200001A097F1FF1F938161061731002013017A
:10183000617D172500001305A55897E5FF1F9385C7
:10184000657C1386818163FAC5008322050023A08D
:10185000550011059105E3EAC5FE13858181938545
:10186000C1176377B500232005001105E36DB5FEB0
:10187000FD42739002BC8D427390428093028008B7
:101880007390023097E2FFFF9382027893E2320076
:1018900073905230EFF0AFD597F2FFFF938262B5AD
:1018A0007390123473002030EFE29F88B727014015
:1018B00093870740631CF500854513050020192513
:1018C000814513050020FD2B6FE0DF88B73701400D
:1018D00093870780E31AF5FE854513050040DD2355
:1018E000814513050040C5B75C413707F1E0130798
:1018F000F7EF944D7D8F9C41D58FD44DD58FD4413A
:10190000A206D58FD98F5CC11C4537F7F1FF1307AD
:10191000D77FD4457D8F9C49D58F94458606D58F3A
:10192000D98F1CC55C55370710FF7D177D8FDC29CB
:10193000FD1793F7F70FD207D98F5CD582801C452E
:1019400089C593E717001CC58280F99BEDBF1C4534
:1019500093E787001CC5828008450D810589828038
:101960001C4593E747001CC582800845098105890D
:1019700082801C4591C537075000D98F1CC58280D5
:101980003707B0FF7D17F98FD5BFA54763F7B704B9
:101990008D47138765FF3307F7020328C5009D476E
:1019A000B397E70093C7F7FFB3F70701B396E600D5
:1019B000DD8E54C5994763E3C70495477D1633060A
:1019C000F6025859FD47B397C70093C7F7FFF98F41
:1019D0003396C5005D8E50D982800D473387E5026E
:1019E000032805019D47B397E70093C7F7FFB3F7B7
:1019F0000701B396E600DD8E14C96DBFB14763E2FF
:101A0000C702954765163306F6021859FD47B39786
:101A1000C70093C7F7FFF98F3396C5005D8E10D9C5
:101A2000828095474D163306F6025855FD47B39709
:101A3000C70093C7F7FFF98FB395C500DD8D4CD56F
:101A40008280684542054181828008416D8D333531
:101A5000A00082801C4141677917F98F1CC12320A7
:101A600005002322050023240500B7070240232692
:101A70000500138787006316E500D8431367F70056
:101A800001A81387C7016317E500D8431367070F41
:101A9000D8C3B1A8138707036318E500D843856648
:101AA000938606F0558FEDB7138747046315E5005D
:101AB000D843BD66C5BF138787056316E500D843C5
:101AC000B7060F00C5B71387C7066316E500D843EE
:101AD000B706F000C1BF138707086316E500D843B7
:101AE000B706000FC1B713874709E308E5F88280FE
:101AF0001C4161773D0794517D8F9C45D58F94495A
:101B0000D58FD449D58F944DD58FD44DD58FD45101
:101B1000D58F9455D58FD98F1CC1DC455CC19C41B4
:101B20001CC5DC415CC582801C4189C593E7170058
:101B30001CC1828041677917F98FDDBF1C4101C646
:101B4000DD8D0CC1828093C5F5FFFD8DDDBF4CC1DD
:101B50008280B7070240C8C38280B707674537272E
:101B60000240938737125CC3B797EFCD9387B79A3C
:101B70005CC38280372702401C4B93E707081CCBCD
:101B80008280372702405C470545858B91E74847AF
:101B90004189133515000D058280EFE26FD92A8443
:101BA0008544C5376318950019E0154529A0D13F34
:101BB0007D14CDBF7DD86FE0EFD9EFE26FD7AA8457
:101BC00037050B00D93F91476313F50237240240D4
:101BD0001C4837050B0093E727001CC844C81C4865
:101BE00093E707041CC8553F1C48F59B1CC86FE0D1
:101BF0006FD6EFE2EFD34111AA8415652EC6713F6F
:101C00009147B245631EF500372402401C48156514
:101C100093E717001CC88EA049371C48F99B1CC8C5
:101C200041016FE02FD39C4513F7070113F8F7002C
:101C300001C7D8413368E80037270240145B3707F3
:101C4000000F758F4DEB8546A381D1823717014078
:101C50006315E5009A2135839AA18E2113F7F50FBC
:101C600039C318418146854E3D4F930F8002930240
:101C70008004214E3396DE00B3F8C50063111603CD
:101C80009398260033131F011343F3FF3377E300C8
:101C9000B318180133E7E8006397F70750C98506C2
:101CA000E39AC6FD18C11307F00F6375B7045441DA
:101CB0002146854E3D4F930F800293028004414E92
:101CC000B398CE0033F715016392E802131726008C
:101CD00001173313EF001343F3FFB376D300331729
:101CE000E800D98E6395F703232A15010506E31949
:101CF000C6FD54C1828037170140E310E5F603C7E3
:101D0000318221DF81BFE39C57F810C949BFE39FAF
:101D100057FC23281501D9BFB71701406316F500FA
:101D200083C7318291C3B5810CC98280B717014046
:101D30006316F50083C7318291C3B5814CC9828097
:101D400023A2A182828003A74182854714216310C8
:101D5000F7021C31639CE7023C21960793E707F8E2
:101D600037E700E093F7F70F36972300F740054772
:101D700093D756003317D700544189CE9387070471
:101D80008A07B7E600E0B69798C38280EDF33C215E
:101D90009607F9B793870706E5B7B7160240DC4206
:101DA00051777D17F98F5D8DC8C282803717024049
:101DB0005C439146B18B6385D700A1466382D70609
:101DC000B7177A00938707201CC1371602405C4280
:101DD00037070020130787019183BD8BBA9794239F
:101DE0001C41B3D7D7005CC15442A1829D8ABA96E8
:101DF0009422B3D6D70014C55442AD829D8A36973B
:101E00001823B3D7E7005CC558423983937637006F
:101E10001387818036971823B3D7E7021CC98280C5
:101E20005C435843C166C983BD8B758F8907C5461E
:101E30006393D700C94701EF374702400327078064
:101E4000418B09CF37177A001307072021A83717CE
:101E5000024058439316E700E3D606FE37173D00CD
:101E600013070790B387E70285B799C53717024074
:101E70005C4B5D8D48CB8280B7170240D84B134531
:101E8000F5FF798DC8CB828099C5371702401C4F6A
:101E90005D8D08CF8280B7170240984F1345F5FF3C
:101EA000798D88CF828099C5371702405C4F5D8D50
:101EB00048CF8280B7170240D84F1345F5FF798D80
:101EC000C8CF828099C5371702405C475D8D48C7EF
:101ED0008280B7170240D8471345F5FF798DC8C7F0
:101EE0008280EFE2EFA41629F577FD17F58FF62132
:101EF000DA257971D58F1EA95625FD779387379FEF
:101F0000F58FD6212A842EC6D58F9625D58FB62556
:101F1000D58F5EA55E29C207C18393F7F7CFD98F0E
:101F20005EA96808EFF09FE8B747014093870780F4
:101F3000B245631EF402A2576547B387E702984192
:101F4000930640060A07B3D7E70233D7D702B3F7A1
:101F5000D7021207920793872703B3D7D702BD8B07
:101F6000D98FC207C1831EA445616FE0AF9E92570F
:101F7000E1B791C55E250967D98F5EA582805A2594
:101F8000F977FD17F98FD5BF13F7F50F854715833F
:101F9000B395B7006319F7009307C500984301CEC6
:101FA000D98D8CC38280894693074501E318D7FEFB
:101FB00093070501E5B793C5F5FFF98DDDB75E29F8
:101FC00001C6DD8D4EA9828093C5F5FFFD8DDDBF75
:101FD00093F5F51F4EA182804A211375F51F82806B
:101FE0000A216D8D3335A000828013F7F50F8546E9
:101FF0001583B397B6006311D7025A25F98F1A21BA
:1020000001454207418381CB0545A181B315B50048
:102010006D8F3335E000828089466314D7001A291A
:10202000F1BF5A29E1BFB707002083A787083717F8
:102030007A0013070720B3D7E70293F7F70F23853A
:10204000F1821307803EB387E7022394F1828280F6
:10205000B7F700E0D8438146799BD8C303D7818284
:102060003306A70290CBD4CB98431367070198C3DC
:1020700098431367170298C3D843058B75DF9843BD
:10208000799B98C38280EFE2AF8A2A84116501119F
:1020900085451105EFF05FDF930700207C8237153F
:1020A00001408D473EC44C00E147130505803EC604
:1020B000EFF07FB722C837440140B70708000C088B
:1020C000130504803ECC02CA231E0100EFF07FE11D
:1020D000854513050480EFF0DFE905616FE08F8728
:1020E000EFE26F83B7440140AE89328901449384A3
:1020F0000480634524014A856FE02F859305000421
:102100002685EFF0FFED7DD9B38789008385070031
:1021100026850504C205C181EFF09FEBD9BF138767
:10212000C1801C439386C1173E95636BD500B7569B
:1021300000209386068063E5A60008C33E85828062
:10214000FD57EDBF93567501B7078000FD1713D6F5
:10215000750193F6F60F1308F00FB3F8A7001357A5
:10216000F501ED8F1376F60FFD8163810603630C95
:1021700006018DE211E2B1C3638E08026305B70464
:1021800005451DE78280F5D779558280E39E08FEDC
:102190006309D60211E2EDD7E314B7FEE342D6FE9F
:1021A00063C7C600E3EE17FD0145E3FDF8FC01E758
:1021B0007D558280F5DD054582800145E39208FC6E
:1021C0008280F9DBD1B78146E1BF797122D4135403
:1021D00075014ECE52CC9319950006D626D24AD020
:1021E00056CA5AC81374F40F93D99900135AF501BB
:1021F00069C49307F00F6308F40E9397390037070B
:102200000004B3E9E700130414F88144014B13D729
:102210007501939A95001377F70F93DA9A0013D903
:10222000F50145CF9307F00F630CF7028E0A1307F1
:1022300017F8B7070004B3EAFA003A9401463345A9
:102240002A01BD47AA869305140063E0971017275B
:102250000000130727998A04BA949C40BA97828792
:102260001304F40F63960A0C93E424000946C1BFDB
:1022700001451307F00FB7074000B2502254A607DC
:102280005E07A5837E05D98F92540259F249624AAE
:10229000D24A424B5D8D45618280CA86D689328B97
:1022A0008947630FFB088D47E304FBFC85473685B0
:1022B0006310FB1A01478147C9B7639D090413D70F
:1022C0007501939A95001377F70F91440144054BDC
:1022D00093DA9A0013D9F50131F7639D0A0093E46C
:1022E00014000546A9BF63920902A1441304F00F2C
:1022F000094B31BF5685F92C9307B5FF098CB39A6A
:10230000FA001304A4F801461DBFB1441304F00FF2
:102310000D4BF5BD4E852EC6752C9307B5FF1304E6
:10232000A0F8B399F900098C8144014BB245C5B5B9
:1023300093E434000D4621B78947D286E315FBF6B6
:1023400036851307F00F81470DBF41639306F3FFF6
:1023500013D6090193D80A01B3F7D900B3FADA000A
:1023600033885703B389F80213570801B30A560399
:10237000D6994E9733061603637357011A96C167B1
:10238000FD17B376F7003378F800C206C29693992A
:10239000660093570701B3393001E982B2979A0773
:1023A000B3E6D900B3E9D7009397490063D9070092
:1023B00013D7190093F71900B369F7002E84130798
:1023C000F4076350E00493F7790099C793F7F90095
:1023D00091466383D70091099397490063D9070019
:1023E000B70700F8FD17B3F9F900130704089307BE
:1023F000E00F63CBE70493976900A5831377F70F8A
:10240000ADBD8547B386E74011C76D46014781479B
:10241000E345D6E61307E4093397E9003337E000D4
:10242000B3D7D900D98F13F7770019C713F7F7007F
:1024300091466303D700910713975700634C070039
:102440009A07A583014715BD1307F00F814735B5DE
:102450002E84B5B7054781470DB5411106C622C484
:1024600015CD2A84852A9307E0093387A74093076F
:10247000600963C0E704A1469377F70F63D5A60010
:1024800061153314A40026042580260413559400F6
:10249000B2402244DE075D8D410182800144260462
:1024A00013559400B24022448147DE075D8D4101FF
:1024B00082809307900963DDE7009307B501954695
:1024C000B317F400898EB337F0003354D4005D8C19
:1024D000954763D6A7009307B5FF3314F400B706FA
:1024E00000FCFD16937774003376D40085C3937790
:1024F000F4009145638CB70011069317560063D71B
:1025000007009307F009758E3387A7401314660000
:102510002580260413559400B24022449377F70F88
:10252000DE075D8D41018280135775011377F70F28
:1025300041119307170022C426C21314950006C642
:1025400093F7E70F25809354F50185C7935734001F
:10255000130707387604B2075207B1831395F401C5
:10256000D98FC98FB240228522449244BE85410151
:10257000828005EB39C42285B128A94763C6A70428
:102580002D47098F930755013357E4003314F400A6
:102590009317C70013079038098FB1831377F77F1C
:1025A0005DBF01CC13573400B7070800D98FB207BD
:1025B0007604B1831307F07F79BF1307F07F81475B
:1025C00059BF0147814741BF130755FF3317E40047
:1025D00001447DBFC167637CF5029307F00F1307C9
:1025E000000263EBA700971700009387A763AA97E1
:1025F00088233305A74082802181971700009387A5
:102600006762AA97882361473305A7408280B7078E
:102610000001636DF5006181971700009387876063
:10262000AA97882321473305A740828041819717C5
:1026300000009387275FAA97882341473305A74067
:102640008280B3C7A5008D8B3307C50081E78D4716
:1026500063EDC700AA87637EE50894218507850599
:10266000A38FD7FEE3EBE7FE828093763500AA873F
:1026700089CA942185078505A38FD7FE93F6370075
:10268000C5BF9376C7FF138606FE63F0C70683A314
:10269000050083A2450083AF850003AFC50083AE6C
:1026A000050103AE450103A3850183A8C5019385F8
:1026B000450223A0770003A8C5FF23A2570023A447
:1026C000F70123A6E70123A8D70123AAC70123AC5A
:1026D000670023AE17019387470223AE07FF75B744
:1026E00090419107910523AEC7FEE3EBD7FEE3E6E9
:1026F000E7F6828039713EDA2ED232D436D63AD815
:1027000042DC46DE9387018122CC804326CA06CE76
:10271000AA8409C41C4C99E32285FD290C44541059
:102720002686228536C6EF009013F2406244D244DA
:1027300021618280011126CA4AC806CE22CC4EC62B
:1027400052C4AA842E8901C51C4D91E3F1219C4CF1
:10275000804499E32685C921971700009387875EF7
:10276000631BF402C0405E24A18BB1C71C48A1C703
:10277000FD59294A1C4483450900FD17B1E91CC4D1
:1027800063DD07062286A94526856920FD57630873
:10279000F502294535A0971700009387A75C6314BD
:1027A000F4008044C9B7971700009387A757E31C2C
:1027B000F4FAC0444DBFA2852685192A55D97D5506
:1027C000F2406244D2444249B249224A05618280C1
:1027D0001CC4050963D70700184C63CAE700638867
:1027E00045011C401387170018C08CA361B72286CF
:1027F00026850D20E31035F9D9B71C401387170043
:1028000018C0294798A371B793870181AA85884387
:102810006FF05FF2011122CC26CA4AC806CE4EC61E
:10282000AA842E89328401C51C4D91E3F5269717A1
:102830000000938727516317F406C0401C4C1CC44A
:102840005E24A18BC1C31C48B5CF1C4808409379B6
:10285000F90F1379F90F1D8D5C486346F500A285C9
:102860002685692C25E51C440505FD171CC41C4064
:102870001387170018C0238037015C486388A700BE
:102880005E24858B81CBA9476316F900A285268536
:10289000B5240DEDF24062444A85D2444249B24922
:1028A00005618280971700009387C74B6314F4007B
:1028B000804469B7971700009387C746E310F4F880
:1028C000C044ADBFA2852685212041D17D59D9B70D
:1028D00041119387018126C2844322C44AC006C69F
:1028E0002A892E8489C49C4C99E32685352697171E
:1028F000000093872745631BF402C0400317C40000
:1029000093170701C18393F68700ADEA93F6070199
:1029100095EEA5472320F900136707045AA47D55B7
:10292000B24022449244024941018280971700003C
:10293000938747436314F4008044C9B79717000096
:102940009387473EE31CF4FAC0444DBF918B9DC36F
:102950004C5889C9930744046384F5004A85292BA0
:10296000232A04025E242322040093F7B7FD5EA409
:102970001C481CC05E2493E787005EA41C4899EBAA
:102980005E241307002093F707286385E700A285DC
:102990004A8591295E2413F717001DC35C48232440
:1029A0000400B307F0401CCC1C480145B5FB83175D
:1029B000C40013F707082DD793E707045EA485B773
:1029C000898B014791E3584818C4F9BFDE250111EE
:1029D00022CC26CA06CE4AC84EC613F78700AA8460
:1029E0002E8479EBD841634DE000B841634AE000A2
:1029F0000145F2406244D2444249B24905618280B5
:102A000058547DD703A904009396370123A00400EE
:102A100063DB060670485E24918B99C75C401D8E6F
:102A20005C5899C33C401D8E5C540C5081462685F1
:102A30008297FD575A24631DF5009440F54763E8DB
:102A4000D706B70740208507B3D7D700858BA5C326
:102A50001C48232204001CC09317370163D80700C9
:102A6000FD576314F5009C4091E368C84C5823A0BF
:102A70002401BDDD930744046384F5002685ED2E13
:102A8000232A0402B5B70C500146854626850297D5
:102A9000FD572A86E311F5F89C40B5DF754763853D
:102AA000E70059476393E70423A0240191B7136714
:102AB00007045AA47D5535BF83A90501E38A09F2AD
:102AC00003A905008D8B23A0350133093941014746
:102AD00091E3D84918C4E35D20F11C540C50CA8618
:102AE0004E86268582976347A0005E2493E70704FD
:102AF0005EA4C9B7AA993309A940F1BF9C49A5C3EF
:102B0000011122CC06CE2A8411C51C4D81E72EC6A8
:102B10002122B245971700009387C722639CF500D6
:102B20004C408397C5009DC722856244F2400561F1
:102B30006FF0DFE9971700009387C7226394F500D1
:102B40000C44C5B7971700009387C71DE39BF5FC9E
:102B50004C44C1BFF2406244014505618280014599
:102B60008280411122C406C62A844EA572A5232064
:102B7000050023220500232405002322050623281F
:102B80000500232A0500232C050021468145130555
:102B9000C505EFD0EFDC97170000938787B25CD0B4
:102BA000971700009387A7B41CD49717000093874A
:102BB00087B85CD4971700009387E7BA00D01CD879
:102BC000B24022444101828097050000938545F37D
:102BD00091AA411126C2130680069384F5FFB3849F
:102BE000C4024AC02E8922C406C6938544070D2E0E
:102BF0002A8401CD2320050023222501310508C4A4
:102C0000138684068145EFD0AFD52285B240224499
:102C100092440249410182801C4DA5E7411106C63C
:102C200022C497070000938767FA1CD593874181D8
:102C30009C43232405042326050423280504631448
:102C4000F50085471CCD2A84352848C022851D28DB
:102C500008C42285052848C4484001469145EFF044
:102C60005FF008440546A545EFF0BFEF484409462C
:102C7000C945EFF01FEF85471CCCB240224441010B
:102C80008280828041119387418126C284434AC059
:102C900006C69C4C22C42A8981E72685EFF0DFF71F
:102CA000938484048044DC40FD1763D607009C4075
:102CB000B9CF8440C5BF0317C40039E7C177850782
:102CC00023220406232004002322040023240400DA
:102CD0005CC423280400232A0400232C040021467A
:102CE00081451305C405EFD0AFC7232A0402232C66
:102CF000040223240404232604042285B24022442F
:102D000092440249410182801304840671BF9145B7
:102D10004A85EFF01FEC88C049FDB1472320F90038
:102D20000144E1BF797122D44AD052CC56CA5AC864
:102D30005EC606D626D24ECE2A8AAE8A13048504F3
:102D40000149054BFD5B09ECB25022544A8592546F
:102D50000259F249624AD24A424BB24B45618280E3
:102D6000044483294400FD1963D409000040E1BFF5
:102D7000DE24637BFB008397E40063877701A685ED
:102D80005285829A3369A90093848406E9BF197138
:102D9000A6DAAE848395E500A2DC86DE328463DBAE
:102DA0000500DE2423A0060093F7070885E79307B4
:102DB00000401DA0300836C6EF007020B246E34246
:102DC00005FE7247BD67F98F7977BA9793B71700F9
:102DD0009CC2F1BF930700041CC0F6506654D65441
:102DE000014509618280DE25011122CC06CE26CA6A
:102DF0004AC8898B2E8489CF930774041CC01CC8D1
:102E000085475CC8F2406244D244424905618280F1
:102E100074003000AA84EFF09FF7A2452A89268526
:102E2000012219E98317C40013F7072061FFF19B02
:102E300093E727005EA4C9B797070000938707D9D7
:102E40009CD45E2408C008C893E707085EA4A24784
:102E50005CC8B24781CF8315E4002685EF00D01807
:102E600011C55E24F19B93E717005EA45E243369CD
:102E7000F9002316240179B7DDC183A7C5FF4111ED
:102E800022C406C626C21384C5FF63D307003E943E
:102E9000AA84EF00301C9387C1829C4381EF2322D8
:102EA000040023A681822244B24026859244410137
:102EB0006F00701A637EF40014403307D4006396E9
:102EC000E7009843DC43369718C05CC0D9BFBA8787
:102ED000D84319C3E37DE4FE94433386D700631FD0
:102EE00086001040B29694C33386D700E31DC7FA1C
:102EF00010435843B29694C3D8C375B76375C400E2
:102F0000B1479CC04DB71040B306C4006316D7004C
:102F100014435843B29614C058C0C0C369B78280E6
:102F2000011126CA93843500F19806CE22CC4AC8F6
:102F30004EC6A104B14763F3F404B14463E2B404A0
:102F40002A89EF0030119387C18298433A8439E08F
:102F5000938701839C4391E781454A85252F23A8C8
:102F6000A182A6854A853D27FD5963193507B147DA
:102F70002320F9004A85EF00100E29A0E3D004FCBD
:102F8000B1471CC10145F2406244D2444249B249B2
:102F9000056182801C40858F63CF0702AD4663F6D2
:102FA000F6001CC03E9404C031A05C40631387024D
:102FB00023A6F1824A85EF00100A1305B400930797
:102FC000440061993307F5405DDF3A94898F1CC056
:102FD0005DBF5CC3C5B72287404095BF1304350071
:102FE0007198E30285FCB305A4404A856525E31C7E
:102FF00035FBB5BF1C46FD171CC663DA0700184E2B
:1030000063C5E700A9476394F5006FF0BF801C42D9
:103010002E851387170018C28CA38280011122CC41
:1030200026CA4AC84EC652C406CE2A89AE89328400
:10303000B304D6007D5A63149400014509A80C20FE
:103040004E864A85EFF01FFB0504E31645FFF2406C
:103050006244D2444249B249224A056182803571B4
:1030600022CD26CB4AC94EC706CF52C556C35AC138
:10307000DEDEE2DCE6DAAA89AE843289368409C56E
:103080001C4D99E3EFF05FB997170000938787CB4A
:103090006398F40C83A44900DE24A18BE5C79C4807
:1030A000F5C393070002A304F1029307000302D2C1
:1030B0002305F10222C6930B5002971A0000938A4F
:1030C0006ACC054C294B4A841C2099C3639F770D19
:1030D000B30C2441638E0C00E6864A86A6854E8595
:1030E000EFF0DFF3FD57630FF51C9256E69636D2EC
:1030F0001C206389071CFD571309140002C802CE67
:103100003ECA02CCA309010482D4834509001546B6
:1031100056852D2713041900C24751E913F70701FB
:1031200009C713070002A309E10413F7870009C7C1
:103130001307B002A309E104834609001307A002A4
:10314000638FE606F2474A84814625461820930598
:103150001400130707FD6377E60AB5CA3ECE85A8BB
:1031600097170000938707C06395F40083A4890034
:1031700025B7971700009387E7BAE39FF4F083A47D
:10318000C90019BFA6854E85EFF08FF419D97D557A
:10319000FA406A44DA444A49BA492A4A9A4A0A4BE6
:1031A000F65B665CD65C0D618280050431BF330539
:1031B00055413315AC00C98F3EC82289B9B7324793
:1031C00093064700184336C6634707023ACE1820D5
:1031D0009307E002631DF70418309307A002631BF6
:1031E000F702B2470904138747009C433AC663C1FC
:1031F00007023ECA2DA83307E04093E727003ACEE6
:103200003EC8F1B7B387670385462E84BA973DBFA2
:10321000FD57C5B7050402CA8146814725461820D7
:1032200093051400130707FD6374E606F9F20C20FA
:103230000D4617150000130565B5092511CD971723
:1032400000009387A7B41D8D93070004B397A700D0
:10325000424505045D8D2AC80C201946171500004B
:10326000130505B3130914002304B102C12B35C1A2
:1032700097D7FFFF938707D995E74247B247137760
:10328000071009CF91073EC69257D2973ED225BD6F
:10329000B387670385462E84BA9751B79D07E19B94
:1032A000A107D5B7780097060000938666D72686D3
:1032B0000C084E8597000000E7000000FD572A8AA1
:1032C000E314F5FCDE2493F70704E39207EC1255B0
:1032D000C1B5780097060000938686D426860C0830
:1032E0004E85012AE1BF797156CA9C49BA8A984530
:1032F00022D426D24ECE52CC06D64AD05AC85EC66A
:10330000AA892E84B284368A63D3E700BA879CC028
:103310000347340419C385079CC01C4093F7070278
:1033200081C79C4089079CC0032904001379690068
:10333000631A0900130B9401FD5B5C449840998F5C
:10334000634CF9041C408346340493F70702B336F8
:10335000D000A5EB13063404D2854E85829AFD5722
:103360006303F5041C4011469840998B54448144F2
:103370006397C700B384E64063D3040081441C44D0
:1033800018486354F700998FBE94014969047D5B26
:1033900063982405014509A885465A86D2854E853D
:1033A000829A631E75017D55B2502254925402597F
:1033B000F249624AD24A424BB24B456182800509CA
:1033C000ADBF3307D40013060003A301C7040347AE
:1033D000540493871600A2978906A381E7049DBF32
:1033E00085462286D2854E85829AE30E65FB0509C5
:1033F00045B7797122D426D24AD04ECE06D652CCC9
:1034000056CA5AC8B689942D930790063289AA8461
:103410002E8413863504638DF60263E2D706930784
:1034200080056386F61863EDD700638E0620930748
:103430003004638EF60A930A24042301D404C9A03D
:10344000930730066385F60A93074006E395F6FE78
:103450001C40084393F6070893054500C5C61C4168
:103460000CC363D807001307D002B307F040A301D1
:10347000E4049716000093862692294765A89307CF
:1034800000076382F61663E5D7029307E0066389B7
:10349000F6189307F006E390F6FA0C401C4313F875
:1034A0000508138547006307080608C39C4385A8E1
:1034B00093075007E383F6FE930780076389F612AC
:1034C00093073007E399F6F61C43D0418145938674
:1034D000470014C383AA070056858D2601C533050E
:1034E000554148C05C401CC8A301040461A81C43AA
:1034F000930A2404938647009C4314C32301F404D5
:103500008547D5B793F607041C410CC3B9DAC20747
:10351000C18781BF93F5050408C3C9D99E2313074A
:10352000F0066387E60E971600009386E686294725
:10353000A30104044C400CC463C5050008406D9908
:1035400008C099E3B28A89CDB28AB3F5E702FD1AC1
:10355000B6958C212380BA00B3D5E70263F0E70C5F
:10356000A147631EF7001C40858B91CB58401C4837
:1035700063C7E70093070003A38FFAFEFD1A330623
:10358000564110C84E87CA867000A2852685EFF086
:103590009FD57D5A631D450B7D55B25022549254E0
:1035A0000259F249624AD24A424B45618280A38263
:1035B000D504970600009386267E0C40084313F836
:1035C00005081C411105630D080208C313F7150017
:1035D00001C793E505020CC04147B9FB0C4093F5C8
:1035E000F5FD0CC0B1B79C4193E707029CC193075E
:1035F0008007A302F404970600009386267B75BF1C
:1036000013F8050408C3E30308FCC207C1837DBFA8
:103610009706000093864678214719BFAE8735B7D5
:1036200094411C43CC4913F80608138547006306F0
:10363000080008C39C438CC339A008C393F6060452
:103640009C43F5DA8EA323280400B28A25BF1448D0
:103650005686CA8526858299E30045F51C40898BEC
:103660008DE7B2474844E35AF5F23E853DB78546BB
:103670005686CA8526858299E30065F3050A5C446F
:103680003247998FE345FAFEE9BF014A930A940154
:103690007D5BF5B7411122C42A842E8523AC011627
:1036A00006C6EFE0DFA7FD576317F5009387811784
:1036B0009C4391C31CC0B24022444101828041110D
:1036C00022C42E848395E50006C67922634905004D
:1036D0007C48AA977CC8B2402244410182805E2483
:1036E0007D777D17F98F5EA4FDB7DE25011122CC11
:1036F00026CA4AC84EC606CE93F70710AA842E845F
:103700003289B68991C78395E50089460146092229
:103710005E247D777D17F98F5EA48315E4006244F3
:10372000F240CE864A86B24942492685D244056196
:1037300025A8411122C42E848395E50006C6C92818
:10374000FD575A24631AF500FD77FD17F98F5EA423
:10375000B2402244410182808567D98F5EA468C847
:10376000C5BF8395E50005A8411122C42A842E8592
:10377000B285368623AC011606C6EFE07F96FD576C
:103780006317F500938781179C4391C31CC0B24017
:10379000224441018280411122C42A842E8523AC17
:1037A000011606C6C520FD576317F50093878117DC
:1037B0009C4391C31CC0B24022444101828041110C
:1037C00022C42A842E85B28523AC011606C6C920E0
:1037D000FD576317F500938781179C4391C31CC065
:1037E000B240224441018280411122C42A842E85A4
:1037F00023AC011606C65D20FD576317F5009387BD
:1038000081179C4391C31CC0B24022444101828075
:10381000411122C42A842E85B285368623AC011636
:1038200006C65920FD576317F500938781179C43FF
:1038300091C31CC0B24022444101828093F5F50F30
:103840002A966314C500014582801C21E38EB7FED1
:103850000505C5BF82808280411122C42A842E853D
:10386000B285368623AC011606C6A920FD5763171C
:10387000F500938781179C4391C31CC0B24022443A
:10388000410182809307800523ACF1167D5582802B
:103890009307800523ACF1167D5582809307800540
:1038A00023ACF116014582809307800523ACF11605
:1038B0007D5582809307800523ACF1167D5582806B
:1038C00053797374656D436C6B3A25640D0A00007F
:1038D0005468697320697320616E206578616D702A
:1038E0006C650D00506172616D6574657220546184
:1038F000626C6520496E697469616C697A65640DF2
:1039000000000000554152542050726F746F636F75
:103910006C20496E697469616C697A65640D000098
:103920004D6F64656C204E6F3A2025640D0A0000CF
:1039300046572056657273696F6E3A2025642E25AE
:10394000640D0A00506172616D6574657220546186
:10395000626C652056657273696F6E3A2025640D3E
:103960000A0000005465737420436F756E743A202A
:1039700025640D0A000000005374726970205479A8
:1039800070653A2025730D0A00000000556E6974B9
:103990003A2025730D0A00000C3A0000183A000086
:1039A000243A0000343A0000443A0000F4390000A0
:1039B000FC390000043A0000556E6B6E6F776E00A4
:1039C0009F6FCAC2BCFE0000EF88C7B000000000B5
:1039D000EF88E1E100000000BFD5B8B900000000A9
:1039E000CBAFC7B0000000004143000050430000CF
:1039F000514300006D6D6F6C2F4C00006D672F649C
:103A00004C000000676D2F644C000000474C5620AE
:103A100028D1AACCC7290000552028C4F2CBE1291F
:103A200000000000432028BF82C491B9CCB4BC2957
:103A30000000000054472028C8FDCBE1B8CAD3CD10
:103A4000D6AC29004741562028D1AACCC72900006E
:103A500000000040537472697020496E736572747F
:103A60006564204576656E74205265636569766588
:103A7000640D00005374726970204465746563744A
:103A8000656420617320747970653A2025730D0A8E
:103A9000000000005374726970204465746563749B
:103AA000696F6E204D6F64756C6520496E6974692D
:103AB000616C697A65640D003333534000008039CE
:103AC000537472697020547970652044657465631D
:103AD0007465643A20257320285431563D252E32D2
:103AE00066562C2050333D25642C2050353D2564EE
:103AF000290D0A0053656E74205374726970205446
:103B000079706520746F20424C453A2025640D0A77
:103B100000000000C8140000E014000004150000BC
:103B2000241500004C1500006015000053747269E4
:103B30007020696E736572746564206E6F74696657
:103B400069636174696F6E20726563656976656427
:103B50002E2050696E333D25642C2050696E353D12
:103B600025640D0A00000000537472697020696EAC
:103B7000736572746564206E6F74696669636174DD
:103B8000696F6E20776974686F75742070696E2034
:103B90007374617475730D00554152542050726FE7
:103BA000746F636F6C20696E697469616C697A65A2
:103BB000640D000053656E64696E672073747269EA
:103BC0007020747970652061636B3A2025730D0A4B
:103BD00000000000413132333435363738390000C7
:103BE0006AE7FFFFBCE6FFFFBCE6FFFFBAE6FFFFA8
:103BF000C0E6FFFFC0E6FFFF90E6FFFFBAE6FFFF6B
:103C0000C0E6FFFF90E6FFFFC0E6FFFFBAE6FFFF5A
:103C100058E7FFFF58E7FFFF58E7FFFF90E6FFFF79
:103C20000001020203030303040404040404040463
:103C30000505050505050505050505050505050534
:103C40000606060606060606060606060606060614
:103C50000606060606060606060606060606060604
:103C600007070707070707070707070707070707E4
:103C700007070707070707070707070707070707D4
:103C800007070707070707070707070707070707C4
:103C900007070707070707070707070707070707B4
:103CA0000808080808080808080808080808080894
:103CB0000808080808080808080808080808080884
:103CC0000808080808080808080808080808080874
:103CD0000808080808080808080808080808080864
:103CE0000808080808080808080808080808080854
:103CF0000808080808080808080808080808080844
:103D00000808080808080808080808080808080833
:103D10000808080808080808080808080808080823
:103D20000000000000000000000000000000000093
:103D30000000000000000000000000000000000083
:103D40000000000000000000000000000000000073
:103D50000000000000000000000000000000000063
:103D60000000000000000000000000000000000053
:103D70000000000000000000000000000000000043
:103D8000232D302B20000000686C4C0065666745D1
:103D90004647000030313233343536373839414206
:103DA0004344454600000000303132333435363765
:0C3DB00038396162636465660000000041
:103DBC0000000000050000000101000000000000F0
:103DCC0000000000000000000000000001020304DD
:103DDC00010203040607080900000000403D000032
:103DEC00603D0000203D00000000000000000000CD
:103DFC0000000000000000000000000000000000B7
:103E0C0000000000000000000000000000000000A6
:103E1C000000000000000000000000000000000096
:103E2C000000000000000000000000000000000086
:103E3C0000000000000000000024F4000500000059
:103E4C0002040608040A0020280000202800002094
:00000001FF
