:040000006F206048C5
:1000040000000000000000009003000092030000C4
:100014000000000084240000000000000000000034
:10002400842400008424000000000000000000007C
:10003400842400000000000084240000000000006C
:10004400842400008424000084240000842400000C
:1000540084240000842400008424000084240000FC
:1000640084240000842400008424000084240000EC
:1000740084240000842400008424000084240000DC
:10008400D40D000084240000842400008424000093
:1000940084240000842400008424000084240000BC
:1000A40084240000842400008424000084240000AC
:1000B400842400008424000084240000842400009C
:1000C400842400008424000084240000842400008C
:1000D4008424000084240000040D00008424000013
:1000E400842400008424000084240000842400006C
:0C00F40084240000842400008424000008
:10010000397101436EC619A0397141536AC866CA74
:1001100062CC5ECE19A0397101535AD056D252D456
:100120004ED64AD826DA22DC06DE330161408282CE
:1001300041114AC026C222C406C68282B24D410184
:10014000024D924C224CB24B4101024B924A224A40
:10015000B2494101024992442244B24041018280A5
:100160003D432A876373C3029377F700BDEFADE584
:10017000937606FF3D8ABA960CC34CC30CC74CC796
:100180004107E36BD7FE11E28280B306C3408A06C3
:100190009702000096966780A6002307B700A30683
:1001A000B7002306B700A305B7002305B700A304D3
:1001B000B7002304B700A303B7002303B700A302CB
:1001C000B7002302B700A301B7002301B700A300C3
:1001D000B7002300B700828093F5F50F9396850052
:1001E000D58D93960501D58D61B79396270097021B
:1001F000000096968682E78086FA9680C1171D8F4A
:100200003E96E374C3F8A5B7EFF2FFF0AA8AEF10A9
:100210004079914763F5A7004D45EF00B0442A842B
:10022000EF00B06DAA8537550000228613050543FF
:10023000EF4020179307F4FF0947930910276369DC
:10024000F7001397170093878181BA9783D9070026
:100250005685EF307052B757000083A50741B75459
:100260000000EF30806AB757000083A54741EF20B8
:10027000F0762A8A4E85EF303050AA855285EF30CD
:10028000D011B757000083A587412A8BEF30E06774
:10029000B757000083A5C741EF30206783A504420C
:1002A000EF30A06683A50442EF30E029B757000085
:1002B00083A54742EF30606583A50442EF30A02854
:1002C000B757000083A58742EF30300D930500003B
:1002D000EF20D07093050000EF20507093050000D0
:1002E0002A89EF30C0596342050AB757000083A43A
:1002F000C7404A85A685EF3020506353A000268969
:10030000B757000083A5C7424A85EF20306DEF3014
:100310005041938481828AA0375500001305C5445B
:10032000EF40601937550000D68513058546EF402C
:100330004007375500004E86A2851305C547EF409C
:100340004006375500001305454AEF40C016528558
:10035000EF30704F2A8637550000AE861305054CE6
:10036000EF4020045A85EF30104E2A8637550000A2
:10037000AE861305454DEF40C0028E203755000074
:100380001305854EEF40E001C9B3130900008DBF8E
:1003900001A0B707EFBE37E700E0938707083CC727
:1003A00001A0EFF25FD74111AA891395150032C65B
:1003B0002E84EF30F05A324611E93755000013050C
:1003C000C553EF40400F0145410141B32A892285C1
:1003D00063738600328593F5F90FB72901409314B2
:1003E00005019D46138509400546C180EF20202068
:1003F000014A9389094093170A01C18363E0870486
:1004000001479308F4FF634717098947058C334474
:10041000F402131704014183B386E400C206931764
:100420001700C182CA970144636BD7064A85EF3033
:10043000D053335594024205418179B785454E85A5
:10044000EF20601989454E85EF20602665DD4E85D9
:10045000EF20602593171A00CA978AA32945EF2039
:100460005045050A49BF939716003305F9008907DF
:10047000CA970E2103D807006375B8002310050141
:100480008EA38506C206C182E3CFC6FC05074207DC
:10049000418395BF3306E44081467D16F5B792232C
:1004A00005074207329441838907BDBFEFF25FC859
:1004B0007971AA848545114502CA02CC02CE02D0C8
:1004C00002D202D402D602C602C8EF20E0728545ED
:1004D00037050200EF2020749147FC823714014059
:1004E0008D473ECC4C08E147130504803ECEEF20FB
:1004F000003FA147FC824C089147130504803ECE83
:1005000037440040EF20A03DB7070C000C10130546
:1005100004403ED426D002D223160102EF209022BE
:1005200005469305404213050440EF20102C930725
:1005300060137C8685475C87680085473EC8EF204E
:10054000004C854513050440EF20D028456119B1C2
:10055000EFF21FBE39711306C00281454808093108
:10056000854505453704024002C602C8EF20E06613
:100570001305C406EF20C018B74400408D673EDC69
:10058000938744403ECA13070008938711874C089D
:100590001305C4063AD43AD03ECC02D202D602D8D1
:1005A00002DA02DE02CEEF20601F05468945130500
:1005B000C406EF206023930700127C8685475C8782
:1005C000680085473EC8EF2080431305C406854573
:1005D000EF20402005469305000413850440EF20DA
:1005E0003024216185BEEFF21FB39387419703D773
:1005F000474093070040AA8A998F3E84C207C1836F
:100600001389419763F3F5002E84835409409309BD
:1006100000404204C204C180B3899940C2094180AC
:1006200093D9090163E88902035509402286D685DA
:100630004A95EF30303483570940A297C207C183EF
:100640002310F940835749403E94420441802312CD
:100650008940E5BC03550940938404C0A2944E86AA
:10066000D685C2044A95EF30F030C1802686B38526
:100670003A0113854197EF30F02F23109940D9B7F5
:10068000EFF21FAB01118545114502C202C402C63B
:1006900002C802CA02CC02CEEF20005685450545AD
:1006A000EF208055371501404C009307000B1305D0
:1006B00005807C8202C6EF208022854708083EC85C
:1006C0003ECA3ECC3ECEEF20C03885450545EF20E2
:1006D000A03B3755000013058556EF30D05D05610E
:1006E00095BCEFF2FFA4056539718545130585803A
:1006F00002CA02CC02CE02C402C62318010002D8EC
:1007000002DA02DC02DE02D002D202D42316010297
:10071000EF20804EE177FC8237150140E1473ECE65
:100720004C088D47130505C0373401403ECCEF20FF
:10073000001B9307F0312C00130504C03EC602C411
:1007400023080100EF208068C167938707073ED820
:10075000B7071F0391073EDA0C1893070010130523
:1007600004C03EDE02DCEF20006DB7170004938763
:1007700007803ED00C109167130504C02316F102C8
:1007800002D202D4EF206074130504C0A145EF200B
:10079000407A130504C08545EF200078130504C096
:1007A0008545EF2080748545130504C0EF206075F2
:1007B000376500001305C58BEF30B03E216159BA93
:1007C000EFF29F940111EF10602A83A741832A84DE
:1007D00093844183638CA70019476398E7003755DA
:1007E00000001305C557EF30104D80C09D4763E1F1
:1007F00087409567938707500A043E941C40828780
:10080000372401409D460546914513050440EF10ED
:10081000105E854513050440EF10F05B930404401F
:1008200089452685EF10B06865DD13050440EF109B
:1008300090672A84EF10E0161408500893052101F0
:10084000AA84EF00501A63060512914763E39712DA
:10085000BC80154563E0871205616FF07F8E1387BA
:1008600001841C4313890184A9071CC383C78183A6
:1008700093898183CDEBEF10C0121384E182938AB8
:100880008184138A418405479386E182138681849B
:1008900093854184AA84EF00B01A71C5138B01833C
:1008A000138CA184938B61840947938601831386FB
:1008B000A184938561842685EF0090184DC5832619
:1008C0000900854723AED1822685370700202304FF
:1008D000F7082380F900EF005002AA853755000081
:1008E00013058559EF30F02B03580C0083D70B000C
:1008F00003570B0083D60A0003560A000E20375513
:1009000000001305455CEF30D0293735014085459F
:10091000130505C0EF20E05E0E20375500001305DB
:100920008560EF301028B7040020938A840883C5BF
:100930000A00138AC1838326090083270A001387CC
:10094000F5FF1377F70F1946B387F6401384C18379
:10095000938484086365E62215660A071306065227
:100960003297184302873755000013054563EF306F
:1009700090341D45EF10400DC5B503D7E182E3ED7E
:10098000E7EC373501408145130505C0EF2060577E
:10099000E177FC82B7190140C1473ECE4C088D4734
:1009A000138509C03ECC231B0100EF105073A165D5
:1009B000138509C0EF20C0018327090037550000C7
:1009C000130585651CC089479CA083D54184EF3001
:1009D000501D59B503D74184E3E0E7E8E1773715C7
:1009E0000140FC828D49E1474C08130505C03ECE0D
:1009F000231B01004ECCEF10906E3735014085452A
:100A0000130505C0EF20E04F83270900375500008C
:100A1000238034011CC083D581841305056845BF3C
:100A200003D78184E3EAE7E283D7618414C091EBC2
:100A30009D47375500009CA01305856AEF30B0270D
:100A400021BD91479CA03755000083D50183130534
:100A5000456FB5BF03D70183E3E0E7E037350140D9
:100A60008145130505C0EF20C049E177FC82B71925
:100A70000140C1473ECE4C088D47138509C03ECC8E
:100A8000231B0100EF10B065A165138509C0EF10AD
:100A900030748327090037550000130545721CC0C8
:100AA00095479CA083D561841DB703D76184E3E596
:100AB000E7DAE177FC8237150140E1473ECE4C088A
:100AC0008D47130505C03ECC231B0100EF1030619C
:100AD000373501408545130505C0EF208042832747
:100AE0000900375500001305C5741CC099479CA028
:100AF00083D5A184E9BD03D7A184E3EFE7D49D4763
:100B00003755000014C09CA01305457705BF51461A
:100B1000930540061145EFF0DF882395A182AA8551
:100B20003755000013058579EF30B00737350140A0
:100B30008145130505C0EF20C03CE177FC823719E1
:100B40000140C1473ECE4C088D47130509C03ECC3D
:100B5000231B0100EF10B058A165130509C0EF1069
:100B600030671945EF00506E8547375500009CA04F
:100B700023800900232004001305857DC1B5376556
:100B8000000013050580EF30D00185472380FA006F
:100B90002380090023200A00E9BB98409947138469
:100BA000C1826303F70423000400376500001305C6
:100BB000C581EF30501003D5A182EFF0EFE483D56B
:100BC000818245452EC6792C892BB2452A86376508
:100BD000000013058584EF30C07C85473765000031
:100BE0001CA01305858799BD1C20E39707C675BF18
:100BF000014549B3EFF2CFD30545EF10F05F7164C3
:100C0000EF20804813050420EF20605113050420D5
:100C1000EFF0DF89EFF0DF93B707002083A5C70867
:100C2000376500001305858EEF30A077376500002B
:100C30001305858FEF303008EFF09FA45D347921E4
:100C4000376500001305C590EF30F006EF007062C5
:100C5000376500001305C592EF30F005EF00502B0B
:100C6000EF00F0133765000013058594EF30B004F2
:100C70000D45CD2AAA853765000013058595EF300F
:100C800040721145C5222A841145E92A2946B355E7
:100C9000C4023376C5023765000093F5F50F1305DE
:100CA0008596EF3000701D45D522AA853765000076
:100CB0001305C597EF30E06E1545C92AAA8537653B
:100CC00000001305C599EF30C06D4D45612A3521EF
:100CD000AA85376500001305059BEF30806C4545FC
:100CE00051222529AA85376500001305459CEF3060
:100CF000406BEF10E05CEF00702FD9341545EF200A
:100D0000A03EC5BF011152C6374A0040930540427C
:100D100013050A4022CE26CC4ACA4EC8EF20003323
:100D200015E9374400409305505213050440EF2065
:100D3000E03109C913050440EF2020301375F50F89
:100D4000EF1080377244E2445249C249324A056189
:100D50007300203013840187370902408327090775
:100D600004201309C9069309000893F4F40F4A8577
:100D7000B389F940814593B714001CA0EF1090256A
:100D80004A8593050008EF1050271C2085454A85A9
:100D90009E078507A2972326F900EF10B0231305BD
:100DA0000A40EF2080299E04C20993D909011385C6
:100DB00014002295CE85EFF01F8301492694E3723B
:100DC00039F7B3072401883305091379F90FEF10B8
:100DD000A02EF5B741114EC026C44AC222C61389BF
:100DE000018703440900B70402401385C406137445
:100DF000F40F9337140081452300F900EF10901D84
:100E00001385C40693050008EF10301F83470900BF
:100E10001385C40685459E078507CA975CC5EF10F4
:100E2000701B1E04130514004A9593050008EFF08B
:100E30008FFB85449389018713091008B307940039
:100E4000CE9788238504EF102027E39924FF3705E8
:100E50002000EF10D01A3244A244124982494101C5
:100E6000730020309307502A63E7A7009387C1D708
:100E7000AA9788238280014582809307502A63E6DF
:100E8000A7009387C1D7AA978CA382809307402A93
:100E900063EAA7009387C1D7AA9788339C232205CA
:100EA0005D8D8280014582809307402A63E8A70018
:100EB0009387C1D73E950CA1A1810CB18280814658
:100EC00081471387C1D71306402AB305D70088216D
:100ED00085063E9593170501C183E398C6FE034539
:100EE000572A0347472A2205598D1D8D13351500B2
:100EF0008280814601479387C1D71306402AB38574
:100F0000D7008C2185062E9742074183E399C6FEC0
:100F10002392E72A814601471306302AB385E7006A
:100F20008C210507AD8EE31BC7FEA381D72A8280E3
:100F3000EFF20FA0EF10300D37050108B7040108DC
:100F4000EF10B0121384C1D71389642A1C300C200F
:100F50002685A207DD8D8904EF10F0140904E397BC
:100F600024FFEF10F00B6FF0EF9EB7060108938798
:100F7000C1D71386662A9A228906890742074183C8
:100F8000238FE7FE2183A38FE7FEE396C6FE8280D0
:100F9000EFF20F9A1384C1D71306602A8145138597
:100FA000C1D7EFF0EF9B654718B405678546130678
:100FB000575034B074B032A434A831469306800739
:100FC00050A454A813068012E97612A89386464AC4
:100FD0001306303376A852B4E9567D76B7051C0265
:100FE000A30FD416A306D4207906A14693852535F0
:100FF00034BC72BC232CB40C91663706E803B78569
:101000000807938606F8130686709385452176AC0B
:1010100030C02326B40E8D679305E02EB706520329
:101020003706A00F938606322318B40E9387A77352
:1010300093050777130606321EA014D4A94770C083
:1010400013050032130680FC231AB40E2322D41693
:10105000930550FBE5765CA07CB4A303F402A30ADD
:10106000F40CA301F4162304C404231BA40C2304CE
:10107000B416E506231DD416A308F41E93072035E5
:10108000231AF41E13071780F576B7F70108231EFD
:10109000E416938626031D479387E741230FE41642
:1010A000A300C4182311D4182302E4182319A41E82
:1010B000230BB41E2324F4202306E420A307C4201A
:1010C0002318D4202309E4206FF0CF88EFF24F8655
:1010D000693DF53301ED37650000130545A1EF309B
:1010E000803D7D353935A9356FF0CF8637650000F5
:1010F000130585A4EF30203CC5BF914763EAA700E4
:101100009317250019651305459F3E950841828078
:1011100037650000130505A78280894763EAA700A9
:10112000931725001965130585A03E950841828017
:1011300037650000130585A78280AA880145638E64
:10114000080285CD1DCA95CA0DCB85CB1388C1D7A2
:10115000034598002380A8000345A80088A1834583
:10116000B80005450CA20346C80090A28346D800EB
:1011700014A30347E80098A38280828013083006F6
:101180006360A8069388F5FF93F8F80F2D43014894
:10119000636913059308F6FF93F8F80F79436362C8
:1011A0001305DD4863EFD8029308B00363EBE80250
:1011B00063E9F802EFE2DFF71388C1D7A304A800C0
:1011C0002305B800A305C8002306D800A306E8003D
:1011D0002307F800393BA93B054842856FE09FF79C
:1011E0000148428582808147B1C929CAA1CA1147F5
:1011F0006366A704EFE23FF2996706059387C79DF0
:10120000AA9703DA070099679387879EAA9783D9DD
:10121000070099679387079D3E950A213684B2841B
:101220002E89AD312310A90052858D318AA04E85BB
:10123000B13985470AA03E856FE03FF13E85828047
:101240008147F1CD69CEE1CE1148636AA80C9308BD
:10125000F7FF93F8F80F05486363180DEFE2BFEB53
:1012600089476309F50663E2A704630C0505854712
:10127000630BF7061304E0049304C0041305A004F1
:101280003689B2892E8AEFF07FC02310AA00268506
:10129000EFF0DFBF2390A9002285EFF03FBF854725
:1012A0002310A9003E856FE05FEA8D47E311F5FC4E
:1012B0006300070713049021930470211305502144
:1012C000C1B76309A7021304C00F9304A00F13054D
:1012D000800F7DB7630707031304B01893049018B9
:1012E0001305701871BF1304800493046004130580
:1012F000400479B71304600F9304400F1305200FC7
:1013000041B71304501893043018130510188DBFFB
:1013100013043021930410211305F02095B73E8566
:101320008280EFE27FDE41112E8C9565AA8BB2841C
:101330009385C53F35460A85BA893E8A3689EF20AE
:10134000706313F73B0093D72B0019E7894663E5D9
:101350008601FD1793F7F70F130BD016338B6B0332
:10136000939A070193DA0A01420B135B0B0119E30D
:10137000F5475C8181470144850713F7F70F6360E8
:101380008707EF1070211385F4FF5A955695229523
:101390004205556413040418418133058502056430
:1013A000130404E19307C00333048902B387F902ED
:1013B00022953E955295EF109018EF10F01D37656D
:1013C00000005288CE874A87A686628693850B7D69
:1013D0001305C5B4EF20F07C41016FE07FD63307E1
:1013E000F10018233A944204418079B7EFE2BFD26A
:1013F000011136C63AC43EC2AE843289AA89EF10C2
:10140000700E95652A8435469385C53F0808EF2000
:101410007056D565938505183356B402B2462247F7
:1014200092473374B4028565938505E13355B40260
:101430003374B40288A29306C003B355D402337444
:10144000D4020CA380A3814793F6370013B716008C
:101450001307D7166377E6022380F90081E6F54784
:101460002309F10085479CA09C2018103E97034754
:1014700007FF637DE60005062300C90005616FE0F4
:10148000DFCC8507C207198EC1837DBF198E850702
:10149000D9BFEFE2FFC941119307F1001307E10043
:1014A0009306D10070009305B1001305A100EFF081
:1014B000DFC80DC108859C871887948610868C85A7
:1014C0008D35376500001305C5B7EF20D07E41018B
:1014D0006FE05FC837650000130505BAFDB7EFE29E
:1014E0003FC5854537050018EF10E0720545EF1040
:1014F000605CEF10601C0545EF10405E13051006A0
:10150000EF10207765DD13050020EF10605E0545C4
:10151000EF10C05EEF105009EF1010082965130599
:10152000F5C3EF109004EF103007A53737650000C2
:10153000130585B3EF2030786FE0DFC1EFE25FBFC6
:1015400041119307F1001307E1009306D1007000E9
:101550009305B1001305A100513D9C87188794861F
:1015600010868C850885EFF07FC11DC10C8503486E
:10157000F1001C8798861486908537650000938556
:10158000057D1305C5BCEF20D06141016FE09FBC14
:10159000376500001305C5C0EF20F071FDB7EFE21D
:1015A0003FB91145EF100014A9659385555A630C96
:1015B000B5003537A9679385575A1145EF10C0100C
:1015C000B53F6FE03FB91305B007EF10806A0DC952
:1015D00037650000130505AEEF20F06D376500009C
:1015E000130585B1EF20306D0545EF10A04CEF10CD
:1015F000A07B85450545EF10A06AEF10E079C9B7DB
:101600001305A007EF10E06671D9376500001305D8
:10161000C5AFD9B7EFE2DFB1B70700209387070066
:101620009A27C84793070010631DF700B7670000AB
:1016300083A5C7C4EF20401C932715003E856FE0AB
:101640007FB101EFB767000083A5C7C4EF20C01AC0
:101650008947E345A0FE9547D5B785469547E31FE3
:10166000D7FCB767000083A5C7C4EF20E018B327F5
:10167000A0008D07E1B7EFE2BFABAA8711471305C2
:10168000803E636DF70019658A07130585C3AA9725
:101690009C43828713052004EFF04FFF9307803EA1
:1016A000B385A74013050032B385A5023735014045
:1016B000130505C0B3C5F502C205C181EF1050087E
:1016C0006FE05FA91305000FC1BF1305F017E9B75D
:1016D0001305D020D1B7EFE2BFA5372401409D46C6
:1016E0000546994513050440EF00707085451305C4
:1016F0000440EF00506E9304044089452685EF00B6
:10170000107B65DD13050440EF00F0796FE09FA4C6
:10171000EFE21FA279718545314502C202C402C6BB
:10172000EF10804D93070010371401407C82C147B1
:10173000130504803EC64C008D473EC4EF10201AAE
:101740001305048093050010EF1080289307000410
:10175000130504804C007C8202C6EF10401813066B
:10176000000281450808EFE0BF9F85451305002072
:10177000EF108048316537240140EF100035130524
:101780000440EF00B058B7070E003ECE0C08854766
:10179000130504402302F10202C802CA02CC02D09F
:1017A000EF00D05A854513050440EF00905F130504
:1017B0000440EF001060930404402685EF001060A1
:1017C0006DFD1305044037240140EF00B05F1304A2
:1017D00004402285EF00B05F6DFD37650000130502
:1017E00005C9EF20504D45616FE0DF96EFE2BF92F3
:1017F000370400208324040085470111639FF40E01
:10180000130404005C28639A070E371901409305FE
:10181000001013050980EF10E01C2945EF10D00CD3
:101820005D3DEF206075B767000083A547CBEF20D3
:10183000C00DB767000083A587CBEF20000D48C41B
:10184000D13B89479305001048C0130509801CC08F
:1018500044A8EF10E0174840EFF03F8A1C341824EA
:101860002A8948443EC63AC4EF20E07DB247224769
:101870002A8637650000AE861305C5CBCA85EF20E2
:1018800050324C204D45EFF04FDF4840ED335C388F
:10189000A9EF83294400E9779387A70AFC84374995
:1018A0000040938719FA230D9100A30D3101230EF7
:1018B000F100814413090940154A3C08A6978C237E
:1018C0004A85EF100077930500084A85EF1060778E
:1018D0007DD98504E39344FF376500008547CE85B5
:1018E000130505CF5CB8EF20D02B1145B12A376521
:1018F0000000130505D1EF20103C05616FE0FF8467
:10190000EFE21F8337040020376500001304040052
:101910000549130505C52320240123280400231AA3
:101920000400EF20503937150140930500101305CE
:101930000580EF10200B13052003EF10E07AEFF085
:101940009FD9EF206063B767000083A547CBEF10F6
:10195000D07BB767000083A587CBEF10107B48C40E
:10196000EFF05FCBAA8448C0EFF0FFD02685EF00F0
:101970009019894726851CC0230A2401EFF0EFF750
:10198000AA8537650000130505C7EF209021114592
:10199000652837650000130505D1EF20D0316FE0D1
:1019A0006FFBB707002003A547008280B707002020
:1019B0009387070088A78CB78280B71702409843A7
:1019C000B706FFF01367170098C3D843758FD8C3C5
:1019D0009843B706F7FEFD16758F98C39843B70670
:1019E000FCFFFD16758F98C3D843B70601FFFD169F
:1019F000758FD8C337079F0098C7D843B706C1FF74
:101A0000FD16D8C3D843D8C3D843D8C3D843758F9D
:101A1000D8C3D843B7060001D8C39843558F98C39D
:101A2000984393166700E3DD06FED843B7160240DD
:101A3000719BD8C3D84313672700D8C32147DC4222
:101A4000B18BE39EE7FE8280EFE28FEE9384C18448
:101A50008C40638BA5002A842A8637650000130515
:101A600085D3EF20101480C06FE0CFEE03A5C184B2
:101A70008280EFE2EFEB239C0184238B0184A38D12
:101A80000184154723880184694681451385010631
:101A90002384E180EFE0CFEC1306C003814513857A
:101AA0004102EFE0EFEB37650000130585E2EF2020
:101AB00090206FE02FEA2E95814713F7F70F6365AB
:101AC000B7001375F50F82803307F60018238507DA
:101AD0003A9542054181D5B7EFE2EFE39387C10B19
:101AE0001307A0FA98A388B3B0A3AA892E8A3289D3
:101AF0009384C10B0D4411CA89C9138534001304A2
:101B00003900EF2020671374F40FCA854E85528682
:101B10005D37B38784009309240005041374F40F20
:101B200088A3269493075005374900401CA093F9D9
:101B3000F90F0144130909409377F40F63E5370166
:101B400005456FE08FE0B38784008C234A85EF1052
:101B5000404E930500084A85EF10A04E7DD905043C
:101B6000E1BF914763F3B702EFE28FDC2421130654
:101B700035002A840831A6852694353F3C303385CC
:101B8000A740133515006FE0EFDC01458280930715
:101B9000C00363E7C700EFE2AFD93D3F6FE08FDBE3
:101BA00001458280EFE2CFD8411148866C0005469E
:101BB00013051008153741016FE0CFD9EFE24FD779
:101BC0001E2141112C0013978700A183D98F7C849B
:101BD0003E21214613978700A183D98F7C855E2102
:101BE00013978700A183D98F7C867E211305200857
:101BF00013978700A183D98F7C87EFF0FFED410118
:101C00006FE04FD5EFE2CFD2411148866C00054618
:101C100013053008EFF05FEC41016FE0AFD3EFE266
:101C20002FD1411148866C00054613054008EFF09E
:101C3000BFEA41016FE00FD2EFE28FCF1E21011109
:101C40004C0013978700A183D98F7C823E2169467F
:101C500013978700A183D98F7C835E211397870018
:101C6000A183D98F7C847E2113978700A183D98F8C
:101C70007C851E2513978700A183D98F7C863E25FE
:101C800013978700A183D98F7C875E2513978700E0
:101C9000A183D98FFC807E2513978700A183D98FDC
:101CA000FC811E2913978700A183D98FFC823E29CE
:101CB00013978700A183D98FFC835E291397870030
:101CC000A183D98FFC847E2913978700A183D98FA4
:101CD000FC851E2D1305500813978700A183D98F0B
:101CE000FC86EFF07FDF05616FE0CFC6EFE24FC407
:101CF0001E21397113978700A183D98F7C823E21E1
:101D000013978700A183D98F7C835E211397870067
:101D1000A183D98F7C847E2113978700A183D98FDB
:101D20007C851E2513978700A183D98F7C863E254D
:101D300013978700A183D98F7C875E25139787002F
:101D4000A183D98FFC807E2513978700A183D98F2B
:101D5000FC811E2913978700A183D98FFC823E291D
:101D600013978700A183D98FFC835E29139787007F
:101D7000A183D98FFC847E2913978700A183D98FF3
:101D8000FC851E2D13978700A183D98FFC863E2DDD
:101D900013978700A183D98FFC875E2D1397870047
:101DA000A183D98F2310F1027E2D13978700A18381
:101DB000D98F2311F1021E3113978700A183D98F88
:101DC0002312F1023E3113978700A183D98F231389
:101DD000F1025E3113978700A183D98F2314F1029A
:101DE0007E3113978700A183D98F2315F102130742
:101DF0002003930780023306F50010225400BE969C
:101E000090A28507E399E7FE1307C0033306F500A8
:101E100010225400BE9690A28507E399E7FE4C007D
:101E20001306C00313056008EFF07FD621616FE051
:101E30006FB2EFE2EFAF41114886CC8609466C00E5
:101E40001305F008EFF05FC941016FE0AFB0EFE2BA
:101E5000AFABB1476388F500B1450545D93F0145B2
:101E60006FE00FAE04211C3103492500A204DD8C74
:101E70003C31C204C18422093369F9009387048389
:101E8000C2074209C1831307300613590941E365AC
:101E9000F7FC9307F9FFC207C1832D47E36EF7FAFA
:101EA00040215C31794722045D8C420441849307D0
:101EB000F4FFC207C183E361F7FA7C217831A207FE
:101EC000D98F139A07015D47135A0A41E366F7F861
:101ED0001C251835A207D98F939A07011307B00361
:101EE00093DA0A41E36AF7F630253C3522065D8E27
:101EF000131B0601135B0B41E360C7F693840403D5
:101F000093F4F40F1379F90F1374F40F137AFA0F93
:101F100093FAFA0F137BFB0FDA875687D286228655
:101F2000AE892685CA85EFF06FA5AA8BDA8756871A
:101F3000D2862286CA852685EFF0AFBE63830B006A
:101F400081494E85EFF01FC6054519BFEFE24F9E50
:101F5000411189C9B1450945EFF0BFED0145410186
:101F60006FE04F9F4D45EFE0FFEF6884ED266885F9
:101F7000C92E6886F12E68872800EFF03FC405451A
:101F8000F9BFEFE2EF9A91476389F500B1450D453E
:101F9000EFF03FEA01456FE0EF9B3C213831A207AB
:101FA000D98F1394070115474184E361F7FE1C2183
:101FB0000C311D45A207DD8DEFE01FEF9375F40F87
:101FC0004945EFE09FEB0145EFF0DFC30545E1B781
:101FD000EFE20F9689C9B1451145EFF09FE5014445
:101FE00022856FE02F972E84BD26AA8509C511454D
:101FF000EFF03FE4F5B7054793840185A38DE184B5
:1020000023800400992E85472A846318F50088A050
:1020100003C58180EFF0BFC0E1B7A1451145EFF0E6
:102020005FE1054475BFEFE2AF90011191C9B14581
:102030001545EFF01FE00144228505616FE08F91A7
:1020400048002D262A849384B18501E9A9451545C8
:10205000EFF03FDE23800400C5B769464C001385CE
:102060000106EF2020114800EFF01FBD054423803A
:102070000400D9B7EFE2CF8B397191C9B145194549
:10208000EFF03FDB0144228521616FE0AF8C480017
:1020900085262A8411E5A9451945EFF09FD9E5B7B2
:1020A0001306C0034C0013854102EF20A00C48002A
:1020B000EFF0DFC30544C1BF1386A1851422954507
:1020C0001387A1859387818563EAD50C19668A06F3
:1020D000130646D5B296944282869306A00A6314EC
:1020E000D5021306A0FA238EC106854696A314A333
:1020F000828092239306160096A39386C107B29618
:1021000088A2894614A392239306F00363FCC608B1
:102110002300070071A092239306160096A39386CE
:10212000C107B29688A22389A184A38801848D4621
:1021300071F99146C1BF92239306160096A3938628
:10214000C107B2961386118588A21422850693F6DC
:10215000F60F14A203C62185E3FDC6FC6DB79223DA
:102160009306160096A39386C107B29688A2954659
:1021700051BF930650056310D502922393061600B3
:1021800096A39386C107B29688A20546238BC18485
:10219000230007008DBF23900700DDBF230006004A
:1021A000239007008280EFD2BFF88D47411163FF73
:1021B000B7023421103100213C31A206B285DD8EF8
:1021C0002285239AD18436C632C4EFF02FFEEFF079
:1021D0002FF3B246224637650000A2851305C5D607
:1021E000EF20201C054541016FD0DFF6854763F4E1
:1021F000B70210310021B285228532C4EFF00FFB07
:10220000EFF00FF0224637650000A2851305C5DB0D
:10221000EF202019C1BF37650000130585DFEF20CF
:102220008029EFF0EFED7DBF14211307A00A63971B
:10223000E608EFD2FFEFB307B50003C7F7FF930738
:1022400050052A84631BF702EFF0BF911C30B5459F
:1022500015C111472C20130534006388E70463601F
:10226000F7020947638DE702636EF702054763844F
:10227000E702B9453E85EFF0DFBB014539A81947B4
:10228000638BE70263E6E70213070002E393E7FECE
:10229000EFF07FF119A0EFF09FBB6FD0BFEBEFF035
:1022A000FFCAE5BFEFF0FFCDCDBFEFF07FD2F5B7AE
:1022B000EFF07FD7DDB7EFF0FFDBC5B701458280D8
:1022C000EFD21FE7138461851C2081CF9384818521
:1022D0008E201385C107EFF03FF523900400230003
:1022E000040083C7B18591CF138401851C2091EB35
:1022F000AD2085476317F50008A003C58180EFF086
:102300001F926FD03FE5EFD2BFE2138441851E20BC
:102310004111488613D78700D8865C87EFE0FFDD40
:102320001220AA8537650000130545E4EF206007F9
:102330006C000D461305000AEFF00FFA41016FD053
:102340007FE103D5418501E50565130505E182803F
:1023500013050010828001458280EFD27FDDEFF00F
:10236000EFF06D15133525006FD0DFDE41C1EFD2E0
:102370003FDC83D781824111231005003EA12A84CE
:10238000EFF02FE2914763F5A7004D45EFE09FADD9
:102390004AA04945EFE01FAD6AA01D45EFE01FAF21
:1023A0001307E1009306D10070009305B1000AA461
:1023B0009307F1001305A100EFE03FD81C85938738
:1023C000077D3EA49C855EA41C867EA49C861EA8D8
:1023D0001C873EA89C875EA8EFF0BFF6930700100D
:1023E0006AA81EAC054541016FD0DFD60145828049
:1023F00041C9EFD2FFD301112A844800EFF01FF743
:102400003C821307007D7AAC1EA03C831545B7645F
:1024100000003EA03C875EA0BC807EA0BC811EA4C4
:10242000BC823EA4BC835EA4BC847EA43C841EA863
:102430003C853EA8BC855EA8BC867EA883D7A182C9
:102440001EAC9307803E3EAC5EAC1EB093070032DC
:102450003EB0EFE0BFA33C864AB0938504E77EB070
:10246000294613058402EF10F0502946938504E7AE
:1024700013052403EF101050054505616FD09FCD63
:102480000145828001A097E1FF1F93812140173110
:102490000020130121B717450000130525C497E557
:1024A000FF1F938525B61386818263FAC5008322B8
:1024B000050023A0550011059105E3EAC5FE13852B
:1024C0008182938501106377B500232005001105F3
:1024D000E36DB5FEFD42739002BC8D427390428065
:1024E000930280087390023097E2FFFF9382C2B19B
:1024F00093E2320073905230EFF02FCC97E2FFFF5F
:102500009382826F7390123473002030EFD25FC2D7
:10251000B727014093870740631CF50085451305E5
:102520000020092F81451305002029276FD09FC265
:10253000B737014093870780E31AF5FE85451305F9
:102540000040CD2D814513050040C5B75C413707DC
:10255000F1E01307F7EF944D7D8F9C41D58FD44D5B
:10256000D58FD441A206D58FD98F5CC11C4537F7D2
:10257000F1FF1307D77FD4457D8F9C49D58F9445B4
:102580008606D58FD98F1CC55C55370710FF7D1780
:102590007D8FDC29FD1793F7F70FD207D98F5CD514
:1025A00082801C4589C593E717001CC58280F99B72
:1025B000EDBF1C4593E787001CC5828008450D814F
:1025C000058982801C4593E747001CC58280084529
:1025D0000981058982801C4591C537075000D98F34
:1025E0001CC582803707B0FF7D17F98FD5BFA5477F
:1025F00063F7B7048D47138765FF3307F702032896
:10260000C5009D47B397E70093C7F7FFB3F70701EE
:10261000B396E600DD8E54C5994763E3C70495473A
:102620007D163306F6025859FD47B397C70093C786
:10263000F7FFF98F3396C5005D8E50D982800D4724
:102640003387E502032805019D47B397E70093C749
:10265000F7FFB3F70701B396E600DD8E14C96DBF2F
:10266000B14763E2C702954765163306F60218596B
:10267000FD47B397C70093C7F7FFF98F3396C5009F
:102680005D8E10D9828095474D163306F602585557
:10269000FD47B397C70093C7F7FFF98FB395C50000
:1026A000DD8D4CD58280684542054181828008419C
:1026B0006D8D3335A0008280EFD29FA70545512B49
:1026C0000145412B6FD01FA94111B777004002C6C9
:1026D000938707C03EC6B2473E952AC6B2478CC311
:1026E000410182804111B777004002C6938707C03D
:1026F0003EC6B2473E952AC6B2478A234101828030
:102700001C4141677917F98F1CC123200500232242
:10271000050023240500B707024023260500138780
:1027200087006316E500D8431367F70001A81387F5
:10273000C7016317E500D8431367070FD8C3B1A8D3
:10274000138707036318E500D8438566938606F070
:10275000558FEDB7138747046315E500D843BD6671
:10276000C5BF138787056316E500D843B7060F007A
:10277000C5B71387C7066316E500D843B706F00050
:10278000C1BF138707086316E500D843B706000FDB
:10279000C1B713874709E308E5F882801C416177D8
:1027A0003D0794517D8F9C45D58F9449D58FD44951
:1027B000D58F944DD58FD44DD58FD451D58F945579
:1027C000D58FD98F1CC1DC455CC19C411CC5DC4147
:1027D0005CC582801C4189C593E717001CC18280BB
:1027E00041677917F98FDDBF1C4101C6DD8D0CC132
:1027F000828093C5F5FFFD8DDDBF4CC18280B70798
:102800000240C8C38280B7076745372702409387D5
:1028100037125CC3B797EFCD9387B79A5CC38280BA
:10282000372702401C4B93E707081CCB82803727D1
:1028300002405C470545858B91E748474189133540
:1028400015000D058280EFD2BF8E2A848544EFF0FB
:102850001FFE6319950019E0154531A0EFF03FFD0B
:102860007D14C5BF75D86FD0FF8EEFD27F8CAA8440
:1028700037050B00EFF03FFD91476314F502372455
:1028800002401C4837050B0093E727001CC844C8CA
:102890001C4893E707041CC8EFF0FFFA1C48F59B9F
:1028A0001CC86FD03F8BEFD2BF884111AA84156539
:1028B0002EC6EFF05FF99147B245631FF50037244C
:1028C00002401C48156593E717001CC88EA0EFF066
:1028D0009FF71C48F99B1CC841016FD0BF879C45DE
:1028E00013F7070113F8F70001C7D8413368E80070
:1028F00037270240145B3707000F758F4DEB854675
:10290000238ED184371701406315E5009A21358362
:102910009AA18E2113F7F50F39C318418146854ED0
:102920003D4F930F800293028004214E3396DE00C8
:10293000B3F8C500631116039398260033131F01E3
:102940001343F3FF3377E300B318180133E7E800CC
:102950006397F70750C98506E39AC6FD18C11307A8
:10296000F00F6375B70454412146854E3D4F930FD8
:10297000800293028004414EB398CE0033F71501D4
:102980006392E8021317260001173313EF00134375
:10299000F3FFB376D3003317E800D98E6395F703BE
:1029A000232A15010506E319C6FD54C18280371795
:1029B0000140E310E5F603C7C18521DF81BFE39C39
:1029C00057F810C949BFE39F57FC23281501D9BF09
:1029D000B71701406316F50083C7C18591C3B58160
:1029E0000CC98280B71701406316F50083C7C18503
:1029F00091C3B5814CC9828023A0A186828003A7A0
:102A00000186854714216310F7021C31639CE7029D
:102A10003C21960793E707F837E700E093F7F70FB5
:102A200036972300F740054793D756003317D70052
:102A3000544189CE938707048A07B7E600E0B6972A
:102A400098C38280EDF33C219607F9B79387070678
:102A5000E5B71C41B745024003A645809396270081
:102A60003D473317D7001347F7FF718F5C4110457F
:102A70008E070A06D18F50450606D18FB397D7002F
:102A8000D98F23A2F58082800A0585473395A70058
:102A9000639AF500B747024003A74780598D23A2E8
:102AA000A7808280B747024003A747801345F5FF00
:102AB000798DF5B7377700401C4309C593E70710B8
:102AC0001CC3828093F7F7EFE5BFB7160240DC42E4
:102AD00051777D17F98F5D8DC8C28280371702400C
:102AE0005C5309C593E717005CD38280F99BEDBF67
:102AF000371702401C535D8D08D3828001C93717F8
:102B000002401C53A166D58F1CD38280B7160240A9
:102B10009C5261777D17F98F9CD2828037170240D3
:102B20005C439146B18B6385D700A1466382D7068B
:102B3000B7177A00938707201CC1371602405C4202
:102B400037070020130787019183BD8BBA97942321
:102B50001C41B3D7D7005CC15442A1829D8ABA966A
:102B60009422B3D6D70014C55442AD829D8A3697BD
:102B70001823B3D7E7005CC55842398393763700F2
:102B80001387C18036971823B3D7E7021CC9828008
:102B90005C435843C166C983BD8B758F8907C546A1
:102BA0006393D700C94701EF3747024003270780E7
:102BB000418B09CF37177A001307072021A8371751
:102BC000024058439316E700E3D606FE37173D0050
:102BD00013070790B387E70285B799C537170240F7
:102BE0005C4B5D8D48CB8280B7170240D84B1345B4
:102BF000F5FF798DC8CB828099C5371702401C4FED
:102C00005D8D08CF8280B7170240984F1345F5FFBE
:102C1000798D88CF828099C5371702405C4F5D8DD2
:102C200048CF8280B7170240D84F1345F5FF798D02
:102C3000C8CF828099C5371702405C475D8D48C771
:102C40008280B7170240D8471345F5FF798DC8C772
:102C5000828001C9371702401C53C166D58F1CD32F
:102C60008280B71602409C5241777D17F98F9CD223
:102C700082809357550005476399E700B7170240D4
:102C80009C4333D5A7000589828009476396E700F6
:102C9000B71702409C53F5B7B7170240DC53D5B7BE
:102CA000B737004003D7078089C5598D2390A78087
:102CB00082801345F5FF798DD5BFB737004003D724
:102CC0004780136707012392E780828037370040EF
:102CD00083574780C207C183BD9BC207C1832312AC
:102CE000F78082803736004083568681035786817D
:102CF00042074183E31AD7FE373600408356C68128
:102D00008357C681C207C183E39AD7FEB735004017
:102D100003D6858103D5858142054181E31AC5FE2D
:102D2000630CA700B736004003D7C68183D7C6819E
:102D3000C207C183E39AE7FE42055D8D8280EFD230
:102D40002FBF41112AC6EFF05FF73245B737004079
:102D5000135705014205239CE7804181239EA780EC
:102D6000EFF0DFF641016FD0EFBEEFD26FBC411143
:102D70002AC6EFF09FF43245B737004013570501DC
:102D80003D8B42052394E78041812396A780EFF095
:102D9000FFF341016FD00FBC3737004083574780A6
:102DA00093F70702E5DF828037370040835747807B
:102DB000C207C183DD9BC207C1832312F780373767
:102DC000004083574780A18BEDDF82801E2137377B
:102DD0000140130707C0C207C1836304E502370738
:102DE00000406300E50213070740630CE500371756
:102DF0000040930607806306D500130707C06316DB
:102E0000E500BA2193F7F7F8D98FFA2193F7F7CFB6
:102E1000C207C183D98F1EA1DE215EB59E211EB5DA
:102E2000B7370140938707C06314F5009C251EB98E
:102E300085475EA982801E3103D88500C207C18301
:102E400093F7F7EFC207C1831EB11E3156215A2DE9
:102E5000C207139606014207962141831377C7F8EC
:102E6000558FB621C18393F7F7DFB3E60601A206BB
:102E7000D58FB7360140C207938606C04182C18311
:102E8000631FD502FD769386F67FF58FB62503D8AE
:102E9000C500A206D58FD621C207C183A20693F72B
:102EA000F7BFD58FF576FD16F18EF225C207C183E7
:102EB000336606011206D18E13960601418252A195
:102EC0005AADFA215ABD1EB18280BA219E21D98FF6
:102ED000DA21D98FFA21D98F9A25D98FBA25D98F9E
:102EE000DA25D98F2312F50482801E2189C593E744
:102EF00017001EA18280C207C183F99BC207C1834C
:102F0000CDBF8357450491C52167D98F2312F5049E
:102F10008280C607C583DDBF1E2189C593E70708E8
:102F20001EA18280C207C18393F7F7F7C207C1834E
:102F3000C5BF5E2DC207C183DD9BDD8D4EAD828096
:102F40004EBD8280EFD2CF9E1629F577FD17F58F03
:102F5000F621DA257971D58F1EA95625FD7793873D
:102F6000379FF58FD6212A842EC6D58F9625D58FEB
:102F7000B625D58F5EA55E29C207C18393F7F7CF2B
:102F8000D98F5EA96808EFF07FB9B74701409387F2
:102F90000780B245631EF402A2576547B387E70274
:102FA0009841930640060A07B3D7E70233D7D70202
:102FB000B3F7D7021207920793872703B3D7D70235
:102FC000BD8BD98FC207C1831EA445616FD08F9876
:102FD0009257E1B791C55E250967D98F5EA58280BA
:102FE0005A25F977FD17F98FD5BF13F7F50F8547E8
:102FF0001583B395B7006319F7009307C50098438D
:1030000001CED98D8CC38280894693074501E31890
:10301000D7FE93070501E5B793C5F5FFF98DDDB739
:103020005E2901C6DD8D4EA9828093C5F5FFFD8D19
:10303000DDBF93F5F51F4EA182804A211375F51F60
:1030400082800A216D8D3335A000828013F7F50F41
:1030500085461583B397B6006311D7025A25F98FB9
:103060001A2101454207418381CB0545A181B31552
:10307000B5006D8F3335E000828089466314D70038
:103080001A29F1BF5A29E1BFB707002083A7C70853
:1030900037177A0013070720B3D7E70293F7F70F24
:1030A0002383F1861307803EB387E7022392F186DC
:1030B0008280B7F700E0D8438146799BD8C303C725
:1030C00061863306A70290CBD4CB984313670701E0
:1030D00098C398431367170298C3D843058B75DFCD
:1030E0009843799B98C38280B7F700E0D843814624
:1030F000799BD8C303D741863306A70290CBD4CBA4
:1031000098431367070198C398431367170298C33E
:10311000D843058B75DF9843799B98C38280EFD2A3
:103120002F812A841165011185451105EFF0DFAC6F
:10313000930700207C82371501408D473EC44C0028
:10314000E147130505803EC6EFF06FF922C837440A
:103150000140B70708000C08130504803ECC02CAE2
:10316000231E0100EFF01FDE854513050480EFF0FC
:103170007FE605616FC01FFEEFC2FFF9B744014053
:10318000AE893289014493840480634524014A85D1
:103190006FC0BFFB930500042685EFF09FEA7DD941
:1031A000B38789008385070026850504C205C18190
:1031B000EFF03FE8D9BF138701811C4393860110CC
:1031C0003E95636BD500B75600209386068063E575
:1031D000A60008C33E858280FD57EDBF4111370729
:1031E00080007D1713D8750126C29354750133737F
:1031F000A70093F4F40FB376B7004AC01378F80F22
:103200001359F50106C622C4FD819A8726854A8690
:10321000131E3300939E3600B3880441630AB90E2F
:103220006350100D630408149307F00F638BF414BC
:10323000B7070004B3EEFE00ED4763C117299307FB
:103240000002B3871741B397FE00B3D81E01B3370E
:10325000F000B3E7F800B307FE4013975700635E32
:103260000718370400047D147D8C2285EF007068F8
:103270006D15B317A4006348951A058D1304150046
:1032800013070002018F3397E7003337E000B3D70D
:103290008700D98F814413F7770019C713F7F70018
:1032A00091466303D700910713975700635B071498
:1032B00085041307F00F4A866383E4169A07A583F3
:1032C00013F5F40FB2402244A6079314750113D5E9
:1032D0009700458D7E0692440249518D41018280BE
:1032E0006399080A138714001377E70F631707140D
:1032F00063900422630D0E1EE3860EFCB307DE41CD
:103300001397570063500722B387CE412E8961B7C8
:10331000635C100B630E08089307F00F6383F406D9
:10332000B7070004B3EEFE00ED4763C9171F93070C
:103330000002B3871741B397FE00B3D81E01B3371D
:10334000F000B3E7F800F297139757006357070AA6
:1033500085041307F00F6384E40CB706007E13D7CF
:103360001700FD16858B758FD98F35B7638D0E08C5
:10337000FD18B307DE41E38208EE9307F00FE39DEB
:10338000F4EA630D030801461305F00FB707400088
:1033900015BF33079840EDE863020E147D176308EC
:1033A00007189307F00F6319F80E2E893683D1BFE3
:1033B000638B0E04FD18B307DE01E38708F893075B
:1033C000F00FE393F4F675BF63950808850413F7CF
:1033D000E40F6313071263170510630F0E14E383E2
:1033E0000EEEB307DE0113975700814463570700C1
:1033F000370700FC7D17F98F854413F77700E31F2B
:1034000007E813D337009307F00FE38CF4F6931714
:103410009300A58313F5F40F4A866DB54A8613050C
:10342000F00F814745B5370700FC7D17F98F13F77B
:103430007700898CE31407E6E9B73304DE4193177C
:10344000540063C3070CE31204E2014601458147BF
:1034500095BD33079840ADC49307F00FE308F8F427
:10346000B7070004336EFE00ED4763CCE70C93070B
:103470000002998FB317FE003357EE00B337F00008
:10348000D98FF697C284C9B59307F00FE30FF8F010
:10349000B7070004336EFE00ED4763C3E7089306E9
:1034A0000002998EB316DE00B357EE003337D0001A
:1034B000D98FB387FE40C2842E8945B3854761BB4F
:1034C000630E0E067D17B307DE01C284E30E07E626
:1034D0009307F00FE31AF8F8368365B53683C28494
:1034E0002E8915B7E3040EECE38D0EE869BD638DFC
:1034F0000E022E86B687F9B39307F00FE381F4F23C
:10350000B307DE018583D5BD3384CE412E89B1BB9F
:10351000E31C0EFCE3890EE62E8949BD854725B5DF
:10352000854741BFE39B07EC0146814761BBB387F9
:10353000CE41C2842E8915B3B68769B33683C2845F
:10354000D9B585473DBF3971935775014AD856D2D1
:103550005ECE931A95001359F50106DE22DC26DAB9
:103560004ED652D45AD093F7F70F93DA9A00CA8BFB
:10357000638207121307F00F6384E7128E0A37077E
:103580000004B3EAEA00138A17F80144014B93D709
:1035900075019394950093F7F70FA58093D9F501E2
:1035A000FDC71307F00F6387E7028E04938717F8B0
:1035B00037070004D98C330AFA408146558C1737F7
:1035C00000001307E78B0A043A941C403349390181
:1035D000BA978287130A1AF0F9E88946558C17378B
:1035E00000001307E78D0A043A941C40334939015F
:1035F000BA97828701491307F00FB7074000139568
:103600009700F25062549317770125817E095D8DF2
:1036100033652501D2544259B259225A925A025B5B
:10362000F24B216182801307F00F8147C9BFA68A40
:10363000CE8B368B8947630BFB1A8D47E30CFBFA65
:103640008547630AFB0A1307FA0713F91B00635740
:10365000E01293F77A0099C793F7FA0091466383D3
:10366000D700910A93974A0063D90700B70700F87B
:10367000FD17B3FAFA0013070A089307E00FE3C433
:10368000E7FA93976A00A5831377F70F8DBFB9E424
:103690008546A9B763940A021144014A054BC5BD8A
:1036A00063990A002144130AF00F094BCDB58D46EA
:1036B00031B73144130AF00F0D4BD1BD56852EC6DC
:1036C000EF0030239307B5FFB39AFA009307A0F8F1
:1036D000338AA7400144014BB24555BD2685EF0012
:1036E00050211307B5FFB307AA00B394E400138A6F
:1036F00067078146E1B513F91B000147814701B710
:103700004166139554007D1693570501698E63FA3F
:103710009A0AB3D5FA027D1AD68601473388C502C4
:10372000B3F6F602C206558F637B07012A9793868C
:10373000F5FF6368A70A6376070BF9152A97330725
:103740000741B356F7023377F702B38AC6029317DD
:10375000070163FB5701AA971387F6FF63E1A708E8
:1037600063FF5707F916AA97C205B38A5741D58D4B
:10377000B33A5001B3EA5501CA8BF1B58546998E2B
:1037800011C76D4601478147E34BD6E6130AEA09A4
:10379000339A4A01B3D7DA00B33A4001B3E757018D
:1037A00013F7770019C713F7F70091466303D700A3
:1037B000910713975700634807029A07A5830147AB
:1037C0003DBD93D61A00B3D5F6021397FA01418393
:1037D0003388C502B1B7CE8B368B814AA1BDBA867C
:1037E00061B7B685A9BF0547814711BD13F91B0015
:1037F0001307F00F814721B593567501B707800075
:10380000FD1713D6750193F6F60F1308F00FB3F8F2
:10381000A7001357F501ED8F1376F60FFD81638135
:103820000603630C06018DE211E2B1C3638E080248
:103830006305B70405451DE78280F5D77955828079
:10384000E39E08FE6309D60211E2EDD7E314B7FE4A
:10385000E342D6FE63C7C600E3EE17FD0145E3FD74
:10386000F8FC01E77D558280F5DD05458280014544
:10387000E39208FC8280F9DBD1B78146E1BF935621
:103880007501B7078000FD1713D6750193F6F60F83
:103890001308F00FB3F8A7001357F501ED8F137657
:1038A000F60FFD81638706036309060185EA11EAC5
:1038B00089EB0145639B080082800945F5FFE5DA45
:1038C00031A8638C08026300B704054575D77D55A0
:1038D00082800945639808026304D60211E2F5D795
:1038E000E315B7FEE343D6FE63C7C600E3EF17FD5B
:1038F0000145E3F3F8FC19E3D9BFF1D9054582800E
:10390000E5D3828082808146C5B7797122D4135471
:1039100075014ECE52CC9319950006D626D24AD0C8
:1039200056CA5AC81374F40F93D99900135AF50163
:1039300069C49307F00F6308F40E939739003707B3
:103940000004B3E9E700130414F88144014B13D7D2
:103950007501939A95001377F70F93DA9A0013D9AC
:10396000F50145CF9307F00F630CF7028E0A13079A
:1039700017F8B7070004B3EAFA003A940146334552
:103980002A01BD47AA869305140063E09710172704
:1039900000001307E7568A04BA949C40BA978287BE
:1039A0001304F40F63960A0C93E424000946C1BF84
:1039B00001451307F00FB7074000B2502254A60785
:1039C0005E07A5837E05D98F92540259F249624A57
:1039D000D24A424B5D8D45618280CA86D689328B40
:1039E0008947630FFB088D47E304FBFC8547368559
:1039F0006310FB1A01478147C9B7639D090413D7B8
:103A00007501939A95001377F70F91440144054B84
:103A100093DA9A0013D9F50131F7639D0A0093E414
:103A200014000546A9BF63920902A1441304F00FD4
:103A3000094B31BF5685752D9307B5FF098CB39A95
:103A4000FA001304A4F801461DBFB1441304F00F9B
:103A50000D4BF5BD4E852EC6692D9307B5FF13049A
:103A6000A0F8B399F900098C8144014BB245C5B562
:103A700093E434000D4621B78947D286E315FBF65F
:103A800036851307F00F81470DBF41639306F3FF9F
:103A900013D6090193D80A01B3F7D900B3FADA00B3
:103AA00033885703B389F80213570801B30A560342
:103AB000D6994E9733061603637357011A96C1675A
:103AC000FD17B376F7003378F800C206C2969399D3
:103AD000660093570701B3393001E982B2979A071C
:103AE000B3E6D900B3E9D7009397490063D907003B
:103AF00013D7190093F71900B369F7002E84130741
:103B0000F4076350E00493F7790099C793F7F9003D
:103B100091466383D70091099397490063D90700C1
:103B2000B70700F8FD17B3F9F90013070408930766
:103B3000E00F63CBE70493976900A5831377F70F32
:103B4000ADBD8547B386E74011C76D460147814744
:103B5000E345D6E61307E4093397E9003337E0007D
:103B6000B3D7D900D98F13F7770019C713F7F70028
:103B700091466303D700910713975700634C0700E2
:103B80009A07A583014715BD1307F00F814735B587
:103B90002E84B5B7054781470DB537078000411121
:103BA0007D179356750113D87501B377A70093F667
:103BB000F60F935EF5013376B70026C24AC013783C
:103BC000F80F06C622C41303F00F3E8E3689F68422
:103BD000139F3700FD8113153600B3880641630239
:103BE000681093C51500638CBE106354100D6310EC
:103BF00008106304051EFD18B307AF406386080272
:103C00009307F00F6388F616ED4763C7172913076C
:103C10000002330717413317E500B3571501333757
:103C2000E000D98FB307FF40139757006351071A7D
:103C3000370400047D147D8C228565296D15B3172A
:103C4000A400634E251B33052541130415001307FB
:103C50000002018F3397E7003337E000B3D78700C6
:103C6000D98F014913F7770019C713F7F700914669
:103C70006303D700910713975700635E07149306F9
:103C800019001307F00F93FE14006386E6169A07D7
:103C9000A58393F6F60FA607B240224413D59700EA
:103CA000DE069397FE01558D924402495D8D4101D8
:103CB00082806392080A138716001377E70F631B4D
:103CC00007146394062263020F2071D5B307AF4037
:103CD0001397570063550722B307E5410149AE84A6
:103CE00051B7E30005F0638ABE0AE35410FD930761
:103CF000F00F6381F608B70700045D8D31B7635E8E
:103D00001009630108089307F00F6385F606B707EB
:103D100000045D8DED4763C0171F130700023307D2
:103D200017413317E500B35715013337E000D98F3A
:103D3000FA9713975700635C070805091307F00FFC
:103D4000630BE90AB706007E13D71700FD16858BB3
:103D5000758FD98F01BF3307D84063950610630D67
:103D60000F147D176303071A9307F00F6314F810FD
:103D7000AE84328E630F0E06814E9306F00FB707A6
:103D8000400011BF39C9FD18B307AF00E38308FA3B
:103D90009307F00FE390F6F8F1BF639908081389D1
:103DA00016001377E90F63160712639B061063036F
:103DB0000F16E30205EEB307AF0013975700014952
:103DC00063570700370700FC7D17F98F054913F784
:103DD0007700E31C07E813DE37009307F00FE30BCF
:103DE000F9F893179E00A5839376F90F93FE1400BC
:103DF0005DB593FE14009306F00F814769BD370748
:103E000000FC7D17F98F13F777003309A940E31EF3
:103E100007E4D1B73304AF409317540063C3070CD2
:103E2000E31C04E0814E81468147B5B53307D84095
:103E3000B5C69307F00FE30EF8F2B7070004336F2F
:103E4000FF00ED4763CDE70C93070002998FB3178E
:103E5000FF003357EF00B337F0005D8FB307A700C3
:103E60004289C1BD9307F00FE304F8F0B7070004DF
:103E7000336FFF00ED4763C2E70893070002998F95
:103E8000B317FF003357EF00B337F000D98FB307F4
:103E9000F5404289AE8449BB854769B3630E0F067E
:103EA0007D17B307AF004289E30507E89307F00FDA
:103EB000E319F8F8328E7DBD328E4289AE8431BF6F
:103EC000E3090FEAE30805EA45BD0DCDAE8EB287E2
:103ED000D9B39307F00FE300F9F2B307AF0085837E
:103EE000FDB53304E541AE8481BBE31D0FFCE30562
:103EF00005E8AE84BDBD854725BD854749BF01495D
:103F0000E39707EC814E814779B3B307E5414289D6
:103F1000AE8419BBB28741B3328E42897DBD05475D
:103F200035BF13577501370680009307F6FF1377E7
:103F3000F70F9305E007B3F6A7009357F501014586
:103F400063F4E50099C3828082809307E0097D5580
:103F5000E3EBE7FE93055009B3E7C60063D7E5003E
:103F60001307A7F63395E70082801305600933072E
:103F7000E54033D5E7008280411106C622C415CD45
:103F80002A84852A9307E0093387A74093076009AD
:103F900063C0E704A1469377F70F63D5A6006115C8
:103FA0003314A40026042580260413559400B2403F
:103FB0002244DE075D8D41018280014426041355B1
:103FC0009400B24022448147DE075D8D410182802A
:103FD0009307900963DDE7009307B5019546B31792
:103FE000F400898EB337F0003354D4005D8C9547CC
:103FF00063D6A7009307B5FF3314F400B70600FC9F
:10400000FD16937774003376D40085C39377F4005C
:104010009145638CB70011069317560063D70700CC
:104020009307F009758E3387A74013146600258027
:10403000260413559400B24022449377F70FDE070D
:104040005D8D41018280135775011377F70F411180
:104050009307170022C426C21314950006C693F7CF
:10406000E70F25809354F50185C793573400130754
:1040700007387604B2075207B1831395F401D98F3C
:10408000C98FB240228522449244BE85410182807C
:1040900005EB39C42285B128A94763C6A7042D477B
:1040A000098F930755013357E4003314F400931735
:1040B000C70013079038098FB1831377F77F5DBF6F
:1040C00001CC13573400B7070800D98FB207760424
:1040D000B1831307F07F79BF1307F07F814759BF82
:1040E0000147814741BF130755FF3317E4000144DF
:1040F0007DBFC167637CF5029307F00F13070002D1
:1041000063EBA70097270000938787E3AA9788238C
:104110003305A7408280218197270000938747E2DB
:10412000AA97882361473305A7408280B70700011B
:10413000636DF500618197270000938767E0AA9778
:10414000882321473305A7408280418197270000BB
:10415000938707DFAA97882341473305A7408280CA
:1041600093874181AA8588439DA293874181AA852F
:10417000884355A8B3C7A5008D8B3307C50081E7D9
:104180008D4763EDC700AA87637EE5089421850704
:104190008505A38FD7FEE3EBE7FE8280937635009B
:1041A000AA8789CA942185078505A38FD7FE93F630
:1041B0003700C5BF9376C7FF138606FE63F0C706B8
:1041C00083A3050083A2450083AF850003AFC5002C
:1041D00083AE050103AE450103A3850183A8C50194
:1041E0009385450223A0770003A8C5FF23A25700AB
:1041F00023A4F70123A6E70123A8D70123AAC70117
:1042000023AC670023AE17019387470223AE07FF55
:1042100075B790419107910523AEC7FEE3EBD7FE3A
:10422000E3E6E7F68280DDC183A7C5FF411122C422
:1042300006C626C21384C5FF63D307003E94AA8432
:10424000EF009011938781869C4381EF2322040025
:1042500023A481862244B2402685924441016F0006
:10426000D00F637EF40014403307D4006396E70058
:104270009843DC43369718C05CC0D9BFBA87D8438F
:1042800019C3E37DE4FE94433386D700631F8600A1
:104290001040B29694C33386D700E31DC7FA10438B
:1042A0005843B29694C3D8C375B76375C400B14779
:1042B0009CC04DB71040B306C4006316D70014432A
:1042C0005843B29614C058C0C0C369B78280011168
:1042D00026CA93843500F19806CE22CC4AC84EC631
:1042E000A104B14763F3F404B14463E2B4042A893E
:1042F000EF0090069387818698433A8439E093874C
:10430000C1869C4391E781454A85652A23A6A186FB
:10431000A6854A857D22FD5963193507B1472320BB
:10432000F9004A85EF00700329A0E3D004FCB147EF
:104330001CC10145F2406244D2444249B249056180
:1043400082801C40858F63CF0702AD4663F6F6007E
:104350001CC03E9404C031A05C406313870223A4B8
:10436000F1864A85EF00607F1305B400930744008F
:1043700061993307F5405DDF3A94898F1CC05DBFBA
:104380005CC3C5B72287404095BF130435007198C0
:10439000E30285FCB305A4404A852522E31C35FBD6
:1043A000B5BF39713EDA2ED232D436D63AD842DC95
:1043B00046DE9387418122CC804326CA06CEAA845A
:1043C00009C41C4C99E322853D230C4454102686D5
:1043D000228536C6EF00207FF2406244D24421613C
:1043E0008280011126CA4AC806CE22CC4EC652C4CB
:1043F000AA842E8901C51C4D91E3F5299C4C80446B
:1044000099E32685CD2997270000938767C5631B0D
:10441000F402C0405E24A18BB1C71C48A1C7FD595E
:10442000294A1C4483450900FD17B1E91CC463DD1A
:1044300007062286A94526855528FD576308F502FB
:10444000294535A097270000938787C36314F4009C
:104450008044C9B797270000938787BEE31CF4FA0E
:10446000C0444DBFA2852685812255D97D55F24095
:104470006244D2444249B249224A056182801CC446
:10448000050963D70700184C63CAE7006388450134
:104490001C401387170018C08CA361B7228626859D
:1044A000B120E31035F9D9B71C401387170018C0A5
:1044B000294798A371B793874181AA8588436FF0F4
:1044C0005FF2411122C42A842E8523AE010E06C656
:1044D000EFE07FCEFD576317F5009387C10F9C4334
:1044E00091C31CC0B240224441018280011122CC00
:1044F00026CA4AC806CE4EC6AA842E89328401C571
:104500001C4D91E3CD2E97270000938767B5631765
:10451000F406C0401C4C1CC45E24A18BC1C31C48C3
:10452000B5CF1C4808409379F90F1379F90F1D8D09
:104530005C486346F500A2852685792C25E51C4458
:104540000505FD171CC41C401387170018C02380E5
:1045500037015C486388A7005E24858B81CBA9471F
:104560006316F900A2852685852C0DEDF240624484
:104570004A85D2444249B2490561828097270000AA
:10458000938707B06314F400804469B7972700004D
:10459000938707ABE310F4F8C044ADBFA28526852E
:1045A000212041D17D59D9B741119387418126C23C
:1045B000844322C44AC006C62A892E8489C49C4CDE
:1045C00099E326850D2E97270000938767A9631B23
:1045D000F402C0400317C40093170701C18393F688
:1045E0008700B5EA93F6070195EEA5472320F90069
:1045F000136707045AA47D55B240224492440249ED
:104600004101828097270000938787A76314F400F5
:104610008044C9B797270000938787A2E31CF4FA68
:10462000C0444DBF918B85C74C5891C99307440432
:104630006385F5004A85EFF01FBF232A04025E243C
:104640002322040093F7B7FD5EA41C481CC05E241F
:1046500093E787005EA41C4899EB5E2413070020B3
:1046600093F707286385E700A2854A85A1295E2480
:1046700013F717001DC35C4823240400B307F04060
:104680001CCC1C480145ADFB8317C40013F7070879
:1046900025D793E707045EA4B9BF898B014791E34F
:1046A000584818C4F9BFDE25011122CC26CA06CE0F
:1046B0004AC84EC613F78700AA842E8461EFD841FA
:1046C000634DE000B841634AE0000145F2406244B6
:1046D000D2444249B2490561828058547DD703A92A
:1046E00004009396370123A0040063DC060670489B
:1046F0005E24918B99C75C401D8E5C5899C33C40E9
:104700001D8E5C540C50814626858297FD575A2495
:10471000631DF5009440F54763E9D706B7074020CD
:104720008507B3D7D700858BADC31C48232204006F
:104730001CC09317370163D80700FD576314F500B9
:104740009C4091E368C84C5823A02401BDDD930729
:1047500044046385F5002685EFF0FFAC232A0402AC
:10476000ADB70C500146854626850297FD572A862F
:10477000E310F5F89C40ADDF75476385E7005947C6
:104780006393E70423A0240189B7136707045AA49D
:104790007D552DBF83A90501E38909F203A9050011
:1047A0008D8B23A0350133093941014791E3D84965
:1047B00018C4E35C20F11C540C50CA864E86268532
:1047C00082976347A0005E2493E707045EA4C9B7FD
:1047D000AA993309A940F1BF9C49A5C3011122CC74
:1047E00006CE2A8411C51C4D81E72EC62922B2456A
:1047F000972700009387C786639CF5004C408397FA
:10480000C5009DC722856244F24005616FF0BFE993
:10481000972700009387C7866394F5000C44C5B7BB
:10482000972700009387C781E39BF5FC4C44C1BFE9
:10483000F240624401450561828001458280411158
:1048400022C406C62A844EA572A523200500232271
:104850000500232405002322050623280500232A1A
:104860000500232C0500214681451305C505EFB041
:104870003F8F971700009387A7985CD09717000089
:104880009387C79A1CD4971700009387A79E5CD480
:1048900097170000938707A100D01CD8B24022448C
:1048A0004101828097050000938545F399AA411143
:1048B00026C2130680069384F5FFB384C4024AC05F
:1048C0002E8922C406C693854407EFF05FA02A8490
:1048D00001CD2320050023222501310508C41386BC
:1048E00084068145EFB0DF872285B240224492449E
:1048F0000249410182801C4DA5E7411106C622C430
:1049000097070000938747FA1CD5938701829C4341
:104910002324050423260504232805046314F50035
:1049200085471CCD2A84352848C022851D2808C407
:104930002285052848C4484001469145EFF03FF0E4
:1049400008440546A545EFF09FEF48440946C94590
:10495000EFF0FFEE85471CCCB2402244410182803B
:10496000828041119387018226C284434AC006C6D1
:104970009C4C22C42A8981E72685EFF0DFF79384D7
:1049800084048044DC40FD1763D607009C40B9CF07
:104990008440C5BF0317C40039E7C17785072322C8
:1049A00004062320040023220400232404005CC402
:1049B00023280400232A0400232C040021468145D7
:1049C0001305C405EFB0CFF9232A0402232C0402F7
:1049D00023240404232604042285B2402244924462
:1049E0000249410182801304840671BF91454A85C2
:1049F000EFF0FFEB88C049FDB1472320F9000144E7
:104A0000E1BF797122D44AD052CC56CA5AC85EC688
:104A100006D626D24ECE2A8AAE8A130485040149D0
:104A2000054BFD5B09ECB25022544A859254025961
:104A3000F249624AD24A424BB24B456182800444F9
:104A400083294400FD1963D409000040E1BFDE243E
:104A5000637BFB008397E40063877701A68552851B
:104A6000829A3369A90093848406E9BF1971A6DA92
:104A7000AE848395E500A2DC86DE328463DB05002C
:104A8000DE2423A0060093F7070885E7930700407C
:104A90001DA0300836C6EF007006B246E34205FEA0
:104AA0007247BD67F98F7977BA9793B717009CC2A1
:104AB000F1BF930700041CC0F6506654D65401455C
:104AC00009618280DE25011122CC06CE26CA4AC8A1
:104AD000898B2E8489CF930774041CC01CC885471A
:104AE0005CC8F2406244D24442490561828074004D
:104AF0003000AA84EFF09FF7A2452A892685EFF0BF
:104B00000FFD19E98317C40013F7072079FBF19B08
:104B100093E727005EA4C1B7970700009387C7D823
:104B20009CD45E2408C008C893E707085EA4A24787
:104B30005CC8B24781CF8315E4002685EF00A07ED4
:104B400011C55E24F19B93E717005EA45E243369D0
:104B5000F9002316240171B7828082801C46FD175C
:104B60001CC663DA0700184E63C5E700A9476394C3
:104B7000F5006FF0BF971C422E851387170018C2EF
:104B80008CA38280011122CC26CA4AC84EC652C4C8
:104B900006CE2A89AE893284B304D6007D5A6314C6
:104BA0009400014509A80C204E864A85EFF01FFBB2
:104BB0000504E31645FFF2406244D2444249B2493B
:104BC000224A05618280357122CD26CB4AC94EC763
:104BD00006CF52C556C35AC1DEDEE2DCE6DAAA8948
:104BE000AE843289368409C51C4D99E3EFF0BFD0FD
:104BF000971700009387C7466398F40C83A4490075
:104C0000DE24A18BE5C79C48F5C393070002A304EB
:104C1000F1029307000302D22305F10222C6930B8F
:104C20005002971A0000938AAA47054C294B4A84E0
:104C30001C2099C3639F770DB30C2441638E0C0035
:104C4000E6864A86A6854E85EFF0DFF3FD57630FB3
:104C5000F51C9256E69636D21C206389071CFD5738
:104C60001309140002C802CE3ECA02CCA3090104F3
:104C700082D483450900154656850127130419007F
:104C8000C24751E913F7070109C713070002A30937
:104C9000E10413F7870009C71307B002A309E10471
:104CA000834609001307A002638FE606F2474A8491
:104CB00081462546182093051400130707FD6377E6
:104CC000E60AB5CA3ECE85A8971700009387473BF2
:104CD0006395F40083A4890025B797170000938794
:104CE0002736E39FF4F083A4C90019BFA6854E853B
:104CF000EFF09F8B19D97D55FA406A44DA444A494E
:104D0000BA492A4A9A4A0A4BF65B665CD65C0D6140
:104D10008280050431BF330555413315AC00C98F7E
:104D20003EC82289B9B7324793064700184336C6B2
:104D3000634707023ACE18209307E002631DF70489
:104D400018309307A002631BF702B24709041387C8
:104D500047009C433AC663C107023ECA2DA83307E9
:104D6000E04093E727003ACE3EC8F1B7B387670328
:104D700085462E84BA973DBFFD57C5B7050402CAC4
:104D8000814681472546182093051400130707FD27
:104D90006374E606F9F20C200D46171500001305A2
:104DA000A530E12B11CD971700009387E72F1D8DBC
:104DB00093070004B397A700424505045D8D2AC8F8
:104DC0000C201946171500001305452E1309140071
:104DD0002304B1025D2335C197B7FFFF9387872274
:104DE00095E74247B2471377071009CF91073EC6B0
:104DF0009257D2973ED225BDB387670385462E844E
:104E0000BA9751B79D07E19BA107D5B778009706E0
:104E10000000938666D726860C084E859700000012
:104E2000E7000000FD572A8AE314F5FCDE2493F71F
:104E30000704E39207EC1255C1B57800970600000D
:104E4000938686D426860C084E85012AE1BF7971A7
:104E500056CA9C49BA8A984522D426D24ECE52CC04
:104E600006D64AD05AC85EC6AA892E84B284368A2B
:104E700063D3E700BA879CC00347340419C385078E
:104E80009CC01C4093F7070281C79C4089079CC0C7
:104E90000329040013796900631A0900130B9401B4
:104EA000FD5B5C449840998F634CF9041C40834639
:104EB000340493F70702B336D000A5EB130634048D
:104EC000D2854E85829AFD576303F5041C40114636
:104ED0009840998B544481446397C700B384E6405B
:104EE00063D3040081441C4418486354F700998F2D
:104EF000BE94014969047D5B63982405014509A8B6
:104F000085465A86D2854E85829A631E75017D55E7
:104F1000B250225492540259F249624AD24A424B48
:104F2000B24B456182800509ADBF3307D40013063B
:104F30000003A301C7040347540493871600A297F4
:104F40008906A381E7049DBF85462286D2854E85CA
:104F5000829AE30E65FB050945B7797122D426D202
:104F60004AD04ECE06D652CC56CA5AC8B689942DCF
:104F7000930790063289AA842E8413863504638DA4
:104F8000F60263E2D706930780056386F61863EDA1
:104F9000D700638E062093073004638EF60A930AC7
:104FA00024042301D404C9A0930730066385F60ABC
:104FB00093074006E395F6FE1C40084393F6070866
:104FC00093054500C5C61C410CC363D807001307F1
:104FD000D002B307F040A301E404971600009386C3
:104FE000660D294765A8930700076382F61663E5F7
:104FF000D7029307E0066389F6189307F006E3905B
:10500000F6FA0C401C4313F80508138547006307A4
:10501000080608C39C4385A893075007E383F6FE60
:10502000930780076389F61293073007E399F6F632
:105030001C43D04181459386470014C383AA0700CF
:105040005685252E01C53305554148C05C401CC816
:10505000A301040461A81C43930A24049386470017
:105060009C4314C32301F4048547D5B793F6070482
:105070001C410CC3B9DAC207C18781BF93F505048F
:1050800008C3C9D99E231307F0066387E60E971657
:105090000000938626022947A30104044C400CC457
:1050A00063C5050008406D9908C099E3B28A89CDAF
:1050B000B28AB3F5E702FD1AB6958C212380BA00B7
:1050C000B3D5E70263F0E70CA147631EF7001C406D
:1050D000858B91CB58401C4863C7E70093070003BA
:1050E000A38FFAFEFD1A3306564110C84E87CA86B2
:1050F0007000A2852685EFF09FD57D5A631D450B74
:105100007D55B250225492540259F249624AD24A11
:10511000424B45618280A382D50497160000938696
:1051200066F90C40084313F805081C411105630D8E
:10513000080208C313F7150001C793E505020CC068
:105140004147B9FB0C4093F5F5FD0CC0B1B79C414C
:1051500093E707029CC193078007A302F404971604
:105160000000938666F675BF13F8050408C3E303D1
:1051700008FCC207C1837DBF97160000938686F3A3
:10518000214719BFAE8735B794411C43CC4913F86A
:105190000608138547006306080008C39C438CC3B8
:1051A00039A008C393F606049C43F5DA8EA323289E
:1051B0000400B28A25BF14485686CA85268582997E
:1051C000E30045F51C40898B8DE7B2474844E35A1C
:1051D000F5F23E853DB785465686CA852685829975
:1051E000E30065F3050A5C443247998FE345FAFE14
:1051F000E9BF014A930A94017D5BF5B7411122C4CE
:105200002E848395E50006C66922634905007C4823
:10521000AA977CC8B2402244410182805E247D77F7
:105220007D17F98F5EA4FDB7DE25011122CC26CAB9
:105230004AC84EC606CE93F70710AA842E84328938
:10524000B68991C78395E5008946014609225E2407
:105250007D777D17F98F5EA48315E4006244F240E8
:10526000CE864A86B24942492685D244056125A8A0
:10527000411122C42E848395E50006C6C928FD5736
:105280005A24631AF500FD77FD17F98F5EA4B2402A
:105290002244410182808567D98F5EA468C8C5BF5A
:1052A0008395E50005A8411122C42A842E85B28584
:1052B000368623AE010E06C6EFD01FECFD576317EE
:1052C000F5009387C10F9C4391C31CC0B240224498
:1052D00041018280411122C42A842E8523AE010E11
:1052E00006C6F128FD576317F5009387C10F9C434D
:1052F00091C31CC0B240224441018280411122C4AA
:105300002A842E85B28523AE010E06C67D28FD5760
:105310006317F5009387C10F9C4391C31CC0B24033
:10532000224441018280411122C42A842E8523AE69
:10533000010E06C64D20FD576317F5009387C10F78
:105340009C4391C31CC0B240224441018280411160
:1053500022C42A842E85B285368623AE010E06C667
:105360004920FD576317F5009387C10F9C4391C3F4
:105370001CC0B24022444101828093F5F50F2A9669
:105380006314C500014582801C21E38EB7FE05052C
:10539000C5BF411122C42A842E85B285368623AE2C
:1053A000010E06C6A920FD576317F5009387C10FAC
:1053B0009C4391C31CC0B2402244410182809307A8
:1053C000800523AEF10E7D5582809307800523AEC4
:1053D000F10E7D5582809307800523AEF10E0145C5
:1053E00082809307800523AEF10E7D55828093075E
:1053F000800523AEF10E7D5582800000001F1C1F2A
:105400001E1F1E1F1F1E1F1E1F00000000C079440C
:105410009E00853F7B148641000080400000803D57
:105420000000C84200002543000070420000003F19
:105430005573696E67207374726970207479706532
:105440003A20257320282564290D0A00426C6F6FCD
:105450006420476C75636F73652043616C63756C82
:105460006174696F6E3A0D002020414443205661FB
:105470006C75653A2025640D0A00000020205374E5
:1054800072697020547970653A2025642C20455645
:105490005F4241434B47524F554E443A2025640DDD
:1054A0000A000000202043616C63756C61746564C0
:1054B0002066546D702073746570733A0D0000009F
:1054C000202020205374657020313A20252E336629
:1054D0000D0A0000202020205374657020323A20ED
:1054E000252E33660D0A00002020202046696E61BB
:1054F0006C20676C75636F73653A2025640D0A0034
:10550000580800005808000058080000580800001B
:10551000000800005E0800009A0B00005808000018
:105520007A090000D4090000200A0000540A000093
:10553000AA0A0000F60A00000E0B00004D656D6F10
:10554000727920616C6C6F636174696F6E20666143
:10555000696C656420666F72204144432073616DFD
:10556000706C65730D0000004F50413220496E6928
:105570007469616C697A65640D0000004C65617640
:10558000696E6720524553554C545F52454144590A
:105590002073746174650D004D6561737572656D7E
:1055A000656E74207374617274656420666F722016
:1055B000737472697020747970653A2025730D0ACE
:1055C0000000000054696D696E6720706172616D42
:1055D000733A204556313D25642C2054504C313DC2
:1055E00025642C20545244313D25642C20455632EC
:1055F0003D25642C2054504C323D25642C205452BF
:1056000044323D25640D0A005374657020313A2000
:1056100050574D20656E61626C656420666F722024
:10562000455657494454483120282564206D732934
:105630000D0A00004661696C656420746F206C6F10
:1056400061642074696D696E6720706172616D6557
:10565000746572730D0000005374657020323A2037
:1056600048494748206F757470757420666F7220C2
:1056700054504C3120282564206D73290D0A0000F8
:105680005374657020333A2050574D20656E616227
:105690006C656420666F7220545244312028256462
:1056A000206D73290D0A000054504C323D302C20DF
:1056B000736B697070696E67205374657073203402
:1056C0002D362C206A756D70696E6720746F2053BB
:1056D00074657020373A2052656164696E672047AF
:1056E0004C555F4F5554204144432076616C75659D
:1056F0000D0000005374657020343A2050574D203F
:10570000636F6E74696E75657320666F722045569F
:1057100057494454483220282564206D73290D0AC6
:10572000000000005374657020353A20484947480E
:10573000206F757470757420666F722054504C32EF
:1057400020282564206D73290D0A000053746570AC
:1057500020363A2050574D20656E61626C6564209A
:10576000666F72205452443220282564206D7329BC
:105770000D0A00005374657020373A205265616449
:10578000696E6720474C555F4F5554204144432074
:1057900076616C75650D00004D6561737572656DA0
:1057A000656E7420636F6D706C6574652120474C65
:1057B000555F4F5554204144432076616C75653ADE
:1057C000202564202873746F72656420696E2057E9
:1057D0005F414443290D0A005374657020383A2014
:1057E000456E746572696E6720524553554C545F1F
:1057F00052454144592073746174650D00000000E6
:10580000496E76616C6964206D656173757265209F
:10581000737465703A2025640D0A00004D6561734C
:105820007572656D656E7420726573756C74206930
:105830007320726561647920666F722070726F6385
:10584000657373696E670D00426C6F6F6420676CDF
:1058500075636F7365206D6561737572656D656ED7
:105860007420636F6D706C657465643A20256420E4
:1058700025730D0A00000000426C6F6F6420676C96
:1058800075636F73652063616C63756C6174696FB8
:105890006E20636F6D706C657465642E2052656157
:1058A000647920666F72206E657874206D6561730F
:1058B0007572656D656E742E0D00000054494D3192
:1058C0002050574D20496E697469616C697A65642E
:1058D000202832304B487A2C203130302525206466
:1058E000757479290D0A000053797374656D436CE2
:1058F0006B3A25640D0A00005468697320697320AF
:10590000616E206578616D706C650D00506172612B
:105910006D65746572205461626C6520496E6974AE
:1059200069616C697A65640D00000000554152544C
:105930002050726F746F636F6C20496E6974696177
:105940006C697A65640D000052544320436F6E66A3
:105950006967757265640D004D6F64656C204E6FEC
:105960003A2025640D0A0000465720566572736977
:105970006F6E3A2025642E25640D0A005061726115
:105980006D65746572205461626C65205665727332
:10599000696F6E3A2025640D0A0000005465737427
:1059A00020436F756E743A2025640D0A00000000D4
:1059B000537472697020547970653A2025730D0A0A
:1059C00000000000556E69743A2025730D0A00002E
:1059D0002800D6006401F201280000002A00D80047
:1059E0006601F4012A0000002C00DA006801F601CB
:1059F0002C000000945A0000A45A0000B05A000085
:105A0000BC5A0000CC5A00007C5A0000845A0000A6
:105A10008C5A0000506172616D657465722074610A
:105A2000626C6520636865636B73756D2065727267
:105A30006F722C206C6F6164696E672064656661AB
:105A4000756C74732E0D0000506172616D65746524
:105A500072207461626C65206C6F61646564207390
:105A600075636365737366756C6C792E0D00000049
:105A7000556E6B6E6F776E003F0000006D6D6F6C42
:105A80002F4C00006D672F644C000000676D2F6481
:105A90006C000000426C6F6F6420476C75636F731D
:105AA000650000005572696320416369640000006D
:105AB00043686F6C65737465726F6C0054726967CC
:105AC0006C7963657269646573000000426C6F6F86
:105AD0006420476C75636F73652028474156290021
