:040000006F2000105D
:100004000000000000000000900000208A0400208E
:10001400A9BDF9F5900000200000000000000000D8
:10002400900000209000002000000000000000006C
:10003400900000200000000090000020000000005C
:1000440090000020900000209000002090000020EC
:1000540090000020900000209000002090000020DC
:1000640090000020900000209000002094050020C3
:100074007E050020900000209000002090000020C9
:1000840090000020900000209000002090000020AC
:1000940001A073270080218B9387818509CB732767
:1000A400008023ACE18498435D9B731007800100BA
:1000B400010037170040930670052300D704930608
:1000C40080FA2300D704010001008346B70493F6A5
:1000D400F60DA305D7042300070473260080944378
:1000E400A18AD18E7390068023AC018401000100A3
:1000F40093760502638406180347A700118B25E74E
:1001040073270080218B09CB7327008023ACE18403
:1001140098435D9B7310078001000100371700406E
:10012400930670052300D704930680FA2300D704AE
:10013400010001008346A70093E646002305D7008B
:1001440023000704F32600809843218B558F7310F6
:10015400078023AC0184010001001307004B010058
:1001640001007D176DFF73270080218B09CB732756
:10017400008023ACE18498435D9B731007800100E9
:10018400010037170040930670052300D704930637
:1001940080FA2300D704010001007D892314A700FD
:1001A400010001000100010023000704F326008080
:1001B4009843218B558F7310078023AC0184010071
:1001C400010073270080218B09CB7327008023ACA7
:1001D400E18498435D9B7310078001000100371789
:1001E4000040930670052300D704930680FA230089
:1001F400D7040100010001000100B72600401306E6
:100204001005A383C68023000704F32600809843C7
:10021400218B558F7310078023AC018401000100EA
:1002240073270080218B09CB7327008023ACE184E2
:1002340098435D9B7310078001000100371700404D
:10024400930670052300D704930680FA2300D7048D
:10025400010001008346B70493E60608A305D7040A
:1002640023000704732700809C43A18BD98F7390CC
:10027400078023AC01840100010082809376050489
:10028400638B06140347A700418B25E7732700807F
:10029400218B09CB7327008023ACE18498435D9BB9
:1002A40073100780010001003717004093067005A2
:1002B4002300D704930680FA2300D7040100010029
:1002C4008346A70093E606012305D700230007040D
:1002D400F32600809843218B558F7310078023AC3D
:1002E4000184010001001307007D010001007D1756
:1002F4006DFF73270080218B09CB7327008023AC0B
:10030400E18498435D9B7310078001000100371757
:100314000040930670052300D704930680FA230057
:10032400D704010001009376F50193E60604231433
:10033400D700010001000100010023000704F32697
:1003440000809843218B558F7310078023AC018460
:1003540001000100130760046310E50473270080A3
:10036400218B09CB7327008023ACE18498435D9BE8
:1003740073100780010001003717004093067005D1
:100384002300D704930680FA2300D7040100010058
:10039400B72600400946B5B573270080218B09CBE9
:1003A4007327008023ACE18498435D9B731007801E
:1003B4000100010037170040930670052300D7049D
:1003C400930680FA2300D70401000100B7260040F9
:1003D400130620053DB573270080218B09CB7327B5
:1003E400008023ACE18498435D9B73100780010077
:1003F400010037170040930670052300D7049306C5
:1004040080FA2300D704010001008356870093E695
:10041400060C2314D700C5BB411181460146814512
:10042400114506C65D24F3270080A18B9386818540
:1004340089CBF327008023ACF1849C42DD9B73902D
:10044400078001000100B7170040130770052380DF
:10045400E704130780FA2380E7040100010003C7BF
:100464006704136717002383E704238007047327B3
:1004740000809C42A18BD98F7390078023AC0184A8
:1004840001000100B240410182808146014681455C
:100494001145252CF3270080A18B1387818589CBF7
:1004A400F327008023ACF1841C43DD9B7390078009
:1004B40001000100B7170040930670052380D7049C
:1004C400930680FA2380D70401000100FD56239689
:1004D400D70223800704F32600801C43A18BD58F09
:1004E4007390078023AC018401000100F32700808E
:1004F400A18B89CBF327008023ACF1841C43DD9BC3
:100504007390078001000100B7170040930670053F
:100514002380D704930680FA2380D70401000100C6
:1005240083C6670493E616002383D7042380070455
:10053400F32600801C43A18BD58F7390078023ACD6
:1005440001840100010001A0BD473305F50201004B
:100554007D1575FD8280411122C426C206C6AA8477
:10056400014463179400B2402244924441018280C2
:1005740005041305803E4204C13F4180DDB7B7172F
:100584000040130700032388E702854723A4F1866C
:100594007300203037370040834747409946BD8B6E
:1005A400638BD70231476385E70011476397E702FE
:1005B400B735004003C6A54013858118938585404F
:1005C400973000E0E780802C420541810DE58547A6
:1005D400A38AF18619A083475740730020308346CD
:1005E4008740850793F7F70F238AD1868346A74070
:1005F400E3E7D7FEE9BF814737370040C5BF411164
:1006040006C68D2D973000E0E780806DDDBF2303A3
:10061400048015472303E48001002302A480828020
:1006240083076480E3CE07FE23030480828083076C
:100634006480E3CE07FE03454480828083076480A0
:10064400E3CE07FE2302A4808280411126C44AC25D
:100654004EC006C61377F50BAD47AA892E8995447B
:100664006306F70019456537653F8D444E85453768
:10067400FD59FD1463983401B240A24412498249E1
:1006840041018280135509011375F50F453F220975
:10069400CDB7011126CC06CEB70408005137154555
:1006A400BD37713769372AC6A53F324593771500A0
:1006B40089EB136515001375F50FF240E2440561EB
:1006C4008280FD14E9FC0145CDBF397126DC4ADA8C
:1006D4004ED852D656D45AD25ED006DE62CE66CCFE
:1006E400B7E700E07D5783AA070022C603AA4700A4
:1006F40023A0E71823A2E718B717004013077005D3
:100704002380E704130780FA2380E70483C74704A0
:10071400930B75FFB684E20793FBFB0F8546AA890A
:100724002E8B328937240040E187015763FA760122
:100734006308D5008946130700026313D5000157E7
:10074400D98F93F7F70FB71C00402382FC0411479D
:100754002303E4801305F00F5D3D094CD135636D2F
:100764007C11B7050700DA9537870700795563F2DE
:10077400E504B3879500636EF702370B0800A947B9
:1007840033EB65016399F90689E48144513D26857B
:100794000DA0DA850945553D05090345F9FFFD140A
:1007A400050B693D81C49377FB0FFDF7DD3569FDCA
:1007B4007D55B7170040130770052380E70413071E
:1007C40080FA2380E70403C74704418B2382E704AC
:1007D400F250B7E700E023A0571123A24711E254D7
:1007E40032445259C259325AA25A125B825B724C39
:1007F400E24C21618280A5476395F9068569130956
:10080400F00FB3069900B3742B01B6941349F9FFA2
:10081400B3749900856B33796901416B9387F9FF50
:10082400B3F7270199E363FC340193D94900C14725
:10083400E3E637FF99BF0569C1697D19D9B7130587
:10084400800D63886901130500026384790113052F
:100854001008CA85DD3B353D21DD4E99B384344112
:10086400D9B7DA852D45D533CA94E30099F2050941
:100874007D3BA30FA9FED5BF9387F9FF93F7F70F2D
:100884006361FC0C83C71C0413073008631FF7045F
:1008940037070800636BEB04B3079B00B70610002F
:1008A40063F5D704334BEB0089476393F9068980DA
:1008B400D549E38C04ECDA850945413B110903274A
:1008C400C9FF91472320E48003076480E34E07FEB9
:1008D40023033481FD17EDFBFD14110B81C49377C1
:1008E400FB0FE9FF7D3371F5E1B5B717004003C78E
:1008F4005704B70708001377070219E3B7870700FF
:100904007955E378FBEA33079B00E3FFE7F855B535
:100914008547E382F9F2DA852D45053B9389F4FF97
:10092400E38504E6293393F7390091EB83260480A9
:100934000327090093074900E39AE6E43E89CE843D
:10094400F1BFB5476396F9001305900BC93135BD66
:10095400B1471305B00AE38BF9FE99476391F90493
:10096400B7050800B365BB002D45C53181448D4BE7
:10097400A149753963967401832704802320F90003
:100984008504E39834FF8327048013172B016355F0
:1009940007002312F900D5BB2322F900FDB39D47BC
:1009A4006399F90281451305B0044531BD44232000
:1009B400090023220900FD599D3993F77400CA9751
:1009C40003C70700FD14398D2380A700E39634FF85
:1009D4006DBBA1476392F9046D398144630D0B002B
:1009E4008D479304C0036308FB009304000563046C
:1009F4008B01930440041375C507E30895D8194582
:100A0400393139390545213126850D3909453D31BD
:100A14004931E31C05D669BB91476399F900130575
:100A24006006F536F53E130590090DB7E38F09D43A
:100A3400F154A9BB19CD91CD09CE81473387F50077
:100A4400834607003307F50085072300D700E31723
:100A5400F6FE828019C991C909CA910583A7C5FF09
:100A640011057D16232EF5FEC5BF828001C919C666
:100A74002A960505A30FB5FEE31DA6FE82808147D5
:100A84003307F5000307070019E33E8582808507D5
:100A9400C5BF01112E8626CAAA8413150601930523
:100AA400F004418122CC06CE32C6EF00B0562A842F
:100AB40001C53246A685BD3F2285F2406244D24438
:100AC40005618280854715C18DC105C28147B30682
:100AD400F5003387F50083C60600034707006398D3
:100AE400E6008507E315F6FE85473E85828081474B
:100AF400EDBF9307F6FFBE952A966313C500828067
:100B0400FD1583C715000505A30FF5FEFDB7AA87DC
:100B1400014581CF09CE3E96850703C7F7FF6317CA
:100B2400B700E39BC7FE0545828082800145828031
:100B34007971974700009387A7D622D4804306D6BD
:100B440026D24AD04ECE52CC56CA5AC85EC679C0B6
:100B5400B7C4C901014B974900009389E9D3938431
:100B6400F437174A0000130AEAD3974A0000938A1D
:100B7400EACD17490000130929D78357240095E3C8
:100B84005C44631D0B0017470000232BF7D0832B15
:100B9400C4002285EF0030555E84B9A82326FB00EB
:100BA400FDB783A7090082971C443307F540637699
:100BB400F500032749001D8F2A9763E2E40897474D
:100BC400000023AD07C88355240003450400974063
:100BD40000E0E78060CF5C405844A1CB0C4403267E
:100BE4004900AE97BE8663E4B70063E4C700B386EA
:100BF400C74014C4228B3A8449F097470000938776
:100C0400E7C49C4B09476372F706F91717470000BE
:100C14002326F7C4B250225492540259F249624A2C
:100C2400D24A424BB24B4561828063170B0097470F
:100C3400000023A7E7C6A1BF2326EB0089BF032733
:100C44004A0209CF63EFA7003385A74083A70A01AF
:100C54006376F5009747000023A2A7C0228B404487
:100C640061BF03274900BA97C5B79747000023A778
:100C740007BE4DB7411122C4174400001304C4BF7A
:100C84001C4006C626C24AC091C7829797470000F7
:100C940023A407BE9747000083C757DE858B97447C
:100CA4000000938464DD95C397470000A38807DCA4
:100CB40083C774001547637AF700A12B83C77400B8
:100CC400F5178A07A2979C4382971C4491C3829785
:100CD40017490000130989BC0327090017460000BF
:100CE4000346D6B69747000083C747B693961700C6
:100CF400BA9683D60600D5CE9747000083C707B5BA
:100D040063E3C70C97470000238207B41C40639D2C
:100D140007129747000083C7B7D691CF83C77400E3
:100D240093F7F70F89EB97470000A38B07D49740FD
:100D340001E0E7806035974700009387E7B59C435F
:100D44006384071097470000938707BADC4317476B
:100D540000002325F7B0E93B97470000938787B449
:100D6400DC53FDC317470000130747AE184B9747E2
:100D7400000083C777B46369F70C83C77400154711
:100D84006364F70C9747000083C7C7D3918BCDEFFB
:100D9400032609009746000083C656AB63CCD70AE6
:100DA4002244B240924402494101174300E06700E3
:100DB40083FC850793F7F70F974600002388F6A86E
:100DC400E3E2C7F215BF86073E9783550700231059
:100DD400070097470000239F07AA974700009387BF
:100DE40067A99C4317450000034545A61317250032
:100DF400BA979C4382979747000083D7A7A91747C0
:100E040000000347A7A493C7F7FF7D8D931717002E
:100E1400032709003E97835707005D8D2310A70021
:100E24009747000083C787A291C78507174700002B
:100E3400230EF7A017470000034747A19747000078
:100E440083C7D7A0E370F7ECB2402244924402492E
:100E540041018280139717003297035707006DF7FB
:100E640085072DBFAD6737C70040BD072326F72090
:100E74000F100000974700009387479DC84F8327B2
:100E84008726BD66BD0693C7F7FF99836A052326A7
:100E9400D7205D8D82804111B7170040985F3AC614
:100EA400945F3247E39CE6FE32454101828013059C
:100EB400F00F8280011197470000938727CC22CC42
:100EC40003A4070C26CA06CE2AC42EC6854419E4F8
:100ED4000145F2406244D244056182808347910017
:100EE40003471400858B6304F7000044CDB719460B
:100EF4009305A10013052400F136E31895FE05457A
:100F0400C9BF17470000130727B61C4393060010F8
:100F140094C301000100010001001C4323A0070049
:100F24008346150003482500A2064208C2960348DA
:100F34000500C296034835006208C29694D78346DA
:100F4400550003486500A2064208C29603484500BE
:100F5400C296034875006208C296D4D783469500AA
:100F64000348A500A2064208C29603488500C2961B
:100F74000348B5006208C29694DB8346D500034853
:100F8400E500A2064208C2960348C5000345F500E1
:100F9400C2966205AA96D4DB83C6150003C5250054
:100FA400A2064205AA9603C50500AA9603C5350004
:100FB4006205AA9694CF83C6550003C56500A206B0
:100FC4004205AA9603C54500AA9603C575006205A5
:100FD400AA96D4CF83C6950003C5A500A2064205F0
:100FE400AA9603C58500AA9603C5B5006205AA960C
:100FF40094D383C6D50003C5E500A2064205AA968C
:1010040003C5C50083C5F500AA96E205AE96D4D300
:10101400D443F59AD4C3D44393E61600D4C394437B
:1010240093E6160094C3BA879443D842058B59E3D8
:10103400984E01452300E6009843184F2183A300EE
:10104400E6009843184F41832301E6009843184F64
:101054006183A301E6009C43D84F2302E600D84FE6
:101064002183A302E600D84F41832303E600D84F2F
:101074006183A303E60098532304E6009853218375
:10108400A304E600985341832305E6009853618343
:10109400A305E600D8532306E600D8532183A3060C
:1010A400E600D85341832307E600DC53E183A3071A
:1010B400F600828001008DBF174700001307079BCD
:1010C4001443411122C49C5E4AC006C6998326C2B9
:1010D400858B3A841749000013090999D1CB9C5E8A
:1010E400974400009384449993F7F7F99CDE1747DB
:1010F40000000347C79893070008631BF700832782
:1011040009009C4393F70704174700002309F79647
:1011140083C7040093F707049DC3973700009387A0
:10112400A7779C4382979747000023AFA79483C770
:10113400040093F7F70B17470000230FF79283C7B8
:10114400440093F707048DE7854717470000A3077A
:10115400F792974700009387E7939C43096798C7E2
:10116400130700FC97460000238AE690D844F8D37E
:101174001C40985F1183058B09CB985F3D9B98DFDA
:10118400054797460000238BE68E985F1D83058BE9
:1011940011CB985F1377F7F798DF8547174700005F
:1011A400230EF78C83270900D8430583058B19C7C1
:1011B400D843759BD8C3D843799BD8C3B240224443
:1011C4009244024941018280397106DE16DC1ADA42
:1011D4001ED82AD62ED432D236D03ACE3ECC42CAEB
:1011E40046C872C676C47AC27EC0F935F250E2525D
:1011F4005253C2533255A255125682567247E24791
:101204005248C248324EA24E124F824F216173009F
:101214002030974700009387E7879443974700005F
:101224009387878503C70700058B11CB9747000079
:101234002386078497470000A3820784828003C71C
:101244001700058B65F7F85271FF83C75700DDB7A8
:101254001748000013088881032708001C5F958342
:10126400858BD1E709C61C5BBD832300F60085CAC4
:1012740083270800985B4607935767016356070066
:1012840093E707C0C207C18303970600C207C1875B
:1012940009C7BA970947B3C7E7022390F60085CD7B
:1012A400834715008DCB9736000083C6467D93F6A1
:1012B40006041387970089478DCA3A9503470500AA
:1012C400854699471376F7066311D602620761874C
:1012D400B947634C0700832708009C5FED838D8B1F
:1012E40017370000A30FF77881473E858280854732
:1012F400EDBF411122C406C61734000013048479DB
:1013040018403DE9AE877453FDFE3E85B28597379C
:10131400000023840776974001E0E78060AA9737AE
:1013240000009387A7749C43B70680009843558FA9
:1013340098C3D857719BD8D797370000A3800774F8
:1013440097370000A38A07721C40094798C31440CA
:10135400173700001307477283472700858B89EBF3
:1013640083473700858BD9C79737000023880770D8
:10137400B2402244410182808D476310F5029737C1
:1013840000009387A76E9C43B70680009843558F4F
:1013940098C3D857719BD8D75DBF8547E319F5FA31
:1013A4005447F977FD17F58F5CC70F1000001C40F8
:1013B400096798C7130700F8173600002300E66C86
:1013C400173700001307876A1043184231830D8BC7
:1013D40011E713076019F8D3D4C795BF184209461B
:1013E40031830D8B6315C7001307E043EDB7130773
:1013F400E01BD5B7FC52ADF3A5BF5D71A2C4A6C274
:101404002A84130680022800AE849305100886C639
:10141400CAC04EDE52DCEFF06FE53545974001E07F
:10142400E78020D9173300001303436483270300A4
:101434009376F41F173E0000130E0E6B23A40700CF
:10144400984B973E0000938EEE64370FFCFF1367B2
:10145400F70398CBF84F130510F8B702040013777D
:1014640007E0558FF8CF9843F576FD16758F98C32E
:101474009843B7063300930380251377F7E798C39F
:10148400984311497D1F1377F7E71367071098C333
:1014940003270E008549930F80021C47D58F1CC774
:1014A40083A70E001307900D3400B8CB0147935562
:1014B4003700A69583C7050013767700B3D7C740D6
:1014C400858BE1C38327030083280E00239C070434
:1014D4002390070603A8C8021378D8FF23A608039D
:1014E40083A807001378F70793F808F833E808018E
:1014F40023A0070103A847023368580023A2070367
:1015040083A80E00014823A2780603DA07066307BE
:10151400480303A80703038A06001358F800620867
:101524001358884163580A0103A807031358F800A5
:101534002380060103D807061378F80F03AA480688
:1015440063060A0003DA8705E37F49FB03A8470221
:101554003378E80123A2070383870600635CF40061
:1015640003C805003396C9001346F6FF3376060117
:101574002380C5003E8663D3A7002A8613158601FF
:10158400618505071377F70F8506E312F7F3B64075
:10159400264496440649F259625A6161828097361C
:1015A40000009386264F9C42D847131617016355B3
:1015B4000602984713161701635006027D57B8D7E1
:1015C4001737000013078728584F05071736000000
:1015D400232CE628116798C798470D83058B1DC3F4
:1015E40017370000034767491367170017360000D1
:1015F4002305E648130700F8173600002300E648E1
:10160400214798C79847058B09CF17370000034730
:10161400B7461367170017360000A30FE6440547C3
:1016240098C798470983058B09E798470583058B75
:1016340031CF9847173600001306064417350000CB
:101644001305C5420983058B63030710184118432A
:1016540031830D8B75EBAC4B184E93F505020347A4
:101664001700CDCD79EF13077006D8CF03470600D6
:1016740013671700173600002300E640114798C788
:1016840018415C57F19B93E717005CD79C4298473D
:101694009316370163D606029736000083C6865533
:1016A400C18A173700001307674DC5CE0347870764
:1016B4001367070297360000238EE652056798C722
:1016C40098479316270163D1060217370000034792
:1016D400E73A6207618763570700054797360000BA
:1016E400238EE638096798C798479316070163D68F
:1016F40006029736000083C6F64F858A1737000026
:101704001307C747ADCE03479707136727009736DC
:101714000000A381E64E216798C7828029D78545BA
:101724006315B7001307B00689B789456315B70079
:101734001307F0061DBF8D456315B7001307300767
:101744002DB71307500715B71307600739BF0347B1
:1017540036001367170017360000A300E632094766
:1017640039BF834687070946BD8A6388C600034795
:1017740087078D463D8BE313D7F4114725BF834676
:101784009707918AC9DA034797071367870041B718
:10179400397106DE16DC1ADA1ED82AD62ED432D2D5
:1017A40036D03ACE3ECC42CA46C872C676C47AC255
:1017B4007EC0F533F250E2525253C2533255A25511
:1017C400125682567247E2475248C248324EA24EDF
:1017D400124F824F216173002030973700009387A6
:1017E400672B98438567938707777CD397370000E7
:1017F4009387872F9C4383A6070913965600635843
:10180400060083A607091396660063440600745312
:10181400FDF2828071C5AA870145E9C58D07C2071B
:10182400C183F19BC207C18313074003636FF702AF
:10183400173700001307073408431737000013074E
:10184400E73214436398A60217370000130787058D
:10185400185B014541CB4111C20706C60545DD8D24
:101864000297B240014541018280173700001307F7
:101874002730D9B70357650035E303574500636F35
:10188400F704B306F7402146637CD602032805001B
:10189400938687001D8FAA9661171736000003569A
:1018A40046FB2392E60023A006012393060014C1FD
:1018B4002312F500130786FF97360000239BE6F8F2
:1018C4002313B5009735000083D5A5F8B387F540F9
:1018D40017370000231FF7F62105828008419DB7C2
:1018E4000145828082800DC1973700009387872845
:1018F40003A30700973700009387472783A80700AF
:1019040081469A8763E31701828003A80700636D09
:10191400F50A636BA80A13878700E367E5FE03D61D
:101924006700216705076317E60003C741920507AF
:101934002382E19297350000938545F103D6470051
:1019440003D7650023930700329742074183173575
:1019540000002310E5F0638A6702173500001305C1
:10196400252108416303F50203D5660019ED83D7E9
:10197400460023A0060121073E9621062392C600B5
:10198400973700002397E7ECB6879843E30E17F7E1
:10199400973600009386C61D9442E307D7F6835614
:1019A4006700BDF283D64700035647001843A106DB
:1019B400B2962392D70098C383D76500A10717373F
:1019C40000002318F7E88280BE86C28725BF03275C
:1019D400851163020712411122C406C68347C5005C
:1019E4008345E5042A8493F7C70F2306F50083464D
:1019F40097000356C70013958601618563F2C508F5
:101A0400635B05060345870093F6F607A304D70036
:101A1400054693E627006314C50093E617002306E2
:101A2400D4005C4389075CC3A30AB40003250411F2
:101A34002E864C430905EFE0FFFF832784110346FC
:101A44005401D44303D7C700B296118FD4C323964D
:101A5400E7008947A30DF4000347640397370000A8
:101A640083C767E56378F7048347C40093E70701F6
:101A74002306F40081A093E717002306F4006DB752
:101A84009376F60F635D050203458700854513E6EB
:101A940027006314B50013E617002306C400A30A45
:101AA400D400A30407008547A30DF4008327841101
:101AB4009C43DDF3B240224401454101828093E717
:101AC40017002306F400A30AD400A3040700032587
:101AD40004114C430905EFE0FFF583278411034605
:101AE4005401D44303D7C700B296118FD4C32396AD
:101AF400E7008D4755BF05458280973700009387DF
:101B0400A71A9C43411122C406C6858B2A84C5EFBB
:101B14004165130525F597E001E0E780806A45C536
:101B24008347A5002315F50083270412BDE723206E
:101B3400A4122322A41285472311F40423200500B0
:101B44008347640154412316F5000347D40023045A
:101B5400E5000547A304E500173700001307C7F1A4
:101B6400184F1385170215811C437D151375F50F46
:101B74009CC25C43DCC21C479CC65C47DCC61C4B55
:101B84009CCA5C4BDCCA1C4F9CCE5C4FDCCE19CD8E
:101B94009386060213070702C1BF8327441288C332
:101BA400835724042322A412850779B797370000AA
:101BB40083D747FD8507173700002315F7FCB2408C
:101BC4002244410182808347C4002309040005455F
:101BD40093C747002306F400DDB78347850193F7D5
:101BE400E70FD5EF83479501DDEB034625018346D7
:101BF400C50009CA83456503173700000347B7CBFF
:101C040063E7E50013F7060141CF014709C6C18A1E
:101C14000357651C81C68356A51C369751C3130709
:101C2400C712173500000355A5CCB335A7023746B4
:101C34000F00411113060624814622C426C206C69B
:101C44007D543305A702971002E0E780E0659737DB
:101C5400000083C7B7C6B384A700973700009387F3
:101C6400E7F103A787098327070963F387003E8405
:101C7400184375FB97370000938707C29C438297EC
:101C840081476364A400B307A440B2402244B3B7BD
:101C9400970093C7170092443E8541018280814793
:101CA4003E858280973700009387C7DE98437C5334
:101CB400FDFF8280797126D206D622D44AD04ECE38
:101CC40052CC56CA5AC85EC683475503034475139B
:101CD400AA843E941374F40F9307400263F68700BA
:101CE4001304B4FD1374F40F03AA841383AAC41356
:101CF400A38B841222865285D685971002E0E78052
:101D04002055058915E503CBD41201498149337B5C
:101D14006403930B50024A865285D685971002E0DD
:101D2400E7800053058915C5639169031374F90F9E
:101D3400238B8412B250225492540259F249624ABB
:101D4400D24A424BB24B456182808509E20993D95C
:101D540089410509E31179FDE1BF8327850903560C
:101D64000504797193D60701BD8EC206C182358EF2
:101D74001357764093575640898B058B5D8F935745
:101D84003640918B5D8F93571640A18B5D8F9317CF
:101D94001600C18B5D8F9317360093F707025D8F92
:101DA400931756009355860093F707041E065D8F1C
:101DB4001376F60F518F93D7554013D63540118AB9
:101DC400898BD18F13D67540D18F13D61540218AB4
:101DD400D18F13961500418AD18F1396350013764F
:101DE4000602D18F13965500137606049E05D18FF3
:101DF40093F5F50FCD8FA20745465D8F3307C702D4
:101E040022D42A8426D252CC56CA032A8413832A83
:101E1400C4135AC806D6369742074183935777406E
:101E2400135557400989858BC98F1355374011893C
:101E3400C98F135517402189C98F1315170041897C
:101E4400C98F1315370013750502C98F1315570071
:101E540093558700137505041E07C98F1377F70F71
:101E6400D98F13D5354013D755401189098B498F24
:101E740013D57540498F13D515402189498F139582
:101E840015004189498F1395350013750502498F53
:101E940013955500137505049E05498F93F5F50FA9
:101EA4004D8F2207D98FB387C7024AD04ECE5EC664
:101EB40062C4B697C207C18313D7774013D557407E
:101EC4000989058B498F13D537401189498F13D55B
:101ED40017402189498F139517004189498F13951C
:101EE400370013750502498F1395570093D5870062
:101EF400137505049E07498F93F7F70FD98F13D5F0
:101F0400354013D755401189098B498F13D5754036
:101F1400498F13D515402189498F1395150041899F
:101F2400498F1395350013750502498F1395550094
:101F3400137505049E05498F93F5F50F4D8F220700
:101F4400D98FB387C702130650025285D685B69738
:101F5400BD8E93940601C18033F6C402137BF60F41
:101F6400971002E0E780C02E05890DED8347D41257
:101F740001498149B3849702130C5002C1804A86F7
:101F84005285D685971002E0E780802C0589937BE3
:101F9400F90F11C563863403850993F9F90F05090F
:101FA400E31F89FD230B6413B25022549254025947
:101FB400F249624AD24A424BB24B224C456182807A
:101FC4005E8BCDB7797122D406D683C735002E84B3
:101FD40023160100A307F10083C74500100802C0BF
:101FE4002307F10083C755008A8502C2A306F100C6
:101FF40002C402C802CA02CC02CEEFE09FF003473B
:10200400F1018347040001456310F7020347E1012E
:102014008347140001456319F7000345D101834741
:1020240024001D8D13351500B25022544561828061
:10203400011197370000938767B422CC03A4870C5F
:1020440026CA4AC84EC606CEAA8413092500854965
:1020540015C083C7140003473400858B6304F7005D
:10206400405CFDB71946930544004A85EFE09FA5FF
:10207400E31835FF2285F2406244D2444249B24912
:1020840005618280411197370000938727AF22C4EE
:1020940003A4870C26C24AC006C69304250005493A
:1020A40001E82285B24022449244024941018280DF
:1020B400A6851305A4023937E30525FF405CCDB797
:1020C400411197370000938767AB22C403A4870CA0
:1020D40026C24AC006C693042500054901E82285A4
:1020E400B24022449244024941018280A6851305EC
:0C20F400A401C93DE30525FF405CCDB709
:1021000097110020938181B317610020130181EFA3
:102110001305400097E5FF1F9385C5EE17060020C5
:10212000130606FE63FAC5008322050023A05500AE
:1021300011059105E3EAC5FE174502001305C5D652
:10214000970500209385C5FB1386818563FAC5003A
:102150008322050023A0550011059105E3EAC5FE81
:102160001385818597350020938545B56377B50044
:10217000232005001105E36DB5FEFD42739002BCFE
:102180008D42739042809302800873A0023097E2E0
:10219000FF1F938222E793E232007390523097221E
:1021A00000009382A22F73901234730020303D43BD
:1021B0002A876373C3029377F700BDEFADE593768B
:1021C00006FF3D8ABA960CC34CC30CC74CC74107E7
:1021D000E36BD7FE11E28280B306C3408A06970202
:1021E000000096966780A6002307B700A306B700F5
:1021F0002306B700A305B7002305B700A304B70063
:102200002304B700A303B7002303B700A302B7005A
:102210002302B700A301B7002301B700A300B70052
:102220002300B700828093F5F50F93968500D58D36
:1022300093960501D58D61B793962700970200000C
:1022400096968682E78086FA9680C1171D8F3E9605
:10225000E374C3F8A5B7B7170040854603C88705E0
:1022600083C89705238CD70403C797051378F80F05
:1022700093F8F80F13678700A38CE70403C797054B
:102280001377B70FA38CE704238DD70437170040CB
:102290008347A7051306A705858BFDFB0565414709
:1022A000B7150040054E1303F5FF2300C601834612
:1022B0000600858AEDFE83D6C5057D17420793C6C5
:1022C000F6FFB3F666004183B69765F3A1079183E5
:1022D000130505801D8DA38C15054205238C05056E
:1022E00041858280B717004003C777051377E70F52
:1022F000A38BE704130700F8A38DE7043D47238C65
:10230000E70413075003A38CE7048280B71700404B
:1023100003C777051377E70FA38BE7043947238CAF
:10232000E7040D47A38CE70482800547B7170040F8
:10233000238DE704371700408347A705858BEDFF02
:102340000355C70552055181828041112A83014EF0
:10235000930E407E130F0019930F400663E66E1430
:102360009308001913034006B3781503854E0D4FEB
:10237000A14F337365020D891335150063E0BE1656
:102380001308F6FF7946729842081358080133077C
:10239000C70213D61700BE0732976146B3F6C602CE
:1023A00013068070B386C6023697A166F58F420782
:1023B0005D8FB716004083C7F60293F70708A3079F
:1023C000F1000346F10083C7F60293F70708E39490
:1023D000C7FE8347F100B716004093F7F70F6389F4
:1023E0000714F3270080A18B9386818563980714D7
:1023F00001000100B7170040130670052380C704D1
:10240000130680FA2380C7040100010023AA0703F2
:1024100003C6170313660608A388C70223800704B0
:10242000732600809C42A18BD18F7390078023ACD0
:102430000184010001001166B71500407D16DC59CA
:10244000C85DA98FF18FE5FFF3270080A18B89CBB1
:10245000F327008023ACF1849C42DD9B73900780BE
:1024600001000100B7170040130670052380C70460
:10247000130680FA2380C70401000100D8DB03C7DC
:10248000170313670704A388E70223800704732751
:1024900000809C42A18BD98F7390078023AC01846C
:1024A00001000100410182807D133368E30393083A
:1024B000E016630E08003368F3039308D016630830
:1024C00008009378330093B818009388D81633081F
:1024D0001E01131E0801135E0E0149B56393E50347
:1024E0000548638608000148630303002A887108D1
:1024F0007298FD15131E0801C205135E0E01C181FD
:10250000B5BD13F8150063F4BF007908D5B71338CB
:102510001800E5BF83C7F60293F70708A307F10089
:102520000346F10083C7F60293F70708E394C7FE5A
:102530008347F10093F7F70FF1DF65B5F3270080CC
:1025400023ACF1849C42DD9B7390078055B541110B
:10255000B7170040985F3AC6945F3247E39CE6FEA7
:102560003245410182801D71CEC662DC86CEA2CC8E
:10257000A6CACAC8D2C4D6C2DAC05EDE66DA6AD8D3
:102580006ED62A8CEF00D014AA89F3270080A18B85
:102590009384818589CBF327008023ACF1849C4010
:1025A000DD9B7390078001000100B71700401307FF
:1025B00070052380E704130780FA2380E7040100F5
:1025C000010003C7F70213678700A387E70203C769
:1025D000F7021377770FA387E70223800704732797
:1025E00000809C40A18BD98F7390078023AC01841D
:1025F00001000100F3270080A18B89CBF327008025
:1026000023ACF1849C40DD9B7390078001000100A6
:10261000B7170040130770052380E704130780FAFB
:102620002380E7040100010003C7E7021377C70F07
:102630002387E70203C7E702136717002387E70230
:1026400023800704732700809C40A18BD98F73904F
:10265000078023AC018401000100F3270080A18BD7
:1026600089CBF327008023ACF1849C40DD9B7390E1
:10267000078001000100B717004013077005238091
:10268000E704130780FA2380E7040100010003C771
:1026900037051377870FA389E70403C73705136747
:1026A0001700A389E70423800704732700809C4058
:1026B000A18BD98F7390078023AC018401000100A6
:1026C000130980C133C92903916B938C0BE8130A5A
:1026D0005002930A803E2167130707D0130BA00412
:1026E00037140040930D0404617DFD1BB3C79903AB
:1026F000916C330949033EC6B3CA5903B347E90293
:10270000130980FA338A4A033EC8B347EA02130A20
:102710007005338B6A033ECABD67938707A6B3472C
:10272000FB02014B3ECC73270080218B09CB732722
:10273000008023ACE18498405D9B7310078001000A
:102740000100930770052380FD0023802D01010007
:1027500001000347340513670702A309E404035784
:102760000405336797012318E4040357040533670E
:10277000A701420741832318E40423800D00F326B8
:1027800000809840218B558F7310078023AC018403
:10279000010001000347340513770702630807149B
:1027A00003473405218B6DDF73270080218B09CB14
:1027B0007327008023ACE18498405D9B73100780F1
:1027C0000100010023804D0123802D010100010043
:1027D000034734051377F70DA309E40403473405D1
:1027E00013670702A309E40403570405336797013D
:1027F0002318E404035704053367A7014207418304
:102800002318E40423800D00F32600809840218BD8
:10281000558F7310078023AC01840100010003472A
:10282000340513770702630E070E03473405218B27
:102830006DFF313B2A873ACE193B7247E30DE5FE27
:1028400003570405336797012318E404034734054D
:10285000218B6DDF8356040503472405B247B3F689
:10286000DB003387EB02BA969D8EC24763D5D70053
:10287000D24763C3F60E09476362670FE247130648
:102880001B0013971600137BF60F3347F7026350B4
:10289000D040050789463347D702F3260080A18A36
:1028A00089CAF326008023ACD1849440DD9A7390CA
:1028B00006800100010023804D0123802D010100CD
:1028C00001008356C4023697420741832316E4026F
:1028D00023800D00F32600809840218B558F7310C4
:1028E000078023AC01840100010035BD73270080FF
:1028F000218B09CB7327008023ACE18498405D9B3A
:10290000731007800100010023804D0123802D01F9
:10291000010001000347340513670702A309E4041B
:10292000A9BD73270080218B09CB7327008023ACBE
:10293000E18498405D9B73100780010001002380B3
:102940004D0123802D010100010003473405136769
:102950000702A309E4047DB5E3020BF2F32700802C
:10296000A18B89CBF327008023ACF1849C40DD9BB5
:102970007390078001000100B7170040130770052E
:102980002380E704130780FA2380E7040100010095
:1029900003C737059376FC0F1377870FA389E704E6
:1029A00003C73705558FA389E704238007047327DE
:1029B00000809C40A18BD98F7390078023AC018449
:1029C00001000100B717004013067005930580FA57
:1029D00003C737051D8B631E872BF3270080A18B50
:1029E00089CBF327008023ACF1849C40DD9B73905E
:1029F000078001000100B71700401307700523800E
:102A0000E704130780FA2380E7040100010003C7ED
:102A1000370591661377F70DA389E70403C73705D8
:102A200013670702A389E70403D70705558F239887
:102A3000E70403D70705A166558F2398E704238091
:102A40000704732700809C40A18BD98F7390078067
:102A500023AC018401000100B71700409306700504
:102A6000130680FA03C7370513770702630A0726A0
:102A70003717004083473705A18BEDDFF327008030
:102A8000A18B89CBF327008023ACF1849C40DD9B94
:102A90007390078001000100B7170040130770050D
:102AA0002380E704130780FA2380E7040100010074
:102AB00003C7370591661377F70DA389E70403C7AA
:102AC000370513670702A389E70403D70705558F66
:102AD0002398E70403D70705A166558F2398E704D9
:102AE00023800704732700809C40A18BD98F7390AB
:102AF000078023AC018401000100B7170040930652
:102B00007005130680FA03C73705137707026301C0
:102B100007223717004083473705A18BEDFF053C9F
:102B20002A843534E30F85FE3717004083570705A5
:102B30009166D58F2318F70483473705A18BEDDF06
:102B4000F3270080A18B9386818589CBF3270080B2
:102B500023ACF1849C42DD9B73900780010001004F
:102B6000B7170040130770052380E704130780FAA6
:102B70002380E7040100010003C737051377F70D31
:102B8000A389E70423800704732600809842218BE1
:102B9000518F7310078023AC01840100010003D71B
:102BA000070503C627059167FD177D8FB387C70209
:102BB00037460F0013060624B3C9C9023E9785673E
:102BC000938707FAB3978701B389370393070010F8
:102BD000B3C9F9029307800C8E09B3093741054741
:102BE000331C8701135C3C40B30A5C03130C605533
:102BF0003D67130707A6B38A8A03B3CAEA02B387FD
:102C0000F902B3C75703635D301785070947B3C798
:102C1000E702960773270080218B09CB732700807A
:102C200023ACE18498425D9B731007800100010092
:102C300037170040130670052300C704130680FAF7
:102C40002300C704010001000356C702B297C20760
:102C5000C1832316F70223000704732700809C42D8
:102C6000A18BD98F7390078023AC018401000100F0
:102C7000F6406644D6444649B649264A964A064B2B
:102C8000F25B625CD25C425DB25D256182807D1741
:102C900011B173270080218B09CB7327008023ACEF
:102CA000E18498405D9B7310078001000100238040
:102CB000C7042380B7040100010003C73705558FFF
:102CC000A389E70423800704732500809840218BA3
:102CD000498F7310078023AC018401000100CDB936
:102CE00073270080218B09CB7327008023ACE184FC
:102CF00098405D9B73100780010001002380D7047A
:102D00002380C7040100010003C7370513670702CA
:102D1000A389E70423800704F32500809840218BD2
:102D20004D8F7310078023AC0184010001001DBB8F
:102D300073270080218B09CB7327008023ACE184AB
:102D400098405D9B73100780010001002380D70429
:102D50002380C7040100010003C73705136707027A
:102D6000A389E70423800704F32500809840218B82
:102D70004D8F7310078023AC01840100010061B303
:102D8000FD1769B5914763EEB702172702001307D5
:102D9000273B8A05BA959C41BA978287B7170040AE
:102DA00003A7470B1345F5FF698F23AAE70A03A77B
:102DB000070B698F23A8E70A03A7070A798D23A0C9
:102DC000A70A8280B717004083A6470B1347F5FF79
:102DD000F98E23AAD70A83A6070B558D23A8A70A25
:102DE00083A6070A758F23A0E70A8280B7170040E1
:102DF00003A7470B498F23AAE70A03A7070B13452D
:102E0000F5FF45BFB717004083A6470B1347F5FFF3
:102E1000758F23AAE70A03A7070A598D4DB7B7177D
:102E2000004003A7470B498FEDB7914763EEB70208
:102E300017270200130707328A05BA959C41BA97F3
:102E40008287B717004003A7470D1345F5FF698F29
:102E500023AAE70C03A7070D698F23A8E70C03A794
:102E6000070C798D23A0A70C8280B717004083A69A
:102E7000470D1347F5FFF98E23AAD70C83A6070D3C
:102E8000558D23A8A70C83A6070C758F23A0E70CEC
:102E90008280B717004003A7470D498F23AAE70C8C
:102EA00003A7070D1345F5FF45BFB717004083A6DD
:102EB000470D1347F5FF758F23AAE70C03A7070CEF
:102EC000598D4DB7B717004003A7470D498FEDB790
:102ED000B717004003D58700420541819377050469
:102EE00091EB9377F5013755E801130505803345DC
:102EF000F50282809377050C130700046397E700BF
:102F00009377F50137459C1CCDB72165130505D096
:102F1000828037E700E01C435443A183E206D58F4B
:102F20001CC1FD572320F7182322F718828013179E
:102F30008500B7E700E023A0E710618123A2A71076
:102F40008280B7F700E08847CC47828081473747C7
:102F50000040A14663C4C700328582800345B78024
:102F6000E38EA6FE3385F50003450500850723049F
:102F7000A780CDB7411122C406C62A84913F2947B4
:102F8000B307E502B2408D83B3D787022244950789
:102F9000B3D7E70237370040C207C1832316F74093
:102FA00041018280716541111305052006C6D9379C
:102FB000B7370040130770F82381E7400D47A3811E
:102FC000E74013070004A380E74005472387E74055
:102FD000B24041018280B737004003C7174019C98A
:102FE000D98DA380B74003C70740136787002380AC
:102FF000E740828093C5F5FFF98DA380B7408280BA
:10300000B73700402147B736004091E1828003C6C0
:10301000B740E30CC7FE05050346F5FFFD15C205E5
:103020002384C640C181D5B7411122C406C62A8473
:1030300045352947B307E502B2408D83B3D78702F0
:1030400022449507B3D7E70237470040C207C18340
:103050002316F78041018280716541111305052017
:1030600006C6D937B7470040130770F82381E780B9
:103070000D47A381E78013070004A380E78005477D
:103080002387E780B24041018280CC41411106C6CE
:10309000328503C6150083C5050022064D8E420603
:1030A0008D654186138875A2630C060F6348C804BA
:1030B000138845A26306060B634AC800938535A2B0
:1030C0006309B60623900600294679A0138855A205
:1030D0006308060B938565A2E316B6FEC1451D463F
:1030E00063ECE5064546198E63F3C7003E862390E0
:1030F000C600972502009385250889A8138895A204
:103100006300060F634E060B1388A5A2630A060F21
:10311000938505A5E318B6FA99451D4663EEE502C9
:10312000198E63F3C7003E862390C6009385818085
:1031300031A89D451D4663E1E5022146198E63F3E2
:10314000C7003E862390C6009385C185BA9597E057
:10315000FF1FE780608E0146B240328541018280C8
:10316000AD451D46E3EAE5FE3146198E63F3C7001F
:103170003E862390C600972502009385A503F9B7E4
:10318000B1451D46E3EAE5FC3546198E63F3C700F9
:103190003E862390C600972502009385A5027DB741
:1031A000C1451D46E3EAE5FA4546198E63F3C700BB
:1031B0003E862390C60097250200938525FD79B7AA
:1031C000C1451D46E3EAE5F84546198E63F3C7009D
:1031D0003E862390C600972502009385A5FFBDB7C4
:1031E000C1451D46E3EAE5F64546198E63F3C7007F
:1031F0003E862390C60097250200938565FAB9B7ED
:10320000B5451D46E3EAE5F43946198E63F3C70078
:103210003E862390C600972502009385E5F43DB7CE
:1032200097F6FF1F9386C6004146CD4517F5FF1F51
:10323000130505ED6F80306411456FF0CFB2411179
:1032400093962500AA852D4506C697D0FF1FE780D7
:103250000048B240014541018280411126C2939449
:10326000250022C44AC02A843289A686AA8501463E
:10327000254506C697D0FF1FE7806045A6864A868B
:10328000A285294597D0FF1FE7806044B2402244C1
:1032900092440249014541018280011122CC06CEAF
:1032A0003714004026CA4AC84EC652C48344740527
:1032B000034AB4058349840503499405EFF08F82DE
:1032C0008347A40593F4F40F137AFA0F93E71700DA
:1032D000230DF40493F9F90F1379F90FB717004090
:1032E00003C7A705058B6DFF03D5C705A38D47054C
:1032F000238C3705A38C2705A38B9704F2406244E7
:10330000D2444249B249224A0561828041119397D1
:10331000050122C406C6C1872E8463DD0700EF10B5
:10332000602619C1EF10E01E2165218DB2402244B4
:103330004101828093F7150013C51500E5FB9397B3
:10334000250163D00702EF206115FD3537F6020035
:10335000130606E0896503C54186EF10A06E096576
:10336000E9B7939715010145E3D207FC1725020041
:10337000130505ECEF00324213060064916503C5A6
:103380004186EF10206C11654DB71D714946972598
:103390000200938565E5172502001305255286CEA8
:1033A00097D0FF1FE780407201E91725020013053F
:1033B000E5E4EF00523E01A0B7F600E0795798CA65
:1033C000FD57DCCA0567B7E700E023A0E710130646
:1033D000F00290C223A0E718010001001306C00309
:1033E0008145480897D0FF1FE78080689707002035
:1033F0009387C7C03ECA896793870780231CF10063
:10340000B5472304F102A167938707E03ECEB707D3
:103410000105938707103ED0ED472312F10285473F
:103420002303F102970700009387A7E1BEC4970723
:1034300000009387C7E2BEC68567938717D0231520
:10344000F10297070000938707B03EDAB7F507004F
:10345000970700009387A7E43EDE814697070000A8
:103460009387C7DD7000E1051945BEC097D0FF1FE7
:10347000E780E02558088147994670003E9603464C
:10348000060085070507A30CC700E398D7FED247BF
:1034900091C70357810185676373F70001A048084E
:1034A000EF101034AA8501C917250200130545D66F
:1034B000EF00D21C01A0F640256182804111170562
:1034C00000001305E5E406C622C4EF10B02D1384F6
:1034D00041862300A4002928034504002244B24069
:1034E00037F60200130606E0896541016F1080552A
:1034F000411106C6F3270080A18B1387818589CBF4
:10350000F327008023ACF1841C43DD9B739007807C
:1035100001000100B7170040930670052380D7040F
:10352000930680FA2380D7040100010083C6F702C6
:1035300093F6A60FA387D70223800704F326008003
:103540001C43A18BD58F7390078023AC01840100AD
:103550000100F3270080A18B89CBF327008023ACE7
:10356000F1841C43DD9B7390078001000100B717B5
:103570000040930670052380D704930680FA2380C9
:10358000D7040100010083C6F70293E62600A38753
:10359000D70223800704F32600801C43A18BD58F1C
:1035A0007390078023AC0184010001007131130581
:1035B000407E81470147814605468545EFE0FFD8BB
:1035C000B240014541016F105056797126D206D69E
:1035D00022D44AD04ECE52CC03C88500A1441378E1
:1035E00008026311080683C8050009482E84814437
:1035F000639A080503A84500AA89328A8347180000
:10360000034808003689A207B3E70701C2070D681F
:10361000C187130828906380070581440357A400DD
:1036200097F7FF1F83D727C7631EF7009387C186CD
:103630009C4389CB0D473AC22316210152C44C004A
:103640004E858297B2502254268502599254F249EF
:10365000624A456182808547EF60F063AA845DFD20
:103660009387C186984355DB83471A0083460A0037
:103670004C00A207D58FB337F00085073EC24E85B8
:10368000029769BF0111172502001305A5BA22CCC4
:103690002EC6328436C406CEEF00F20FB2458947FB
:1036A000A24603C605006319F602D84183471700F6
:1036B00003470700A207D98FC2070D67C187130709
:1036C0002790639BE700CC452390C60022850946DE
:1036D00097D0FF1FE7804036F24062440145056104
:1036E000828041677917630CE502411122C406C646
:1036F00085472A84639AF50022852244B240938547
:10370000819741016F80102289476396F5008545B6
:10371000EFA0105D75D1B2402244410182808280C9
:10372000411126C2AA844165938581977D1506C6FD
:1037300022C4EF80301F170500001305C5FAEFA063
:10374000705197F6FF1F938666B54146994517F568
:10375000FF1F1305A5AEEF8010122A8419C5172587
:1037600002001305E5ADEF0012032285B2402244AA
:1037700023A69186924441018280411193858197CD
:1037800006C6EF60104CB2407D151335150041019F
:103790008280411122C42E849385819726C206C659
:1037A000AA84EF60104A058915C197F7FF1F938718
:1037B000E7A883D7A702A285B2402310F4002244D1
:1037C00026859244014641016F709024B240224404
:1037D00092444945410182808357250003550500E5
:1037E0003385A740420541818280AA8705C213071D
:1037F000F6FFB376C700054599EA23A00700CCC3BE
:103800002394C7002395E700014582800545828007
:10381000232005008280AA871145B5C72DC683D60F
:10382000070003D787000D45369783D62700158FED
:103830004207418329CB0145B9C58356060063730E
:10384000D700BA86C206C18201471315070141811C
:103850006366D5002310D600014582803385E500DC
:103860008348050003D8A70003D527000507337850
:103870000501C84342952300150103D5270005051E
:103880002391A700D9B782802A8729CD83560500C6
:103890008357A500B697835625008507958FC207E5
:1038A000C183BE866373F600B286C206C1820D452F
:1038B0009DCB81476394D700014582800356270042
:1038C0000355A70003C805008507718D5043C20743
:1038D000C1832A96230006010356270005062311FB
:1038E000C700C9BF11458280AA871145B1CF29CE33
:1038F00083D6070003D72700158F8356060042079B
:1039000041836373D700BA86C206C18209450DCFD1
:1039100001476366D7002310D6000145828003D596
:10392000070003D8A70033780501C8434295034830
:1039300005003385E50005072300050103D50700D1
:1039400005052390A700F1B7828029C5035705001C
:1039500083572500998F3E87C207C1836373F600A2
:10396000328742074183814763E4E7000145828053
:10397000835605000356A5008507758E5441B296FF
:1039800083C606002380D5008356050085062310D4
:10399000D500D9BF11458280411122C413845181C1
:1039A0002300A400056581451305058006C6EFF0D8
:1039B000CFC781452165EFF0EFBC8D451305004071
:1039C000EFF0AFC68D451165EFF0CFBBB7170040E4
:1039D00003A7870C91661367074023A4E70C03A78E
:1039E000C70A558F23A6E70ADD29034504001306FD
:1039F000000A93050004EF10E0042244B2401725AA
:103A000002001305E58541016F00E25839714AD87B
:103A100006DE22DC26DA4ED693F705042E89638E65
:103A20000716B717004003A7470C83A7470A03C42C
:103A300061812D83BD83058B858B6312870E83C6C1
:103A4000218709466365D60085062389D18683C40C
:103A500071816399970C83C6318709466365D600E7
:103A60008506A389D186238BE180A38BF18011C0C9
:103A7000F9E497F7FF1F83C72783C9E3854997F7C1
:103A8000FF1F2383378397F7FF1F2380878297F7D2
:103A9000FF1FA38C9780EFF0AFC39307803E335591
:103AA000F50237170040916613060064930500087D
:103AB00097E7FF1F23ACA77E8327870AD58F232490
:103AC000F70A03C55181EF00F0772686A285171506
:103AD00002001305E57B97E7FF1F238B377DEF007F
:103AE000E239854739E0171502001305657D6385C6
:103AF000F404171502001305A57E9DCC1306000AD9
:103B00009305000403C55181EF00D07313450904E8
:103B1000F2506254D2544259B259216182802389B1
:103B2000018635B7A38901863DBFE319F4FC17155B
:103B300002001305657CF9F0EF00E245C1B7854747
:103B4000E31EF4FAE39C84FA97E7FF1F83C7C77567
:103B5000D5D797E7FF1F23890774FD5717E7FF1F86
:103B6000A304F77497E7FF1FA384077497E7FF1F69
:103B700023800774B717004003A7C70A916617157B
:103B8000020013056579558F23A6E70A03A7870C62
:103B90001367074023A4E70C45B793F705080145D1
:103BA000A5DB97E5FF1F83C52570171502001305D8
:103BB0002578EF00A22C17E7FF1F0347E76E97E772
:103BC000FF1F9387676E3DCF03C4270083C4370070
:103BD0002D2689679387A70A231AF100914713744A
:103BE000F40F230BF1009357850093F4F40F139710
:103BF0000701930744024183A6971376F50FBA97FE
:103C0000B2972AC6A30DF100A545930750054808B1
:103C1000A30CE100230DC100230EF100A30B8100D2
:103C2000230C9100692AB2462686A2851715020048
:103C300013058573EF00822417150200130585769E
:103C4000EF00623513450908E1B597E7FF1F83C709
:103C5000A765C1C797E7FF1F9387076583C78700DD
:103C600093F7F70FBDCB97E7FF1FA38FA762854799
:103C700017E7FF1FA30EF762411197E7FF1F238984
:103C8000076222C406C691472A843717004063188A
:103C9000F5028327C70C171502001305657393E718
:103CA00007402326F70CEF00022FA2852244B240E2
:103CB000171502001305457641016F00221C83276A
:103CC000870CAA85171502001305857293E7074034
:103CD0002324F70CEF00821AC9BF8280011168000B
:103CE00006CEEFF00FA383C7518789CB0946C145A4
:103CF00003C58181EF001055A38A01863245EFF09C
:103D00000FA3B735004083C7B5401D47636DF7006B
:103D100083C7B5402146938585401D8E420641826A
:103D2000138541391D31F24005618280411113062E
:103D30000020938541191385413906C622C4753484
:103D400005661306068097F5FF1F9385A5871385E3
:103D50008118613C371400408327840A8D45130580
:103D6000002093E707202324F40AEFF0AF81832794
:103D7000840A85451305001093E707102324F40AED
:103D8000EFF04F80EFF00FA295450545EFF0AFA49F
:103D9000B2402244B7E700E03707000823A0E7104D
:103DA0004101828001112317B1001306E100AA85A9
:103DB0001385413906CE8534F240056182800111B8
:103DC00022CC2317B1002A841306E100AA851385AB
:103DD000413906CE89348355E1002285EFF04FA2A8
:103DE000F2406244014505618280914763F9B7085A
:103DF000034705009307A00A6313F708B306B5004D
:103E000003C7F6FF93075005631BF7068547014775
:103E1000F9153306F50003460600850793F7F70FFB
:103E200032971377F70FE3C6B7FE83C7E6FF6388C1
:103E3000E700171502001305E5656F00C2158345FD
:103E400015009307000A6397F5020347250085478D
:103E50006317F702011106CE834535002E852EC665
:103E6000ED33B245F240171502001305A563056155
:103E70006F00C2001715020013054564D5BF82808C
:103E80009C410947638FE7000D476382E7020547BE
:103E90006396E704AA85171502001305A5596FF06C
:103EA000F17DAA85171502001305055BCDBF4111F1
:103EB00022C42E8483D58500171502001305055CE6
:103EC00006C6EFF0B17B835584004840E13D835541
:103ED000840048402244B240410101BF8280411128
:103EE00006C6EFE0AFC2EFE00FB7B2401715020011
:103EF0001305055F41016F00020A411122C426C269
:103F000006C6A144EFE08FC00144FD14EFE0EFC10D
:103F100093F4F40F2A94F5F81355340042054181C7
:103F2000EFF0B156971702009387075B8C43EFF0D1
:103F30007127971702009387675A8C43EFF09126F9
:103F4000AA85EFF0A16FEFF0F14EB2402244420596
:103F500092444181410182802A86B305B040171501
:103F60000200130565636FF0717183D7C188639098
:103F7000A7022397B1882398C1882399D1882E86D8
:103F8000171502001305C55DBE856FF0316F17155B
:103F900002001305655E6F00020003574500011122
:103FA00006CE83D7C1886315F702C167F91723A628
:103FB000F18823A8018885471306F100854513057C
:103FC0005030A307F100EF607176F2400561828006
:103FD000171502001305C554EFF0F17BFDB7411131
:103FE0009397050122C406C626C2C1872E8463DECC
:103FF000070003C58181792311C1212B2165218D02
:10400000B240224492444101828093F7150091CF3F
:1040100017E6FF1F1306062A9385413B03C58181DE
:10402000EF60113D13451400E1BF93F7850099CF70
:1040300083C781811307400681465146A14503D5B8
:10404000C188EF605134134584005DBF93F7050CC0
:1040500099C72244B240924441016FF03F9B93F7CD
:1040600005010145D1DF938741829C430547638960
:10407000E70081C70D476379F7141345040149B779
:1040800003D5C188EFF06FEF2DE19307000413858E
:104090008118239AF188EFF02FF40DCD1386418912
:1040A0009385013A13858118EFF01F841375F50F7E
:1040B00019E583D5418981C51385013A3D331385BF
:1040C0008118EFF06FF119C50946C14503C581811B
:1040D000EF005017C16703D7C188F917E31FF7F83E
:1040E00013858118EFF0CFF249BF03D5C188EF10D7
:1040F000F03A7515239AA18813858118EFF0CFED5A
:1041000083D74189636BF50813858118EFF0CFECF5
:10411000AA851715020013052541EFF031561386C5
:1041200041899385013A13858118EFF0EFFB1375F0
:10413000F50F23AC0186E31205F483D5418981C5CF
:104140001385013A5D3103D6418901478146ED452A
:1041500003D5C1882393C188EF50106923A4A18897
:104160006308050C03D661889385013A97D0FF1F39
:10417000E780808C93854188014603D5C188EFF0A4
:104180004FE1AA85171502001305053CC9E18547D3
:1041900023A2F182239A018869A0938481879840A1
:1041A000A947E3EEE7F61146C14503C58181EF005B
:1041B00070099C401715020013050538850723ACCC
:1041C000F186EFF0515D55BD03D641890147814627
:1041D000ED4503D5C1882393C188EF50F06023A437
:1041E000A18839C503D661889385013A97D0FF1F0E
:1041F000E780808493854188014603D5C188EFF02C
:104200004FD9AA8549D5171502001305A534EFF03B
:10421000F1468D47ED451385418823A2F182EF5089
:1042200070740946C14503C58181EF00B001B1B585
:10423000894723A2F182F5B73D897D15954763E251
:10424000A712171702001307272C0A053A951C41DD
:10425000411122C406C6BA972E8482871715020020
:10426000130505352244B24041016FF0D15203C716
:10427000250099476314F7002E85053317150200B2
:1042800013050534C5B703C7250095476317F70C19
:10429000C16703D7C188F91703D5A500630FF700DD
:1042A000EF60B17A1715020013058532EFF0B14EB9
:1042B000171502001305453475B72396A18883D7D7
:1042C000E5000966130606902397F18883D7050158
:1042D00003C581812398F18883D72501A1452399BE
:1042E000F188EF0020760356E4008355A4001715EB
:1042F00002001305252FEFF071385DBF171502007E
:104300001305453085B783C5250091476397F500B0
:104310001715020013058530B1B79947639FF50063
:104320002285A53983456400171502001305C530A1
:104330002244B24041016FF071349547639AF50011
:1043400083471400F1F7171502001305A53019BFB4
:104350001715020013058530E1BFB2402244410128
:1043600082808280011117050000130585C706CEE3
:1043700022CC26CAEF0010439384818199470544DB
:104380002380A4002315F100130691009307803EBB
:104390008545130550302316F100A3048100EF601A
:1043A000F13817E6FF1F130626F3E54513057030B5
:1043B000EF60D1371386C1819D4513056030EF60F2
:1043C000F1361306A100894513051031EF6011364F
:1043D0007000894513052031EF60513517E6FF1F46
:1043E000130606EED5450145EF50E0769305000A29
:1043F0000D45EF20904C9305000A1145EF20F04B3E
:104400007000914513057040A303810023048100CF
:10441000A304810002C623050100EF50417A130670
:104420007100854513050040EF50617930008545E6
:1044300013051040EF50A1781306A1008545130520
:104440002040EF50C1771306910085451305504079
:10445000EF50E1767D55EF5070017D55EF7070495A
:10446000EFE01FDC170500001305C5A1EFF04FAB0F
:10447000C1671387C188F9171CC32322070013855E
:10448000C187EF40A14B03C5040085452529F240B3
:104490006244D2440561828041111305800406C63E
:1044A00097C0FF1FE78020BF371700408327870C86
:1044B0008D451305000893E707082324F70CEFE068
:1044C000DF96EFE07FB9171502001305253FEFF0E7
:1044D000912CEFE09FEBEFE07FFEEF6051595935F3
:1044E000EFF0DF8403C58181EFF00FCB97C0FF1F92
:1044F000E780201123AC05FE1C4191E7010001007B
:104500000CC18280BA8703A787FF6DFF23ACB7FE7B
:1045100082801DC18346E5FF1307F00F9147639E1C
:10452000E600411106C697D0FF1FE780003CB2406D
:1045300081473E854101828095473E85828001E921
:10454000014582800145B240224441018280956547
:104550004111938505D022C4C98D2A842105C20545
:104560004205C181418106C697D0FF1FE780C02A5E
:1045700071D9FD5723200500231285002303F50080
:104580002105D1B7170700201307072C1C43411141
:1045900022C426C24AC006C601440149BA8489E73A
:1045A000A165D1251DC401A803C7E7FF631AA702AF
:1045B0000DCCA165012E9840832784FF6319E40286
:1045C000170700202322F728FD57232C04FE230F72
:1045D000F4FE2285B2402244924402494101828085
:1045E00011E03E8983A787FF5DBF3E84E5BF232C92
:1045F000F9FED9BFB1CD411122C406C62A8497075E
:10460000002083C7B7242E856375F400894763E8CB
:10461000870001370D45B24022444101828083A7C3
:1046200085FF99E703C7E5FF9307F00F6305F700E0
:10463000CD351545CDB7238F85FE17050020130511
:10464000A5204D3D22852244B240A16541019DAC8B
:10465000154582809707002023A8071E82809707B0
:1046600000209387E7239C4399E33E85828003D70C
:1046700027006316B70003C70700E308A7FEDC475F
:10468000E5B7C9C1797122D406D626D24AD04ECE1A
:1046900001444147B3D78540858BA5C312053147F7
:1046A00022953305E502970700209387672303A926
:1046B00007008544B3948400C204C180BE892A994E
:1046C0000327090011C7032549002EC60297B245EA
:1046D00031473304E40283A709003E941C4489E770
:1046E0002320090023220900B2502254A58D02592B
:1046F0009254F2492E85456182800504E31CE4F85A
:104700008144DDB72E85828041111397050122C4B3
:1047100006C626C24AC041872E84635E07009D35C7
:1047200011C1C53BA1673D8C2285B2402244924411
:10473000024941018280EDD9AA8701474146B3561B
:10474000E440858A8DCE9207BA97B146B387D702E7
:10475000970600209386C61803A906008544B394E3
:10476000E400C204C1803E99832709000325490063
:1047700082972320090023220900258C75B705079D
:10478000E31FC7FA8144D5BF97070020938787119D
:104790009C53411122C406C61384818299C7829713
:1047A0001C403E9523A4A18239A09707002093873F
:1047B000A70E9C43EDF70840B74703009387D73F08
:1047C0003305F502B7A72600938737ECB2402244A1
:1047D0003E9523A4A182410182807DC197070020DC
:1047E0009387870B9C43797122D426D24AD04ECE30
:1047F00052CC56CA5AC806D65EC63A8AB689328B99
:10480000AE8A2A898297970700209387670D98437D
:10481000BE840144B146C147B30BD40233067701CD
:10482000104251EAC165938505F0414597D0FF1FBD
:10483000E78080FE1DE5970700209387A7069C5B15
:104840002D4589C71145814582972D45B250225487
:1048500092540259F249624AD24A424BB24B4561E4
:104860008280970700209387A703984329E397073F
:10487000002023A7A702230005009C40054733170B
:10488000870023260500232465012311E500232248
:104890004501DE9723A0270123A2570123A4470146
:1048A0000145E38509FA238089004DB73E875C47BF
:1048B000F5FF48C7C9B70504E310F4F6214579B7F9
:1048C000094582809707002083C757F86371F50276
:1048D00017070020130787FC9317150008433E9520
:1048E00083570500DD8D2310B500014582800D45FD
:1048F00082809707002083C777F56373F502170757
:1049000000201307A7F993171500084393C5F5FF77
:104910003E9583570500FD8D2310B500014582802B
:104920000D458280130705FF1377F70FFD4763E9F5
:10493000E70AB146B306D50297070020938747FAE6
:10494000984389473697184349CF011122CC4EC668
:104950000544935945003D893315A40013140501FE
:10496000418026CA4E85AE84A2854AC806CEC53986
:104970002A89814731CDA2854E85A53F9707002022
:10498000938787F19C4382979707002083D747F648
:10499000338797022A84814613060064B3B79702CF
:1049A00013050732B335E500BE95EFE0B10FB3074D
:1049B000850097060020938626F33E87D44263E461
:1049C000A70063E4D7003387D7402324E900814759
:1049D000F2406244D2444249B2493E850561828038
:1049E00089473E858280011126CA06CE22CC4AC85C
:1049F0004EC6BD47894463EFA70231473307E5023E
:104A0000970700209387C7ED9C438944BA979C433E
:104A100095C305443314A400420441802E89014506
:104A2000A2853539AA89814411C5A2850145D135B0
:104A300023A42901F240624426854249D244B24966
:104A4000056182809707002083C757E06364F50003
:104A5000014582800111970700209387E7E356C242
:104A600083AA070006CE22CC26CA4AC84EC652C424
:104A7000638D0A0A170A0020130A0AE783244A00F2
:104A8000B74736FE938707C8AE899705002083D5C0
:104A900025E6BE94B387C5022A8432898146B3B520
:104AA000C50213850732B337F50013060064BE95BF
:104AB000EFE0417F63EBA406829A9705002083D53F
:104AC00025E3B3872503AA84130600648146B3B5A2
:104AD000250313850732B337F500BE95EFE0817CDF
:104AE000B3079500BE8403274A0063E4A70063E48C
:104AF000E700B384E740CE852285953601C504C51D
:104B000005452DA0936504F0C205C181414597D0AC
:104B1000FF1FE78060D005E597070020938787D8BF
:104B20009C5B81C7A285114582970145F240624492
:104B3000D2444249B249224A924A0561828097078B
:104B400000209387E7D59C439DE39707002023A986
:104B5000A7D485472326050004C52311350123006A
:104B60008500A300F5002322050059BFBA87D84766
:104B700075FFC8C7F9BF59C9797122D426D24AD066
:104B80004ECE52CC56CA5EC662C466C206D65AC85B
:104B90003689328AAE89AA844144314C970A002072
:104BA000938A0AD4854C930B0003330B840303A729
:104BB0000A005A971C43B1E79375F400B395BC0003
:104BC00013554440C2055286C1811375F50F9D3DB2
:104BD0000DC983A70A000145DA9784C323A23701D0
:104BE0006304090023008900B250225492540259F0
:104BF000F249624AD24A424BB24B224C924C456136
:104C000082800504E31374FB2145F9BF09458280C6
:104C1000411122C426C24AC006C62A842E89B28403
:104C20001535CA852285EFF09FA305CD9705002095
:104C300083D505CCB38795022A8413060064814688
:104C4000B3B5950213850732B337F500BE95EFE093
:104C5000616548C00145B240224492440249410185
:104C600082802145CDBF411122C426C24AC006C65A
:104C70002A892E84EFF0BF9EAA8419C12311050052
:104C8000A2854A85BD319707002083C727BC639B57
:104C900027019707002083D7E7BF5D8C9707002087
:104CA000239A87BE014591E01945B24022449244BF
:104CB0000249410182809307F00263E8A704411191
:104CC000B14722C43304F50226C29704002093841E
:104CD00024C19C4006C6A297984389470DC3937789
:104CE000F5008545B395F500C205C1811181A53F49
:104CF0009C40A29723A0070023A207008147B2404F
:104D0000224492443E854101828089473E858280CB
:104D1000411106C622C4EFF09F9411E50145B2404F
:104D2000224441018280970700209387E7B69C4385
:104D30000045829797070020938707BB6368A4020A
:104D4000D843B74636FE938606C83305A440369747
:104D5000E376E5FC13070064B335E50203D687006C
:104D600081463305E502EFE0E15355BFD8433A945D
:104D7000C1BF411122C426C2170400201304C4B6C7
:104D800097040020938484AC9448584097070020EF
:104D9000938787B006C69C436393E6088297544086
:104DA000B74736FE938707C8B6973387A7003A857B
:104DB0006364F7006364D7003305D740970400208D
:104DC000938484CB9C4C81CF970700209387C7D1D5
:104DD00094433707CDFF7D179C46F98F9CC611E1A0
:104DE0004840970700209387E7ABDC53829719E58B
:104DF0009C4C8DC3EF001101EFF0F0639C4C99CBFC
:104E000097070020938747CE9843B70633001C4787
:104E1000D58F1CC7B24022449244410182808297C0
:104E200098489707002083C737A954401D8FB307C0
:104E3000A7003E8563E4E700E3E2D7F83385D74077
:104E4000B5BF411106C69707002023ADA7A802955C
:104E5000B2409707002023A7A7A001454101828007
:104E6000994763E9B7008A05970700209387C7A091
:104E7000BE9588C182804111714681451705002089
:104E80001305859F06C69707002023AB07A0970749
:104E9000002023A907A49707002023AF079E97C0EF
:104EA000FF1FE780E0BC1306800281451705002044
:104EB0001305C59997C0FF1FE78080BBEF60E144F1
:104EC0009707002083C7779F13D527008D8B3E95CA
:104ED0008D473305F502854539051375F50F97079D
:104EE00000202386A79699473305F502130505246C
:104EF00097D0FF1FE7804092170700202322A79E2C
:104F000059CD994717060020034666943306F602EA
:104F100081451306062497C0FF1FE78060B59707F9
:104F200000209387E79B9C43938707241707002063
:104F30002322F79417070020034767910A07BA97BF
:104F400017070020232CF794EFF0CFF005239707E5
:104F500000209387279294439707002083C7178FD9
:104F600013972700369717F6FFFF1306C67110C375
:104F7000138717001377F70F0A07369717F6FFFF07
:104F80001306C67810C313873700890793F7F70F06
:104F90008A0797050020A38BE58AB69790C3B24095
:104FA000410182809707002083C7578A1707002096
:104FB0000347E78963F3E702170700201307878B8E
:104FC00018439386170017060020A301D6889396EE
:104FD0002700369708C33E8582809307F00FE5BF10
:104FE0001C41638A071641777D8FB70600208947E9
:104FF0006314D7160357450063000716411122C4F6
:1050000019462A849305F00F690506C697C0FF1F4D
:10501000E78020B005478D47630AE5121C4481CB29
:105020005858994763040712185C63010712130666
:10503000C0038145170500201305C58697C0FF1FD3
:10504000E78000A31306C003A285170500201305FF
:10505000658597C0FF1FE780209E17070020035734
:105060002785970700209387E78319E71307001028
:1050700097060020239EE6821707002003476783D8
:1050800011E70547970600202385E68217070020D1
:105090000357478211E76D4797060020239CE6805F
:1050A000170700200347F78011E7154797060020F0
:1050B000A381E68017F7FF1F0347E77F11E7054746
:1050C00097F6FF1F2389E67E17F7FF1F0347B77E7A
:1050D00019E703C7F70097F6FF1FA38EE67C17F7C3
:1050E000FF1F0347677D11E7354797F6FF1F2385AD
:1050F000E67C17F7FF1F0347777C19E71307800249
:1051000097F6FF1FA38CE67A17F7FF1F0347D77A9E
:1051100019E71307D00297F6FF1FA38FE67803471E
:10512000840119E71307C00397F6FF1F2388E67869
:105130009C5791C7829797F7FF1F239DA770FD5734
:1051400017070020A304F7A03D338147B240224453
:105150003E854101828089473E85828001114EC68D
:1051600097F9FF1F9389497883A7090006CE22CCBF
:1051700026CA4AC852C4829713090064B33525036E
:1051800003DA89008146528633052503EFE0811159
:1051900097F7FF1F9387876B804FAA8401456306AB
:1051A000940233858440636E940003A549005286BF
:1051B0008146B335A9023305A902EFE0A10E018DA6
:1051C000269597F7FF1F23AF9768F2406244D244B9
:1051D0004249B249224A05618280011122CC0A85E6
:1051E0002E84414697050200938585F406CEEFE0B4
:1051F000913D180806043A94035504FF97F7FF1FE2
:1052000083D7276FF2406244AA9737450F001305F2
:1052100005243355F5020561828097F7FF1F83D778
:10522000476D51471D45637CF702794719456378FF
:10523000F7021307200315456373F7021307B00441
:105240001145637EF700130740060D456379F700AB
:105250001307600909456374F70013B5B70F82801F
:10526000011122CC06CE2A842EC6EFF0EFD1B24532
:10527000F240818D33A5A502229562441375F50F86
:1052800005618280011122CC06CE2A842EC6EFF061
:10529000AFCFB245F240818D33A5A502229562447D
:1052A0004205418105618280011122CC06CE2A840B
:1052B0002EC6EFF06FCDB245F240818D33B5A50219
:1052C000229562440561828097F7FF1F9387875D6F
:1052D000985739CB411122C426C206C6BE84029714
:1052E00017F7FF1F035707572A8415CBBA87637335
:1052F000A700AA87C207C183BA866373E400A286A7
:10530000C206C182958F5147635BF700DC5491C39D
:105310008297EF00A11897F7FF1F239D8752B24095
:105320002244924441018280828097F7FF1F938735
:105330006757DC57011106CEAA8581C72AC6829716
:10534000B245C1C59C410545B5CFDC41A5CF83D74A
:105350008500ADCB83D7A500B5C783C7C500BDE326
:10536000414617F5FF1F1305255897B0FF1FE7802B
:10537000A06C97F7FF1F938727579C4317F7FF1FD2
:10538000232CF75097F7FF1F83C757538DE79307D9
:10539000800217F5FF1F0355A5553305F502374663
:1053A0000F001306062481468145EFD0B16F97F7B1
:1053B000FF1FA385A75017050000130565DAEFF05E
:1053C0005FA80145F2400561828097F7FF1F83C700
:1053D000C74E1397870161876350070497F7FF1F34
:1053E00023A4074897C7FF1F938707A817F7FF1F36
:1053F000232CF74EFD5717F7FF1F2329F74EB787CA
:105400003200938727A117F7FF1F2323F74E97F743
:10541000FF1F2381074EB1BF13F7170005CBB787D6
:105420002003938707D017F7FF1F2323F74CB707F5
:10543000C0A817F7FF1F232BF74A97C7FF1F9387B3
:10544000C7A517F7FF1F2321F74AD1B7617797F652
:10545000FF1F239FE64881CB9307003217F7FF1FFA
:105460002319F748E9B793072003CDBF011122CCD8
:1054700017F4FF1F13040443084406CE26CA4AC883
:1054800001E90545F2406244D24442490561828007
:105490005C58E5DB185C75D7700085458297184429
:1054A000B247E300F7FE9305E00417F5FF1F03552D
:1054B000254097C0FF1FE780203617F7FF1F2327DF
:1054C000A73A61D117F6FF1F0356863E9305F00FEA
:1054D00097B0FF1FE780C059814417F9FF1F1309D8
:1054E000E93697F7FF1F83C7C73C0326090263C14C
:1054F000F402328597C0FF1FE780203F014597F7F0
:10550000FF1F23A5073697F7FF1F23A307369DBF6D
:1055100097F5FF1F83D5C539B38795020844185CFA
:10552000898185043E9508C2029765BF011156C264
:1055300097FAFF1F938A0A3783A78A0022CC4AC8AA
:105540004EC606CE26CA52C45AC0AA892E843289B3
:105550006385072203A74A03630707147D47636631
:10556000A71497F4FF1F9384642E03AA0402631701
:105570000A0A9565938515E017F5FF1F0355453316
:1055800097C0FF1FE780402997F7FF1F23A0A72E92
:105590002A86630A051083A74A0303A58A0097F5A4
:1055A000FF1F83D5E5308981829783A78A0003AAEC
:1055B000040217F7FF1F232DF72A8947639CF90878
:1055C000C1476312F40E97F5FF1F83D5652E9385AF
:1055D00005FC9147B3C5F5028A05D29503C70500BE
:1055E0009307A005631DF70A83C715006399370B5E
:1055F0004A852286910597B0FF1FE780E0439C50C3
:105600005285639347150145F2406244D2444249B2
:10561000B249224A924A024B05618280D850E38EF9
:10562000E7F89565938525E017F5FF1F0355452895
:1056300097C0FF1FE780401E2A8A35C52A8683A7A8
:105640004A0303A58A0097F5FF1F83D56526898144
:105650008297A5B78D47639DF900C1476315F40490
:1056600097F5FF1F83D5C524938545FDF199B5B7FF
:105670009147639AF9006318340397F5FF1F83D5A8
:105680002523A115E5B7C147639FF900A14763EC46
:10569000870097F5FF1F83D5A521C115C1BF9C5079
:1056A00052856397470D294585B71307F006568B3A
:1056B0006361A70A130A05FE1947334AEA0217F77E
:1056C000FF1F0357E71E97FAFF1F938A2A18330A12
:1056D000EA023E9A83A74A026395470183A40A021D
:1056E0009DE49305E00417F5FF1F0355651C97C063
:1056F000FF1FE7806012AA845DD583274B0397F5CF
:10570000FF1F83D5E51A2A868981528582979145A4
:105710001307A005898193972500A69783C60700E4
:105720006393E60483C61700639C360385058A05E8
:105730002286A6954A8597B0FF1FE780E02F83A7B2
:105740000A02E38297EC268597C0FF1FE780E019E5
:105750005DBD1307E007E368A7F4130A05F985B7F1
:1057600083D5270045BF83A70A02E38E97F22685DB
:1057700097C0FF1FE78060173DB797F7FF1F93871C
:10578000E70C8C538DD191479306A005898313971D
:1057900027002E9703460700E317D6F003461700AD
:1057A000631C360185078A072286BE954A8597B015
:1057B000FF1FE780602881BD83572700C1BF97F78F
:1057C000FF1F9387270E984739C79C5FA9C70547D6
:1057D0006313E504411122C417F4FF1F13040407E7
:1057E000105006C60DC6485097F5FF1F83D5450CCF
:1057F00089818297085097C0FF1FE780000F97F7B5
:10580000FF1F23A5070697F7FF1F23A30706B24034
:105810002244410182808280011117F7FF1F130784
:1058200067084EC68329870022CC26CA4AC806CEFE
:1058300052C456C2AA842E843289638A09201C5F0E
:10584000BA8A99EB2945F2406244D2444249B249AE
:10585000224A924A056182805C5BEDD7FD4763E98D
:10586000A70E97F9FF1F938969FE83A70902B1CBA1
:1058700003A58A0083A749026395A7068947639316
:10588000F408C147E310F4FC17F5FF1F0355450268
:105890009147130505FC3345F5029317250003A531
:1058A00009022286CA853E959307A0052300F500CC
:1058B000A3009500110597B0FF1FE780E017014591
:1058C00059B79305E00417F5FF1F035565FE97C010
:1058D000FF1FE78060F497F7FF1F23A9A7F849F996
:1058E00095B783A74A0303A6090297F5FF1F83D53F
:1058F00025FC8981829783A78A0017F7FF1F232938
:10590000F7F6ADBF8D47639EF400C147E31CF4F288
:1059100017F5FF1F0355C5F9130545FD9377C5FF1F
:10592000BDBF9147639AF400E31E94F017F5FF1F83
:10593000035505F82115DDB7C147E395F4F0A147FC
:10594000E3E287F017F5FF1F035585F64115F9B718
:105950009307F00663EAA706930705FE1947B3C746
:10596000E70217F7FF1F0357A7F417FAFF1F130AE1
:10597000EAEDB387E702BE9983270A02A9CF8327FE
:105980004A02639A370703250A0291461308A005C5
:10599000FD5593D72600C207C183139727002A9786
:1059A00003460700631D06078348170003562700B8
:1059B00063959806B306D64063CF860485078A07A9
:1059C0002286CA853E95C5BD9307E007E3ECA7E6AE
:1059D000930705F979B79305E00417F5FF1F035501
:1059E00025ED97C0FF1FE78020E397F7FF1F23AF48
:1059F000A7E651F581BD83A74A0303260A0297F55E
:105A0000FF1F83D5E5EA89814E85829797F7FF1FAF
:105A100023A037E78DBFA300B700B2869DBFB38533
:105A2000860017F6FF1F0356A6E89105130606FC2D
:105A3000E3FAC5E0130634001376C60F1106B296DA
:105A400023000701A30097002311D70085BF97F714
:105A5000FF1F9387A7DF9453BE89A1C203A5090244
:105A600091461308A005FD5593D72600C207C183B0
:105A7000139727002A9703460700631606058348F5
:105A800017000356270063989800B306D640E3D763
:105A900086F2A300B700B286C1BF8357C70017F5CF
:105AA000FF1F034505E19305E0043305F5024205B8
:105AB000418197C0FF1FE78020D697F7FF1F23A7DC
:105AC000A7DA49FD41B317F6FF1F035666DE97F5C7
:105AD000FF1F83C505DEB385C50233868600110628
