:040000006F2000105D
:100004000000000000000000900000208A0400208E
:10001400A9BDF9F5900000200000000000000000D8
:10002400900000209000002000000000000000006C
:10003400900000200000000090000020000000005C
:1000440090000020900000209000002090000020EC
:1000540090000020900000209000002090000020DC
:1000640090000020900000209000002090000020CC
:100074007E050020900000209000002090000020C9
:1000840090000020900000209405002090000020A3
:1000940001A073270080218B9387018509CB7327E7
:1000A400008023A8E18498435D9B731007800100BE
:1000B400010037170040930670052300D704930608
:1000C40080FA2300D704010001008346B70493F6A5
:1000D400F60DA305D7042300070473260080944378
:1000E400A18AD18E7390068023A8018401000100A7
:1000F40093760502638406180347A700118B25E74E
:1001040073270080218B09CB7327008023A8E18407
:1001140098435D9B7310078001000100371700406E
:10012400930670052300D704930680FA2300D704AE
:10013400010001008346A70093E646002305D7008B
:1001440023000704F32600809843218B558F7310F6
:10015400078023A80184010001001307004B01005C
:1001640001007D176DFF73270080218B09CB732756
:10017400008023A8E18498435D9B731007800100ED
:10018400010037170040930670052300D704930637
:1001940080FA2300D704010001007D892314A700FD
:1001A400010001000100010023000704F326008080
:1001B4009843218B558F7310078023A80184010075
:1001C400010073270080218B09CB7327008023A8AB
:1001D400E18498435D9B7310078001000100371789
:1001E4000040930670052300D704930680FA230089
:1001F400D7040100010001000100B72600401306E6
:100204001005A383C68023000704F32600809843C7
:10021400218B558F7310078023A8018401000100EE
:1002240073270080218B09CB7327008023A8E184E6
:1002340098435D9B7310078001000100371700404D
:10024400930670052300D704930680FA2300D7048D
:10025400010001008346B70493E60608A305D7040A
:1002640023000704732700809C43A18BD98F7390CC
:10027400078023A80184010001008280937605048D
:10028400638B06140347A700418B25E7732700807F
:10029400218B09CB7327008023A8E18498435D9BBD
:1002A40073100780010001003717004093067005A2
:1002B4002300D704930680FA2300D7040100010029
:1002C4008346A70093E606012305D700230007040D
:1002D400F32600809843218B558F7310078023A841
:1002E4000184010001001307007D010001007D1756
:1002F4006DFF73270080218B09CB7327008023A80F
:10030400E18498435D9B7310078001000100371757
:100314000040930670052300D704930680FA230057
:10032400D704010001009376F50193E60604231433
:10033400D700010001000100010023000704F32697
:1003440000809843218B558F7310078023A8018464
:1003540001000100130760046310E50473270080A3
:10036400218B09CB7327008023A8E18498435D9BEC
:1003740073100780010001003717004093067005D1
:100384002300D704930680FA2300D7040100010058
:10039400B72600400946B5B573270080218B09CBE9
:1003A4007327008023A8E18498435D9B7310078022
:1003B4000100010037170040930670052300D7049D
:1003C400930680FA2300D70401000100B7260040F9
:1003D400130620053DB573270080218B09CB7327B5
:1003E400008023A8E18498435D9B7310078001007B
:1003F400010037170040930670052300D7049306C5
:1004040080FA2300D704010001008356870093E695
:10041400060C2314D700C5BB411181460146814512
:10042400114506C65D24F3270080A18B93860185C0
:1004340089CBF327008023A8F1849C42DD9B739031
:10044400078001000100B7170040130770052380DF
:10045400E704130780FA2380E7040100010003C7BF
:100464006704136717002383E704238007047327B3
:1004740000809C42A18BD98F7390078023A80184AC
:1004840001000100B240410182808146014681455C
:100494001145252CF3270080A18B1387018589CB77
:1004A400F327008023A8F1841C43DD9B739007800D
:1004B40001000100B7170040930670052380D7049C
:1004C400930680FA2380D70401000100FD56239689
:1004D400D70223800704F32600801C43A18BD58F09
:1004E4007390078023A8018401000100F327008092
:1004F400A18B89CBF327008023A8F1841C43DD9BC7
:100504007390078001000100B7170040930670053F
:100514002380D704930680FA2380D70401000100C6
:1005240083C6670493E616002383D7042380070455
:10053400F32600801C43A18BD58F7390078023A8DA
:1005440001840100010001A0BD473305F50201004B
:100554007D1575FD8280411122C426C206C6AA8477
:10056400014463179400B2402244924441018280C2
:1005740005041305803E4204C13F4180DDB7B7172F
:100584000040130700032388E702854723A0F18670
:100594007300203037470040834747C09946BD8BDE
:1005A400638BD70231476385E70011476397E702FE
:1005B400B745004003C6A5C013850118938585C0BF
:1005C400974000E0E78020D6420541810DE585474C
:1005D400A382F18619A0834757C073002030834655
:1005E40087C0850793F7F70F2382D1868346A7C078
:1005F400E3E7D7FEE9BF814737470040C5BF411154
:1006040006C68D2D973000E0E78040E3DDBF23036D
:10061400048015472303E48001002302A480828020
:1006240083076480E3CE07FE23030480828083076C
:100634006480E3CE07FE03454480828083076480A0
:10064400E3CE07FE2302A4808280411126C44AC25D
:100654004EC006C61377F50BAD47AA892E8995447B
:100664006306F70019456537653F8D444E85453768
:10067400FD59FD1463983401B240A24412498249E1
:1006840041018280135509011375F50F453F220975
:10069400CDB7011126CC06CEB70408005137154555
:1006A400BD37713769372AC6A53F324593771500A0
:1006B40089EB136515001375F50FF240E2440561EB
:1006C4008280FD14E9FC0145CDBF397126DC4ADA8C
:1006D4004ED852D656D45AD25ED006DE62CE66CCFE
:1006E400B7E700E07D5783AA070022C603AA4700A4
:1006F40023A0E71823A2E718B717004013077005D3
:100704002380E704130780FA2380E70483C74704A0
:10071400930B75FFB684E20793FBFB0F8546AA890A
:100724002E8B328937240040E187015763FA760122
:100734006308D5008946130700026313D5000157E7
:10074400D98F93F7F70FB71C00402382FC0411479D
:100754002303E4801305F00F5D3D094CD135636D2F
:100764007C11B7050700DA9537870700795563F2DE
:10077400E504B3879500636EF702370B0800A947B9
:1007840033EB65016399F90689E48144513D26857B
:100794000DA0DA850945553D05090345F9FFFD140A
:1007A400050B693D81C49377FB0FFDF7DD3569FDCA
:1007B4007D55B7170040130770052380E70413071E
:1007C40080FA2380E70403C74704418B2382E704AC
:1007D400F250B7E700E023A0571123A24711E254D7
:1007E40032445259C259325AA25A125B825B724C39
:1007F400E24C21618280A5476395F9068569130956
:10080400F00FB3069900B3742B01B6941349F9FFA2
:10081400B3749900856B33796901416B9387F9FF50
:10082400B3F7270199E363FC340193D94900C14725
:10083400E3E637FF99BF0569C1697D19D9B7130587
:10084400800D63886901130500026384790113052F
:100854001008CA85DD3B353D21DD4E99B384344112
:10086400D9B7DA852D45D533CA94E30099F2050941
:100874007D3BA30FA9FED5BF9387F9FF93F7F70F2D
:100884006361FC0C83C71C0413073008631FF7045F
:1008940037070800636BEB04B3079B00B70610002F
:1008A40063F5D704334BEB0089476393F9068980DA
:1008B400D549E38C04ECDA850945413B110903274A
:1008C400C9FF91472320E48003076480E34E07FEB9
:1008D40023033481FD17EDFBFD14110B81C49377C1
:1008E400FB0FE9FF7D3371F5E1B5B717004003C78E
:1008F4005704B70708001377070219E3B7870700FF
:100904007955E378FBEA33079B00E3FFE7F855B535
:100914008547E382F9F2DA852D45053B9389F4FF97
:10092400E38504E6293393F7390091EB83260480A9
:100934000327090093074900E39AE6E43E89CE843D
:10094400F1BFB5476396F9001305900BC93135BD66
:10095400B1471305B00AE38BF9FE99476391F90493
:10096400B7050800B365BB002D45C53181448D4BE7
:10097400A149753963967401832704802320F90003
:100984008504E39834FF8327048013172B016355F0
:1009940007002312F900D5BB2322F900FDB39D47BC
:1009A4006399F90281451305B0044531BD44232000
:1009B400090023220900FD599D3993F77400CA9751
:1009C40003C70700FD14398D2380A700E39634FF85
:1009D4006DBBA1476392F9046D398144630D0B002B
:1009E4008D479304C0036308FB009304000563046C
:1009F4008B01930440041375C507E30895D8194582
:100A0400393139390545213126850D3909453D31BD
:100A14004931E31C05D669BB91476399F900130575
:100A24006006F536F53E130590090DB7E38F09D43A
:100A3400F154A9BB19CD91CD09CE81473387F50077
:100A4400834607003307F50085072300D700E31723
:100A5400F6FE828019C991C909CA910583A7C5FF09
:100A640011057D16232EF5FEC5BF828001C919C666
:100A74002A960505A30FB5FEE31DA6FE82808147D5
:100A84003307F5000307070019E33E8582808507D5
:100A9400C5BF01112E8626CAAA8413150601930523
:100AA400F004418122CC06CE32C6EF00B0562A842F
:100AB40001C53246A685BD3F2285F2406244D24438
:100AC40005618280854715C18DC105C28147B30682
:100AD400F5003387F50083C60600034707006398D3
:100AE400E6008507E315F6FE85473E85828081474B
:100AF400EDBF9307F6FFBE952A966313C500828067
:100B0400FD1583C715000505A30FF5FEFDB7AA87DC
:100B1400014581CF09CE3E96850703C7F7FF6317CA
:100B2400B700E39BC7FE0545828082800145828031
:100B34007971974700009387A7E722D4804306D6AC
:100B440026D24AD04ECE52CC56CA5AC85EC679C0B6
:100B5400B7C4C901014B974900009389E9E4938420
:100B6400F437174A0000130AEAE4974A0000938A0C
:100B7400EADE17490000130929E88357240095E3A6
:100B84005C44631D0B00174700002323F7E2832B0B
:100B9400C4002285EF0030555E84B9A82326FB00EB
:100BA400FDB783A7090082971C443307F540637699
:100BB400F500032749001D8F2A9763E2E40897474D
:100BC400000023A507DA8355240003450400974059
:100BD40000E0E780C0CF5C405844A1CB0C4403261E
:100BE4004900AE97BE8663E4B70063E4C700B386EA
:100BF400C74014C4228B3A8449F097470000938776
:100C0400E7D59C4B09476372F706F91717470000AD
:100C1400232EF7D4B250225492540259F249624A14
:100C2400D24A424BB24B4561828063170B0097470F
:100C3400000023AFE7D6A1BF2326EB0089BF03271B
:100C44004A0209CF63EFA7003385A74083A70A01AF
:100C54006376F5009747000023AAA7D0228B40446F
:100C640061BF03274900BA97C5B79747000023AF70
:100C740007CE4DB7411122C4174400001304C4D059
:100C84001C4006C626C24AC091C7829797470000F7
:100C940023AC07CE9747000083C757EF858B974453
:100CA4000000938464EE95C397470000A38007EE89
:100CB40083C774001547637AF700A12B83C77400B8
:100CC400F5178A07A2979C4382971C4491C3829785
:100CD40017490000130989CD0327090017460000AE
:100CE4000346D6C79747000083C747C793961700A4
:100CF400BA9683D60600D5CE9747000083C707C6A9
:100D040063E3C70C97470000238A07C41C40639D14
:100D140007129747000083C7B7E791CF83C77400D2
:100D240093F7F70F89EB97470000A38307E69740F3
:100D340001E0E780C035974700009387E7C69C43EE
:100D44006384071097470000938707CBDC4317475A
:100D54000000232DF7C0E93B97470000938787C520
:100D6400DC53FDC317470000130747BF184B9747D1
:100D7400000083C777C56369F70C83C77400154700
:100D84006364F70C9747000083C7C7E4918BCDEFEA
:100D9400032609009746000083C656BC63CCD70AD5
:100DA4002244B240924402494101174300E06700E3
:100DB400E3FC850793F7F70F974600002380F6BA04
:100DC400E3E2C7F215BF86073E9783550700231059
:100DD400070097470000239707BC974700009387B5
:100DE40067BA9C4317450000034545B71317250010
:100DF400BA979C4382979747000083D7A7BA1747AF
:100E040000000347A7B593C7F7FF7D8D931717001D
:100E1400032709003E97835707005D8D2310A70021
:100E24009747000083C787B391C78507174700001A
:100E34002306F7B217470000034747B2974700005D
:100E440083C7D7B1E370F7ECB2402244924402491D
:100E540041018280139717003297035707006DF7FB
:100E640085072DBFAD6737C70040BD072326F72090
:100E74000F10000097470000938747AEC84F8327A1
:100E84008726BD66BD0693C7F7FF99836A052326A7
:100E9400D7205D8D82804111B7170040985F3AC614
:100EA400945F3247E39CE6FE32454101828013059C
:100EB400F00F8280011197470000938727DD22CC31
:100EC40003A4070C26CA06CE2AC42EC6854419E4F8
:100ED4000145F2406244D244056182808347910017
:100EE40003471400858B6304F7000044CDB719460B
:100EF4009305A10013052400F136E31895FE05457A
:100F0400C9BF17470000130727C71C4393060010E7
:100F140094C301000100010001001C4323A0070049
:100F24008346150003482500A2064208C2960348DA
:100F34000500C296034835006208C29694D78346DA
:100F4400550003486500A2064208C29603484500BE
:100F5400C296034875006208C296D4D783469500AA
:100F64000348A500A2064208C29603488500C2961B
:100F74000348B5006208C29694DB8346D500034853
:100F8400E500A2064208C2960348C5000345F500E1
:100F9400C2966205AA96D4DB83C6150003C5250054
:100FA400A2064205AA9603C50500AA9603C5350004
:100FB4006205AA9694CF83C6550003C56500A206B0
:100FC4004205AA9603C54500AA9603C575006205A5
:100FD400AA96D4CF83C6950003C5A500A2064205F0
:100FE400AA9603C58500AA9603C5B5006205AA960C
:100FF40094D383C6D50003C5E500A2064205AA968C
:1010040003C5C50083C5F500AA96E205AE96D4D300
:10101400D443F59AD4C3D44393E61600D4C394437B
:1010240093E6160094C3BA879443D842058B59E3D8
:10103400984E01452300E6009843184F2183A300EE
:10104400E6009843184F41832301E6009843184F64
:101054006183A301E6009C43D84F2302E600D84FE6
:101064002183A302E600D84F41832303E600D84F2F
:101074006183A303E60098532304E6009853218375
:10108400A304E600985341832305E6009853618343
:10109400A305E600D8532306E600D8532183A3060C
:1010A400E600D85341832307E600DC53E183A3071A
:1010B400F600828001008DBF17470000130707ACBC
:1010C4001443411122C49C5E4AC006C6998326C2B9
:1010D400858B3A8417490000130909AAD1CB9C5E79
:1010E40097440000938444AA93F7F7F99CDE1747CA
:1010F40000000347C7A993070008631BF700832771
:1011040009009C4393F70704174700002301F7A83D
:1011140083C7040093F707049DC397470000938790
:10112400A7889C4382979747000023A7A7A683C755
:10113400040093F7F70B174700002307F7A483C7AE
:10114400440093F707048DE7854717470000A30F72
:10115400F7A2974700009387E7A49C43096798C7C1
:10116400130700FC974600002382E6A2D844F8D374
:101174001C40985F1183058B09CB985F3D9B98DFDA
:101184000547974600002383E6A0985F1D83058BDF
:1011940011CB985F1377F7F798DF8547174700005F
:1011A4002306F79E83270900D8430583058B19C7B7
:1011B400D843759BD8C3D843799BD8C3B240224443
:1011C4009244024941018280397106DE16DC1ADA42
:1011D4001ED82AD62ED432D236D03ACE3ECC42CAEB
:1011E40046C872C676C47AC27EC0F935F250E2525D
:1011F4005253C2533255A255125682567247E24791
:101204005248C248324EA24E124F824F216173009F
:101214002030974700009387E7989443974700004E
:101224009387879603C70700058B11CB9747000068
:10123400238E079497470000A38A0794828003C7EC
:101244001700058B65F7F85271FF83C75700DDB7A8
:101254001748000013088892032708001C5F958331
:10126400858BD1E709C61C5BBD832300F60085CAC4
:1012740083270800985B4607935767016356070066
:1012840093E707C0C207C18303970600C207C1875B
:1012940009C7BA970947B3C7E7022390F60085CD7B
:1012A400834715008DCB9746000083C6468E93F680
:1012B40006041387970089478DCA3A9503470500AA
:1012C400854699471376F7066311D602620761874C
:1012D400B947634C0700832708009C5FED838D8B1F
:1012E40017470000A307F78A81473E858280854718
:1012F400EDBF411122C406C6174400001304848ABA
:1013040018403DE9AE877453FDFE3E85B28597478C
:101314000000238C0786974001E0E780C0AA974726
:1013240000009387A7859C43B70680009843558F98
:1013340098C3D857719BD8D797470000A3880784D0
:1013440097470000A38207841C40094798C31440B0
:10135400174700001307478383472700858B89EBD2
:1013640083473700858BD9C79747000023800782BE
:10137400B2402244410182808D476310F5029737C1
:1013840000009387A77F9C43B70680009843558F3E
:1013940098C3D857719BD8D75DBF8547E319F5FA31
:1013A4005447F977FD17F58F5CC70F1000001C40F8
:1013B400096798C7130700F8173600002308E67C6E
:1013C400173700001307877B1043184231830D8BB6
:1013D40011E713076019F8D3D4C795BF184209461B
:1013E40031830D8B6315C7001307E043EDB7130773
:1013F400E01BD5B7FC52ADF3A5BF5D71A2C4A6C274
:101404002A84130680022800AE849305100886C639
:10141400CAC04EDE52DCEFF06FE53545974001E07F
:10142400E78080D917330000130343758327030033
:101434009376F41F173E0000130E0E7C23A40700BE
:10144400984B973E0000938EEE75370FFCFF1367A1
:10145400F70398CBF84F130510F8B702040013777D
:1014640007E0558FF8CF9843F576FD16758F98C32E
:101474009843B7063300930380251377F7E798C39F
:10148400984311497D1F1377F7E71367071098C333
:1014940003270E008549930F80021C47D58F1CC774
:1014A40083A70E001307900D3400B8CB0147935562
:1014B4003700A69583C7050013767700B3D7C740D6
:1014C400858BE1C38327030083280E00239C070434
:1014D4002390070603A8C8021378D8FF23A608039D
:1014E40083A807001378F70793F808F833E808018E
:1014F40023A0070103A847023368580023A2070367
:1015040083A80E00014823A2780603DA07066307BE
:10151400480303A80703038A06001358F800620867
:101524001358884163580A0103A807031358F800A5
:101534002380060103D807061378F80F03AA480688
:1015440063060A0003DA8705E37F49FB03A8470221
:101554003378E80123A2070383870600635CF40061
:1015640003C805003396C9001346F6FF3376060117
:101574002380C5003E8663D3A7002A8613158601FF
:10158400618505071377F70F8506E312F7F3B64075
:10159400264496440649F259625A6161828097361C
:1015A4000000938626609C42D847131617016355A2
:1015B4000602984713161701635006027D57B8D7E1
:1015C4001737000013078739584F050717360000EF
:1015D4002324E63A116798C798470D83058B1DC3EA
:1015E400173700000347675A1367170017360000C0
:1015F400230DE658130700F8173600002308E658B1
:10160400214798C79847058B09CF17370000034730
:10161400B7571367170017360000A307E6560547A8
:1016240098C798470983058B09E798470583058B75
:1016340031CF9847173600001306065517350000BA
:101644001305C5530983058B630307101841184319
:1016540031830D8B75EBAC4B184E93F505020347A4
:101664001700CDCD79EF13077006D8CF03470600D6
:1016740013671700173600002308E650114798C770
:1016840018415C57F19B93E717005CD79C4298473D
:101694009316370163D606029736000083C6866622
:1016A400C18A173700001307675EC5CE0347870753
:1016B40013670702973600002386E664056798C718
:1016C40098479316270163D1060217370000034792
:1016D400E74B6207618763570700054797360000A9
:1016E4002386E64A096798C798479316070163D685
:1016F40006029736000083C6F660858A1737000015
:101704001307C758ADCE03479707136727009736CB
:101714000000A389E65E216798C7828029D78545A2
:101724006315B7001307B00689B789456315B70079
:101734001307F0061DBF8D456315B7001307300767
:101744002DB71307500715B71307600739BF0347B1
:1017540036001367170017360000A308E64209474E
:1017640039BF834687070946BD8A6388C600034795
:1017740087078D463D8BE313D7F4114725BF834676
:101784009707918AC9DA034797071367870041B718
:10179400397106DE16DC1ADA1ED82AD62ED432D2D5
:1017A40036D03ACE3ECC42CA46C872C676C47AC255
:1017B4007EC0F533F250E2525253C2533255A25511
:1017C400125682567247E2475248C248324EA24EDF
:1017D400124F824F216173002030973700009387A6
:1017E400673C98438567938707777CD397370000D6
:1017F400938787409C4383A6070913965600635832
:10180400060083A607091396660063440600745312
:10181400FDF2828071C5AA870145E9C58D07C2071B
:10182400C183F19BC207C18313074003636FF702AF
:10183400173700001307074508431737000013073D
:10184400E74314436398A60217370000130787166B
:10185400185B014541CB4111C20706C60545DD8D24
:101864000297B240014541018280173700001307F7
:101874002741D9B70357650035E303574500636F24
:10188400F704B306F7402146637CD602032805001B
:10189400938687001D8FAA9661171736000003569A
:1018A400460C2392E60023A006012393060014C1EC
:1018B4002312F500130786FF973600002393E60AE8
:1018C4002313B5009735000083D5A509B387F540E8
:1018D400173700002317F7082105828008419DB7B8
:1018E4000145828082800DC1973700009387873934
:1018F40003A30700973700009387473883A807009E
:1019040081469A8763E31701828003A80700636D09
:10191400F50A636BA80A13878700E367E5FE03D61D
:101924006700216705076317E60003C7C19205072F
:101934002386E192973500009385450203D647003C
:1019440003D7650023930700329742074183173575
:1019540000002318E500638A6702173500001305A9
:10196400253208416303F50203D5660019ED83D7D8
:10197400460023A0060121073E9621062392C600B5
:1019840097370000239FE7FCB6879843E30E17F7C9
:10199400973600009386C62E9442E307D7F6835603
:1019A4006700BDF283D64700035647001843A106DB
:1019B400B2962392D70098C383D76500A10717373F
:1019C40000002310F7FA8280BE86C28725BF032752
:1019D400851163020712411122C406C68347C5005C
:1019E4008345E5042A8493F7C70F2306F50083464D
:1019F40097000356C70013958601618563F2C508F5
:101A0400635B05060345870093F6F607A304D70036
:101A1400054693E627006314C50093E617002306E2
:101A2400D4005C4389075CC3A30AB40003250411F2
:101A34002E864C430905EFE0FFFF832784110346FC
:101A44005401D44303D7C700B296118FD4C323964D
:101A5400E7008947A30DF4000347640397370000A8
:101A640083C767F66378F7048347C40093E70701E5
:101A74002306F40081A093E717002306F4006DB752
:101A84009376F60F635D050203458700854513E6EB
:101A940027006314B50013E617002306C400A30A45
:101AA400D400A30407008547A30DF4008327841101
:101AB4009C43DDF3B240224401454101828093E717
:101AC40017002306F400A30AD400A3040700032587
:101AD40004114C430905EFE0FFF583278411034605
:101AE4005401D44303D7C700B296118FD4C32396AD
:101AF400E7008D4755BF05458280973700009387DF
:101B0400A72B9C43411122C406C6858B2A84C5EFAA
:101B14004165130525F597E001E0E780E06A45C5D6
:101B24008347A5002315F50083270412BDE723206E
:101B3400A4122322A41285472311F40423200500B0
:101B44008347640154412316F5000347D40023045A
:101B5400E5000547A304E500173700001307C70293
:101B6400184F1385170215811C437D151375F50F46
:101B74009CC25C43DCC21C479CC65C47DCC61C4B55
:101B84009CCA5C4BDCCA1C4F9CCE5C4FDCCE19CD8E
:101B94009386060213070702C1BF8327441288C332
:101BA400835724042322A412850779B797370000AA
:101BB40083D7470E850717370000231DF70CB24063
:101BC4002244410182808347C4002309040005455F
:101BD40093C747002306F400DDB78347850193F7D5
:101BE400E70FD5EF83479501DDEB034625018346D7
:101BF400C50009CA83456503173700000347B7DCEE
:101C040063E7E50013F7060141CF014709C6C18A1E
:101C14000357651C81C68356A51C369751C3130709
:101C2400C712173500000355A5DDB335A7023746A3
:101C34000F00411113060624814622C426C206C69B
:101C44007D543305A702971002E0E780406697377A
:101C5400000083C7B7D7B384A700973700009387E2
:101C6400E70203A787098327070963F387003E84F4
:101C7400184375FB97370000938707D39C438297DB
:101C840081476364A400B307A440B2402244B3B7BD
:101C9400970093C7170092443E8541018280814793
:101CA4003E858280973700009387C7EF98437C5323
:101CB400FDFF8280797126D206D622D44AD04ECE38
:101CC40052CC56CA5AC85EC683475503034475139B
:101CD400AA843E941374F40F9307400263F68700BA
:101CE4001304B4FD1374F40F03AA841383AAC41356
:101CF400A38B841222865285D685971002E0E78052
:101D04008055058915E503CBD41201498149337BFC
:101D14006403930B50024A865285D685971002E0DD
:101D2400E7806053058915C5639169031374F90F3E
:101D3400238B8412B250225492540259F249624ABB
:101D4400D24A424BB24B456182808509E20993D95C
:101D540089410509E31179FDE1BF8327850903560C
:101D64000504797193D60701BD8EC206C182358EF2
:101D74001357764093575640898B058B5D8F935745
:101D84003640918B5D8F93571640A18B5D8F9317CF
:101D94001600C18B5D8F9317360093F707025D8F92
:101DA400931756009355860093F707041E065D8F1C
:101DB4001376F60F518F93D7554013D63540118AB9
:101DC400898BD18F13D67540D18F13D61540218AB4
:101DD400D18F13961500418AD18F1396350013764F
:101DE4000602D18F13965500137606049E05D18FF3
:101DF40093F5F50FCD8FA20745465D8F3307C702D4
:101E040022D42A8426D252CC56CA032A8413832A83
:101E1400C4135AC806D6369742074183935777406E
:101E2400135557400989858BC98F1355374011893C
:101E3400C98F135517402189C98F1315170041897C
:101E4400C98F1315370013750502C98F1315570071
:101E540093558700137505041E07C98F1377F70F71
:101E6400D98F13D5354013D755401189098B498F24
:101E740013D57540498F13D515402189498F139582
:101E840015004189498F1395350013750502498F53
:101E940013955500137505049E05498F93F5F50FA9
:101EA4004D8F2207D98FB387C7024AD04ECE5EC664
:101EB40062C4B697C207C18313D7774013D557407E
:101EC4000989058B498F13D537401189498F13D55B
:101ED40017402189498F139517004189498F13951C
:101EE400370013750502498F1395570093D5870062
:101EF400137505049E07498F93F7F70FD98F13D5F0
:101F0400354013D755401189098B498F13D5754036
:101F1400498F13D515402189498F1395150041899F
:101F2400498F1395350013750502498F1395550094
:101F3400137505049E05498F93F5F50F4D8F220700
:101F4400D98FB387C702130650025285D685B69738
:101F5400BD8E93940601C18033F6C402137BF60F41
:101F6400971002E0E780202F05890DED8347D412F6
:101F740001498149B3849702130C5002C1804A86F7
:101F84005285D685971002E0E780E02C0589937B83
:101F9400F90F11C563863403850993F9F90F05090F
:101FA400E31F89FD230B6413B25022549254025947
:101FB400F249624AD24A424BB24B224C456182807A
:101FC4005E8BCDB7797122D406D683C735002E84B3
:101FD40023160100A307F10083C74500100802C0BF
:101FE4002307F10083C755008A8502C2A306F100C6
:101FF40002C402C802CA02CC02CEEFE09FF003473B
:10200400F1018347040001456310F7020347E1012E
:102014008347140001456319F7000345D101834741
:1020240024001D8D13351500B25022544561828061
:10203400011197370000938767C522CC03A4870C4E
:1020440026CA4AC84EC606CEAA8413092500854965
:1020540015C083C7140003473400858B6304F7005D
:10206400405CFDB71946930544004A85EFE09FA5FF
:10207400E31835FF2285F2406244D2444249B24912
:1020840005618280411197370000938727C022C4DD
:1020940003A4870C26C24AC006C69304250005493A
:1020A40001E82285B24022449244024941018280DF
:1020B400A6851305A4023937E30525FF405CCDB797
:1020C400411197370000938767BC22C403A4870C8F
:1020D40026C24AC006C693042500054901E82285A4
:1020E400B24022449244024941018280A6851305EC
:0C20F400A401C93DE30525FF405CCDB709
:1021000097110020938181B217610020130181EFA4
:102110001305400097E5FF1F9385C5EE17060020C5
:10212000130606FE63FAC5008322050023A05500AE
:1021300011059105E3EAC5FE174502001305C59890
:10214000970500209385C5FB1386018563FAC500BA
:102150008322050023A0550011059105E3EAC5FE81
:102160001385018597350020938545C66377B500B3
:10217000232005001105E36DB5FEFD42739002BCFE
:102180008D42739042809302800873A0023097E2E0
:10219000FF1F938222E793E232007390523097221E
:1021A00000009382822C73901234730020303D43E0
:1021B0002A876373C3029377F700BDEFADE593768B
:1021C00006FF3D8ABA960CC34CC30CC74CC74107E7
:1021D000E36BD7FE11E28280B306C3408A06970202
:1021E000000096966780A6002307B700A306B700F5
:1021F0002306B700A305B7002305B700A304B70063
:102200002304B700A303B7002303B700A302B7005A
:102210002302B700A301B7002301B700A300B70052
:102220002300B700828093F5F50F93968500D58D36
:1022300093960501D58D61B793962700970200000C
:1022400096968682E78086FA9680C1171D8F3E9605
:10225000E374C3F8A5B7B717004003C77705137732
:10226000E70FA38BE704130700F8A38DE7043D47AE
:10227000238CE70413075003A38CE70482804111E9
:102280002A83014E930E407E130F0019930F4006D0
:1022900063E66E149308001913034006B378150320
:1022A000854E0D4FA14F337365020D89133515000F
:1022B00063E0BE161308F6FF794672984208135879
:1022C00008013307C70213D61700BE0732976146CD
:1022D000B3F6C60213068070B386C6023697A166AF
:1022E000F58F42075D8FB716004083C7F60293F75C
:1022F0000708A307F1000346F10083C7F60293F72E
:102300000708E394C7FE8347F100B716004093F730
:10231000F70F63890714F3270080A18B938601854B
:102320006398071401000100B717004013067005F9
:102330002380C704130680FA2380C704010001002C
:1023400023AA070303C6170313660608A388C70258
:1023500023800704732600809C42A18BD18F739049
:10236000078023A80184010001001166B715004011
:102370007D16DC59C85DA98FF18FE5FFF32700803A
:10238000A18B89CBF327008023A8F1849C42DD9B9D
:102390007390078001000100B71700401306700515
:1023A0002380C704130680FA2380C70401000100BC
:1023B000D8DB03C7170313670704A388E70223804A
:1023C0000704732700809C42A18BD98F73900780EC
:1023D00023A8018401000100410182807D1333683C
:1023E000E3039308E016630E08003368F3039308D1
:1023F000D016630808009378330093B818009388C8
:10240000D81633081E01131E0801135E0E0149B5CC
:102410006393E503054863860800014863030300EE
:102420002A8871087298FD15131E0801C205135EF3
:102430000E01C181B5BD13F8150063F4BF00790822
:10244000D5B713381800E5BF83C7F60293F707081E
:10245000A307F1000346F10083C7F60293F70708CC
:10246000E394C7FE8347F10093F7F70FF1DF65B5FB
:10247000F327008023A8F1849C42DD9B73900780A2
:1024800055B54111B7170040985F3AC6945F32477F
:10249000E39CE6FE3245410182801D71CEC662DCBE
:1024A00086CEA2CCA6CACAC8D2C4D6C2DAC05EDE64
:1024B00066DA6AD86ED62A8CEF00700AAA89F327EA
:1024C0000080A18B9384018589CBF327008023A80A
:1024D000F1849C40DD9B7390078001000100B717D9
:1024E0000040130770052380E704130780FA238058
:1024F000E7040100010003C7F70213678700A38701
:10250000E70203C7F7021377770FA387E702238059
:102510000704732700809C40A18BD98F739007809C
:1025200023A8018401000100F3270080A18B89CB3F
:10253000F327008023A8F1849C40DD9B73900780E3
:1025400001000100B7170040130770052380E7045E
:10255000130780FA2380E7040100010003C7E702A4
:102560001377C70F2387E70203C7E7021367170034
:102570002387E70223800704732700809C40A18BF8
:10258000D98F7390078023A8018401000100F327ED
:102590000080A18B89CBF327008023A8F1849C4085
:1025A000DD9B7390078001000100B71700401307FF
:1025B00070052380E704130780FA2380E7040100F5
:1025C000010003C737051377870FA389E70403C703
:1025D000370513671700A389E704238007047327CF
:1025E00000809C40A18BD98F7390078023A8018421
:1025F00001000100130980C133C92903916B938C39
:102600000BE8130A5002930A803E2167130707D094
:10261000130BA00437140040930D0404617DFD1BCF
:10262000B3C79903916C330949033EC6B3CA590332
:10263000B347E902130980FA338A4A033EC8B34715
:10264000EA02130A7005338B6A033ECABD6793879B
:1026500007A6B347FB02014B3ECC73270080218BBA
:1026600009CB7327008023A8E18498405D9B7310F9
:10267000078001000100930770052380FD0023807F
:102680002D01010001000347340513670702A30968
:10269000E40403570405336797012318E404035740
:1026A00004053367A701420741832318E40423800C
:1026B0000D00F32600809840218B558F7310078002
:1026C00023A80184010001000347340513770702A2
:1026D0006308071403473405218B6DDF73270080DF
:1026E000218B09CB7327008023A8E18498405D9B50
:1026F000731007800100010023804D0123802D010C
:1027000001000100034734051377F70DA309E40422
:102710000347340513670702A309E40403570405BC
:10272000336797012318E404035704053367A701AF
:10273000420741832318E40423800D00F326008020
:102740009840218B558F7310078023A801840100C6
:1027500001000347340513770702630E070E034792
:102760003405218B6DFF313B2A873ACE193B7247E6
:10277000E30DE5FE03570405336797012318E404CE
:1027800003473405218B6DDF835604050347240579
:10279000B247B3F6DB003387EB02BA969D8EC24791
:1027A00063D5D700D24763C3F60E09476362670F4C
:1027B000E24713061B0013971600137BF60F3347EF
:1027C000F7026350D040050789463347D702F32606
:1027D0000080A18A89CAF326008023A8D18494406E
:1027E000DD9A739006800100010023804D01238053
:1027F0002D01010001008356C40236974207418330
:102800002316E40223800D00F32600809840218BDC
:10281000558F7310078023A801840100010035BD86
:1028200073270080218B09CB7327008023A8E184C4
:1028300098405D9B731007800100010023804D01CB
:1028400023802D01010001000347340513670702AF
:10285000A309E404A9BD73270080218B09CB73274A
:10286000008023A8E18498405D9B731007800100DD
:10287000010023804D0123802D0101000100034749
:10288000340513670702A309E4047DB5E3020BF2E4
:10289000F3270080A18B89CBF327008023A8F18444
:1028A0009C40DD9B7390078001000100B71700403A
:1028B000130770052380E704130780FA2380E704D9
:1028C0000100010003C737059376FC0F1377870FCC
:1028D000A389E70403C73705558FA389E70423803D
:1028E0000704732700809C40A18BD98F73900780C9
:1028F00023A8018401000100B717004013067005EA
:10290000930580FA03C737051D8B631E872BF327BA
:102910000080A18B89CBF327008023A8F1849C4001
:10292000DD9B7390078001000100B717004013077B
:1029300070052380E704130780FA2380E704010071
:10294000010003C7370591661377F70DA389E704E4
:1029500003C7370513670702A389E70403D70705F1
:10296000558F2398E70403D70705A166558F239851
:10297000E70423800704732700809C40A18BD98F34
:102980007390078023A8018401000100B71700405D
:1029900093067005130680FA03C7370513770702FD
:1029A000630A07263717004083473705A18BEDDF01
:1029B000F3270080A18B89CBF327008023A8F18423
:1029C0009C40DD9B7390078001000100B717004019
:1029D000130770052380E704130780FA2380E704B8
:1029E0000100010003C7370591661377F70DA3892E
:1029F000E70403C7370513670702A389E70403D772
:102A00000705558F2398E70403D70705A166558F5F
:102A10002398E70423800704732700809C40A18B40
:102A2000D98F7390078023A8018401000100B71794
:102A3000004093067005130680FA03C73705137725
:102A40000702630107223717004083473705A18B30
:102A5000EDFF053C2A843534E30F85FE371700402F
:102A6000835707059166D58F2318F70483473705E9
:102A7000A18BEDDFF3270080A18B9386018589CBA5
:102A8000F327008023A8F1849C42DD9B739007808C
:102A900001000100B7170040130770052380E70409
:102AA000130780FA2380E7040100010003C73705FC
:102AB0001377F70DA389E7042380070473260080AA
:102AC0009842218B518F7310078023A80184010045
:102AD000010003D7070503C627059167FD177D8F02
:102AE000B387C70237460F0013060624B3C9C902CD
:102AF0003E978567938707FAB3978701B3893703B2
:102B000093070010B3C9F9029307800C8E09B3092B
:102B100037410547331C8701135C3C40B30A5C0313
:102B2000130C60553D67130707A6B38A8A03B3CA1F
:102B3000EA02B387F902B3C75703635D301785070D
:102B40000947B3C7E702960773270080218B09CB9B
:102B50007327008023A8E18498425D9B731007804F
:102B60000100010037170040130670052300C70459
:102B7000130680FA2300C704010001000356C702B0
:102B8000B297C207C1832316F702230007047327F5
:102B900000809C42A18BD98F7390078023A8018469
:102BA00001000100F6406644D6444649B649264A2B
:102BB000964A064BF25B625CD25C425DB25D256177
:102BC00082807D1711B173270080218B09CB732779
:102BD000008023A8E18498405D9B7310078001006A
:102BE00001002380C7042380B7040100010003C74C
:102BF0003705558FA389E7042380070473250080D8
:102C00009840218B498F7310078023A8018401000D
:102C10000100CDB973270080218B09CB7327008079
:102C200023A8E18498405D9B731007800100010098
:102C30002380D7042380C7040100010003C73705A0
:102C400013670702A389E70423800704F3250080A4
:102C50009840218B4D8F7310078023A801840100B9
:102C600001001DBB73270080218B09CB73270080D7
:102C700023A8E18498405D9B731007800100010048
:102C80002380D7042380C7040100010003C7370550
:102C900013670702A389E70423800704F325008054
:102CA0009840218B4D8F7310078023A80184010069
:102CB000010061B3FD1769B5914763EEB7021727AD
:102CC00002001307E7178A05BA959C41BA978287D5
:102CD000B717004003A7470B1345F5FF698F23AAD9
:102CE000E70A03A7070B698F23A8E70A03A7070AC8
:102CF000798D23A0A70A8280B717004083A6470BCF
:102D00001347F5FFF98E23AAD70A83A6070B558D23
:102D100023A8A70A83A6070A758F23A0E70A828043
:102D2000B717004003A7470B498F23AAE70A03A759
:102D3000070B1345F5FF45BFB717004083A6470BA8
:102D40001347F5FF758F23AAE70A03A7070A598DD2
:102D50004DB7B717004003A7470B498FEDB7B7171B
:102D6000004003D58700420541819377050491EB2C
:102D70009377F5013755E801130505803345F502D2
:102D800082809377050C130700046397E70093771D
:102D9000F50137459C1CCDB72165130505D0828010
:102DA00037E700E01C435443A183E206D58F1CC1E2
:102DB000FD572320F7182322F71882801317850068
:102DC000B7E700E023A0E710618123A2A71082806B
:102DD000B7F700E08847CC4782808147373700400B
:102DE000A14663C4C700328582800345B740E38EA5
:102DF000A6FE3385F5000345050085072304A7409B
:102E0000CDB7411122C406C62A84913F2947B30792
:102E1000E502B2408D83B3D7870222449507B3D72A
:102E2000E70237370040C207C1832316F74041014C
:102E30008280716541111305052006C6D937B73761
:102E40000040130770F82381E7400D47A381E74056
:102E500013070004A380E74005472387E740B240FB
:102E600041018280411122C406C62A84CD3D2947F2
:102E7000B307E502B2408D83B3D78702224495079A
:102E8000B3D7E70237470040C207C1832316F7C014
:102E900041018280716541111305052006C6D937AD
:102EA000B7470040130770F82381E7C00D47A3819F
:102EB000E7C013070004A380E7C005472387E7C0E6
:102EC000B24041018280B747004003C717C019C90B
:102ED000D98DA380B7C003C707C0136787002380BD
:102EE000E7C0828093C5F5FFF98DA380B7C08280CB
:102EF000CC41411106C6328503C6150083C50500C5
:102F000022064D8E42068D654186138875A2630C9C
:102F1000060F6348C804138845A26306060B634A7C
:102F2000C800938535A26309B6062390060029469A
:102F300079A0138855A26308060B938565A2E31652
:102F4000B6FEC1451D4663ECE5064546198E63F3A2
:102F5000C7003E862390C60097250200938585F022
:102F600089A8138895A26300060F634E060B138889
:102F7000A5A2630A060F938505A5E318B6FA99453D
:102F80001D4663EEE502198E63F3C7003E8623906B
:102F9000C6009385818031A89D451D4663E1E50209
:102FA0002146198E63F3C7003E862390C6009385A1
:102FB0004185BA9597E0FF1FE78000A80146B2401F
:102FC000328541018280AD451D46E3EAE5FE31468A
:102FD000198E63F3C7003E862390C6009725020032
:102FE000938505ECF9B7B1451D46E3EAE5FC3546A6
:102FF000198E63F3C7003E862390C6009725020012
:10300000938505EB7DB7C1451D46E3EAE5FA4546E4
:10301000198E63F3C7003E862390C60097250200F1
:10302000938585E579B7C1451D46E3EAE5F8454650
:10303000198E63F3C7003E862390C60097250200D1
:10304000938505E8BDB7C1451D46E3EAE5F645466B
:10305000198E63F3C7003E862390C60097250200B1
:103060009385C5E2B9B7B5451D46E3EAE5F43946AF
:10307000198E63F3C7003E862390C6009725020091
:10308000938545DD3DB797F6FF1F9386661A414647
:10309000CD4517F5FF1F1305A5066F80307E05E1AE
:1030A000B28741112E8613854185BE8506C697E0FD
:1030B000FF1FE7806098B2400145410182800945C9
:1030C000828011456FF06FBD411193962500AA854E
:1030D0002D4506C697D0FF1FE780605FB2400145CF
:1030E00041018280411126C29394250022C44AC026
:1030F0002A843289A686AA850146254506C697D028
:10310000FF1FE780C05CA6864A86A285294597D026
:10311000FF1FE780C05BB240224492440249014550
:1031200041018280011122CC06CE3714004026CA0C
:103130004AC84EC652C483447405034AB405834941
:10314000840503499405EFF00F918347A40593F498
:10315000F40F137AFA0F93E71700230DF40493F991
:10316000F90F1379F90FB717004003C7A705058BAF
:103170006DFF03D5C705A38D4705238C3705A38CA9
:103180002705A38B9704F2406244D2444249B249D6
:10319000224A0561828041119397050122C406C627
:1031A000C1872E8463DD0700EF10203E19C1EF10A8
:1031B000A0362165218DB24022444101828093F7DF
:1031C000150013C51500E5FB9397250163D0070291
:1031D000EF20212DFD3537F60200130606E0896544
:1031E00003C5C185EF1070060965E9B7939715010E
:1031F0000145E3D207FC17250200130525D2EF0095
:10320000426113060064916503C5C185EF10F003A8
:1032100011654DB75D71494697250200938585CBB1
:10322000172502001305052F86C697E0FF1FE780CC
:10323000A08901E917250200130505CBEF00625DA7
:1032400001A0B7F600E0795798CAFD57DCCA0567B8
:10325000B7E700E023A0E7101306F00290C223A016
:10326000E718010001001306C0038145480097D00C
:10327000FF1FE780E07F97070020938727E93EC282
:103280008967938707802314F100B547230CF10069
:10329000A167938707E03EC6B7070105938707102C
:1032A0003EC8ED47231AF1008547230BF10097072D
:1032B00000009387A7E13EDC970700009387C7E2F1
:1032C0003EDE8567938717D0231DF1009707000026
:1032D000938747B03ED2970700009387E7E43ED636
:1032E00097070000938727DE3ED8580097270200F3
:1032F00093878779972602009386A67803C657009E
:10330000FD170507A30CC700E39AD7FE4800EF108E
:10331000904DAA8501C917250200130525BEEF00AF
:10332000A23D01A0B64061618280411117050000F5
:103330001305A5E606C622C4EF1030471384C185E5
:103340002300A4002928034504002244B24037F694
:103350000200130606E0896541016F10006F4111FC
:1033600006C6F3270080A18B1387018589CBF3273D
:10337000008023A8F1841C43DD9B7390078001002B
:103380000100B7170040930670052380D704930609
:1033900080FA2380D7040100010083C6F70293F668
:1033A000A60FA387D70223800704F32600801C43BF
:1033B000A18BD58F7390078023A8018401000100A1
:1033C000F3270080A18B89CBF327008023A8F18409
:1033D0001C43DD9B7390078001000100B71700407C
:1033E000930670052380D704930680FA2380D704C0
:1033F0000100010083C6F70293E62600A387D702E7
:1034000023800704F32600801C43A18BD58F739083
:10341000078023A801840100010065311305407E67
:1034200081470147814605468545EFE05FE5B240AB
:10343000014541016F10D06F0111680006CE8D3239
:1034400083C7518689CB0946C14503C53181EF1039
:10345000C05FA382018632459532B745004083C7DD
:10346000B5C01D47636EF70083C7B5C0214693857D
:1034700085C01D8E420641821385C138EF009076CB
:10348000F240056182804111130600209385C11826
:103490001385C13806C622C4EF00305F05661306E7
:1034A000068097F5FF1F9385651013850118EF00BF
:1034B000D05D371400408327840A8D451305000230
:1034C00093E707022324F40AEFF00FFF8327840A0F
:1034D0008545414593E707012324F40AEFF0CFFD2A
:1034E000553A716513050520B53A05459545E13A0C
:1034F000B7E700E0114723A2E71005252244B240B8
:10350000172502001305C5A141016F00823001118A
:103510002317B1001306E100AA851385C13806CE32
:10352000EF001059F240056182809C410547638E8F
:10353000E70089C709476380E7028280AA851725CB
:1035400002001305E5A86F00221BAA8517250200BB
:10355000130585A9CDBF411122C42E8483D58500D2
:10356000172502001305C5A906C6EF00E21883550A
:10357000840048402244B24041016F00B015797187
:103580002C00130661001385011806D623130100D1
:10359000EF00305F8355610081CD172502001305D0
:1035A000A5A7EF006215835561002800EF00207980
:1035B0001306000A9305000203C53181EF10E048AD
:1035C000B25045618280397156D2C16A4AD806DE4E
:1035D00022DC26DA4ED652D45AD05ECE62CC66CAEF
:1035E00003D901879387EAFF6315F90217250200C3
:1035F00013050595EF00E221F2506254D25442596E
:10360000B259225A925A025BF24B624CD24C21615F
:103610008280AA8B4A852E8BEF00504111E5172539
:10362000020013056593F9B74A85EF208067751589
:10363000131A0501DA85172502001305A593135AFD
:103640000A01EF00620B8144FD1A172C0200130CD3
:103650002C95972C0200938CAC93E3FF64F9330410
:103660009B4063538A0052849319040193D9090142
:10367000014781464E86ED454A8523153101EF60AD
:1036800010172AC629C1337454012286B3859B00C2
:1036900097D0FF1FE780403A03C631812C004A854E
:1036A000EF00503A09C96685EF00A216ED452800E3
:1036B000EF60B02B5DB7CE94A2856285C204EF00A7
:1036C000A203C18059BF172502001305E58E1DB75F
:1036D0002A86B305B040172502001305A59A6F008E
:1036E000A20141119397050122C406C6C1872E8409
:1036F00063DF070003C53181EF00306919C1EF00B6
:10370000B0612165218DB24022444101828093F74E
:10371000150091CF17F6FF1F130646B29385813926
:1037200003C53181EF70214D13451400E9BF93F7B4
:10373000850099CF83C731811307400681465146E2
:10374000A14503D50187EF7061441345840065BF2F
:1037500093F7050189C72535134504016DB793F724
:1037600005020145CDD3EF0070111306000A930541
:10377000000203C53181EF10402D1345040261B7EB
:1037800083D701876390A7022399B186239AC186C4
:10379000239BD1862E86172502001305258BBE8517
:1037A0006FF09175172502001305C58B6F00620637
:1037B00003574500011106CE83D701876315F70231
:1037C000C167F91723A8F18623AA01868547130646
:1037D000F100854513055030A307F100EF706175C6
:1037E000F24005618280172502001305A585EF00D0
:1037F0004202FDB73D897D15954763E0A71C172759
:1038000002001307A7820A053A951C41397122DC90
:1038100006DEBA972E8482872C0013054030EF70A5
:10382000815D03478100834691000346A1009725EF
:1038300002009385A5862808EFF0717E2808EF0026
:1038400062029375F50F30080145EF6020312808BA
:10385000EF004201050597F7FF1F2383A7A0280863
:10386000EF0042002A862C0817F5FF1F1305659FFD
:10387000EFF0315D17F6FF1F1306869EC545130551
:103880007030EF70016B8347A10003578100A145A1
:103890002309F100FD57A309F100F957230AF100AC
:1038A0008347B10010080145A30AF1008357C10006
:1038B0002318E100231BF100EFF06FFE2C08171511
:1038C00002001305E57EEFF03163F250625421618E
:1038D000828003C7250099476314F7002E85C93DF0
:1038E000171502001305457EEFF0B172F9BF03C74B
:1038F00025009547E31BF7FCC16703D70187F9173C
:1039000003D5A500630FF700EF709114171502009F
:103910001305857CEFF0F16F171502001305457E46
:10392000E1B72398A18683D7E500096613060690C0
:103930002399F18683D7050103C53181239AF18646
:1039400083D72501A145239BF186EF100010035674
:10395000E4008355A4001715020013052579EFF044
:10396000B1595DBF171502001305457AB5BF83C570
:10397000250091476397F500171502001305857A16
:10398000A5B79947639BF50022851D3583456400E3
:10399000171502001305C57A3DB79547639AF500E0
:1039A00083471400F1FB171502001305257B2DBF7B
:1039B000171502001305057B39B782800111170521
:1039C0000000130545D206CE22CC26CAEF10E05DDA
:1039D00093843181994705442380A4002315F10085
:1039E0009305000A9307803E0D452316F100A304BA
:1039F0008100EF30E06C9305000A1145EF30406C18
:103A00009305000A0D45EF30A06B9305000A1145A0
:103A1000EF30006B17F6FF1F13068684C5451305AC
:103A20007030EF700151138641819D451305603060
:103A3000EF70215013069100854513055030EF704B
:103A4000414F1306A100894513051031EF70614EF7
:103A50007000894513052031EF70A14D17E6FF1F57
:103A60001306867ED5450145EF60400F9305000A99
:103A70000D45EF30E0649305000A1145EF304064D6
:103A80007000914513057040A30381002304810059
:103A9000A304810002C623050100EF60A1121306F2
:103AA0007100854513050040EF60C1113000854568
:103AB00013051040EF6001111306A10085451305A1
:103AC0002040EF60211013069100854513055040FA
:103AD000EF60410F7D55EF60C0197D55EF80C061EB
:103AE000EFF06FDA17050000130565A4EF00606EB4
:103AF000C16713870187F9171CC3232207001385A9
:103B00008186EF40116403C504008545EF00F05B3A
:103B1000F2406244D24405618280411117150200CF
:103B20001305056A06C6EFF0D14EB2402384018822
:103B300023800188A380018823A20188238A018829
:103B400041018280814713F7F70F6365C700137542
:103B5000F50F82803387F5000347070085073A9504
:103B600042054181CDB7011122CC26CA4AC806CEF2
:103B70004EC62380A188AA842E89328411C689C5A5
:103B80001385413AEFF0F12BA3808188EFF04FA429
:103B900023A2A1888547238AF1889307A0FA238A64
:103BA000F146A38A9146238B81468D4919C8630A41
:103BB00009002286CA8513857147EFF09128930981
:103BC00034002286CA852685B53F938741473387CF
:103BD00037012300A70093065005938529003E85F1
:103BE000A300D700EFF0BF922286A685171502002A
:103BF00013058564EFF05130F2406244D2444249EB
:103C0000B24901450561828001112306A100A30686
:103C1000B10009466C001305F00F06CEA937F2403B
:103C20000561828059719307A0FAA2D4A6D2CAD0A6
:103C3000CECE86D62304F100A304A1002305C10043
:103C40002A84AE89B2840D4901CA99C51305B10011
:103C5000EFF0311F138934002686CE852285DD35AD
:103C60009C08CA97238CA7FA1307500593052900CF
:103C70002800A38CE7FAEFF01F95A2856204268640
:103C8000171502001305C5516184EFF0F126635644
:103C90000400238A018823840188B6502654965450
:103CA0000659F6496561828083C74189C1CB0111FC
:103CB00006CEEFF0EF91938741889C4303C781883C
:103CC000130617001D8D9307401FB307F60263FB11
:103CD000A702894783C5018863E9E7021715020037
:103CE00013058551EFF0512103C611889385413AA0
:103CF00003C501888D3D9387818883C707008507A9
:103D00002384F188F24005618280171502001305B3
:103D1000A550EFF0711E9387018883C707000946FD
:103D20006C002306F1001305F00FAD47A306F10068
:103D3000D53D238A018823840188E9B782805D719B
:103D4000A2C4A6C2CAC04EDE52DC56DA5AD85ED62B
:103D500062D466D26AD086C66ECEAA8A2E8A014402
:103D6000138BC18895441719020013096940138DFC
:103D7000413E930B50059389713E171C0200130CB2
:103D80002C45938CC18793170401C18363E14703DA
:103D9000B640264496440649F259625AD25A425BCA
:103DA000B25B225C925C025DF24D6161828083268F
:103DB0000B00B3878A0003C7070083C7918863E7B6
:103DC000D4068A06CA969442CA9682869306A00AA8
:103DD000631ED70413871700A384E188EA971307AB
:103DE000A0FA2380E700854723A6F18881A0238DD0
:103DF000E18693861700EA972380E700A384D188A1
:103E00008947DDB7238FE18693861700EA97A3845D
:103E1000D1882380E70019E39147F9B7930700049D
:103E200063F2E702A384018823A6018803C791886F
:103E30009307500463F6E700A384018823A6018852
:103E4000050491B7238E01868D4779BF93861700AD
:103E5000EA972380E70083C70C00A384D1888507F5
:103E600093F7F70F238EF18603C7E187E3F6E7FAAE
:103E700075BF238CE18693861700EA972380E700BD
:103E8000A384D18823A6918855B793861700EA9713
:103E9000A384D1882380E700E31677F983C7E187FD
:103EA00083CDA1873E86CE856E853EC6613983C5AA
:103EB00081872A86B2476397A5003E86CE856E85A8
:103EC00095338DB76285EFF03103B54503C5A18702
:103ED000253B89BF5D71A2C4A6C2CAC04EDE52DCBA
:103EE00056DA5AD85ED662D466D286C66AD06ECE0C
:103EF0002A8AAE890144938A0189954417190200E0
:103F000013098928938CC142130B5005938BB187F9
:103F1000138CD18793170401C18363E13703B64043
:103F2000264496440649F259625AD25A425BB25B21
:103F3000225C925C025DF24D6161828083A60A0080
:103F4000B3078A0003C7070083C7A18863E7D406C5
:103F50008A06CA969442CA9682869306A00A631E6F
:103F6000D704138717002385E188E6971307A0FA83
:103F70002380E700854723A8F18881A0A38DE186EF
:103F800093861700E6972380E7002385D188894729
:103F9000DDB7A38FE18693861700E6972385D18846
:103FA0002380E70019E39147F9B79307000463F210
:103FB000E7022385018823A8018803C7A188930706
:103FC000500463F6E7002385018823A801880504CF
:103FD00091B7A38E01868D4779BF93861700E69728
:103FE0002380E70083470C002385D188850793F75A
:103FF000F70FA38EF18603C7F187E3F6E7FA75BFE3
:10400000A38CE18693861700E6972380E70023853B
:10401000D18823A8918855B793861700E697238502
:10402000D1882380E700E31667F903CDB18783CDFC
:10403000F1876E869385F1426A85EFF0BFB083C544
:1040400091872A866399A5006E869385F1426A85D9
:10405000EFF07FB1B9BF1715020013056517EFF038
:10406000A16983C70B0009466C002306F100130504
:10407000F00FB547A306F100753625BF35B179714C
:1040800026D206D622D44AD04ECE52CC03C88500C2
:10409000A144137808026311080683C80500094883
:1040A0002E848144639A080503A84500AA89328AB0
:1040B00083471800034808003689A207B3E70701C1
:1040C000C2070D68C18713082890638007058144E3
:1040D0000357A40097E7FF1F83D7671F631EF700EE
:1040E000938781899C4389CB09473AC223162101D2
:1040F00052C44C004E858297B250225426850259F4
:104100009254F249624A456182808547EF600039E6
:10411000AA845DFD93878189984355DB83471A0004
:1041200083460A004C00A207D58FB337F0003EC289
:104130004E85029771BF0111171502001305C511B5
:1041400022CC2EC6328436C406CEEFF0816CB24546
:104150008947A24603C605006319F602D841834782
:10416000170003470700A207D98FC2070D67C18751
:1041700013072790639BE700CC452390C600228558
:10418000094697D0FF1FE780208BF240624401452B
:104190000561828041677917630CE502411122C4F1
:1041A00006C685472A84639AF50022852244B240D8
:1041B0009385014D41016F70507789476396F500F3
:1041C0008545EFA0403275D1B24022444101828042
:1041D0008280411126C2AA8441659385014D7D15D7
:1041E00006C622C4EF707074170500001305C5FAE7
:1041F000EFA0A02697E6FF1F9386C60D414699457E
:1042000017E5FF1F13050507EF7050672A8419C5CE
:104210001715020013050505EFF0A15F2285B240D6
:10422000224423AC918892444101828041119385BC
:10423000014D06C6EF604021B2407D1513351500D3
:1042400041018280411122C42E849385014D26C2F2
:1042500006C6AA84EF60401F058915C197E7FF1FB6
:104260009387470183D7A702A285B2402310F400A9
:10427000224426859244014641016F60D079B240C4
:1042800022449244494541018280AA8705C213070E
:10429000F6FFB376C700054599EA23A00700CCC313
:1042A0002394C7002395E70001458280054582805D
:1042B000AA871145B5C72DC683D6070003D7870047
:1042C0000D45369783D62700158F4207418329CBAA
:1042D0000145B9C5835606006373D700BA86C20686
:1042E000C18201471315070141816366D500231080
:1042F000D600014582803385E5008348050003D858
:10430000A70003D52700050733780501C843429568
:104310002300150103D5270005052391A700D9B770
:1043200082802A8729CD835605008357A500B6973A
:10433000835625008507958FC207C183BE866373A8
:10434000F600B286C206C1820D459DCB81476394BB
:10435000D70001458280035627000355A70003C8F4
:1043600005008507718D5043C207C1832A9623003B
:1043700006010356270005062311C700C9BF1145D2
:104380008280AA871145B1CF29CE83D6070003D7F3
:104390002700158F83560600420741836373D700B9
:1043A000BA86C206C18209450DCF01476366D700B0
:1043B0002310D6000145828003D5070003D8A7004B
:1043C00033780501C8434295034805003385E5006D
:1043D00005072300050103D5070005052390A70065
:1043E000F1B7828029C50357050083572500998FAF
:1043F0003E87C207C1836373F60032874207418359
:10440000814763E4E7000145828083560500035637
:10441000A5008507758E5441B29683C60600238099
:10442000D5008356050085062310D500D9BF114558
:104430008280411122C406C603C7350083C64500E9
:1044400003C6550097150200938545C52A84EFF0F1
:10445000013DA2852244B24017150200130585E2F2
:1044600041016FF0612979711305800406D697C068
:10447000FF1FE78040C2371700408327870A8D451A
:104480001305002093E707202324F70AEFE0DF82DB
:10449000EFE03F9A171502001305C507EFF06137EB
:1044A00013081002814701479306F00E1306D00C43
:1044B0009305B00A171502001305C5DDEFF0C123FF
:1044C000EFE05FD5EFE07FE6971502009385C55BCF
:1044D000680085376800EFF0E1389375F50F7000DC
:1044E0000145EF50A067EF60F158EFF02FCDEFE0FE
:1044F0009FF997C0FF1FE780C01023AC05FE1C4149
:1045000091E7010001000CC18280BA8703A787FFF1
:104510006DFF23ACB7FE82801DC18346E5FF130704
:10452000F00F9147639EE600411106C697D0FF1F2A
:10453000E780A03BB24081473E854101828095479C
:104540003E85828001E9014582800145B2402244D6
:104550004101828095654111938505D022C4C98DA2
:104560002A842105C2054205C181418106C697D032
:10457000FF1FE780602A71D9FD5723200500231211
:1045800085002303F5002105D1B717070020130785
:10459000A73C1C43411122C426C24AC006C601449E
:1045A0000149BA8489E7A165D1251DC401A803C7C3
:1045B000E7FF631AA7020DCCA165012E984083275F
:1045C00084FF6319E402170700202327F738FD57FB
:1045D000232C04FE230FF4FE2285B2402244924491
:1045E00002494101828011E03E8983A787FF5DBFB8
:1045F0003E84E5BF232CF9FED9BFB1CD411122C4C1
:1046000006C62A849707002083C757352E85637511
:10461000F400894763E8870001370D45B240224422
:104620004101828083A785FF99E703C7E5FF9307D0
:10463000F00F6305F700CD351545CDB7238F85FE07
:1046400017050020130545314D3D22852244B24017
:10465000A16541019DAC154582809707002023ADDF
:10466000072E828097070020938787349C4399E325
:104670003E85828003D727006316B70003C7070073
:10468000E308A7FEDC47E5B7C9C1797122D406D695
:1046900026D24AD04ECE01444147B3D78540858BC0
:1046A000A5C31205314722953305E502970700207F
:1046B0009387073403A907008544B3948400C20498
:1046C000C180BE892A990327090011C70325490023
:1046D0002EC60297B24531473304E40283A709008E
:1046E0003E941C4489E72320090023220900B2508C
:1046F0002254A58D02599254F2492E85456182803B
:104700000504E31CE4F88144DDB72E858280411165
:104710001397050122C406C626C24AC041872E84CB
:10472000635E07009D3511C1C53BA1673D8C2285A5
:10473000B24022449244024941018280EDD9AA87C5
:1047400001474146B356E440858A8DCE9207BA9719
:10475000B146B387D702970600209386662903A93E
:1047600006008544B394E400C204C1803E998327C7
:10477000090003254900829723200900232209000C
:10478000258C75B70507E31FC7FA8144D5BF970786
:104790000020938727229C53411122C406C613840C
:1047A000018299C782971C403E9523A0A18239A01F
:1047B000970700209387471F9C43EDF70840B747B2
:1047C00003009387D73F3305F502B7A726009387E9
:1047D00037ECB24022443E9523A0A1824101828061
:1047E0007DC1970700209387271C9C43797122D4B1
:1047F00026D24AD04ECE52CC56CA5AC806D65EC62B
:104800003A8AB689328BAE8A2A8982979707002026
:104810009387071E9843BE840144B146C147B30B3A
:10482000D40233067701104251EAC165938505F041
:10483000414597D0FF1FE78020FE1DE59707002028
:10484000938747179C5B2D4589C711458145829702
:104850002D45B250225492540259F249624AD24A2A
:10486000424BB24B456182809707002093874714E3
:10487000984329E39707002023ACA71223000500E3
:104880009C40054733178700232605002324650134
:104890002311E50023224501DE9723A0270123A24F
:1048A000570123A447010145E38509FA23808900C4
:1048B0004DB73E875C47F5FF48C7C9B70504E3100D
:1048C000F4F6214579B7094582809707002083C710
:1048D000F7086371F502170700201307270D9317D8
:1048E000150008433E9583570500DD8D2310B50064
:1048F000014582800D4582809707002083C71706F7
:104900006373F502170700201307470A9317150072
:10491000084393C5F5FF3E9583570500FD8D231091
:10492000B500014582800D458280130705FF13778E
:10493000F70FFD4763E9E70AB146B306D5029707CB
:1049400000209387E70A984389473697184349CF51
:10495000011122CC4EC60544935945003D893315BB
:10496000A40013140501418026CA4E85AE84A28599
:104970004AC806CEC5392A89814731CDA2854E85E0
:10498000A53F97070020938727029C4382979707AC
:10499000002083D7E706338797022A8481461306CF
:1049A0000064B3B7970213050732B335E500BE952F
:1049B000EFE0B10FB3078500970600209386C6038A
:1049C0003E87D44263E4A70063E4D7003387D7402F
:1049D0002324E9008147F2406244D2444249B2496B
:1049E0003E850561828089473E858280011126CA05
:1049F00006CE22CC4AC84EC6BD47894463EFA70203
:104A000031473307E50297070020938767FE9C43F1
:104A10008944BA979C4395C305443314A4004204C7
:104A200041802E890145A2853539AA89814411C565
:104A3000A2850145D13523A42901F240624426858F
:104A40004249D244B249056182809707002083C75A
:104A5000F7F06364F500014582800111970700209B
:104A6000938787F456C283AA070006CE22CC26CAB3
:104A70004AC84EC652C4638D0A0A170A0020130A98
:104A8000AAF783244A00B74736FE938707C8AE8942
:104A90009705002083D5C5F6BE94B387C5022A8446
:104AA00032898146B3B5C50213850732B337F500A5
:104AB00013060064BE95EFE0417F63EBA406829A83
:104AC0009705002083D5C5F3B3872503AA84130671
:104AD00000648146B3B5250313850732B337F5006B
:104AE000BE95EFE0817CB3079500BE8403274A00A2
:104AF00063E4A70063E4E700B384E740CE85228542
:104B0000953601C504C505452DA0936504F0C20581
:104B1000C181414597D0FF1FE78000D005E5970789
:104B20000020938727E99C5B81C7A2851145829766
:104B30000145F2406244D2444249B249224A924A73
:104B40000561828097070020938787E69C439DE359
:104B50009707002023AEA7E485472326050004C558
:104B60002311350123008500A300F5002322050051
:104B700059BFBA87D84775FFC8C7F9BF59C97971F6
:104B800022D426D24AD04ECE52CC56CA5EC662C479
:104B900066C206D65AC83689328AAE89AA8441448A
:104BA000314C970A0020938AAAE4854C930B0003AA
:104BB000330B840303A70A005A971C43B1E793758C
:104BC000F400B395BC0013554440C2055286C18120
:104BD0001375F50F9D3D0DC983A70A000145DA97AE
:104BE00084C323A237016304090023008900B25063
:104BF000225492540259F249624AD24A424BB24B71
:104C0000224C924C456182800504E31374FB2145DC
:104C1000F9BF09458280411122C426C24AC006C696
:104C20002A842E89B2841535CA852285EFF09FA388
:104C300005CD9705002083D5A5DCB38795022A848E
:104C4000130600648146B3B5950213850732B33766
:104C5000F500BE95EFE0616548C00145B2402244D1
:104C600092440249410182802145CDBF411122C4B5
:104C700026C24AC006C62A892E84EFF0BF9EAA84A7
:104C800019C123110500A2854A85BD31970700206F
:104C900083C7C7CC639B27019707002083D787D0A2
:104CA0005D8C97070020239F87CE014591E0194531
:104CB000B240224492440249410182809307F002AB
:104CC00063E8A7044111B14722C43304F50226C2A8
:104CD000970400209384C4D19C4006C6A2979843B1
:104CE00089470DC39377F5008545B395F500C20557
:104CF000C1811181A53F9C40A29723A0070023A258
:104D000007008147B240224492443E85410182809F
:104D100089473E858280411106C622C4EFF09F94E8
:104D200011E50145B24022444101828097070020ED
:104D3000938787C79C4300458297970700209387F6
:104D4000A7CB6368A402D843B74636FE938606C84D
:104D50003305A4403697E376E5FC13070064B335CA
:104D6000E50203D6870081463305E502EFE0E15313
:104D700055BFD8433A94C1BF411122C426C217047B
:104D80000020130464C797040020938424BD944832
:104D9000584097070020938727C106C69C4363931A
:104DA000E60882975440B74736FE938707C8B69700
:104DB0003387A7003A856364F7006364D70033053F
:104DC000D74097040020938424DC9C4C81CF970724
:104DD0000020938767E294433707CDFF7D179C46F9
:104DE000F98F9CC611E1484097070020938787BC44
:104DF000DC53829719E59C4C8DC3EF001101EFF055
:104E0000F0639C4C99CB970700209387E7DE98438B
:104E1000B70633001C47D58F1CC7B24022449244CA
:104E200041018280829798489707002083C7D7B9AD
:104E300054401D8FB307A7003E8563E4E700E3E21B
:104E4000D7F83385D740B5BF411106C69707002074
:104E500023A2A7BA0295B2409707002023ACA7B0BF
:104E6000014541018280994763E9B7008A059707A8
:104E70000020938767B1BE9588C182804111714639
:104E8000814517050020130525B006C697070020A9
:104E900023A007B29707002023AE07B4970700208E
:104EA00023A407B097C0FF1FE78080BC13068002D1
:104EB000814517050020130565AA97C0FF1FE780ED
:104EC00020BBEF60E1449707002083C717B013D5DC
:104ED00027008D8B3E958D473305F50285453905B5
:104EE0001375F50F97070020238BA7A69947330565
:104EF000F5021305052497D0FF1FE780E0911707FF
:104F000000202327A7AE59CD994717060020034656
:104F100006A53306F60281451306062497C0FF1F37
:104F2000E78000B597070020938787AC9C43938761
:104F30000724170700202327F7A41707002003479B
:104F400007A20A07BA97170700202321F7A6EFF058
:104F5000CFF00523970700209387C7A294439707B4
:104F6000002083C7B79F13972700369717F6FFFFD8
:104F70001306C67110C3138717001377F70F0A07BC
:104F8000369717F6FFFF1306C67810C3138737004E
:104F9000890793F7F70F8A0797050020A380E59C00
:104FA000B69790C3B240410182809707002083C723
:104FB000F79A170700200347879A63F3E70217075A
:104FC00000201307279C184393861700170600201C
:104FD000A306D69893962700369708C33E8582800D
:104FE0009307F00FE5BF1C41638A071641777D8F59
:104FF000B706002089476314D7160357450063009E
:105000000716411122C419462A849305F00F690539
:1050100006C697C0FF1FE780C0AF05478D47630AEC
:10502000E5121C4481CB5858994763040712185C59
:10503000630107121306C0038145170500201305FD
:10504000659797C0FF1FE780A0A21306C003A28543
:10505000170500201305059697C0FF1FE780C09D28
:10506000170700200357C795970700209387879459
:1050700019E713070010970600202393E6941707FB
:1050800000200347079411E7054797060020238A6D
:10509000E692170700200357E79211E76D4797063E
:1050A00000202391E692170700200347979111E70C
:1050B000154797060020A386E690170700200347B0
:1050C000879011E7054797060020238EE68E170785
:1050D00000200347578F19E703C7F7009706002002
:1050E000A383E68E170700200347078E11E7354795
:1050F00097060020238AE68C170700200347178DA8
:1051000019E71307800297060020A381E68C170792
:1051100000200347778B19E71307D002970600207A
:10512000A384E68A0347840119E71307C00397069F
:105130000020238DE6889C5791C78297970700200F
:105140002392A782FD5717070020A309F7B03D332C
:105150008147B24022443E854101828089473E8595
:10516000828001114EC6970900209389E98883A7A0
:10517000090006CE22CC26CA4AC852C48297130917
:105180000064B335250303DA89008146528633056E
:105190002503EFE0811197F7FF1F9387277C804F4E
:1051A000AA8401456306940233858440636E9400AB
:1051B00003A5490052868146B335A9023305A902E9
:1051C000EFE0A10E018D269597F7FF1F23A4977A94
:1051D000F2406244D2444249B249224A0561828087
:1051E000011122CC0A852E84414697050200938541
:1051F00025C406CEEFE0E144180806043A940355AE
:1052000004FF97F7FF1F83D7C77FF2406244AA9736
:1052100037450F00130505243355F50205618280DB
:1052200097F7FF1F83D7E77D51471D45637CF70242
:10523000794719456378F70213072003154563730F
:10524000F7021307B0041145637EF7001307400609
:105250000D456379F7001307600909456374F7008A
:1052600013B5B70F8280011122CC06CE2A842EC638
:10527000EFF0EFD1B245F240818D33A5A502229522
:1052800062441375F50F05618280011122CC06CEB0
:105290002A842EC6EFF0AFCFB245F240818D33A500
:1052A000A502229562444205418105618280011177
:1052B00022CC06CE2A842EC6EFF06FCDB245F24046
:1052C000818D33B5A502229562440561828097F7EE
:1052D000FF1F9387276E985739CB411122C426C2EE
:1052E00006C6BE84029717F7FF1F0357A7672A84D5
:1052F00015CBBA876373A700AA87C207C183BA8692
:105300006373E400A286C206C182958F5147635B36
:10531000F700DC5491C38297EF00A11897F7FF1FA5
:1053200023928764B2402244924441018280828069
:1053300097F7FF1F93870768DC57011106CEAA85F0
:1053400081C72AC68297B245C1C59C410545B5CFE4
:10535000DC41A5CF83D78500ADCB83D7A500B5C7EA
:1053600083C7C500BDE3414617F5FF1F1305C56898
:1053700097B0FF1FE780406C97F7FF1F9387C767C1
:105380009C4317F7FF1F2321F76297F7FF1F83C77F
:10539000F7638DE79307800217F5FF1F03554566F6
:1053A0003305F50237460F00130606248146814572
:1053B000EFD0B16F97F7FF1FA38AA7601705000012
:1053C000130565DAEFF05FA80145F24005618280C0
:1053D00097F7FF1F83C7675F139787016187635044
:1053E000070497F7FF1F23A9075897C7FF1F938745
:1053F000A7A717F7FF1F2321F760FD5717F7FF1F18
:10540000232EF75EB7873200938727A117F7FF1F78
:105410002328F75E97F7FF1F2386075EB1BF13F7B8
:10542000170005CBB7872003938707D017F7FF1F17
:105430002328F75CB707C0A817F7FF1F2320F75CE6
:1054400097C7FF1F938767A517F7FF1F2326F75AF4
:10545000D1B7617797F6FF1F2394E65A81CB930764
:10546000003217F7FF1F231EF758E9B793072003F1
:10547000CDBF011122CC17F4FF1F1304A45308441D
:1054800006CE26CA4AC801E90545F2406244D24424
:105490004249056182805C58E5DB185C75D7700075
:1054A000854582971844B247E300F7FE9305E00470
:1054B00017F5FF1F0355C55097C0FF1FE780C03584
:1054C00017F7FF1F232CA74A61D117F6FF1F0356BA
:1054D000264F9305F00F97B0FF1FE7806059814476
:1054E00017F9FF1F1309894797F7FF1F83C7674DF8
:1054F0000326090263C1F402328597C0FF1FE780CB
:10550000C03E014597F7FF1F23AA074697F7FF1FE5
:1055100023A807469DBF97F5FF1F83D5654AB3872C
:1055200095020844185C898185043E9508C202975B
:1055300065BF011156C297FAFF1F938AAA4783A736
:105540008A0022CC4AC84EC606CE26CA52C45AC0C9
:10555000AA892E8432896385072203A74A03630739
:1055600007147D476366A71497F4FF1F9384043FD5
:1055700003AA040263170A0A9565938515E017F5D7
:10558000FF1F0355E54397C0FF1FE780E02897F70B
:10559000FF1F23A5A73E2A86630A051083A74A0397
:1055A00003A58A0097F5FF1F83D5854189818297DE
:1055B00083A78A0003AA040217F7FF1F2322F73CE0
:1055C0008947639CF908C1476312F40E97F5FF1FE2
:1055D00083D5053F938505FC9147B3C5F5028A0540
:1055E000D29503C705009307A005631DF70A83C77B
:1055F00015006399370B4A852286910597B0FF1FE6
:10560000E78080439C505285639347150145F240E3
:105610006244D2444249B249224A924A024B05614D
:105620008280D850E38EE7F89565938525E017F5DD
:10563000FF1F0355E53897C0FF1FE780E01D2A8A4A
:1056400035C52A8683A74A0303A58A0097F5FF1F5D
:1056500083D5053789818297A5B78D47639DF9006A
:10566000C1476315F40497F5FF1F83D5653593850E
:1056700045FDF199B5B79147639AF9006318340372
:1056800097F5FF1F83D5C533A115E5B7C147639FC4
:10569000F900A14763EC870097F5FF1F83D54532DA
:1056A000C115C1BF9C5052856397470D294585B7E9
:1056B0001307F006568B6361A70A130A05FE194704
:1056C000334AEA0217F7FF1F0357872F97FAFF1F86
:1056D000938ACA28330AEA023E9A83A74A0263954C
:1056E000470183A40A029DE49305E00417F5FF1F18
:1056F0000355052D97C0FF1FE7800012AA845DD5D2
:1057000083274B0397F5FF1F83D5852B2A86898135
:105710005285829791451307A005898193972500AB
:10572000A69783C607006393E60483C61700639CAD
:10573000360385058A052286A6954A8597B0FF1F00
:10574000E780802F83A70A02E38297EC268597C023
:10575000FF1FE78080195DBD1307E007E368A7F42A
:10576000130A05F985B783D5270045BF83A70A0229
:10577000E38E97F2268597C0FF1FE78000173DB79D
:1057800097F7FF1F9387871D8C538DD19147930601
:10579000A0058983139727002E9703460700E31778
:1057A000D6F003461700631C360185078A07228658
:1057B000BE954A8597B0FF1FE780002881BD8357BB
:1057C0002700C1BF97F7FF1F9387C71E984739C7A8
:1057D0009C5FA9C705476313E504411122C417F470
:1057E000FF1F1304A417105006C60DC6485097F5A6
:1057F000FF1F83D5E51C89818297085097C0FF1F42
:10580000E780A00E97F7FF1F23AA071697F7FF1F41
:1058100023A80716B24022444101828082800111F0
:1058200017F7FF1F130707194EC68329870022CCDD
:1058300026CA4AC806CE52C456C2AA842E843289C9
:10584000638A09201C5FBA8A99EB2945F2406244B9
:10585000D2444249B249224A924A056182805C5B45
:10586000EDD7FD4763E9A70E97F9FF1F9389090F4D
:1058700083A70902B1CB03A58A0083A749026395D8
:10588000A70689476393F408C147E310F4FC17F5B2
:10589000FF1F0355E5129147130505FC3345F5023B
:1058A0009317250003A509022286CA853E95930712
:1058B000A0052300F500A3009500110597B0FF1F78
:1058C000E7808017014559B79305E00417F5FF1FDE
:1058D0000355050F97C0FF1FE78000F497F7FF1FE0
:1058E00023AEA70849F995B783A74A0303A609027F
:1058F00097F5FF1F83D5C50C8981829783A78A00FE
:1059000017F7FF1F232EF706ADBF8D47639EF400E8
:10591000C147E31CF4F217F5FF1F0355650A130591
:1059200045FD9377C5FFBDBF9147639AF400E31E21
:1059300094F017F5FF1F0355A5082115DDB7C147E2
:10594000E395F4F0A147E3E287F017F5FF1F035555
:1059500025074115F9B79307F00663EAA7069307F1
:1059600005FE1947B3C7E70217F7FF1F035747059F
:1059700017FAFF1F130A8AFEB387E702BE9983272F
:105980000A02A9CF83274A02639A370703250A022E
:1059900091461308A005FD5593D72600C207C18381
:1059A000139727002A9703460700631D06078348BD
:1059B00017000356270063959806B306D64063CFB9
:1059C000860485078A072286CA853E95C5BD93074A
:1059D000E007E3ECA7E6930705F979B79305E00440
:1059E00017F5FF1F0355C5FD97C0FF1FE780C0E2F5
:1059F00097F7FF1F23A4A7F851F581BD83A74A039A
:105A000003260A0297F5FF1F83D585FB89814E8502
:105A1000829797F7FF1F23A537F78DBFA300B70025
:105A2000B2869DBFB385860017F6FF1F035646F961
:105A30009105130606FCE3FAC5E01306340013765D
:105A4000C60F1106B29623000701A3009700231189
:105A5000D70085BF97F7FF1F938747F09453BE8900
:105A6000A1C203A5090291461308A005FD5593D7CD
:105A70002600C207C183139727002A970346070011
:105A8000631606058348170003562700639898009D
:105A9000B306D640E3D786F2A300B700B286C1BFF3
:105AA0008357C70017F5FF1F0345A5F19305E004D1
:105AB0003305F5024205418197C0FF1FE780C0D53D
:105AC00097F7FF1F23ACA7EA49FD41B317F6FF1F65
:105AD000035606EF97F5FF1F83C5A5EEB385C502F4
