:040000006F20C01D90
:100004000000000000000000900000208A0400208E
:10001400A9BDF9F5900000200000000000000000D8
:10002400900000209000002000000000000000006C
:10003400900000200000000090000020000000005C
:1000440090000020900000209000002090000020EC
:1000540090000020900000209000002090000020DC
:1000640090000020900000209000002090000020CC
:100074007E050020900000209000002090000020C9
:1000840090000020900000209405002090000020A3
:1000940001A073270080218B9387818609CB732766
:1000A400008023A4E18698435D9B731007800100C0
:1000B400010037170040930670052300D704930608
:1000C40080FA2300D704010001008346B70493F6A5
:1000D400F60DA305D7042300070473260080944378
:1000E400A18AD18E7390068023A4018601000100A9
:1000F40093760502638406180347A700118B25E74E
:1001040073270080218B09CB7327008023A4E18609
:1001140098435D9B7310078001000100371700406E
:10012400930670052300D704930680FA2300D704AE
:10013400010001008346A70093E646002305D7008B
:1001440023000704F32600809843218B558F7310F6
:10015400078023A40186010001001307004B01005E
:1001640001007D176DFF73270080218B09CB732756
:10017400008023A4E18698435D9B731007800100EF
:10018400010037170040930670052300D704930637
:1001940080FA2300D704010001007D892314A700FD
:1001A400010001000100010023000704F326008080
:1001B4009843218B558F7310078023A40186010077
:1001C400010073270080218B09CB7327008023A4AF
:1001D400E18698435D9B7310078001000100371787
:1001E4000040930670052300D704930680FA230089
:1001F400D7040100010001000100B72600401306E6
:100204001005A383C68023000704F32600809843C7
:10021400218B558F7310078023A4018601000100F0
:1002240073270080218B09CB7327008023A4E186E8
:1002340098435D9B7310078001000100371700404D
:10024400930670052300D704930680FA2300D7048D
:10025400010001008346B70493E60608A305D7040A
:1002640023000704732700809C43A18BD98F7390CC
:10027400078023A40186010001008280937605048F
:10028400638B06140347A700418B25E7732700807F
:10029400218B09CB7327008023A4E18698435D9BBF
:1002A40073100780010001003717004093067005A2
:1002B4002300D704930680FA2300D7040100010029
:1002C4008346A70093E606012305D700230007040D
:1002D400F32600809843218B558F7310078023A445
:1002E4000186010001001307007D010001007D1754
:1002F4006DFF73270080218B09CB7327008023A413
:10030400E18698435D9B7310078001000100371755
:100314000040930670052300D704930680FA230057
:10032400D704010001009376F50193E60604231433
:10033400D700010001000100010023000704F32697
:1003440000809843218B558F7310078023A4018666
:1003540001000100130760046310E50473270080A3
:10036400218B09CB7327008023A4E18698435D9BEE
:1003740073100780010001003717004093067005D1
:100384002300D704930680FA2300D7040100010058
:10039400B72600400946B5B573270080218B09CBE9
:1003A4007327008023A4E18698435D9B7310078024
:1003B4000100010037170040930670052300D7049D
:1003C400930680FA2300D70401000100B7260040F9
:1003D400130620053DB573270080218B09CB7327B5
:1003E400008023A4E18698435D9B7310078001007D
:1003F400010037170040930670052300D7049306C5
:1004040080FA2300D704010001008356870093E695
:10041400060C2314D700C5BB411181460146814512
:10042400114506C64126F3270080A18B9386818659
:1004340089CBF327008023A4F1869C42DD9B739033
:10044400078001000100B7170040130770052380DF
:10045400E704130780FA2380E7040100010003C7BF
:100464006704136717002383E704238007047327B3
:1004740000809C42A18BD98F7390078023A40186AE
:1004840001000100B240410182808146014681455C
:100494001145092EF3270080A18B1387818689CB10
:1004A400F327008023A4F1861C43DD9B739007800F
:1004B40001000100B7170040930670052380D7049C
:1004C400930680FA2380D70401000100FD56239689
:1004D400D70223800704F32600801C43A18BD58F09
:1004E4007390078023A4018601000100F327008094
:1004F400A18B89CBF327008023A4F1861C43DD9BC9
:100504007390078001000100B7170040930670053F
:100514002380D704930680FA2380D70401000100C6
:1005240083C6670493E616002383D7042380070455
:10053400F32600801C43A18BD58F7390078023A4DE
:1005440001860100010001A0BD473305F502010049
:100554007D1575FD8280411122C426C206C6AA8477
:10056400014463179400B2402244924441018280C2
:1005740005041305803E4204C13F4180DDB7B7172F
:100584000040130700032388E702854723ACF18664
:100594007300203037470040834747C09946BD8BDE
:1005A400638CD70631476385E70011476394E712EC
:1005B4007971B747004022D626D44AD24ED052CEC3
:1005C40056CC5ACA5EC803C4A7C01306F003374703
:1005D40000402396818881479385016E9396070195
:1005E400C18263EF860221EC1386C1889385016E74
:1005F4001385011A973000E0E780604F3254854735
:100604002385F188A25412598259724AE24A524B04
:10061400C24B456173002030834757C073002030BC
:10062400636AF600034587C0B386F5002380A600FD
:1006340085076DB7834687C02383D188D5BF0569F5
:100644008144138A016E9389415D854A7D5B130958
:1006540009C0938B715DB3079A0083C507004E856B
:10066400974000E0E780400B631A550303C6A16D71
:1006740003C5916D814511C2DE858146973000E046
:10068400E780C0674E85974000E0E7800008850456
:1006940093970401C183E3E087FCB9B7E31965FFCD
:1006A400130700109386414C09466C001305F00FA4
:1006B40023162101974000E0E7802018E359A0FCAD
:1006C40093150501C1811385414C973000E0E78003
:1006D400406175BF73002030411106C68D2D9730DF
:1006E40000E0E780E052DDBF2303048015472303C5
:1006F400E48001002302A480828083076480E3CE27
:1007040007FE23030480828083076480E3CE07FE10
:1007140003454480828083076480E3CE07FE23027E
:10072400A4808280411126C44AC24EC006C61377F3
:10073400F50BAD47AA892E8995446306F700194540
:100744006537653F8D444E854537FD59FD146398E3
:100754003401B240A24412498249410182801355B6
:1007640009011375F50F453F2209CDB7011126CCB8
:1007740006CEB704080051371545BD3771376937C0
:100784002AC6A53F32459377150089EB13651500FA
:100794001375F50FF240E24405618280FD14E9FC13
:1007A4000145CDBF397126DC4ADA4ED852D656D42B
:1007B4005AD25ED006DE62CE66CCB7E700E07D5743
:1007C40083AA070022C603AA470023A0E71823A28E
:1007D400E718B7170040130770052380E7041307D1
:1007E40080FA2380E70483C74704930B75FFB6841C
:1007F400E20793FBFB0F8546AA892E8B32893724A7
:100804000040E187015763FA76016308D500894601
:10081400130700026313D5000157D98F93F7F70F1D
:10082400B71C00402382FC0411472303E480130512
:10083400F00F5D3D094CD135636D7C11B7050700A0
:10084400DA9537870700795563F2E504B387950095
:10085400636EF702370B0800A94733EB6501639910
:10086400F90689E48144513D26850DA0DA850945C0
:10087400553D05090345F9FFFD14050B693D81C488
:100884009377FB0FFDF7DD3569FD7D55B717004004
:10089400130770052380E704130780FA2380E70415
:1008A40003C74704418B2382E704F250B7E700E013
:1008B40023A0571123A24711E25432445259C2597A
:1008C400325AA25A125B825B724CE24C21618280E2
:1008D400A5476395F90685691309F00FB3069900D6
:1008E400B3742B01B6941349F9FFB3749900856B63
:1008F40033796901416B9387F9FFB3F7270199E3D2
:1009040063FC340193D94900C147E3E637FF99BF3B
:100914000569C1697D19D9B71305800D638869011B
:10092400130500026384790113051008CA85DD3BB1
:10093400353D21DD4E99B3843441D9B7DA852D454F
:10094400D533CA94E30099F205097D3BA30FA9FEB0
:10095400D5BF9387F9FF93F7F70F6361FC0C83C747
:100964001C0413073008631FF70437070800636B80
:10097400EB04B3079B00B706100063F5D704334BB1
:10098400EB0089476393F9068980D549E38C04EC2D
:10099400DA850945413B11090327C9FF9147232003
:1009A400E48003076480E34E07FE23033481FD17CC
:1009B400EDFBFD14110B81C49377FB0FE9FF7D332D
:1009C40071F5E1B5B717004003C75704B70708002E
:1009D4001377070219E3B78707007955E378FBEA31
:1009E40033079B00E3FFE7F855B58547E382F9F247
:1009F400DA852D45053B9389F4FFE38504E6293325
:100A040093F7390091EB83260480032709009307A9
:100A14004900E39AE6E43E89CE84F1BFB547639684
:100A2400F9001305900BC93135BDB1471305B00A60
:100A3400E38BF9FE99476391F904B7050800B365A0
:100A4400BB002D45C53181448D4BA1497539639651
:100A54007401832704802320F9008504E39834FF7C
:100A64008327048013172B01635507002312F90011
:100A7400D5BB2322F900FDB39D476399F902814553
:100A84001305B0044531BD44232009002322090085
:100A9400FD599D3993F77400CA9703C70700FD14E5
:100AA400398D2380A700E39634FF6DBBA147639281
:100AB400F9046D398144630D0B008D479304C00321
:100AC4006308FB009304000563048B019304400452
:100AD4001375C507E30895D81945393139390545E2
:100AE400213126850D3909453D314931E31C05D6AF
:100AF40069BB91476399F90013056006F536F53E25
:100B0400130590090DB7E38F09D4F154A9BB19CD8E
:100B140091CD09CE81473387F5008346070033071B
:100B2400F50085072300D700E317F6FE828019C974
:100B340091C909CA910583A7C5FF11057D16232E06
:100B4400F5FEC5BF828001C919C62A960505A30F03
:100B5400B5FEE31DA6FE828081473307F500030737
:100B6400070019E33E8582808507C5BF01112E86E3
:100B740026CAAA84131506019305F004418122CCE8
:100B840006CE32C6EF00B0562A8401C53246A68589
:100B9400BD3F2285F2406244D2440561828085478C
:100BA40015C18DC105C28147B306F5003387F50031
:100BB40083C60600034707006398E6008507E3152C
:100BC400F6FE85473E8582808147EDBF9307F6FF99
:100BD400BE952A966313C5008280FD1583C7150050
:100BE4000505A30FF5FEFDB7AA87014581CF09CE00
:100BF4003E96850703C7F7FF6317B700E39BC7FE5D
:100C04000545828082800145828079719747000082
:100C14009387C70C22D4804306D626D24AD04ECE20
:100C240052CC56CA5AC85EC679C0B7C4C901014B72
:100C3400974900009389090A9384F437174A0000FE
:100C4400130A0A0A974A0000938A0A041749000003
:100C54001309490D8357240095E35C44631D0B007D
:100C640017470000232CF706832BC4002285EF00CE
:100C740030555E84B9A82326FB00FDB783A709007D
:100C840082971C443307F5406376F5000327490037
:100C94001D8F2A9763E2E4089747000023AE07FEFE
:100CA4008355240003450400974000E0E780C0FE1C
:100CB4005C405844A1CB0C4403264900AE97BE8641
:100CC40063E4B70063E4C700B386C74014C4228B4F
:100CD4003A8449F097470000938707FB9C4B0947E8
:100CE4006372F706F917174700002327F7FAB25083
:100CF400225492540259F249624AD24A424BB24BAC
:100D04004561828063170B009747000023A8E7FC26
:100D1400A1BF2326EB0089BF03274A0209CF63EF53
:100D2400A7003385A74083A70A016376F500974798
:100D3400000023A3A7F6228B404461BF0327490088
:100D4400BA97C5B79747000023A807F44DB74111D8
:100D540022C4174400001304E4F51C4006C626C24E
:100D64004AC091C782979747000023A507F4974785
:100D7400000083C77714858B974400009384841301
:100D840095C397470000A389071283C774001547CA
:100D9400637AF700A12B83C77400F5178A07A2971B
:100DA4009C4382971C4491C38297174900001309FE
:100DB400A9F203270900174600000346F6EC9747FB
:100DC400000083C767EC93961700BA9683D6060093
:100DD400D5CE9747000083C727EB63E3C70C97473B
:100DE4000000238307EA1C40639D07129747000015
:100DF40083C7D70C91CF83C7740093F7F70F89EBA0
:100E040097470000A38C070A974001E0E780C0647D
:100E140097470000938707EC9C4363840710974728
:100E24000000938727F0DC43174700002326F7E6EA
:100E3400E93B974700009387A7EADC53FDC31747B4
:100E44000000130767E4184B9747000083C797EA2D
:100E54006369F70C83C7740015476364F70C9747FD
:100E6400000083C7E709918BCDEF0326090097465D
:100E7400000083C676E163CCD70A2244B240924490
:100E840002494101174300E06700E32B850793F70C
:100E9400F70F974600002389F6DEE3E2C7F215BF99
:100EA40086073E97835507002310070097470000E5
:100EB400239007E297470000938787DF9C431745F9
:100EC4000000034565DC13172500BA979C438297FD
:100ED4009747000083D7C7DF174700000347C7DAE7
:100EE40093C7F7FF7D8D93171700032709003E97DB
:100EF400835707005D8D2310A7009747000083C721
:100F0400A7D891C7850717470000230FF7D61747BF
:100F14000000034767D79747000083C7F7D6E370FD
:100F2400F7ECB24022449244024941018280139773
:100F340017003297035707006DF785072DBFAD677C
:100F440037C70040BD072326F7200F10000097473E
:100F54000000938767D3C84F83278726BD66BD06E5
:100F640093C7F7FF99836A052326D7205D8D828076
:100F74004111B7170040985F3AC6945F3247E39C2B
:100F8400E6FE3245410182801305F00F8280011193
:100F9400974700009387070222CC03A4070C26CAB4
:100FA40006CE2AC42EC6854419E40145F2406244A3
:100FB400D244056182808347910003471400858BE6
:100FC4006304F7000044CDB719469305A100130547
:100FD4002400F136E31895FE0545C9BF1747000004
:100FE400130747EC1C439306001094C3010001004F
:100FF400010001001C4323A0070083461500034899
:101004002500A2064208C29603480500C29603487A
:1010140035006208C29694D783465500034865009C
:10102400A2064208C29603484500C29603487500CA
:101034006208C296D4D7834695000348A500A20649
:101044004208C29603488500C2960348B500620868
:10105400C29694DB8346D5000348E500A206420805
:10106400C2960348C5000345F500C2966205AA96D8
:10107400D4DB83C6150003C52500A2064205AA9643
:1010840003C50500AA9603C535006205AA9694CF48
:1010940083C6550003C56500A2064205AA9603C58A
:1010A4004500AA9603C575006205AA96D4CF83C6E7
:1010B400950003C5A500A2064205AA9603C58500AE
:1010C400AA9603C5B5006205AA9694D383C6D50033
:1010D40003C5E500A2064205AA9603C5C50083C55B
:1010E400F500AA96E205AE96D4D3D443F59AD4C3B8
:1010F400D44393E61600D4C3944393E6160094C3F2
:10110400BA879443D842058B59E3984E014523008E
:10111400E6009843184F2183A300E6009843184F34
:1011240041832301E6009843184F6183A301E6003D
:101134009C43D84F2302E600D84F2183A302E60044
:10114400D84F41832303E600D84F6183A303E6000D
:1011540098532304E60098532183A304E60098538C
:1011640041832305E60098536183A305E600D85321
:101174002306E600D8532183A306E600D85341830F
:101184002307E600DC53E183A307F6008280010015
:101194008DBF17470000130727D11443411122C400
:1011A4009C5E4AC006C6998326C2858B3A84174939
:1011B4000000130929CFD1CB9C5E9744000093848F
:1011C40064CF93F7F7F99CDE174700000347E7CE97
:1011D40093070008631BF700832709009C4393F7D8
:1011E400070417470000230AF7CC83C7040093F7CA
:1011F40007049DC3974700009387C7AD9C4382971C
:101204009747000023A0A7CC83C7040093F7F70BEC
:10121400174700002300F7CA83C7440093F7070465
:101224008DE7854717470000A308F7C897470000D4
:10123400938707CA9C43096798C7130700FC97461E
:101244000000238BE6C6D844F8D31C40985F118372
:10125400058B09CB985F3D9B98DF054797460000B7
:10126400238CE6C4985F1D83058B11CB985F13779D
:10127400F7F798DF854717470000230FF7C2832746
:101284000900D8430583058B19C7D843759BD8C378
:10129400D843799BD8C3B2402244924402494101C5
:1012A4008280397106DE16DC1ADA1ED82AD62ED4CC
:1012B40032D236D03ACE3ECC42CA46C872C676C482
:1012C4007AC27EC0F935F250E2525253C2533255BB
:1012D400A255125682567247E2475248C248324ECD
:1012E400A24E124F824F21617300203097470000B5
:1012F400938707BE9443974700009387A7BB03C710
:101304000700058B11CB97470000238707BA97473F
:101314000000A38307BA828003C71700058B65F713
:10132400F85271FF83C75700DDB717480000130850
:10133400A8B7032708001C5F9583858BD1E709C6EE
:101344001C5BBD832300F60085CA83270800985BD5
:101354004607935767016356070093E707C0C20720
:10136400C18303970600C207C18709C7BA97094713
:10137400B3C7E7022390F60085CD834715008DCBD4
:101384009746000083C666B393F606041387970056
:1013940089478DCA3A9503470500854699471376D0
:1013A400F7066311D60262076187B947634C0700E9
:1013B400832708009C5FED838D8B17470000A300F3
:1013C400F7B081473E8582808547EDBF411122C435
:1013D40006C6174400001304A4AF18403DE9AE87C5
:1013E4007453FDFE3E85B28597470000238507AC04
:1013F400974001E0E780C0D9974700009387C7AAC8
:101404009C43B70680009843558F98C3D857719B67
:10141400D8D797470000A38107AA97470000A38B5A
:1014240007A81C40094798C3144017470000130736
:1014340067A883472700858B89EB83473700858B13
:10144400D9C797470000238907A6B2402244410127
:1014540082808D476310F502974700009387C7A4E5
:101464009C43B70680009843558F98C3D857719B07
:10147400D8D75DBF8547E319F5FA5447F977FD17C7
:10148400F58F5CC70F1000001C40096798C713074D
:1014940000F8174600002301E6A2174700001307CF
:1014A400A7A01043184231830D8B11E7130760196D
:1014B400F8D3D4C795BF1842094631830D8B631501
:1014C400C7001307E043EDB71307E01BD5B7FC5281
:1014D400ADF3A5BF5D71A2C4A6C22A84130680021F
:1014E4002800AE849305100886C6CAC04EDE52DCBE
:1014F400EFF06FE53545974001E0E780800817433A
:1015040000001303639A832703009376F41F174E96
:101514000000130E2EA123A40700984B974E000041
:10152400938E0E9B370FFCFF1367F70398CBF84F8E
:10153400130510F8B7020400137707E0558FF8CFAE
:101544009843F576FD16758F98C39843B706330014
:10155400930380251377F7E798C3984311497D1FB8
:101564001377F7E71367071098C303270E0085491D
:10157400930F80021C47D58F1CC783A70E00130747
:10158400900D3400B8CB014793553700A69583C717
:10159400050013767700B3D7C740858BE1C3832753
:1015A400030083280E00239C07042390070603A846
:1015B400C8021378D8FF23A6080383A8070013786A
:1015C400F70793F808F833E8080123A0070103A8F4
:1015D40047023368580023A2070383A80E0001487A
:1015E40023A2780603DA07066307480303A8070360
:1015F400038A06001358F800620813588841635898
:101604000A0103A807031358F8002380060103D82E
:1016140007061378F80F03AA480663060A0003DADC
:101624008705E37F49FB03A847023378E80123A237
:10163400070383870600635CF40003C80500339640
:10164400C9001346F6FF337606012380C5003E86A3
:1016540063D3A7002A8613158601618505071377CE
:10166400F70F8506E312F7F3B6402644964406497D
:10167400F259625A616182809746000093864685DA
:101684009C42D84713161701635506029847131650
:101694001701635006027D57B8D7173700001307A8
:1016A400A75E584F050717360000232DE65E116725
:1016B40098C798470D83058B1DC317370000034750
:1016C400877F13671700173600002306E67E13078B
:1016D40000F8173600002301E67E214798C7984793
:1016E400058B09CF173700000347D77C1367170012
:1016F40017360000A300E67C054798C7984709837E
:10170400058B09E798470583058B31CF9847173632
:1017140000001306267A173500001305E5780983BF
:10172400058B630307101841184331830D8B75EB48
:10173400AC4B184E93F5050203471700CDCD79EF56
:1017440013077006D8CF0347060013671700173630
:1017540000002301E676114798C718415C57F19BB6
:1017640093E717005CD79C4298479316370163D6DA
:1017740006029746000083C6668BC18A174700009D
:1017840013074783C5CE03478707136707029746A6
:101794000000238DE688056798C7984793162701AC
:1017A40063D1060217370000034707716207618798
:1017B40063570700054797360000238FE66E0967D5
:1017C40098C798479316070163D606029746000008
:1017D40083C6D685858A173700001307A77DADCE4B
:1017E400034797071367270097460000A380E68402
:1017F400216798C7828029D785456315B7001307E9
:10180400B00689B789456315B7001307F0061DBFF5
:101814008D456315B700130730072DB7130750071D
:1018240015B71307600739BF03473600136717005E
:1018340017360000A301E668094739BF83468707C6
:101844000946BD8A6388C600034787078D463D8BDA
:10185400E313D7F4114725BF83469707918AC9DA62
:10186400034797071367870041B7397106DE16DC13
:101874001ADA1ED82AD62ED432D236D03ACE3ECC5C
:1018840042CA46C872C676C47AC27EC0F533F250E4
:10189400E2525253C2533255A255125682567247DF
:1018A400E2475248C248324EA24E124F824F216143
:1018B40073002030973700009387876198438567CA
:1018C400938707777CD3973700009387A7659C435A
:1018D40083A60709139656006358060083A60709D2
:1018E40013966600634406007453FDF2828071C54A
:1018F400AA870145E9C58D07C207C183F19BC207C9
:10190400C18313074003636FF702173700001307FF
:10191400276A0843173700001307076914436398BD
:10192400A602173700001307A73B185B014541CBFC
:101934004111C20706C60545DD8D0297B240014537
:10194400410182801737000013074766D9B7035750
:10195400650035E303574500636FF704B306F740AA
:101964002146637CD60203280500938687001D8FD9
:10197400AA96611717360000035666312392E600D3
:1019840023A006012393060014C12312F5001307B4
:1019940086FF97360000239CE62E2313B500973567
:1019A400000083D5C52EB387F540173700002310F8
:1019B400F72E2105828008419DB7014582808280EF
:1019C4000DC1973700009387A75E03A307009737DD
:1019D40000009387675D83A8070081469A8763E3C5
:1019E4001701828003A80700636DF50A636BA80AD8
:1019F40013878700E367E5FE03D6670021670507C1
:101A04006317E60003C7C1930507238EE192973558
:101A140000009385652703D6470003D76500239309
:101A24000700329742074183173500002311E5264A
:101A3400638A67021735000013054557084163039D
:101A4400F50203D5660019ED83D7460023A00601ED
:101A540021073E9621062392C6009737000023985B
:101A6400E722B6879843E30E17F79736000093866C
:101A7400E6539442E307D7F683566700BDF283D654
:101A84004700035647001843A106B2962392D70095
:101A940098C383D76500A107173700002319F71EE1
:101AA4008280BE86C28725BF032785116302071281
:101AB400411122C406C68347C5008345E5042A8430
:101AC40093F7C70F2306F500834697000356C70014
:101AD40013958601618563F2C508635B05060345BA
:101AE400870093F6F607A304D700054693E627007C
:101AF4006314C50093E617002306D4005C438907EA
:101B04005CC3A30AB400032504112E864C430905C3
:101B1400EFE0FFFF8327841103465401D44303D726
:101B2400C700B296118FD4C32396E7008947A30D4B
:101B3400F400034764039737000083C7871B637867
:101B4400F7048347C40093E707012306F40081A048
:101B540093E717002306F4006DB79376F60F635DE1
:101B6400050203458700854513E627006314B50085
:101B740013E617002306C400A30AD400A304070035
:101B84008547A30DF400832784119C43DDF3B24001
:101B9400224401454101828093E717002306F400A3
:101BA400A30AD400A3040700032504114C43090528
:101BB400EFE0FFF58327841103465401D44303D790
:101BC400C700B296118FD4C32396E7008D4755BF43
:101BD4000545828097370000938787509C434111C5
:101BE40022C406C6858B2A84C5EF4165130525F5F5
:101BF40097F001E0E780E09945C58347A5002315E8
:101C0400F50083270412BDE72320A4122322A41283
:101C140085472311F40423200500834764015441BC
:101C24002316F5000347D4002304E5000547A30465
:101C3400E500173700001307E727184F138517022D
:101C440015811C437D151375F50F9CC25C43DCC2E2
:101C54001C479CC65C47DCC61C4B9CCA5C4BDCCA5C
:101C64001C4F9CCE5C4FDCCE19CD93860602130725
:101C74000702C1BF8327441288C383572404232245
:101C8400A412850779B79737000083D727338507D0
:101C9400173700002314F732B240224441018280F6
:101CA4008347C40023090400054593C7470023065E
:101CB400F400DDB78347850193F7E70FD5EF83473A
:101CC4009501DDEB034625018346C50009CA83451A
:101CD4006503173700000347D70163E7E50013F7EF
:101CE400060141CF014709C6C18A0357651C81C655
:101CF4008356A51C369751C31307C7121735000026
:101D04000355C502B335A70237460F004111130628
:101D14000624814622C426C206C67D543305A70282
:101D2400972002E0E78040959737000083C7D7FCEF
:101D3400B384A700973700009387C72703A78709B1
:101D44008327070963F387003E84184375FB97379D
:101D54000000938727F89C43829781476364A4001B
:101D6400B307A440B2402244B3B7970093C7170007
:101D740092443E854101828081473E858280973727
:101D840000009387E71498437C53FDFF82807971A8
:101D940026D206D622D44AD04ECE52CC56CA5AC8DF
:101DA4005EC68347550303447513AA843E94137493
:101DB400F40F9307400263F687001304B4FD137411
:101DC400F40F03AA841383AAC413A38B8412228658
:101DD4005285D685972002E0E7808084058915E541
:101DE40003CBD41201498149337B6403930B500222
:101DF4004A865285D685972002E0E780608205896D
:101E040015C5639169031374F90F238B8412B250BF
:101E1400225492540259F249624AD24A424BB24B7A
:101E2400456182808509E20993D989410509E31155
:101E340079FDE1BF8327850903560504797193D69B
:101E44000701BD8EC206C182358E13577640935763
:101E54005640898B058B5D8F93573640918B5D8FF0
:101E640093571640A18B5D8F93171600C18B5D8F1E
:101E74009317360093F707025D8F93175600935517
:101E8400860093F707041E065D8F1376F60F518FB5
:101E940093D7554013D63540118A898BD18F13D6E9
:101EA4007540D18F13D61540218AD18F1396150012
:101EB400418AD18F1396350013760602D18F13967B
:101EC4005500137606049E05D18F93F5F50FCD8F3B
:101ED400A20745465D8F3307C70222D42A8426D23F
:101EE40052CC56CA032A8413832AC4135AC806D66A
:101EF40036974207418393577740135557400989D2
:101F0400858BC98F135537401189C98F13551740D5
:101F14002189C98F131517004189C98F13153700FB
:101F240013750502C98F1315570093558700137550
:101F340005041E07C98F1377F70FD98F13D53540C2
:101F440013D755401189098B498F13D57540498F93
:101F540013D515402189498F139515004189498F5F
:101F64001395350013750502498F139555001375A4
:101F740005049E05498F93F5F50F4D8F2207D98FE0
:101F8400B387C7024AD04ECE5EC662C4B697C207B4
:101F9400C18313D7774013D557400989058B498FDF
:101FA40013D537401189498F13D517402189498F9B
:101FB400139517004189498F13953700137505024E
:101FC400498F1395570093D58700137505049E0711
:101FD400498F93F7F70FD98F13D5354013D7554051
:101FE4001189098B498F13D57540498F13D5154035
:101FF4002189498F139515004189498F139535001F
:1020040013750502498F13955500137505049E0534
:10201400498F93F5F50F4D8F2207D98FB387C702E8
:10202400130650025285D685B697BD8E9394060149
:10203400C18033F6C402137BF60F971002E0E780E9
:10204400205E05890DED8347D41201498149B3848B
:102054009702130C5002C1804A865285D685971088
:1020640002E0E780E05B0589937BF90F11C5638685
:102074003403850993F9F90F0509E31F89FD230B3F
:102084006413B250225492540259F249624AD24A19
:10209400424BB24B224C456182805E8BCDB7797145
:1020A40022D406D683C735002E8423160100A30745
:1020B400F10083C74500100802C02307F10083C75D
:1020C40055008A8502C2A306F10002C402C802CAEE
:1020D40002CC02CEEFE09FF00347F10183470400F6
:1020E40001456310F7020347E101834714000145EA
:1020F4006319F7000345D101834724001D8D13356F
:102104001500B250225445618280011197370000B6
:10211400938747EA22CC03A4870C26CA4AC84EC632
:1021240006CEAA8413092500854915C083C7140067
:1021340003473400858B6304F700405CFDB7194600
:10214400930544004A85EFE09FA5E31835FF2285F7
:10215400F2406244D2444249B2490561828041114D
:1021640097370000938707E522C403A4870C26C28F
:102174004AC006C693042500054901E82285B240F9
:1021840022449244024941018280A6851305A40297
:102194003937E30525FF405CCDB74111973700007F
:1021A400938747E122C403A4870C26C24AC006C60B
:1021B40093042500054901E82285B2402244924453
:1021C400024941018280A6851305A401C93DE305A6
:0821D40025FF405CCDB70000BF
:1021DC00971100209381C1B2176100201301C1E156
:1021EC001305400097E5FF1F938505E117060020B6
:1021FC00130606FE63FAC5008322050023A05500D2
:10220C0011059105E3EAC5FE17450200130585B2D9
:10221C00970500209385C5FB1386818663FAC5005C
:10222C008322050023A0550011059105E3EAC5FEA4
:10223C001385818697350020938505EB6377B50070
:10224C00232005001105E36DB5FEFD42739002BC21
:10225C008D42739042809302800873A0023097E203
:10226C00FF1F938262D993E232007390523097220F
:10227C0000009382224273901234730020303D434D
:10228C002A876373C3029377F700BDEFADE59376AE
:10229C0006FF3D8ABA960CC34CC30CC74CC741070A
:1022AC00E36BD7FE11E28280B306C3408A06970225
:1022BC00000096966780A6002307B700A306B70018
:1022CC002306B700A305B7002305B700A304B70086
:1022DC002304B700A303B7002303B700A302B7007E
:1022EC002302B700A301B7002301B700A300B70076
:1022FC002300B700828093F5F50F93968500D58D5A
:10230C0093960501D58D61B793962700970200002F
:10231C0096968682E78086FA9680C1171D8F3E9628
:10232C00E374C3F8A5B7B717004003C77705137755
:10233C00E70FA38BE704130700F8A38DE7043D47D1
:10234C00238CE70413075003A38CE704828041110C
:10235C002A83014E930E407E130F0019930F4006F3
:10236C0063E66E149308001913034006B378150343
:10237C00854E0D4FA14F337365020D891335150032
:10238C0063E0BE161308F6FF79467298420813589C
:10239C0008013307C70213D61700BE0732976146F0
:1023AC00B3F6C60213068070B386C6023697A166D2
:1023BC00F58F42075D8FB716004083C7F60293F77F
:1023CC000708A307F1000346F10083C7F60293F751
:1023DC000708E394C7FE8347F100B716004093F754
:1023EC00F70F63890714F3270080A18B93868186EE
:1023FC006398071401000100B7170040130670051D
:10240C002380C704130680FA2380C704010001004F
:10241C0023AA070303C6170313660608A388C7027B
:10242C0023800704732600809C42A18BD18F73906C
:10243C00078023A40186010001001166B715004036
:10244C007D16DC59C85DA98FF18FE5FFF32700805D
:10245C00A18B89CBF327008023A4F1869C42DD9BC2
:10246C007390078001000100B71700401306700538
:10247C002380C704130680FA2380C70401000100DF
:10248C00D8DB03C7170313670704A388E70223806D
:10249C000704732700809C42A18BD98F739007800F
:1024AC0023A4018601000100410182807D13336861
:1024BC00E3039308E016630E08003368F3039308F4
:1024CC00D016630808009378330093B818009388EB
:1024DC00D81633081E01131E0801135E0E0149B5F0
:1024EC006393E50305486386080001486303030012
:1024FC002A8871087298FD15131E0801C205135E17
:10250C000E01C181B5BD13F8150063F4BF00790845
:10251C00D5B713381800E5BF83C7F60293F7070841
:10252C00A307F1000346F10083C7F60293F70708EF
:10253C00E394C7FE8347F10093F7F70FF1DF65B51E
:10254C00F327008023A4F1869C42DD9B73900780C7
:10255C0055B54111B7170040985F3AC6945F3247A2
:10256C00E39CE6FE3245410182801D71CEC662DCE1
:10257C0086CEA2CCA6CACAC8D2C4D6C2DAC05EDE87
:10258C0066DA6AD86ED62A8CEF009025AA89F327D2
:10259C000080A18B9384818689CBF327008023A4B0
:1025AC00F1869C40DD9B7390078001000100B717FA
:1025BC000040130770052380E704130780FA23807B
:1025CC00E7040100010003C7F70213678700A38724
:1025DC00E70203C7F7021377770FA387E70223807D
:1025EC000704732700809C40A18BD98F73900780C0
:1025FC0023A4018601000100F3270080A18B89CB65
:10260C00F327008023A4F1869C40DD9B7390078008
:10261C0001000100B7170040130770052380E70481
:10262C00130780FA2380E7040100010003C7E702C7
:10263C001377C70F2387E70203C7E7021367170057
:10264C002387E70223800704732700809C40A18B1B
:10265C00D98F7390078023A4018601000100F32712
:10266C000080A18B89CBF327008023A4F1869C40AA
:10267C00DD9B7390078001000100B7170040130722
:10268C0070052380E704130780FA2380E704010018
:10269C00010003C737051377870FA389E70403C726
:1026AC00370513671700A389E704238007047327F2
:1026BC0000809C40A18BD98F7390078023A4018646
:1026CC0001000100130980C133C92903916B938C5C
:1026DC000BE8130A5002930A803E2167130707D0B8
:1026EC00130BA00437140040930D0404617DFD1BF3
:1026FC00B3C79903916C330949033EC6B3CA590356
:10270C00B347E902130980FA338A4A033EC8B34738
:10271C00EA02130A7005338B6A033ECABD679387BE
:10272C0007A6B347FB02014B3ECC73270080218BDD
:10273C0009CB7327008023A4E18698405D9B73101E
:10274C00078001000100930770052380FD002380A2
:10275C002D01010001000347340513670702A3098B
:10276C00E40403570405336797012318E404035763
:10277C0004053367A701420741832318E40423802F
:10278C000D00F32600809840218B558F7310078025
:10279C0023A40186010001000347340513770702C7
:1027AC006308071403473405218B6DDF7327008002
:1027BC00218B09CB7327008023A4E18698405D9B75
:1027CC00731007800100010023804D0123802D012F
:1027DC0001000100034734051377F70DA309E40446
:1027EC000347340513670702A309E40403570405E0
:1027FC00336797012318E404035704053367A701D3
:10280C00420741832318E40423800D00F326008043
:10281C009840218B558F7310078023A401860100EB
:10282C0001000347340513770702630E070E0347B5
:10283C003405218B6DFF313B2A873ACE193B724709
:10284C00E30DE5FE03570405336797012318E404F1
:10285C0003473405218B6DDF83560405034724059C
:10286C00B247B3F6DB003387EB02BA969D8EC247B4
:10287C0063D5D700D24763C3F60E09476362670F6F
:10288C00E24713061B0013971600137BF60F334712
:10289C00F7026350D040050789463347D702F32629
:1028AC000080A18A89CAF326008023A4D186944093
:1028BC00DD9A739006800100010023804D01238076
:1028CC002D01010001008356C40236974207418353
:1028DC002316E40223800D00F32600809840218B00
:1028EC00558F7310078023A401860100010035BDAC
:1028FC0073270080218B09CB7327008023A4E186EA
:10290C0098405D9B731007800100010023804D01EE
:10291C0023802D01010001000347340513670702D2
:10292C00A309E404A9BD73270080218B09CB73276D
:10293C00008023A4E18698405D9B73100780010002
:10294C00010023804D0123802D010100010003476C
:10295C00340513670702A309E4047DB5E3020BF207
:10296C00F3270080A18B89CBF327008023A4F18669
:10297C009C40DD9B7390078001000100B71700405D
:10298C00130770052380E704130780FA2380E704FC
:10299C000100010003C737059376FC0F1377870FEF
:1029AC00A389E70403C73705558FA389E704238060
:1029BC000704732700809C40A18BD98F73900780EC
:1029CC0023A4018601000100B7170040130670050F
:1029DC00930580FA03C737051D8B631E872BF327DE
:1029EC000080A18B89CBF327008023A4F1869C4027
:1029FC00DD9B7390078001000100B717004013079F
:102A0C0070052380E704130780FA2380E704010094
:102A1C00010003C7370591661377F70DA389E70407
:102A2C0003C7370513670702A389E70403D7070514
:102A3C00558F2398E70403D70705A166558F239874
:102A4C00E70423800704732700809C40A18BD98F57
:102A5C007390078023A4018601000100B717004082
:102A6C0093067005130680FA03C737051377070220
:102A7C00630A07263717004083473705A18BEDDF24
:102A8C00F3270080A18B89CBF327008023A4F18648
:102A9C009C40DD9B7390078001000100B71700403C
:102AAC00130770052380E704130780FA2380E704DB
:102ABC000100010003C7370591661377F70DA38951
:102ACC00E70403C7370513670702A389E70403D795
:102ADC000705558F2398E70403D70705A166558F83
:102AEC002398E70423800704732700809C40A18B64
:102AFC00D98F7390078023A4018601000100B717BA
:102B0C00004093067005130680FA03C73705137748
:102B1C000702630107223717004083473705A18B53
:102B2C00EDFF053C2A843534E30F85FE3717004052
:102B3C00835707059166D58F2318F704834737050C
:102B4C00A18BEDDFF3270080A18B9386818689CB47
:102B5C00F327008023A4F1869C42DD9B73900780B1
:102B6C0001000100B7170040130770052380E7042C
:102B7C00130780FA2380E7040100010003C737051F
:102B8C001377F70DA389E7042380070473260080CD
:102B9C009842218B518F7310078023A4018601006A
:102BAC00010003D7070503C627059167FD177D8F25
:102BBC00B387C70237460F0013060624B3C9C902F0
:102BCC003E978567938707FAB3978701B3893703D5
:102BDC0093070010B3C9F9029307800C8E09B3094F
:102BEC0037410547331C8701135C3C40B30A5C0337
:102BFC00130C60553D67130707A6B38A8A03B3CA43
:102C0C00EA02B387F902B3C75703635D3017850730
:102C1C000947B3C7E702960773270080218B09CBBE
:102C2C007327008023A4E18698425D9B7310078074
:102C3C000100010037170040130670052300C7047C
:102C4C00130680FA2300C704010001000356C702D3
:102C5C00B297C207C1832316F70223000704732718
:102C6C0000809C42A18BD98F7390078023A401868E
:102C7C0001000100F6406644D6444649B649264A4E
:102C8C00964A064BF25B625CD25C425DB25D25619A
:102C9C0082807D1711B173270080218B09CB73279C
:102CAC00008023A4E18698405D9B7310078001008F
:102CBC0001002380C7042380B7040100010003C76F
:102CCC003705558FA389E7042380070473250080FB
:102CDC009840218B498F7310078023A40186010033
:102CEC000100CDB973270080218B09CB732700809D
:102CFC0023A4E18698405D9B7310078001000100BE
:102D0C002380D7042380C7040100010003C73705C3
:102D1C0013670702A389E70423800704F3250080C7
:102D2C009840218B4D8F7310078023A401860100DE
:102D3C0001001DBB73270080218B09CB73270080FA
:102D4C0023A4E18698405D9B73100780010001006D
:102D5C002380D7042380C7040100010003C7370573
:102D6C0013670702A389E70423800704F325008077
:102D7C009840218B4D8F7310078023A4018601008E
:102D8C00010061B3FD1769B5914763EEB7021727D0
:102D9C0002001307A7458A05BA959C41BA9782870A
:102DAC00B717004003A7470B1345F5FF698F23AAFC
:102DBC00E70A03A7070B698F23A8E70A03A7070AEB
:102DCC00798D23A0A70A8280B717004083A6470BF2
:102DDC001347F5FFF98E23AAD70A83A6070B558D47
:102DEC0023A8A70A83A6070A758F23A0E70A828067
:102DFC00B717004003A7470B498F23AAE70A03A77D
:102E0C00070B1345F5FF45BFB717004083A6470BCB
:102E1C001347F5FF758F23AAE70A03A7070A598DF5
:102E2C004DB7B717004003A7470B498FEDB7914734
:102E3C0063EEB702172702001307873C8A05BA9581
:102E4C009C41BA978287B717004003A7470D1345DB
:102E5C00F5FF698F23AAE70C03A7070D698F23A839
:102E6C00E70C03A7070C798D23A0A70C8280B7175A
:102E7C00004083A6470D1347F5FFF98E23AAD70C04
:102E8C0083A6070D558D23A8A70C83A6070C758F59
:102E9C0023A0E70C8280B717004003A7470D498F8A
:102EAC0023AAE70C03A7070D1345F5FF45BFB7177A
:102EBC00004083A6470D1347F5FF758F23AAE70C37
:102ECC0003A7070C598D4DB7B717004003A7470D43
:102EDC00498FEDB7931705010547C1836382E5045C
:102EEC008DC10947638DE5040D476380E5063717EF
:102EFC000040231EF70883560709D58F2318F708BF
:102F0C008280371700400356470993C6F7FFF18EAE
:102F1C00231AD7088326C70A558D2326A70AC1BFB3
:102F2C00371700400356470993C6F7FFF18E231A53
:102F3C00D7088326870A558D2324A70A4DBF371738
:102F4C00004083564709DD8EE1B7371700408356A2
:102F5C004709DD8EE9BF9357E50093F70730C98F1A
:102F6C00C2070547C1836382E5048DC10947638DA0
:102F7C00E5040D476380E50637170040231FF7086B
:102F8C0083562709D58F2319F708828037170040FD
:102F9C000356670993C6F7FFF18E231BD7088326C8
:102FAC00C70C558D2326A70CC1BF371700400356FD
:102FBC00670993C6F7FFF18E231BD7088326870C6E
:102FCC00558D2324A70C4DBF371700408356670936
:102FDC00DD8EE1B73717004083566709DD8EE9BFF8
:102FEC00B717004003D5870042054181937705044C
:102FFC0091EB9377F5013755E801130505803345BF
:10300C00F50282809377050C130700046397E700A1
:10301C009377F50137459C1CCDB72165130505D079
:10302C00828037E700E01C435443A183E206D58F2E
:10303C001CC1FD572320F7182322F7188280131781
:10304C008500B7E700E023A0E710618123A2A71059
:10305C008280B7F700E08847CC478280B7170040E2
:10306C0083C7670493F7F70F93E6470019E193F6CC
:10307C00B70FF3270080A18B1387818689CBF327A9
:10308C00008023A4F1861C43DD9B73900780010014
:10309C000100B7170040130670052380C704130600
:1030AC0080FA2380C704010001002383D704238006
:1030BC000704F32600801C43A18BD58F73900780E7
:1030CC0023A40186010001008280B717004083C74A
:1030DC00670493F7F70F93E6270019E193F6D70FE0
:1030EC00F3270080A18B1387818689CBF32700807F
:1030FC0023A4F1861C43DD9B739007800100010023
:10310C00B7170040130670052380C704130680FA16
:10311C002380C704010001002383D7042380070404
:10312C00F32600801C43A18BD58F7390078023A4BA
:10313C000186010001008280814737370040A1469B
:10314C0063C4C700328582800345B740E38EA6FE78
:10315C003385F5000345050085072304A740CDB74B
:10316C00411122C406C62A84A53D2947B307E502AE
:10317C00B2408D83B3D7870222449507B3D7E702B9
:10318C0037370040C207C1832316F7004101828004
:10319C00716541111305052006C6D937B7370040B4
:1031AC00130770F82381E7000D47A381E70013078D
:1031BC000004A380E70005472387E700B2404101E4
:1031CC00828037370040834727001A0593F7F703AF
:1031DC00C98F93F7F70F2301F7008280B7370040B0
:1031EC0003C7170019C9D98DA380B70003C70700FF
:1031FC00136787002380E700828093C5F5FFF98D64
:10320C00A380B7008280411122C406C62A84C93B20
:10321C002947B307E502B2408D83B3D78702224416
:10322C009507B3D7E70237370040C207C18323168F
:10323C00F74041018280716541111305052006C6D6
:10324C00D937B7370040130770F82381E7400D4793
:10325C00A381E74013070004A380E74005472387B9
:10326C00E740B24041018280373700408347274016
:10327C001A0593F7F703C98F93F7F70F2301F7405C
:10328C008280B737004003C7174019C9D98DA38076
:10329C00B74003C70740136787002380E74082804D
:1032AC0093C5F5FFF98DA380B7408280411122C4EC
:1032BC0006C62A8435332947B307E502B2408D830D
:1032CC00B3D7870222449507B3D7E70237470040AC
:1032DC00C207C1832316F7C0410182807165411179
:1032EC001305052006C6D937B7470040130770F8F9
:1032FC002381E7C00D47A381E7C013070004A38017
:10330C00E7C005472387E7C0B240410182803747B9
:10331C000040834727C01A0593F7F703C98F93F72B
:10332C00F70F2301F7C08280B747004003C717C0CF
:10333C0019C9D98DA380B7C003C707C0136787000D
:10334C002380E7C0828093C5F5FFF98DA380B7C0B9
:10335C008280CC41411106C6328503C6150083C557
:10336C00050022064D8E42068D654186138875A296
:10337C00630C060F6348C804138845A26306060B4A
:10338C00634AC800938535A26309B60623900600EC
:10339C00294679A0138855A26308060B938565A26C
:1033AC00E316B6FEC1451D4663ECE5064546198E8F
:1033BC0063F3C7003E862390C600972502009385D1
:1033CC0065E689A8138895A26300060F634E060B69
:1033DC001388A5A2630A060F938505A5E318B6FA10
:1033EC0099451D4663EEE502198E63F3C7003E86D0
:1033FC002390C6009385818031A89D451D4663E1CD
:10340C00E5022146198E63F3C7003E862390C60061
:10341C009385C186BA9597D0FF1FE780C06E014691
:10342C00B240328541018280AD451D46E3EAE5FE9E
:10343C003146198E63F3C7003E862390C60097254C
:10344C0002009385E5E1F9B7B1451D46E3EAE5FCD9
:10345C003546198E63F3C7003E862390C600972528
:10346C0002009385E5E07DB7C1451D46E3EAE5FA28
:10347C004546198E63F3C7003E862390C6009725F8
:10348C000200938565DB79B7C1451D46E3EAE5F893
:10349C004546198E63F3C7003E862390C6009725D8
:1034AC0002009385E5DDBDB7C1451D46E3EAE5F6AF
:1034BC004546198E63F3C7003E862390C6009725B8
:1034CC0002009385A5D8B9B7B5451D46E3EAE5F4E6
:1034DC003946198E63F3C7003E862390C6009725A4
:1034EC000200938525D33DB797F6FF1F938646E1DF
:1034FC004146CD4517F5FF1F130585CD6F80F07341
:10350C0011456FF08F86411193962500AA852D45A4
:10351C0006C697D0FF1FE7806028B24001454101E5
:10352C008280411126C29394250022C44AC02A8469
:10353C003289A686AA850146254506C697D0FF1F67
:10354C00E780C025A6864A86A285294597D0FF1F0D
:10355C00E780C024B2402244924402490145410113
:10356C008280011122CC06CE3714004026CA4AC8EC
:10357C004EC652C483447405034AB405834984057A
:10358C0003499405EFE03FDA8347A40593F4F40F65
:10359C00137AFA0F93E71700230DF40493F9F90F3C
:1035AC001379F90FB717004003C7A705058B6DFFFB
:1035BC0003D5C705A38D4705238C3705A38C270599
:1035CC00A38B9704F2406244D2444249B249224A46
:1035DC000561828041119397050122C406C6C187FB
:1035EC002E8463DD0700EF10203619C1EF10A02EDA
:1035FC002165218DB24022444101828093F7150050
:10360C0013C51500E5FB9397250163D00702EF2046
:10361C002125FD3537F60200130606E0896503C542
:10362C004187EF10607E0965E9B793971501014555
:10363C00E3D207FC17250200130545CAEF004259D7
:10364C0013060064916503C54187EF10E07B11659B
:10365C004DB71D714946972502009385A5C31725C3
:10366C0002001305651286CE97D0FF1FE780A0528B
:10367C0001E917250200130525C3EF00625501A0CF
:10368C00B7F600E0795798CAFD57DCCA0567B7E76B
:10369C0000E023A0E7101306F00290C223A0E71865
:1036AC00010001001306C0038145480897D0FF1F95
:1036BC00E780E04897070020938747D73ECA896781
:1036CC0093870780231CF100B5472304F102A167FF
:1036DC00938707E03ECEB7070105938707103ED0CE
:1036EC00D1472312F10285472303F102970700000B
:1036FC009387A7E1BEC4970700009387C7E2BEC6B5
:10370C008567938717D02315F102970700009387DD
:10371C0087943EDAB7F50700970700009387A7E474
:10372C003EDE8146970700009387C7DD7000E105F8
:10373C001945BEC097D0FF1FE78040065808814747
:10374C00994670003E960346060085070507A30CB4
:10375C00C700E398D7FED24791C70357810185670D
:10376C006373F70001A04808EF10D043AA8501C984
:10377C0017250200130585B4EF00E23301A0F640D3
:10378C00256182804111170500001305E5E406C68A
:10379C0022C4EF10703D138441872300A400292814
:1037AC00034504002244B24037F60200130606E03B
:1037BC00896541016F104065411106C6F3270080F1
:1037CC00A18B1387818689CBF327008023A4F186F4
:1037DC001C43DD9B7390078001000100B71700406C
:1037EC00930670052380D704930680FA2380D704B0
:1037FC000100010083C6F70293F6A60FA387D70238
:10380C0023800704F32600801C43A18BD58F739073
:10381C00078023A4018601000100F3270080A18BFF
:10382C0089CBF327008023A4F1861C43DD9B739086
:10383C00078001000100B717004093067005238034
:10384C00D704930680FA2380D7040100010083C6B5
:10385C00F70293E62600A387D70223800704F326FA
:10386C0000801C43A18BD58F7390078023A4018605
:10387C000100010071311305407E814701478146EB
:10388C0005468545EFE0BFACB240014541016F10E4
:10389C001066797126D206D622D44AD04ECE52CC9E
:1038AC0003C88500A144137808026311080683C875
:1038BC00050009482E848144639A080503A8450035
:1038CC00AA89328A83471800034808003689A20760
:1038DC00B3E70701C2070D68C187130828906380FE
:1038EC00070581440357A40097F7FF1F83D7A7A7A9
:1038FC00631EF7009387C1879C4389CB0D473AC25F
:10390C002316210152C44C004E858297B25022548A
:10391C00268502599254F249624A45618280854754
:10392C00EF60B073AA845DFD9387C187984355DB24
:10393C0083471A0083460A004C00A207D58FB33781
:10394C00F00085073EC24E85029769BF011117250D
:10395C0002001305E59822CC2EC6328436C406CE5E
:10396C00EF000227B2458947A24603C6050063193A
:10397C00F602D8418347170003470700A207D98FE7
:10398C00C2070D67C18713072790639BE700CC45DF
:10399C002390C6002285094697D0FF1FE780A0160A
:1039AC00F240624401450561828041677917630CDE
:1039BC00E502411122C406C685472A84639AF500A4
:1039CC0022852244B2409385019941016F80D03108
:1039DC0089476396F5008545EFA0D06C75D1B24050
:1039EC002244410182808280411126C2AA84416511
:1039FC00938501997D1506C622C4EF80F02E17051C
:103A0C0000001305C5FAEFA0306197F6FF1F9386EF
:103A1C00E6954146994517F5FF1F1305258FEF8055
:103A2C00D0212A8419C5172502001305258CEF0017
:103A3C00221A2285B240224423AE9186924441013F
:103A4C00828041119385019906C6EF60D05BB2402C
:103A5C007D151335150041018280411122C42E843D
:103A6C009385019926C206C6AA84EF60D0590589B0
:103A7C0015C197F7FF1F9387678983D7A702A28584
:103A8C00B2402310F40022442685924401464101A1
:103A9C006F705034B24022449244494541018280B7
:103AAC0083572500035505003385A7404205418106
:103ABC008280AA8705C21307F6FFB376C7000545B7
:103ACC0099EA23A00700CCC32394C7002395E700F1
:103ADC000145828005458280232005008280AA87CB
:103AEC001145B5C72DC683D6070003D787000D45F2
:103AFC00369783D62700158F4207418329CB014582
:103B0C00B9C5835606006373D700BA86C206C18254
:103B1C0001471315070141816366D5002310D600B8
:103B2C00014582803385E5008348050003D8A70052
:103B3C0003D52700050733780501C84342952300B8
:103B4C00150103D5270005052391A700D9B782805D
:103B5C00AA871145B1CF29CE83D6070003D72700FA
:103B6C00158F83560600420741836373D700BA86CC
:103B7C00C206C18209450DCF01476366D7002310E9
:103B8C00D6000145828003D5070003D8A7003378FF
:103B9C000501C8434295034805003385E500050738
:103BAC002300050103D5070005052390A700F1B7F5
:103BBC00828029C50357050083572500998F3E87BE
:103BCC00C207C1836373F600328742074183814782
:103BDC0063E4E70001458280835605000356A50087
:103BEC008507758E5441B29683C606002380D50096
:103BFC008356050085062310D500D9BF1145828058
:103C0C000111680006CEEFF0CFC183C7A18889CB24
:103C1C000946C14503C54182EF10001F2385018869
:103C2C003245EFF0CFC1B745004083C7B5C01D4743
:103C3C00636DF70083C7B5C02146938585C01D8E83
:103C4C00420641821385C13AAD37F240056182804C
:103C5C004111130600209385C11A1385C13A06C67B
:103C6C0022C4813D05661306068097F5FF1F9385D8
:103C7C0025A31385011A353D371400408327840A88
:103C8C008D451305000293E707022324F40AEFF095
:103C9C00AF8F8327840A8545414593E70701232489
:103CAC00F40AEFF06F8EEFF06FE395450545EFF0FA
:103CBC00AFE7B7E700E011471385813B23A2E7107C
:103CCC00EF0070222244B2401385415D41016F0028
:103CDC00902101112317B1001306E100AA85138569
:103CEC00C13A06CEED3BF240056182805D719307CF
:103CFC00F5FFA2C486C693F7F70F154736846364A5
:103D0C00F71E17170200130767608A07BA979C43C0
:103D1C00BA9782879D476318F60683C7150003C7B9
:103D2C00050023060100A207D98F2391F18283C7D6
:103D3C0025009386414C0546A380F18283C735004C
:103D4C00130510082380F18283C74500A383F188F3
:103D5C0083C755002384F18883C765006C00A38456
:103D6C00F18813070010EF00502C635AA000931534
:103D7C000501C181630F04161385414C993FB64070
:103D8C002644616182808567938717C02316F100F2
:103D9C00130700109386414C09466C001305F00F75
:103DAC00D9B7B717FA00938747CE23AEF180130724
:103DBC0000109386414C2146938581811305200880
:103DCC005DB78D476319F60283C705009386414C96
:103DDC0005462381F18883C7250003C715002306F8
:103DEC000100A207D98F2392F188130700106C00F1
:103DFC00130530088DBF8567938737C041BF954742
:103E0C002306F100130700109386414C05466C0005
:103E1C001305400889BF13878181B7077B003EC615
:103E2C0083570700230C0100230D01002318F10018
:103E3C009387418883D70700230E0100230F0100CD
:103E4C002319F1009387218883C7070023000102FF
:103E5C009386414C230AF10083D72182A30AF100F7
:103E6C00A183230BF10083C71182A30BF10083C73D
:103E7C000182A30CF10083C77188A30DF10083C7E5
:103E8C008188A30EF10083C79188A30FF1005C43D6
:103E9C00654613070010A300F102A1832301F10270
:103EAC0083D7E181A301F102A1832302F1026C000B
:103EBC00130550084DBD9307800278002316F100BE
:103ECC00BA858147930680022301F7008507050711
:103EDC00E39CD7FE130700109386414C1306A002F7
:103EEC001305600849B5B9472306A100A306F100E4
:103EFC0045B52316B10070009385414C1385011A0A
:103F0C00F93E0946C14503C54182EF00F06F85BDFE
:103F1C009C41397106DE22DC26DA4AD84ED652D4C0
:103F2C0056D25AD05ECE0947638AE7020D47638D9D
:103F3C00E70205476399E700AA85171502001305E8
:103F4C00653EEFF05137F2506254D2544259B25997
:103F5C00225A925A025BF24B21618280AA85171574
:103F6C0002001305653EF1BF2E8483D5850017151D
:103F7C0002001305A53F8564EFF0F133138A813BF2
:103F8C008329440003598400854A0144938404C066
:103F9C00138B414C938BB13B93170401C183E3F416
:103FAC0027FBB387890083C507001385813BEF008E
:103FBC00A0756310550303C6E14B03C5D14B814576
:103FCC0011C2DE8585461D335285EF000073050452
:103FDC00E1B7FD57E31DF5FE130700109386414C26
:103FEC0009466C001305F00F23169100EF00F00347
:103FFC00E35FA0FC2317A1001306E100DA8513850B
:10400C00011AF13C0946C14503C54182EF00D05F5E
:10401C007DBF411185451305001006C622C4EFE093
:10402C00BFD68D4513050020EFE01FD605641305A0
:10403C0004808545EFE0BFDF130504808945EFE080
:10404C009FF18D4513050040EFE07FDE37140040F3
:10405C008327C40C8D451305000893E707402326DE
:10406C00F40CEFE0DFDC85454145EFE05FDC854596
:10407C004145EFE07FD18D4513050002EFE0DFD025
:10408C0085452165EFE05FD089452165EFE09FE430
:10409C008D451165EFE05FCF8327840A11678D454D
:1040AC00D98F2324F40A0965EFE01FCE8327C40AB5
:1040BC000967B240D98F2326F40A2244814505654D
:1040CC0041016FE07FCC411106C622C4EFF0AF96E0
:1040DC00716413050420EFF00F930D45EFF0CF98AA
:1040EC0085450545EFF0EF99EFF08F8A1305042015
:1040FC00EFF00F870D45EFF0CF8C85450545EFF0C0
:10410C00EF8DEFF0AF9D13050420EFF02F9A0D45C6
:10411C00EFF0EF9F2244B2408545054541016FF019
:10412C00AFA041111305800406C697C0FF1FE7809E
:10413C00C0F5C535493F930780087390078001008F
:10414C000100B71700400545A3810704EFE0FFF716
:10415C00B240054541016FE07FF02A86B305B040BF
:10416C00171502001305052C6FF0F11483D7418A43
:10417C006390A7022393B18A2394C18A2395D18A91
:10418C002E861715020013056526BE856FF0B11239
:10419C0017150200130505276FF0912303574500EF
:1041AC00011106CE83D7418A6315F702C167F9174F
:1041BC0023A2F18A23A4018A85471306F1008545C1
:1041CC0013055030A307F100EF708112F240056126
:1041DC008280171502001305651DEFF0711FFDB7E6
:1041EC0041119397050122C406C626C24AC0C18755
:1041FC002E8463D1070203C54182EF00E07419C11C
:10420C00EF00606D2165218DB24022449244024939
:10421C004101828093F7150091CF17E6FF1F13061B
:10422C00A6159385017203C54182EF60B158134501
:10423C001400D9BF93F7850099CF83C74182130728
:10424C00400681465146A14503D5418AEF60F14FA6
:10425C001345840055BF93F705010145D5D79387C6
:10426C0001839C4385446389970081C70D49637D15
:10427C00F9101345040149BF03D5418AEFF06FFCD7
:10428C0003D7418A11E9C167F917E314F7FE1385C7
:10429C00011AEFF07F84F1BF3A85EF10705C751551
:1042AC002396A18A1385011AEFF08FFF83D7C18A59
:1042BC00636FF5081385011AEFF08FFEAA851715A9
:1042CC0002001305250FEFF0017F1386C18A938539
:1042DC00415C1385011AEFF0BF871375F50F23A806
:1042EC00018841F903D6C18A01478146ED4503D5C2
:1042FC00418A239FC188EF60600B23A0A18A6300D1
:10430C00050E03D6E1899385415C97C0FF1FE780BA
:10431C00807F9385C189014603D5418AEFF0EFF385
:10432C00AA8529CD171502001305C50AEFF0A1784F
:10433C008D4723A8F182ED451385C189EF60C01E1E
:10434C000946C14503C54182EF00102C1DB793846B
:10435C0001899840A947E3EAE7F61146C14503C530
:10436C004182EF00702A9C40171502001305850549
:10437C00850723A8F188EFF0B105E5BD854723A893
:10438C00F1822396018A6DBF03D6C18A014781460B
:10439C00ED4503D5418A239FC188EF60200123A0FE
:1043AC00A18A15CD03D6E1899385415C97C0FF1F87
:1043BC00E78060759385C189014603D5418AEFF08A
:1043CC00CFE9AA8511C91715020013056501EFF095
:1043DC00816E23A8218385B723A891825DB7894775
:1043EC0023A8F182B1BF3D897D15954763E2A712E1
:1043FC0017170200130707F90A053A951C414111DA
:10440C0022C406C6BA972E8482871715020013059C
:10441C00E5022244B24041016FF0817B03C72500C5
:10442C0099476314F7002E85953B17150200130569
:10443C00E501C5B703C7250095476317F70CC1679E
:10444C0003D7418AF91703D5A500630FF700EF7066
:10445C00011C1715020013056500EFF061771715A5
:10446C0002001305250275B72392A18A83D7E500B4
:10447C000966130606902393F18A83D7050103C5B9
:10448C0041822394F18A83D72501A1452395F18A92
:10449C00EF0090170356E4008355A4001715020093
:1044AC00130505FDEFF021615DBF17150200130523
:1044BC0025FE85B783C5250091476397F500171531
:1044CC000200130565FEB1B79947639FF50022857D
:1044DC00F13183456400171502001305A5FE224433
:1044EC00B24041016FF0215D9547639AF500834717
:1044FC001400F1F717150200130585FE19BF1715E7
:10450C000200130565FEE1BFB240224441018280E6
:10451C0082807971170500001305C5CC06D622D40C
:10452C0026D24AD0EF00506493844182B7F507003D
:10453C002380A40030088146E105194597C0FF1F70
:10454C00E780C0258346C1010347D1010346B10171
:10455C0097150200938585E417E5FF1F1305B5E257
:10456C00EFF0C16717E9FF1F1309C9E1CA85294696
:10457C0017E5FF1F1305A5E2EFF0814899470544A5
:10458C002319F100130611019307803E854513058D
:10459C005030231AF100A3088100EF60715517E623
:1045AC00FF1F1306A6DFD54513057030EF6051547D
:1045BC00138681829D4513056030EF60715313069D
:1045CC002101894513051031EF609152500889453E
:1045DC0013052031EF60D1514A86D5450145EF5086
:1045EC00D0139305000A0D45EF2070699305000A5E
:1045FC001145EF20D0685008914513057040A30772
:10460C00810023088100A308810002CA230901004C
:10461C00EF5031171306F100854513050040EF509C
:10462C0051161008854513051040EF5091151306CF
:10463C002101854513052040EF50B11413061101DB
:10464C00854513055040EF50D1137D55EF50501E4A
:10465C007D55EF705066EFE03FE91705000013053C
:10466C00658BEFF06FB8C1671387418AF9171CC3CC
:10467C002322070013854189EF40816803C504009C
:10468C0085451925B25022549254025945618280B5
:10469C00411106C6EFF0FFA817150200130585E5BA
:1046AC00EFF00153EFE0DF93B7450F00938505243E
:1046BC00B355B50217150200130505E5EFF0A13F40
:1046CC00171502001305450CEFF08150EFE07FF851
:1046DC00EFF04F8BEF60F1752D3DEFF06FD797C07A
:1046EC00FF1FE780E0FE41111306A010814506C6AE
:1046FC00EFD0FFB8B2404101828023100510231186
:10470C000510230405108280834725101547636626
:10471C00F71017170200130767E08A07BA979C4334
:10472C00BA9782879307A00A6384F50001458280BB
:10473C009307A0FA05472300F5002310E510230189
:10474C00E5102304F510DDB7835705101387170008
:10475C002310E510AA972380B70083478510A30286
:10476C00B510BE952304B51089472301F5107DBF04
:10477C0083570510138717002310E510AA97238081
:10478C00B700834785102303B510AE972304F510AB
:10479C0099E19147D9BF8D472301F5102302B5103C
:1047AC0071B783570510138717002310E510AA97CC
:1047BC002380B70083478510BE958347451023049B
:1047CC00B510FD1793F7F70F2302F510F9D3B9BF06
:1047DC0083570510138717002310E510AA97238021
:1047EC00B700A303B510954749B783570510138736
:1047FC0017002310E510AA972380B70093075005E4
:10480C00639DF50003477510834785106317F70008
:10481C008547A301F510054582802310051023114F
:10482C000510230405107D558280011152C406CE5B
:10483C0022CC26CA4AC84EC6130A4600635CEA0656
:10484C001379F60F9307A0FAA380A6001305A5FA17
:10485C00238126012380F6002A993284B6841379A9
:10486C00F90F09CEAE8999C913853600EFF04119BD
:10487C00814713970701418363658702B3878400DF
:10488C00A3812701D294930750052380F4001305CC
:10489C005400F2406244D2444249B249224A056172
:1048AC0082803387F9000347070085073A9913790B
:1048BC00F90FC1B77D55F1BF23AC05FE1C4191E743
:1048CC00010001000CC18280BA8703A787FF6DFF2E
:1048DC0023ACB7FE82801DC18346E5FF1307F00FA2
:1048EC009147639EE600411106C697D0FF1FE780F3
:1048FC00A00CB24081473E854101828095473E85A0
:10490C00828001E9014582800145B2402244410187
:10491C00828095654111938505D022C4C98D2A8466
:10492C002105C2054205C181418106C697D0FF1FF2
:10493C00E78060FB71D9FD57232005002312850009
:10494C002303F5002105D1B7170700201307C73241
:10495C001C43411122C426C24AC006C60144014967
:10496C00BA8489E7A165D1251DC401A803C7E7FF57
:10497C00631AA7020DCCA165012E9840832784FFF2
:10498C006319E402170700202328F72EFD57232C68
:10499C0004FE230FF4FE2285B240224492440249C5
:1049AC004101828011E03E8983A787FF5DBF3E8471
:1049BC00E5BF232CF9FED9BFB1CD411122C406C6E7
:1049CC002A849707002083C7772B2E856375F40004
:1049DC00894763E8870001370D45B2402244410105
:1049EC00828083A785FF99E703C7E5FF9307F00F44
:1049FC006305F700CD351545CDB7238F85FE17051B
:104A0C000020130565274D3D22852244B240A16547
:104A1C0041019DAC154582809707002023AE0724E9
:104A2C008280970700209387A72A9C4399E33E85B1
:104A3C00828003D727006316B70003C70700E3087B
:104A4C00A7FEDC47E5B7C9C1797122D406D626D2B8
:104A5C004AD04ECE01444147B3D78540858BA5C380
:104A6C001205314722953305E502970700209387FD
:104A7C00272A03A907008544B3948400C204C1808B
:104A8C00BE892A990327090011C7032549002EC6A0
:104A9C000297B24531473304E40283A709003E94E0
:104AAC001C4489E72320090023220900B250225418
:104ABC00A58D02599254F2492E85456182800504D8
:104ACC00E31CE4F88144DDB72E85828041111397F5
:104ADC00050122C406C626C24AC041872E84635EE5
:104AEC0007009D3511C1C53BA1673D8C2285B240A5
:104AFC0022449244024941018280EDD9AA870147A0
:104B0C004146B356E440858A8DCE9207BA97B1469A
:104B1C00B387D702970600209386861F03A9060049
:104B2C008544B394E400C204C1803E9983270900F4
:104B3C000325490082972320090023220900258C94
:104B4C0075B70507E31FC7FA8144D5BF9707002047
:104B5C00938747189C53411122C406C61384418382
:104B6C0099C782971C403E9523AAA18239A097072A
:104B7C000020938767159C43EDF70840B747030067
:104B8C009387D73F3305F502B7A72600938737ECF9
:104B9C00B24022443E9523AAA182410182807DC16C
:104BAC0097070020938747129C43797122D426D211
:104BBC004AD04ECE52CC56CA5AC806D65EC63A8A8F
:104BCC00B689328BAE8A2A89829797070020938701
:104BDC0027149843BE840144B146C147B30BD40299
:104BEC0033067701104251EAC165938505F04145C2
:104BFC0097D0FF1FE78020CF1DE5970700209387F4
:104C0C00670D9C5B2D4589C71145814582972D45C4
:104C1C00B250225492540259F249624AD24A424B3F
:104C2C00B24B45618280970700209387670A9843AF
:104C3C0029E39707002023ADA708230005009C401B
:104C4C00054733178700232605002324650123110C
:104C5C00E50023224501DE9723A0270123A257015B
:104C6C0023A447010145E38509FA238089004DB748
:104C7C003E875C47F5FF48C7C9B70504E310F4F657
:104C8C00214579B7094582809707002083C717FF14
:104C9C006371F502170700201307470393171500DC
:104CAC0008433E9583570500DD8D2310B500014563
:104CBC0082800D4582809707002083C737FC637381
:104CCC00F502170700201307670093171500084318
:104CDC0093C5F5FF3E9583570500FD8D2310B50058
:104CEC00014582800D458280130705FF1377F70F6E
:104CFC00FD4763E9E70AB146B306D50297070020E2
:104D0C0093870701984389473697184349CF011178
:104D1C0022CC4EC60544935945003D893315A40059
:104D2C0013140501418026CA4E85AE84A2854AC85B
:104D3C0006CEC5392A89814731CDA2854E85A53F3E
:104D4C0097070020938747F89C438297970700208A
:104D5C0083D707FD338797022A84814613060064A4
:104D6C00B3B7970213050732B335E500BE95EFE0F4
:104D7C00B10FB3078500970600209386E6F93E87AE
:104D8C00D44263E4A70063E4D7003387D7402324DD
:104D9C00E9008147F2406244D2444249B2493E851F
:104DAC000561828089473E858280011126CA06CE24
:104DBC0022CC4AC84EC6BD47894463EFA70231478F
:104DCC003307E50297070020938787F49C438944B7
:104DDC00BA979C4395C305443314A4004204418004
:104DEC002E890145A2853539AA89814411C5A28530
:104DFC000145D13523A42901F2406244268542495C
:104E0C00D244B249056182809707002083C717E717
:104E1C006364F50001458280011197070020938798
:104E2C00A7EA56C283AA070006CE22CC26CA4AC8D5
:104E3C004EC652C4638D0A0A170A0020130ACAED23
:104E4C0083244A00B74736FE938707C8AE89970577
:104E5C00002083D5E5ECBE94B387C5022A84328941
:104E6C008146B3B5C50213850732B337F500130677
:104E7C000064BE95EFE0417F63EBA406829A970530
:104E8C00002083D5E5E9B3872503AA8413060064C3
:104E9C008146B3B5250313850732B337F500BE95AC
:104EAC00EFE0817CB3079500BE8403274A0063E4DE
:104EBC00A70063E4E700B384E740CE8522859536EE
:104ECC0001C504C505452DA0936504F0C205C1813B
:104EDC00414597D0FF1FE78000A105E5970700200B
:104EEC00938747DF9C5B81C7A2851145829701455B
:104EFC00F2406244D2444249B249224A924A056184
:104F0C008280970700209387A7DC9C439DE397073B
:104F1C00002023AFA7DA85472326050004C52311FB
:104F2C00350123008500A300F5002322050059BF9D
:104F3C00BA87D84775FFC8C7F9BF59C9797122D448
:104F4C0026D24AD04ECE52CC56CA5EC662C466C277
:104F5C0006D65AC83689328AAE89AA844144314C65
:104F6C00970A0020938ACADA854C930B0003330B03
:104F7C00840303A70A005A971C43B1E79375F40006
:104F8C00B395BC0013554440C2055286C1811375BC
:104F9C00F50F9D3D0DC983A70A000145DA9784C31F
:104FAC0023A237016304090023008900B250225464
:104FBC0092540259F249624AD24A424BB24B224CA9
:104FCC00924C456182800504E31374FB2145F9BFC3
:104FDC0009458280411122C426C24AC006C62A84D1
:104FEC002E89B2841535CA852285EFF09FA305CD95
:104FFC009705002083D5C5D2B38795022A84130662
:10500C0000648146B3B5950213850732B337F500BA
:10501C00BE95EFE0616548C00145B2402244924420
:10502C000249410182802145CDBF411122C426C2D3
:10503C004AC006C62A892E84EFF0BF9EAA8419C1E5
:10504C0023110500A2854A85BD319707002083C72F
:10505C00E7C2639B27019707002083D7A7C65D8C07
:10506C0097070020239087C6014591E01945B2406F
:10507C00224492440249410182809307F00263E882
:10508C00A7044111B14722C43304F50226C2970488
:10509C0000209384E4C79C4006C6A2979843894796
:1050AC000DC39377F5008545B395F500C205C18115
:1050BC001181A53F9C40A29723A0070023A20700C3
:1050CC008147B240224492443E8541018280894707
:1050DC003E858280411106C622C4EFF09F9411E5F3
:1050EC000145B240224441018280970700209387FA
:1050FC00A7BD9C4300458297970700209387C7C1A3
:10510C006368A402D843B74636FE938606C83305B7
:10511C00A4403697E376E5FC13070064B335E5024B
:10512C0003D6870081463305E502EFE0E15355BF16
:10513C00D8433A94C1BF411122C426C2170400209F
:10514C00130484BD97040020938444B394485840BE
:10515C0097070020938747B706C69C436393E608DE
:10516C0082975440B74736FE938707C8B697338764
:10517C00A7003A856364F7006364D7003305D74012
:10518C0097040020938444D29C4C81CF9707002035
:10519C00938787D894433707CDFF7D179C46F98FAB
:1051AC009CC611E14840970700209387A7B2DC53B7
:1051BC00829719E59C4C8DC3EF001101EFF0F06361
:1051CC009C4C99CB97070020938707D59843B7063B
:1051DC0033001C47D58F1CC7B24022449244410176
:1051EC008280829798489707002083C7F7AF544076
:1051FC001D8FB307A7003E8563E4E700E3E2D7F811
:10520C003385D740B5BF411106C69707002023A3AD
:10521C00A7B00295B2409707002023ADA7A6014581
:10522C0041018280994763E9B7008A0597070020FE
:10523C00938787A7BE9588C18280411171468145AD
:10524C0017050020130545A606C69707002023A1C5
:10525C0007A89707002023AF07AA9707002023A5CC
:10526C0007A697C0FF1FE780808D1306800281453B
:10527C0017050020130585A097C0FF1FE780208C21
:10528C00EF60E1449707002083C737A613D52700AA
:10529C008D8B3E958D473305F50285453905137584
:1052AC00F50F97070020238CA79C99473305F5022F
:1052BC001305052497C0FF1FE780E0621707002045
:1052CC002328A7A459CD9947170600200346269BEF
:1052DC003306F60281451306062497C0FF1FE780AC
:1052EC000086970700209387A7A29C4393870724E7
:1052FC00170700202328F79A170700200347279841
:10530C000A07BA97170700202322F79CEFF0CFF07B
:10531C000523970700209387E7989443970700206D
:10532C0083C7D79513972700369717F6FFFF1306F9
:10533C00C67110C3138717001377F70F0A07369738
:10534C0017F6FFFF1306C67810C3138737008907BB
:10535C0093F7F70F8A0797050020A381E592B6977C
:10536C0090C3B240410182809707002083C71791F8
:10537C00170700200347A79063F3E70217070020E5
:10538C001307479218439386170017060020A307AC
:10539C00D68E93962700369708C33E858280930756
:1053AC00F00FE5BF1C41638A071641777D8FB70666
:1053BC00002089476314D71603574500630007166E
:1053CC00411122C419462A849305F00F690506C6BB
:1053DC0097C0FF1FE780C08005478D47630AE51221
:1053EC001C4481CB5858994763040712185C63011D
:1053FC0007121306C0038145170500201305858D80
:10540C0097B0FF1FE780A0731306C003A285170592
:10541C0000201305258C97B0FF1FE780C06E17077F
:10542C0000200357E78B970700209387A78A19E77B
:10543C0013070010970600202394E68A1707002014
:10544C000347278A11E7054797060020238BE68838
:10545C00170700200357078911E76D4797060020AF
:10546C002392E688170700200347B78711E71547F3
:10547C0097060020A387E686170700200347A78618
:10548C0011E7054797060020238FE68417070020B5
:10549C000347778519E703C7F70097060020A38415
:1054AC00E684170700200347278411E73547970642
:1054BC000020238BE682170700200347378319E768
:1054CC001307800297060020A382E68217070020AC
:1054DC000347978119E71307D00297060020A3858D
:1054EC00E6800347840119E71307C00397F6FF1FF3
:1054FC00238EE67E9C5791C7829797F7FF1F2393C5
:10550C00A778FD5717070020A30AF7A63D3381475C
:10551C00B24022443E854101828089473E8582808B
:10552C0001114EC697F9FF1F9389097F83A70900C4
:10553C0006CE22CC26CA4AC852C4829713090064EC
:10554C00B335250303DA89008146528633052503DA
:10555C00EFE0811197F7FF1F93874772804FAA8462
:10556C0001456306940233858440636E940003A561
:10557C00490052868146B335A9023305A902EFE0F2
:10558C00A10E018D269597F7FF1F23A59770F2406A
:10559C006244D2444249B249224A056182800111D7
:1055AC0022CC0A852E84414697050200938505C3BB
:1055BC0006CEEFE0E144180806043A94035504FFC4
:1055CC0097F7FF1F83D7E775F2406244AA973745D8
:1055DC000F00130505243355F5020561828097F7FA
:1055EC00FF1F83D7077451471D45637CF70279472A
:1055FC0019456378F7021307200315456373F70207
:10560C001307B0041145637EF700130740060D45E0
:10561C006379F7001307600909456374F70013B544
:10562C00B70F8280011122CC06CE2A842EC6EFF051
:10563C00EFD1B245F240818D33A5A502229562448B
:10564C001375F50F05618280011122CC06CE2A84D8
:10565C002EC6EFF0AFCFB245F240818D33A5A50237
:10566C00229562444205418105618280011122CC60
:10567C0006CE2A842EC6EFF06FCDB245F240818D56
:10568C0033B5A502229562440561828097F7FF1F0E
:10569C0093874764985739CB411122C426C206C65A
:1056AC00BE84029717F7FF1F0357C75D2A8415CBDB
:1056BC00BA876373A700AA87C207C183BA866373CC
:1056CC00E400A286C206C182958F5147635BF70046
:1056DC00DC5491C38297EF00A11897F7FF1F239317
:1056EC00875AB2402244924441018280828097F7CB
:1056FC00FF1F9387275EDC57011106CEAA8581C751
:10570C002AC68297B245C1C59C410545B5CFDC413F
:10571C00A5CF83D78500ADCB83D7A500B5C783C7ED
:10572C00C500BDE3414617F5FF1F1305E55E97B0B5
:10573C00FF1FE780403D97F7FF1F9387E75D9C4372
:10574C0017F7FF1F2322F75897F7FF1F83C7175A26
:10575C008DE79307800217F5FF1F0355655C330532
:10576C00F50237460F001306062481468145EFD01B
:10577C00B16F97F7FF1FA38BA756170500001305F2
:10578C0065DAEFF05FA80145F2400561828097F77A
:10579C00FF1F83C7875513978701618763500704E1
:1057AC0097F7FF1F23AA074E97B7FF1F9387A7787A
:1057BC0017F7FF1F2322F756FD5717F7FF1F232F4D
:1057CC00F754B7873200938727A117F7FF1F2329B8
:1057DC00F75497F7FF1F23870754B1BF13F7170030
:1057EC0005CBB7872003938707D017F7FF1F232913
:1057FC00F752B707C0A817F7FF1F2321F75297B727
:10580C00FF1F9387677617F7FF1F2327F750D1B732
:10581C00617797F6FF1F2395E65081CB93070032F3
:10582C0017F7FF1F231FF74EE9B793072003CDBFD0
:10583C00011122CC17F4FF1F1304C449084406CEEF
:10584C0026CA4AC801E90545F2406244D24442499D
:10585C00056182805C58E5DB185C75D77000854566
:10586C0082971844B247E300F7FE9305E00417F55E
:10587C00FF1F0355E54697C0FF1FE780C00617F7CB
:10588C00FF1F232DA74061D117F6FF1F0356464576
:10589C009305F00F97B0FF1FE780602A814417F93A
:1058AC00FF1F1309A93D97F7FF1F83C787430326E3
:1058BC00090263C1F402328597C0FF1FE780C00F55
:1058CC00014597F7FF1F23AB073C97F7FF1F23A951
:1058DC00073C9DBF97F5FF1F83D58540B387950285
:1058EC000844185C898185043E9508C2029765BFFF
:1058FC00011156C297FAFF1F938ACA3D83A78A00EB
:10590C0022CC4AC84EC606CE26CA52C45AC0AA8950
:10591C002E8432896385072203A74A036307071481
:10592C007D476366A71497F4FF1F9384243503AA5D
:10593C00040263170A0A9565938515E017F5FF1F96
:10594C000355053A97C0FF1FE780E0F997F7FF1F53
:10595C0023A6A7342A86630A051083A74A0303A546
:10596C008A0097F5FF1F83D5A5378981829783A776
:10597C008A0003AA040217F7FF1F2323F732894773
:10598C00639CF908C1476312F40E97F5FF1F83D58A
:10599C002535938505FC9147B3C5F5028A05D2954B
:1059AC0003C705009307A005631DF70A83C71500FD
:1059BC006399370B4A852286910597B0FF1FE780C4
:1059CC0080149C505285639347150145F240624404
:1059DC00D2444249B249224A924A024B0561828022
:1059EC00D850E38EE7F89565938525E017F5FF1FF2
:1059FC000355052F97C0FF1FE780E0EE2A8A35C5B7
:105A0C002A8683A74A0303A58A0097F5FF1F83D52F
:105A1C00252D89818297A5B78D47639DF900C147D4
:105A2C006315F40497F5FF1F83D5852B938545FDEE
:105A3C00F199B5B79147639AF9006318340397F558
:105A4C00FF1F83D5E529A115E5B7C147639FF90071
:105A5C00A14763EC870097F5FF1F83D56528C11517
:105A6C00C1BF9C5052856397470D294585B71307D5
:105A7C00F006568B6361A70A130A05FE1947334AD1
:105A8C00EA0217F7FF1F0357A72597FAFF1F938A00
:105A9C00EA1E330AEA023E9A83A74A02639547013B
:105AAC0083A40A029DE49305E00417F5FF1F035538
:105ABC00252397C0FF1FE78000E3AA845DD58327C9
:105ACC004B0397F5FF1F83D5A5212A868981528523
