:040000006F20801ECF
:100004000000000000000000900000208A0400208E
:10001400A9BDF9F5900000200000000000000000D8
:10002400900000209000002000000000000000006C
:10003400900000200000000090000020000000005C
:1000440090000020900000209000002090000020EC
:1000540090000020900000209000002090000020DC
:10006400900000209000002090000020180600203E
:100074007E050020900000209000002090000020C9
:1000840090000020900000209405002090000020A3
:1000940001A073270080218B9387818509CB732767
:1000A400008023ACE18498435D9B731007800100BA
:1000B400010037170040930670052300D704930608
:1000C40080FA2300D704010001008346B70493F6A5
:1000D400F60DA305D7042300070473260080944378
:1000E400A18AD18E7390068023AC018401000100A3
:1000F40093760502638406180347A700118B25E74E
:1001040073270080218B09CB7327008023ACE18403
:1001140098435D9B7310078001000100371700406E
:10012400930670052300D704930680FA2300D704AE
:10013400010001008346A70093E646002305D7008B
:1001440023000704F32600809843218B558F7310F6
:10015400078023AC0184010001001307004B010058
:1001640001007D176DFF73270080218B09CB732756
:10017400008023ACE18498435D9B731007800100E9
:10018400010037170040930670052300D704930637
:1001940080FA2300D704010001007D892314A700FD
:1001A400010001000100010023000704F326008080
:1001B4009843218B558F7310078023AC0184010071
:1001C400010073270080218B09CB7327008023ACA7
:1001D400E18498435D9B7310078001000100371789
:1001E4000040930670052300D704930680FA230089
:1001F400D7040100010001000100B72600401306E6
:100204001005A383C68023000704F32600809843C7
:10021400218B558F7310078023AC018401000100EA
:1002240073270080218B09CB7327008023ACE184E2
:1002340098435D9B7310078001000100371700404D
:10024400930670052300D704930680FA2300D7048D
:10025400010001008346B70493E60608A305D7040A
:1002640023000704732700809C43A18BD98F7390CC
:10027400078023AC01840100010082809376050489
:10028400638B06140347A700418B25E7732700807F
:10029400218B09CB7327008023ACE18498435D9BB9
:1002A40073100780010001003717004093067005A2
:1002B4002300D704930680FA2300D7040100010029
:1002C4008346A70093E606012305D700230007040D
:1002D400F32600809843218B558F7310078023AC3D
:1002E4000184010001001307007D010001007D1756
:1002F4006DFF73270080218B09CB7327008023AC0B
:10030400E18498435D9B7310078001000100371757
:100314000040930670052300D704930680FA230057
:10032400D704010001009376F50193E60604231433
:10033400D700010001000100010023000704F32697
:1003440000809843218B558F7310078023AC018460
:1003540001000100130760046310E50473270080A3
:10036400218B09CB7327008023ACE18498435D9BE8
:1003740073100780010001003717004093067005D1
:100384002300D704930680FA2300D7040100010058
:10039400B72600400946B5B573270080218B09CBE9
:1003A4007327008023ACE18498435D9B731007801E
:1003B4000100010037170040930670052300D7049D
:1003C400930680FA2300D70401000100B7260040F9
:1003D400130620053DB573270080218B09CB7327B5
:1003E400008023ACE18498435D9B73100780010077
:1003F400010037170040930670052300D7049306C5
:1004040080FA2300D704010001008356870093E695
:10041400060C2314D700C5BB411181460146814512
:10042400114506C67126F3270080A18B938681852A
:1004340089CBF327008023ACF1849C42DD9B73902D
:10044400078001000100B7170040130770052380DF
:10045400E704130780FA2380E7040100010003C7BF
:100464006704136717002383E704238007047327B3
:1004740000809C42A18BD98F7390078023AC0184A8
:1004840001000100B240410182808146014681455C
:100494001145392EF3270080A18B1387818589CBE1
:1004A400F327008023ACF1841C43DD9B7390078009
:1004B40001000100B7170040930670052380D7049C
:1004C400930680FA2380D70401000100FD56239689
:1004D400D70223800704F32600801C43A18BD58F09
:1004E4007390078023AC018401000100F32700808E
:1004F400A18B89CBF327008023ACF1841C43DD9BC3
:100504007390078001000100B7170040930670053F
:100514002380D704930680FA2380D70401000100C6
:1005240083C6670493E616002383D7042380070455
:10053400F32600801C43A18BD58F7390078023ACD6
:1005440001840100010001A0BD473305F50201004B
:100554007D1575FD8280411122C426C206C6AA8477
:10056400014463179400B2402244924441018280C2
:1005740005041305803E4204C13F4180DDB7B7172F
:100584000040130700032388E702854723A4F1866C
:100594007300203037470040834747C09946BD8BDE
:1005A400638BD70231476385E70011476397E702FE
:1005B400B745004003C6A5C013854119938585C07E
:1005C400973000E0E780203F420541810DE58547F3
:1005D400238BF18619A0834757C0730020308346CC
:1005E40087C0850793F7F70F2389D1868346A7C071
:1005F400E3E7D7FEE9BF814737470040C5BF411154
:1006040006C6EF008075973000E0E78040619740B0
:1006140000E0E78060F1F5B7373700408347474093
:10062400858BA1CB834787401307100B6313F70413
:100634003737004083475740858BEDDF834787403A
:100644001147FD1793F7F70F636EF702174702E0A0
:10065400130707538A07BA979C43BA97828785473B
:1006640023A0F18A9387018A9C4381C7894723AEDB
:10067400F18882808947EDB78D47DDB79147CDB7C3
:100684009547F9BF23A0018AF1BFB716004003D7ED
:10069400E609856741119387078006C67D8F05C3E8
:1006A400239FF6089387C1899C4391EB974000E010
:1006B400E78040E523ACA1888547238BF188371771
:1006C40000408357C709C207C18763D20702E17795
:1006D400231EF7089387C1899C4391EB974000E060
:1006E400E78040E223ACA1888547238BF188B240A0
:1006F400410182802303048015472303E480010021
:100704002302A480828083076480E3CE07FE230350
:100714000480828083076480E3CE07FE034544801F
:10072400828083076480E3CE07FE2302A480828054
:10073400411126C44AC24EC006C61377F50BAD4715
:10074400AA892E8995446306F70019456537653FE4
:100754008D444E854537FD59FD1463983401B240EC
:10076400A24412498249410182801355090113753B
:10077400F50F453F2209CDB7011126CC06CEB704AB
:10078400080051371545BD37713769372AC6A53F6B
:1007940032459377150089EB136515001375F50F32
:1007A400F240E24405618280FD14E9FC0145CDBFBD
:1007B400397126DC4ADA4ED852D656D45AD25ED093
:1007C40006DE62CE66CCB7E700E07D5783AA070059
:1007D40022C603AA470023A0E71823A2E718B717E5
:1007E4000040130770052380E704130780FA238071
:1007F400E70483C74704930B75FFB684E20793FBB2
:10080400FB0F8546AA892E8B328937240040E18765
:10081400015763FA76016308D5008946130700027D
:100824006313D5000157D98F93F7F70FB71C004016
:100834002382FC0411472303E4801305F00F5D3D7C
:10084400094CD135636D7C11B7050700DA953787FC
:100854000700795563F2E504B3879500636EF702E8
:10086400370B0800A94733EB65016399F90689E45E
:100874008144513D26850DA0DA850945553D05097C
:100884000345F9FFFD14050B693D81C49377FB0F04
:10089400FDF7DD3569FD7D55B71700401307700579
:1008A4002380E704130780FA2380E70403C747047F
:1008B400418B2382E704F250B7E700E023A05711ED
:1008C40023A24711E25432445259C259325AA25A0D
:1008D400125B825B724CE24C21618280A547639576
:1008E400F90685691309F00FB3069900B3742B0157
:1008F400B6941349F9FFB3749900856B3379690190
:10090400416B9387F9FFB3F7270199E363FC340143
:1009140093D94900C147E3E637FF99BF0569C16927
:100924007D19D9B71305800D638869011305000289
:100934006384790113051008CA85DD3B353D21DD4B
:100944004E99B3843441D9B7DA852D45D533CA9449
:10095400E30099F205097D3BA30FA9FED5BF938758
:10096400F9FF93F7F70F6361FC0C83C71C041307AB
:100974003008631FF70437070800636BEB04B30701
:100984009B00B706100063F5D704334BEB0089478F
:100994006393F9068980D549E38C04ECDA8509452B
:1009A400413B11090327C9FF91472320E480030732
:1009B4006480E34E07FE23033481FD17EDFBFD1431
:1009C400110B81C49377FB0FE9FF7D3371F5E1B51A
:1009D400B717004003C75704B70708001377070287
:1009E40019E3B78707007955E378FBEA33079B00DF
:1009F400E3FFE7F855B58547E382F9F2DA852D453B
:100A0400053B9389F4FFE38504E6293393F7390022
:100A140091EB832604800327090093074900E39A96
:100A2400E6E43E89CE84F1BFB5476396F900130529
:100A3400900BC93135BDB1471305B00AE38BF9FEFC
:100A440099476391F904B7050800B365BB002D45C8
:100A5400C53181448D4BA14975396396740183274F
:100A640004802320F9008504E39834FF832704805D
:100A740013172B01635507002312F900D5BB23225A
:100A8400F900FDB39D476399F90281451305B0044C
:100A94004531BD442320090023220900FD599D3915
:100AA40093F77400CA9703C70700FD14398D238098
:100AB400A700E39634FF6DBBA1476392F9046D3937
:100AC4008144630D0B008D479304C0036308FB004E
:100AD4009304000563048B01930440041375C50754
:100AE400E30895D819453931393905452131268529
:100AF4000D3909453D314931E31C05D669BB9147A0
:100B04006399F90013056006F536F53E130590095F
:100B14000DB7E38F09D4F154A9BB19CD91CD09CEFA
:100B240081473387F500834607003307F5008507BF
:100B34002300D700E317F6FE828019C991C909CAB8
:100B4400910583A7C5FF11057D16232EF5FEC5BFAC
:100B5400828001C919C62A960505A30FB5FEE31DB7
:100B6400A6FE828081473307F5000307070019E3D7
:100B74003E8582808507C5BF01112E8626CAAA84B8
:100B8400131506019305F004418122CC06CE32C62A
:100B9400EF00B0562A8401C53246A685BD3F2285A2
:100BA400F2406244D24405618280854715C18DC1FB
:100BB40005C28147B306F5003387F50083C60600F6
:100BC400034707006398E6008507E315F6FE8547AB
:100BD4003E8582808147EDBF9307F6FFBE952A9636
:100BE4006313C5008280FD1583C715000505A30F97
:100BF400F5FEFDB7AA87014581CF09CE3E9685074C
:100C040003C7F7FF6317B700E39BC7FE0545828060
:100C1400828001458280797197470000938787FD20
:100C240022D4804306D626D24AD04ECE52CC56CABF
:100C34005AC85EC679C0B7C4C901014B97490000C0
:100C44009389C9FA9384F437174A0000130ACAFA3D
:100C5400974A0000938ACAF417490000130909FE51
:100C64008357240095E35C44631D0B001747000081
:100C74002322F7F8832BC4002285EF0030555E84CD
:100C8400B9A82326FB00FDB783A7090082971C445B
:100C94003307F5406376F500032749001D8F2A9733
:100CA40063E2E4089747000023A407F08355240077
:100CB40003450400974000E0E780E0D95C405844D5
:100CC400A1CB0C4403264900AE97BE8663E4B7006B
:100CD40063E4C700B386C74014C4228B3A8449F046
:100CE400974700009387C7EB9C4B09476372F7064D
:100CF400F91717470000232DF7EAB25022549254F3
:100D04000259F249624AD24A424BB24B456182804F
:100D140063170B009747000023AEE7ECA1BF23261F
:100D2400EB0089BF03274A0209CF63EFA70033858D
:100D3400A74083A70A016376F5009747000023A91B
:100D4400A7E6228B404461BF03274900BA97C5B781
:100D54009747000023AE07E44DB7411122C417445E
:100D640000001304A4E61C4006C626C24AC091C76C
:100D740082979747000023AB07E49747000083C797
:100D84003705858B974400009384440495C39747A3
:100D94000000A38F070283C774001547637AF70026
:100DA400A12B83C77400F5178A07A2979C438297E7
:100DB4001C4491C3829717490000130969E3032770
:100DC4000900174600000346B6DD9747000083C7B5
:100DD40027DD93961700BA9683D60600D5CE97479B
:100DE400000083C7E7DB63E3C70C97470000238950
:100DF40007DA1C40639D07129747000083C797FDDD
:100E040091CF83C7740093F7F70F89EB97470000DE
:100E1400A38207FC974001E0E780E03F974700008A
:100E24009387C7DC9C43638407109747000093872C
:100E3400E7E0DC4317470000232CF7D6E93B97474C
:100E44000000938767DBDC53FDC3174700001307DB
:100E540027D5184B9747000083C757DB6369F70C06
:100E640083C7740015476364F70C9747000083C772
:100E7400A7FA918BCDEF032609009746000083C69D
:100E840036D263CCD70A2244B2409244024941018B
:100E9400174300E067000307850793F7F70F9746AA
:100EA4000000238FF6CEE3E2C7F215BF86073E9714
:100EB400835507002310070097470000239607D2A5
:100EC40097470000938747D09C431745000003458C
:100ED40025CD13172500BA979C43829797470000A6
:100EE40083D787D017470000034787CB93C7F7FF03
:100EF4007D8D93171700032709003E97835707003A
:100F04005D8D2310A7009747000083C767C991C769
:100F14008507174700002305F7C817470000034754
:100F240027C89747000083C7B7C7E370F7ECB24000
:100F34002244924402494101828013971700329758
:100F4400035707006DF785072DBFAD6737C700400E
:100F5400BD072326F7200F10000097470000938752
:100F640027C4C84F83278726BD66BD0693C7F7FFEE
:100F740099836A052326D7205D8D82804111B71796
:100F84000040985F3AC6945F3247E39CE6FE3245E0
:100F9400410182801305F00F828001119747000000
:100FA4009387C7F222CC03A4070C26CA06CE2AC410
:100FB4002EC6854419E40145F2406244D2440561D9
:100FC40082808347910003471400858B6304F700F4
:100FD4000044CDB719469305A10013052400F1364A
:100FE400E31895FE0545C9BF17470000130707DD41
:100FF4001C439306001094C301000100010001008A
:101004001C4323A007008346150003482500A206BD
:101014004208C29603480500C29603483500620898
:10102400C29694D78346550003486500A206420839
:10103400C29603484500C296034875006208C296EA
:10104400D4D7834695000348A500A2064208C29659
:1010540003488500C2960348B5006208C29694DB33
:101064008346D5000348E500A2064208C296034819
:10107400C5000345F500C2966205AA96D4DB83C673
:10108400150003C52500A2064205AA9603C505005E
:10109400AA9603C535006205AA9694CF83C6550067
:1010A40003C56500A2064205AA9603C54500AA9693
:1010B40003C575006205AA96D4CF83C6950003C5FF
:1010C400A500A2064205AA9603C58500AA9603C5F3
:1010D400B5006205AA9694D383C6D50003C5E5007E
:1010E400A2064205AA9603C5C50083C5F500AA96C3
:1010F400E205AE96D4D3D443F59AD4C3D44393E64D
:101104001600D4C3944393E6160094C3BA87944359
:10111400D842058B59E3984E01452300E6009843D5
:10112400184F2183A300E6009843184F41832301FD
:10113400E6009843184F6183A301E6009C43D84F0F
:101144002302E600D84F2183A302E600D84F41834F
:101154002303E600D84F6183A303E60098532304D6
:10116400E60098532183A304E600985341832305A2
:10117400E60098536183A305E600D8532306E600EE
:10118400D8532183A306E600D85341832307E600FE
:10119400DC53E183A307F600828001008DBF17476B
:1011A40000001307E7C11443411122C49C5E4AC0E6
:1011B40006C6998326C2858B3A8417490000130911
:1011C400E9BFD1CB9C5E97440000938424C093F77D
:1011D400F7F99CDE174700000347A7BF93070008F1
:1011E400631BF700832709009C4393F70704174701
:1011F40000002300F7BE83C7040093F707049DC3D0
:10120400974700009387879E9C43829797470000E7
:1012140023A6A7BC83C7040093F7F70B1747000066
:101224002306F7BA83C7440093F707048DE785477D
:1012340017470000A30EF7B8974700009387C7BA73
:101244009C43096798C7130700FC97460000238155
:10125400E6B8D844F8D31C40985F1183058B09CBBA
:10126400985F3D9B98DF0547974600002382E6B6CA
:10127400985F1D83058B11CB985F1377F7F798DF81
:101284008547174700002305F7B483270900D8438F
:101294000583058B19C7D843759BD8C3D843799B5D
:1012A400D8C3B24022449244024941018280397138
:1012B40006DE16DC1ADA1ED82AD62ED432D236D05E
:1012C4003ACE3ECC42CA46C872C676C47AC27EC002
:1012D400F935F250E2525253C2533255A2551256C6
:1012E40082567247E2475248C248324EA24E124FCB
:1012F400824F216173002030974700009387C7AE67
:10130400944397470000938767AC03C70700058B96
:1013140011CB97470000238D07AA97470000A389A4
:1013240007AA828003C71700058B65F7F85271FF7F
:1013340083C75700DDB717480000130868A80327C0
:1013440008001C5F9583858BD1E709C61C5BBD83B0
:101354002300F60085CA83270800985B4607935745
:1013640067016356070093E707C0C207C183039769
:101374000600C207C18709C7BA970947B3C7E7027E
:101384002390F60085CD834715008DCB974600004A
:1013940083C626A493F606041387970089478DCA4B
:1013A4003A9503470500854699471376F706631176
:1013B400D60262076187B947634C07008327080098
:1013C4009C5FED838D8B17470000A306F7A0814730
:1013D4003E8582808547EDBF411122C406C617446D
:1013E4000000130464A018403DE9AE877453FDFE69
:1013F4003E85B28597470000238B079C974001E008
:10140400E780E0B4974700009387879B9C43B70627
:1014140080009843558F98C3D857719BD8D7974766
:101424000000A387079A97470000A381079A1C40EE
:10143400094798C3144017470000130727998347A7
:101444002700858B89EB83473700858BD9C797475E
:101454000000238F0796B2402244410182808D47C9
:101464006310F50297470000938787959C43B7065E
:1014740080009843558F98C3D857719BD8D75DBFC8
:101484008547E319F5FA5447F977FD17F58F5CC7DB
:101494000F1000001C40096798C7130700F817468F
:1014A40000002307E69217470000130767911043D3
:1014B400184231830D8B11E713076019F8D3D4C791
:1014C40095BF1842094631830D8B6315C700130776
:1014D400E043EDB71307E01BD5B7FC52ADF3A5BF4E
:1014E4005D71A2C4A6C22A84130680022800AE84B9
:1014F4009305100886C6CAC04EDE52DCEFF06FE5D5
:101504003545974001E0E780A0E31743000013034B
:10151400238B832703009376F41F174E0000130ECA
:10152400EE9123A40700984B974E0000938ECE8B28
:10153400370FFCFF1367F70398CBF84F130510F828
:10154400B7020400137707E0558FF8CF9843F57678
:10155400FD16758F98C39843B7063300930380250F
:101564001377F7E798C3984311497D1F1377F7E77B
:101574001367071098C303270E008549930F800251
:101584001C47D58F1CC783A70E001307900D34008A
:10159400B8CB014793553700A69583C7050013764A
:1015A4007700B3D7C740858BE1C383270300832823
:1015B4000E00239C07042390070603A8C80213788F
:1015C400D8FF23A6080383A807001378F70793F826
:1015D40008F833E8080123A0070103A84702336889
:1015E400580023A2070383A80E00014823A278060B
:1015F40003DA07066307480303A80703038A060000
:101604001358F80062081358884163580A0103A864
:1016140007031358F8002380060103D8070613783C
:10162400F80F03AA480663060A0003DA8705E37F76
:1016340049FB03A847023378E80123A20703838701
:101644000600635CF40003C805003396C900134622
:10165400F6FF337606012380C5003E8663D3A700D8
:101664002A8613158601618505071377F70F85060A
:10167400E312F7F3B640264496440649F259625AF7
:101684006161828097360000938606769C42D84733
:101694001316170163550602984713161701635072
:1016A40006027D57B8D7173700001307674F584F06
:1016B4000507173600002323E650116798C798479B
:1016C4000D83058B1DC3173700000347477013674D
:1016D400170017360000230CE66E130700F81736C0
:1016E40000002307E66E214798C79847058B09CF6A
:1016F400173700000347976D13671700173600006C
:10170400A306E66C054798C798470983058B09E744
:1017140098470583058B31CF984717360000130689
:10172400E66A173500001305A5690983058B630371
:1017340007101841184331830D8B75EBAC4B184ED1
:1017440093F5050203471700CDCD79EF1307700613
:10175400D8CF034706001367170017360000230786
:10176400E666114798C718415C57F19B93E7170049
:101774005CD79C4298479316370163D60602973686
:10178400000083C6267CC18A17370000130707743C
:10179400C5CE0347870713670702973600002383E4
:1017A400E67A056798C798479316270163D106021E
:1017B400173700000347C761620761876357070053
:1017C4000547973600002385E660096798C7984760
:1017D4009316070163D606029736000083C69676F1
:1017E400858A173700001307676EADCE0347970746
:1017F4001367270097360000A386E674216798C70D
:10180400828029D785456315B7001307B00689B7C9
:1018140089456315B7001307F0061DBF8D45631591
:10182400B700130730072DB71307500715B7130771
:10183400600739BF034736001367170017360000E7
:10184400A307E658094739BF834687070946BD8A77
:101854006388C600034787078D463D8BE313D7F49F
:10186400114725BF83469707918AC9DA034797072B
:101874001367870041B7397106DE16DC1ADA1ED801
:101884002AD62ED432D236D03ACE3ECC42CA46C81C
:1018940072C676C47AC27EC0F533F250E252525315
:1018A400C2533255A255125682567247E2475248E5
:1018B400C248324EA24E124F824F21617300203033
:1018C4009737000093874752984385679387077734
:1018D4007CD397370000938767569C4383A60709F8
:1018E400139656006358060083A6070913966600EC
:1018F400634406007453FDF2828071C5AA870145D2
:10190400E9C58D07C207C183F19BC207C1831307D1
:101914004003636FF702173700001307E75A0843C1
:10192400173700001307C75914436398A6021737E3
:1019340000001307672C185B014541CB4111C20716
:1019440006C60545DD8D0297B240014541018280FE
:101954001737000013070757D9B70357650035E356
:1019640003574500636FF704B306F7402146637CD1
:10197400D60203280500938687001D8FAA96611757
:1019840017360000035626222392E60023A0060100
:101994002393060014C12312F500130786FF97361C
:1019A40000002392E6202313B5009735000083D569
:1019B400851FB387F540173700002316F71E21054E
:1019C400828008419DB70145828082800DC197378E
:1019D40000009387674F03A307009737000093879E
:1019E400274E83A8070081469A8763E31701828004
:1019F40003A80700636DF50A636BA80A13878700C1
:101A0400E367E5FE03D66700216705076317E60071
:101A140003C7019305072388E19297350000938556
:101A2400251803D6470003D7650023930700329790
:101A340042074183173500002317E516638A6702BE
:101A4400173500001305054808416303F50203D563
:101A5400660019ED83D7460023A0060121073E96B0
:101A640021062392C60097370000239EE712B6870B
:101A74009843E30E17F7973600009386A6449442E2
:101A8400E307D7F683566700BDF283D647000356B3
:101A940047001843A106B2962392D70098C383D770
:101AA4006500A10717370000231FF70E8280BE864A
:101AB400C28725BF0327851163020712411122C47F
:101AC40006C68347C5008345E5042A8493F7C70FF8
:101AD4002306F500834697000356C7001395860135
:101AE400618563F2C508635B05060345870093F6C9
:101AF400F607A304D700054693E627006314C50040
:101B040093E617002306D4005C4389075CC3A30A49
:101B1400B400032504112E864C430905EFE0FFFFB2
:101B24008327841103465401D44303D7C700B296D4
:101B3400118FD4C32396E7008947A30DF40003470C
:101B440064039737000083C7470C6378F70483471F
:101B5400C40093E707012306F40081A093E717006C
:101B64002306F4006DB79376F60F635D0502034513
:101B74008700854513E627006314B50013E61700B4
:101B84002306C400A30AD400A30407008547A30DB9
:101B9400F400832784119C43DDF3B24022440145C1
:101BA4004101828093E717002306F400A30AD400BE
:101BB400A3040700032504114C430905EFE0FFF5D6
:101BC4008327841103465401D44303D7C700B29634
:101BD400118FD4C32396E7008D4755BF05458280F6
:101BE40097370000938747419C43411122C406C69E
:101BF400858B2A84C5EF4165130525F597E001E03F
:101C0400E780007545C58347A5002315F5008327A4
:101C14000412BDE72320A4122322A4128547231112
:101C2400F404232005008347640154412316F5007E
:101C34000347D4002304E5000547A304E500173750
:101C440000001307A718184F1385170215811C43AA
:101C54007D151375F50F9CC25C43DCC21C479CC602
:101C64005C47DCC61C4B9CCA5C4BDCCA1C4F9CCE3C
:101C74005C4FDCCE19CD9386060213070702C1BF61
:101C84008327441288C3835724042322A41285077C
:101C940079B79737000083D7E72385071737000004
:101CA400231AF722B2402244410182808347C400B0
:101CB40023090400054593C747002306F400DDB754
:101CC4008347850193F7E70FD5EF83479501DDEB54
:101CD400034625018346C50009CA834565031737B2
:101CE4000000034797F263E7E50013F7060141CFCD
:101CF400014709C6C18A0357651C81C68356A51CC2
:101D0400369751C31307C71217350000035585F3DF
:101D1400B335A70237460F00411113060624814646
:101D240022C426C206C67D543305A702971002E0DA
:101D3400E78060709737000083C797EDB384A700EE
:101D4400973700009387871803A787098327070914
:101D540063F387003E84184375FB9737000093872D
:101D6400E7E89C43829781476364A400B307A440D7
:101D7400B2402244B3B7970093C7170092443E85FC
:101D84004101828081473E85828097370000938796
:101D9400A70598437C53FDFF8280797126D206D62D
:101DA40022D44AD04ECE52CC56CA5AC85EC68347B5
:101DB400550303447513AA843E941374F40F9307D4
:101DC400400263F687001304B4FD1374F40F03AAEE
:101DD400841383AAC413A38B841222865285D685C6
:101DE400971002E0E780A05F058915E503CBD412C4
:101DF40001498149337B6403930B50024A8652851F
:101E0400D685971002E0E780805D058915C563914A
:101E140069031374F90F238B8412B2502254925421
:101E24000259F249624AD24A424BB24B456182801E
:101E34008509E20993D989410509E31179FDE1BFD7
:101E44008327850903560504797193D60701BD8E4E
:101E5400C206C182358E1357764093575640898BFC
:101E6400058B5D8F93573640918B5D8F935716404A
:101E7400A18B5D8F93171600C18B5D8F931736006E
:101E840093F707025D8F931756009355860093F7D7
:101E940007041E065D8F1376F60F518F93D75540B6
:101EA40013D63540118A898BD18F13D67540D18FC3
:101EB40013D61540218AD18F13961500418AD18FEC
:101EC4001396350013760602D18F139655001376B8
:101ED40006049E05D18F93F5F50FCD8FA2074546D5
:101EE4005D8F3307C70222D42A8426D252CC56CA25
:101EF400032A8413832AC4135AC806D63697420782
:101F0400418393577740135557400989858BC98F6F
:101F1400135537401189C98F135517402189C98F2B
:101F2400131517004189C98F13153700137505025E
:101F3400C98F1315570093558700137505041E07A1
:101F4400C98F1377F70FD98F13D5354013D7554061
:101F54001189098B498F13D57540498F13D51540C5
:101F64002189498F139515004189498F13953500AF
:101F740013750502498F13955500137505049E05C5
:101F8400498F93F5F50F4D8F2207D98FB387C70279
:101F94004AD04ECE5EC662C4B697C207C18313D779
:101FA400774013D557400989058B498F13D537409E
:101FB4001189498F13D517402189498F139517002B
:101FC4004189498F1395370013750502498F13957D
:101FD400570093D58700137505049E07498F93F71F
:101FE400F70FD98F13D5354013D755401189098B75
:101FF400498F13D57540498F13D515402189498FD1
:10200400139515004189498F139535001375050201
:10201400498F13955500137505049E05498F93F553
:10202400F50F4D8F2207D98FB387C70213065002CD
:102034005285D685B697BD8E93940601C18033F63A
:10204400C402137BF60F971002E0E780403905893C
:102054000DED8347D41201498149B3849702130CCF
:102064005002C1804A865285D685971002E0E780E7
:1020740000370589937BF90F11C5638634038509FD
:1020840093F9F90F0509E31F89FD230B6413B2507B
:10209400225492540259F249624AD24A424BB24BF8
:1020A400224C456182805E8BCDB7797122D406D6ED
:1020B40083C735002E8423160100A307F10083C7CC
:1020C4004500100802C02307F10083C755008A8524
:1020D40002C2A306F10002C402C802CA02CC02CEA4
:1020E400EFE09FF00347F1018347040001456310CB
:1020F400F7020347E1018347140001456319F70020
:102104000345D101834724001D8D13351500B250BA
:10211400225445618280011197370000938707DBC1
:1021240022CC03A4870C26CA4AC84EC606CEAA846B
:1021340013092500854915C083C7140003473400DB
:10214400858B6304F700405CFDB719469305440092
:102154004A85EFE09FA5E31835FF2285F2406244EB
:10216400D2444249B2490561828041119737000047
:102174009387C7D522C403A4870C26C24AC006C6C7
:1021840093042500054901E82285B2402244924483
:10219400024941018280A6851305A4023937E3056B
:1021A40025FF405CCDB7411197370000938707D2D4
:1021B40022C403A4870C26C24AC006C69304250081
:1021C400054901E82285B240224492440249410172
:1021D4008280A6851305A401C93DE30525FF405C63
:0421E400CDB7000073
:1021E80097110020938101B317610020130101E1C9
:1021F8001305400097E5FF1F938545E0170600206B
:10220800130606FE63FAC5008322050023A05500C5
:1022180011059105E3EAC5FE173502001305855E31
:10222800970500209385C5FB1386818563FAC50051
:102238008322050023A0550011059105E3EAC5FE98
:1022480013858185973500209385C5DB6377B500B5
:10225800232005001105E36DB5FEFD42739002BC15
:102268008D42739042809302800873A0023097E2F7
:10227800FF1F9382A2D893E23200739052309722C4
:1022880000009382C22073901234730020303D43C3
:102298002A876373C3029377F700BDEFADE59376A2
:1022A80006FF3D8ABA960CC34CC30CC74CC74107FE
:1022B800E36BD7FE11E28280B306C3408A06970219
:1022C800000096966780A6002307B700A306B7000C
:1022D8002306B700A305B7002305B700A304B7007A
:1022E8002304B700A303B7002303B700A302B70072
:1022F8002302B700A301B7002301B700A300B7006A
:102308002300B700828093F5F50F93968500D58D4D
:1023180093960501D58D61B7939627009702000023
:1023280096968682E78086FA9680C1171D8F3E961C
:10233800E374C3F8A5B7B717004003C77705137749
:10234800E70FA38BE704130700F8A38DE7043D47C5
:10235800238CE70413075003A38CE7048280411100
:102368002A83014E930E407E130F0019930F4006E7
:1023780063E66E149308001913034006B378150337
:10238800854E0D4FA14F337365020D891335150026
:1023980063E0BE161308F6FF794672984208135890
:1023A80008013307C70213D61700BE0732976146E4
:1023B800B3F6C60213068070B386C6023697A166C6
:1023C800F58F42075D8FB716004083C7F60293F773
:1023D8000708A307F1000346F10083C7F60293F745
:1023E8000708E394C7FE8347F100B716004093F748
:1023F800F70F63890714F3270080A18B93868185E3
:102408006398071401000100B71700401306700510
:102418002380C704130680FA2380C7040100010043
:1024280023AA070303C6170313660608A388C7026F
:1024380023800704732600809C42A18BD18F739060
:10244800078023AC0184010001001166B715004024
:102458007D16DC59C85DA98FF18FE5FFF327008051
:10246800A18B89CBF327008023ACF1849C42DD9BB0
:102478007390078001000100B7170040130670052C
:102488002380C704130680FA2380C70401000100D3
:10249800D8DB03C7170313670704A388E702238061
:1024A8000704732700809C42A18BD98F7390078003
:1024B80023AC018401000100410182807D1333684F
:1024C800E3039308E016630E08003368F3039308E8
:1024D800D016630808009378330093B818009388DF
:1024E800D81633081E01131E0801135E0E0149B5E4
:1024F8006393E50305486386080001486303030006
:102508002A8871087298FD15131E0801C205135E0A
:102518000E01C181B5BD13F8150063F4BF00790839
:10252800D5B713381800E5BF83C7F60293F7070835
:10253800A307F1000346F10083C7F60293F70708E3
:10254800E394C7FE8347F10093F7F70FF1DF65B512
:10255800F327008023ACF1849C42DD9B73900780B5
:1025680055B54111B7170040985F3AC6945F324796
:10257800E39CE6FE3245410182801D71CEC662DCD5
:1025880086CEA2CCA6CACAC8D2C4D6C2DAC05EDE7B
:1025980066DA6AD86ED62A8CEF009025AA89F327C6
:1025A8000080A18B9384818589CBF327008023AC9D
:1025B800F1849C40DD9B7390078001000100B717F0
:1025C8000040130770052380E704130780FA23806F
:1025D800E7040100010003C7F70213678700A38718
:1025E800E70203C7F7021377770FA387E702238071
:1025F8000704732700809C40A18BD98F73900780B4
:1026080023AC018401000100F3270080A18B89CB52
:10261800F327008023ACF1849C40DD9B73900780F6
:1026280001000100B7170040130770052380E70475
:10263800130780FA2380E7040100010003C7E702BB
:102648001377C70F2387E70203C7E702136717004B
:102658002387E70223800704732700809C40A18B0F
:10266800D98F7390078023AC018401000100F32700
:102678000080A18B89CBF327008023ACF1849C4098
:10268800DD9B7390078001000100B7170040130716
:1026980070052380E704130780FA2380E70401000C
:1026A800010003C737051377870FA389E70403C71A
:1026B800370513671700A389E704238007047327E6
:1026C80000809C40A18BD98F7390078023AC018434
:1026D80001000100130980C133C92903916B938C50
:1026E8000BE8130A5002930A803E2167130707D0AC
:1026F800130BA00437140040930D0404617DFD1BE7
:10270800B3C79903916C330949033EC6B3CA590349
:10271800B347E902130980FA338A4A033EC8B3472C
:10272800EA02130A7005338B6A033ECABD679387B2
:1027380007A6B347FB02014B3ECC73270080218BD1
:1027480009CB7327008023ACE18498405D9B73100C
:10275800078001000100930770052380FD00238096
:102768002D01010001000347340513670702A3097F
:10277800E40403570405336797012318E404035757
:1027880004053367A701420741832318E404238023
:102798000D00F32600809840218B558F7310078019
:1027A80023AC0184010001000347340513770702B5
:1027B8006308071403473405218B6DDF73270080F6
:1027C800218B09CB7327008023ACE18498405D9B63
:1027D800731007800100010023804D0123802D0123
:1027E80001000100034734051377F70DA309E4043A
:1027F8000347340513670702A309E40403570405D4
:10280800336797012318E404035704053367A701C6
:10281800420741832318E40423800D00F326008037
:102828009840218B558F7310078023AC01840100D9
:1028380001000347340513770702630E070E0347A9
:102848003405218B6DFF313B2A873ACE193B7247FD
:10285800E30DE5FE03570405336797012318E404E5
:1028680003473405218B6DDF835604050347240590
:10287800B247B3F6DB003387EB02BA969D8EC247A8
:1028880063D5D700D24763C3F60E09476362670F63
:10289800E24713061B0013971600137BF60F334706
:1028A800F7026350D040050789463347D702F3261D
:1028B8000080A18A89CAF326008023ACD184944081
:1028C800DD9A739006800100010023804D0123806A
:1028D8002D01010001008356C40236974207418347
:1028E8002316E40223800D00F32600809840218BF4
:1028F800558F7310078023AC01840100010035BD9A
:1029080073270080218B09CB7327008023ACE184D7
:1029180098405D9B731007800100010023804D01E2
:1029280023802D01010001000347340513670702C6
:10293800A309E404A9BD73270080218B09CB732761
:10294800008023ACE18498405D9B731007800100F0
:10295800010023804D0123802D0101000100034760
:10296800340513670702A309E4047DB5E3020BF2FB
:10297800F3270080A18B89CBF327008023ACF18457
:102988009C40DD9B7390078001000100B717004051
:10299800130770052380E704130780FA2380E704F0
:1029A8000100010003C737059376FC0F1377870FE3
:1029B800A389E70403C73705558FA389E704238054
:1029C8000704732700809C40A18BD98F73900780E0
:1029D80023AC018401000100B717004013067005FD
:1029E800930580FA03C737051D8B631E872BF327D2
:1029F8000080A18B89CBF327008023ACF1849C4015
:102A0800DD9B7390078001000100B7170040130792
:102A180070052380E704130780FA2380E704010088
:102A2800010003C7370591661377F70DA389E704FB
:102A380003C7370513670702A389E70403D7070508
:102A4800558F2398E70403D70705A166558F239868
:102A5800E70423800704732700809C40A18BD98F4B
:102A68007390078023AC018401000100B717004070
:102A780093067005130680FA03C737051377070214
:102A8800630A07263717004083473705A18BEDDF18
:102A9800F3270080A18B89CBF327008023ACF18436
:102AA8009C40DD9B7390078001000100B717004030
:102AB800130770052380E704130780FA2380E704CF
:102AC8000100010003C7370591661377F70DA38945
:102AD800E70403C7370513670702A389E70403D789
:102AE8000705558F2398E70403D70705A166558F77
:102AF8002398E70423800704732700809C40A18B58
:102B0800D98F7390078023AC018401000100B717A7
:102B1800004093067005130680FA03C7370513773C
:102B28000702630107223717004083473705A18B47
:102B3800EDFF053C2A843534E30F85FE3717004046
:102B4800835707059166D58F2318F7048347370500
:102B5800A18BEDDFF3270080A18B9386818589CB3C
:102B6800F327008023ACF1849C42DD9B739007809F
:102B780001000100B7170040130770052380E70420
:102B8800130780FA2380E7040100010003C7370513
:102B98001377F70DA389E7042380070473260080C1
:102BA8009842218B518F7310078023AC0184010058
:102BB800010003D7070503C627059167FD177D8F19
:102BC800B387C70237460F0013060624B3C9C902E4
:102BD8003E978567938707FAB3978701B3893703C9
:102BE80093070010B3C9F9029307800C8E09B30943
:102BF80037410547331C8701135C3C40B30A5C032B
:102C0800130C60553D67130707A6B38A8A03B3CA36
:102C1800EA02B387F902B3C75703635D3017850724
:102C28000947B3C7E702960773270080218B09CBB2
:102C38007327008023ACE18498425D9B7310078062
:102C48000100010037170040130670052300C70470
:102C5800130680FA2300C704010001000356C702C7
:102C6800B297C207C1832316F7022300070473270C
:102C780000809C42A18BD98F7390078023AC01847C
:102C880001000100F6406644D6444649B649264A42
:102C9800964A064BF25B625CD25C425DB25D25618E
:102CA80082807D1711B173270080218B09CB732790
:102CB800008023ACE18498405D9B7310078001007D
:102CC80001002380C7042380B7040100010003C763
:102CD8003705558FA389E7042380070473250080EF
:102CE8009840218B498F7310078023AC0184010021
:102CF8000100CDB973270080218B09CB7327008091
:102D080023ACE18498405D9B7310078001000100AB
:102D18002380D7042380C7040100010003C73705B7
:102D280013670702A389E70423800704F3250080BB
:102D38009840218B4D8F7310078023AC01840100CC
:102D480001001DBB73270080218B09CB73270080EE
:102D580023ACE18498405D9B73100780010001005B
:102D68002380D7042380C7040100010003C7370567
:102D780013670702A389E70423800704F32500806B
:102D88009840218B4D8F7310078023AC018401007C
:102D9800010061B3FD1769B5914763EEB7021727C4
:102DA80002001307A7DF8A05BA959C41BA97828764
:102DB800B717004003A7470B1345F5FF698F23AAF0
:102DC800E70A03A7070B698F23A8E70A03A7070ADF
:102DD800798D23A0A70A8280B717004083A6470BE6
:102DE8001347F5FFF98E23AAD70A83A6070B558D3B
:102DF80023A8A70A83A6070A758F23A0E70A82805B
:102E0800B717004003A7470B498F23AAE70A03A770
:102E1800070B1345F5FF45BFB717004083A6470BBF
:102E28001347F5FF758F23AAE70A03A7070A598DE9
:102E38004DB7B717004003A7470B498FEDB7914728
:102E480063EEB70217270200130787D68A05BA95DB
:102E58009C41BA978287B717004003A7470D1345CF
:102E6800F5FF698F23AAE70C03A7070D698F23A82D
:102E7800E70C03A7070C798D23A0A70C8280B7174E
:102E8800004083A6470D1347F5FFF98E23AAD70CF8
:102E980083A6070D558D23A8A70C83A6070C758F4D
:102EA80023A0E70C8280B717004003A7470D498F7E
:102EB80023AAE70C03A7070D1345F5FF45BFB7176E
:102EC800004083A6470D1347F5FF758F23AAE70C2B
:102ED80003A7070C598D4DB7B717004003A7470D37
:102EE800498FEDB7931705010547C1836382E50450
:102EF8008DC10947638DE5040D476380E5063717E3
:102F08000040231EF70883560709D58F2318F708B2
:102F18008280371700400356470993C6F7FFF18EA2
:102F2800231AD7088326C70A558D2326A70AC1BFA7
:102F3800371700400356470993C6F7FFF18E231A47
:102F4800D7088326870A558D2324A70A4DBF37172C
:102F5800004083564709DD8EE1B737170040835696
:102F68004709DD8EE9BF9357E50093F70730C98F0E
:102F7800C2070547C1836382E5048DC10947638D94
:102F8800E5040D476380E50637170040231FF7085F
:102F980083562709D58F2319F708828037170040F1
:102FA8000356670993C6F7FFF18E231BD7088326BC
:102FB800C70C558D2326A70CC1BF371700400356F1
:102FC800670993C6F7FFF18E231BD7088326870C62
:102FD800558D2324A70C4DBF37170040835667092A
:102FE800DD8EE1B73717004083566709DD8EE9BFEC
:102FF800B717004003D58700420541819377050440
:1030080091EB9377F5013755E801130505803345B2
:10301800F50282809377050C130700046397E70095
:103028009377F50137459C1CCDB72165130505D06D
:10303800828037E700E01C435443A183E206D58F22
:103048001CC1FD572320F7182322F7188280131775
:103058008500B7E700E023A0E710618123A2A7104D
:103068008280B7F700E08847CC47828081473737AE
:103078000040A14663C4C700328582800345B7403B
:10308800E38EA6FE3385F500034505008507230476
:10309800A740CDB7411122C406C62A84913F2947CB
:1030A800B307E502B2408D83B3D787022244950760
:1030B800B3D7E70237370040C207C1832316F7406A
:1030C80041018280716541111305052006C6D93773
:1030D800B7370040130770F82381E7400D47A381F5
:1030E800E74013070004A380E74005472387E7402C
:1030F800B24041018280B737004003C7174019C961
:10310800D98DA380B74003C7074013678700238082
:10311800E740828093C5F5FFF98DA380B740828090
:10312800411122C406C62A84E1352947B307E502BE
:10313800B2408D83B3D7870222449507B3D7E702FD
:1031480037470040C207C1832316F7C04101828078
:10315800716541111305052006C6D937B7470040E8
:10316800130770F82381E7C00D47A381E7C0130751
:103178000004A380E7C005472387E7C0B2404101A8
:103188008280B747004003C717C019C9D98DA380EB
:10319800B7C003C707C0136787002380E7C08280D2
:1031A80093C5F5FFF98DA380B7C08280CC4141114A
:1031B80006C6328503C6150083C5050022064D8E56
:1031C80042068D654186138875A2630C060F634815
:1031D800C804138845A26306060B634AC800938592
:1031E80035A26309B60623900600294679A01388FC
:1031F80055A26308060B938565A2E316B6FEC14582
:103208001D4663ECE5064546198E63F3C7003E8606
:103218002390C600972502009385C59B89A813882B
:1032280095A26300060F634E060B1388A5A2630AD6
:10323800060F938505A5E318B6FA99451D4663EE72
:10324800E502198E63F3C7003E862390C600938576
:10325800818031A89D451D4663E1E5022146198E0E
:1032680063F3C7003E862390C6009385C185BA954F
:1032780097E0FF1FE780208A0146B240328541016E
:103288008280AD451D46E3EAE5FE3146198E63F3BB
:10329800C7003E862390C600972502009385459770
:1032A800F9B7B1451D46E3EAE5FC3546198E63F3E7
:1032B800C7003E862390C600972502009385459651
:1032C8007DB7C1451D46E3EAE5FA4546198E63F325
:1032D800C7003E862390C600972502009385C590B7
:1032E80079B7C1451D46E3EAE5F84546198E63F30B
:1032F800C7003E862390C600972502009385459314
:10330800BDB7C1451D46E3EAE5F64546198E63F3A8
:10331800C7003E862390C600972502009385058E38
:10332800B9B7B5451D46E3EAE5F43946198E63F3A6
:10333800C7003E862390C60097250200938585889E
:103348003DB797F6FF1F9386A6FC4146CD4517F576
:10335800FF1F1305E5E86F80706A11456FF0EFA154
:10336800411193962500AA852D4506C697D0FF1FC3
:10337800E780C043B240014541018280411126C225
:103388009394250022C44AC02A843289A686AA8535
:103398000146254506C697D0FF1FE7802041A6862F
:1033A8004A86A285294597D0FF1FE7802040B24072
:1033B800224492440249014541018280011122CCF4
:1033C80006CE3714004026CA4AC84EC652C48344A3
:1033D8007405034AB4058349840503499405EFE05D
:1033E8009FF58347A40593F4F40F137AFA0F93E734
:1033F8001700230DF40493F9F90F1379F90FB71790
:10340800004003C7A705058B6DFF03D5C705A38D2E
:103418004705238C3705A38C2705A38B9704F24017
:103428006244D2444249B249224A0561828041112C
:103438009397050122C406C6C1872E8463DD070061
:10344800EF10802919C1EF1000222165218DB240AB
:1034580022444101828093F7150013C51500E5FB4E
:103468009397250163D00702EF20A11BFD3537F69E
:103478000200130606E0896503C54186EF10E07473
:103488000965E9B7939715010145E3D207FC1715BC
:1034980002001305A57FEF006254130600649165CE
:1034A80003C54186EF10607211654DB71D7149461D
:1034B8009715020093850579172502001305C5D9CC
:1034C80086CE97D0FF1FE780006E01E9171502002E
:1034D80013058578EF00825001A0B7F600E0795710
:1034E80098CAFD57DCCA0567B7E700E023A0E710D4
:1034F8001306F00290C223A0E7180100010013068A
:10350800C0038145480897D0FF1FE78040649707AC
:103518000020938767E33ECA896793870780231C47
:10352800F100B5472304F102A167938707E03ECE77
:10353800B7070105938707103ED0ED472312F10224
:1035480085472303F102970700009387A7E1BEC4CC
:10355800970700009387C7E2BEC68567938717D091
:103568002315F102970700009387E7AF3EDAB7F516
:103578000700970700009387A7E43EDE8146970778
:1035880000009387C7DD7000E1051945BEC097D0DC
:10359800FF1FE780A02158088147994670003E9692
:1035A8000346060085070507A30CC700E398D7FE66
:1035B800D24791C70357810185676373F70001A05C
:1035C8004808EF10503AAA8501C9171502001305DB
:1035D800E569EF00022F01A0F640256182804111C4
:1035E800170500001305E5E406C622C4EF10F03302
:1035F800138441862300A40029280345040022449B
:10360800B24037F60200130606E0896541016F10E3
:10361800C05B411106C6F3270080A18B1387818503
:1036280089CBF327008023ACF1841C43DD9B739086
:10363800078001000100B71700409306700523803A
:10364800D704930680FA2380D7040100010083C6BB
:10365800F70293F6A60FA387D70223800704F32661
:1036680000801C43A18BD58F7390078023AC018405
:1036780001000100F3270080A18B89CBF32700808C
:1036880023ACF1841C43DD9B73900780010001008B
:10369800B7170040930670052380D704930680FA75
:1036A8002380D7040100010083C6F70293E62600B1
:1036B800A387D70223800704F32600801C43A18B2D
:1036C800D58F7390078023AC01840100010071310C
:1036D8001305407E81470147814605468545EFE051
:1036E8001FC8B240014541016F10905C797126D224
:1036F80006D622D44AD04ECE52CC03C88500A14467
:10370800137808026311080683C8050009482E8447
:103718008144639A080503A84500AA89328A834729
:103728001800034808003689A207B3E70701C20753
:103738000D68C187130828906380070581440357E3
:10374800A40097F7FF1F83D707C3631EF70093876B
:10375800C1869C4389CB0D473AC22316210152C426
:103768004C004E858297B2502254268502599254B5
:10377800F249624A456182808547EF60306AAA84CF
:103788005DFD9387C186984355DB83471A008346BE
:103798000A004C00A207D58FB337F00085073EC258
:1037A8004E85029769BF0111171502001305454E92
:1037B80022CC2EC6328436C406CEEF002222B24571
:1037C8008947A24603C605006319F602D841834714
:1037D800170003470700A207D98FC2070D67C187E3
:1037E80013072790639BE700CC452390C6002285EA
:1037F800094697D0FF1FE7800032F2406244014536
:103808000561828041677917630CE502411122C482
:1038180006C685472A84639AF50022852244B24069
:103828009385419841016F80502889476396F50038
:103838008545EFA0506375D1B24022444101828092
:103848008280411126C2AA844165938541987D15DD
:1038580006C622C4EF807025170500001305C5FAB7
:10386800EFA0B05797F6FF1F938646B1414699459A
:1038780017F5FF1F130585AAEF8050182A8419C56C
:103888001715020013058541EF0042152285B24045
:10389800224423A691869244410182804111938556
:1038A800419806C6EF605052B2407D151335150099
:1038B80041018280411122C42E849385419826C2F9
:1038C80006C6AA84EF605050058915C197F7FF1FF7
:1038D8009387C7A483D7A702A285B2402310F40018
:1038E800224426859244014641016F70D02AB24095
:1038F800224492444945410182808357250003555B
:1039080005003385A740420541818280AA8705C208
:103918001307F6FFB376C700054599EA23A0070009
:10392800CCC32394C7002395E70001458280054551
:103938008280232005008280AA871145B5C72DC63D
:1039480083D6070003D787000D45369783D627000F
:10395800158F4207418329CB0145B9C58356060017
:103968006373D700BA86C206C182014713150701DF
:1039780041816366D5002310D600014582803385D6
:10398800E5008348050003D8A70003D527000507ED
:1039980033780501C84342952300150103D5270054
:1039A80005052391A700D9B782802A8729CD835698
:1039B80005008357A500B697835625008507958F80
:1039C800C207C183BE866373F600B286C206C1828F
:1039D8000D459DCB81476394D700014582800356EE
:1039E80027000355A70003C805008507718D5043BC
:1039F800C207C1832A96230006010356270005063D
:103A08002311C700C9BF11458280AA871145B1CFCC
:103A180029CE83D6070003D72700158F83560600C3
:103A2800420741836373D700BA86C206C18209453B
:103A38000DCF01476366D7002310D6000145828069
:103A480003D5070003D8A70033780501C84342957A
:103A5800034805003385E50005072300050103D564
:103A6800070005052390A700F1B7828029C50357F1
:103A7800050083572500998F3E87C207C18363736A
:103A8800F600328742074183814763E4E700014536
:103A98008280835605000356A5008507758E54411C
:103AA800B29683C606002380D50083560500850696
:103AB8002310D500D9BF1145828041119306A0FA81
:103AC800A386A13A06C622C42386D13A2387C13ADF
:103AD8000D4519CA91C91385F13A328497D0FF1F51
:103AE800E7806003130534009305F5FFC205C18123
:103AF800854601479387C13A3386D70003460600B7
:103B0800850632971386F6FF420641821377F70F30
:103B1800E364B6FEB386A7002380E60013075005CA
:103B2800A380E600B24022440905410182800111C8
:103B380022CC26CA2A84AE842306A100A306B1009B
:103B480009466C001305F00F06CE853F2A8693853B
:103B5800C13A1385814E97D0FF1FE780C0FB094605
:103B6800C14503C55181EF1040062686A285171569
:103B780002001305E52BEFF0D154F2406244D24421
:103B8800056182804111130600209385011A13856F
:103B9800013A06C622C49D3B05661306068097F5C2
:103BA800FF1F938565B0138541198D333714004085
:103BB8008327840A8D451305000293E7070223240F
:103BC800F40AEFF06F9D8327840A8545414593E702
:103BD80007012324F40AEFF02F9CEFF06FD79545E7
:103BE8000545EFF00FDAB2402244B7E700E011478D
:103BF80023A2E7104101828001112317B1001306A7
:103C0800E100AA851385013A06CE3D33F2400561ED
:103C18008280797106D622D426D24AD04ECE83C766
:103C2800014EA9C7EF00505F9384814DDC40130714
:103C3800301F2A84B307F540637AF70203C7914D12
:103C4800894763E2E70E81451385C13A753783C515
:103C58001400171502001305650623AE814C85056F
:103C680093F5F50FA38CB14CEFF0B1456800EFF078
:103C78004FBC83C761876385071083D541879384C9
:103C8800C14F1306A100A6951385411923150100FC
:103C9800AD3B8357A10003D441873E944204418041
:103CA800239A8186914763FB870C01461307A00A74
:103CB800B385C40083C70500131906011359090108
:103CC8006392E708630C09003306C4401385C14FAB
:103CD80033042441EFF0513A239A818603D7418770
:103CE800914763FDE70803C9E14F93170901C183B1
:103CF8001384570063648708338784008346F7FF7B
:103D080013075005639CE60683C6C14F1307A00A34
:103D18006391E604130759006300E40A17150200CB
:103D28001305C5FF1DA8AD4503C5814D09351715F8
:103D380002001305A5FA2380014EA38C014CEFF075
:103D4800F1492DB7050693170601C183E3E287F60B
:103D580071B7171502001305E5FAEFF0314883D75C
:103D68004187338987406379F4004A86B3858400A4
:103D78001385C14FEFF05130239A2187238B018699
:103D88003245EFF0CFACB745004083C7B5C01D47FB
:103D9800636DF70083C7B5C02146938585C01D8E26
:103DA800420641821385013AD131B25022549254CD
:103DB8000259F24945618280938627001386C14FD4
:103DC800814701478345160005074207AE9741839F
:103DD80093F7F70F0506E367D7FE33878400034799
:103DE800E7FF171502001305E5F4E318F7F683C992
:103DF800D14F8145630409009385F14F4A864E856A
:103E0800A38C014C2380014E4D392A869385C13AF3
:103E18001385814E97D0FF1FE780E0CF0946C14543
:103E280003C55181EF00705A4A86CE8517150200E6
:103E3800130545F1EFF0F1281DB79C410947638F41
:103E4800E7000D476382E70205476399E714AA85EF
:103E5800171502001305C5F16FF0B126AA851715CD
:103E68000200130525F3CDBF411126C2AE8483D5C8
:103E7800850017150200130525F422C406C64AC09A
:103E8800EFF03124C0409307A00A034704006314ED
:103E9800F71083D784001147637FF70EB306F40049
:103EA80003C6F6FF130750056317E60E03492400FF
:103EB80013075900638DE7002244B2409244024937
:103EC800171502001305C5F041016FF031311306D3
:103ED800290001478147B305E40083C5150005079C
:103EE800AE9793150701C18193F7F70FE3E5C5FE78
:103EF80003C7E6FF6301F70217150200130545EF34
:103F0800EFF0D12D03451400B5452244B240924448
:103F18000249410129B98344140081456304090019
:103F280093053400238C914C8D476382F4049147A8
:103F3800638FF4044A8626854936AA851385C13AD3
:103F48006539238C914CEF00302D23AEA14C2244CF
:103F5800B24085474A86A685024992442380F14E9D
:103F680017150200130545EA41016FF091158947BD
:103F7800E3F227FD83C70500A380F14E83C7250020
:103F880003C71500A207D98F2391F14E65B785475E
:103F98002382F14E45B7B145014585BF82802A8607
:103FA800B305B04017150200130545F56FF0711100
:103FB80083D7C1886390A7022397B1882398C188C3
:103FC8002399D1882E86171502001305A5EFBE8503
:103FD8006FF0310F17150200130545F06FF011202F
:103FE80003574500011106CE83D7C1886315F70230
:103FF800C167F91723A6F18823A801888547130606
:10400800F100854513055030A307F100EF70610AF0
:10401800F24005618280171502001305A5E6EFF04E
:10402800F11BFDB741119397050122C406C626C2AC
:104038004AC0C1872E8463D1070203C55181EF00AE
:10404800A06919C1EF0020622165218DB240224488
:10405800924402494101828093F7150091CF17E6F7
:10406800FF1F130666329385816203C55181EF6095
:10407800915013451400D9BF93F7850099CF83C792
:1040880051811307400681465146A14503D5C18891
:10409800EF60D1471345840055BF93F705010145EB
:1040A800D5D7938701829C4385446389970081C74C
:1040B8000D49637DF9101345040149BF03D5C18833
:1040C800EFF0CFFD03D7C18811E9C167F917E314F1
:1040D800F7FE13854119EFF0DF85F1BF3A85EF1040
:1040E80050547515239AA18813854119EFF0FF8064
:1040F80083D74189636FF50813854119EFF0EFFF06
:10410800AA8517150200130565D8EFF0817B138681
:1041180041899385814E13854119EFF01F8F1375DF
:10412800F50F23AC018641F903D641890147814641
:10413800ED4503D5C1882393C188EF60400323A4CC
:10414800A1886300050E03D661889385814E97D0B8
:10415800FF1FE780409C93854188014603D5C188AD
:10416800EFF04FF5AA8529CD17150200130505D4E0
:10417800EFF021758D4723A0F182ED451385418825
:10418800EF60A0160946C14503C55181EF00F02331
:104198001DB7938481879840A947E3EAE7F611465B
:1041A800C14503C55181EF0050229C4017150200FC
:1041B8001305C5CE850723ACF186EFF03102E5BDC6
:1041C800854723A0F182239A01886DBF03D64189D0
:1041D80001478146ED4503D5C1882393C188EF5037
:1041E800107923A4A18815CD03D661889385814EC3
:1041F80097D0FF1FE780209293854188014603D519
:10420800C188EFF02FEBAA8511C917150200130515
:10421800A5CAEFF0016B23A0218385B723A0918263
:104228005DB7894723A0F182B1BF3D897D159547C8
:1042380063E2A71217170200130747C30A053A9546
:104248001C41411122C406C6BA972E8482871715CD
:104258000200130525CC2244B24041016FF00178D9
:1042680003C7250099476314F7002E85953B17155A
:104278000200130525CBC5B703C72500954763176B
:10428800F70CC16703D7C188F91703D5A500630FD9
:10429800F700EF70E113171502001305A5C9EFF039
:1042A800E17317150200130565CB75B72396A1882E
:1042B80083D7E5000966130606902397F18883D70C
:1042C800050103C551812398F18883D72501A145AC
:1042D8002399F188EF00700F0356E4008355A4007A
:1042E80017150200130545C6EFF0A15D5DBF171550
:1042F8000200130565C785B783C5250091476397F5
:10430800F500171502001305A5C7B1B79947639FB4
:10431800F5002285F1318345640017150200130565
:10432800E5C72244B24041016FF0A1599547639A0D
:10433800F50083471400F1F7171502001305C5C7E8
:1043480019BF171502001305A5C7E1BFB2402244E3
:104358004101828082800111170500001305C5CC38
:1043680006CE22CC26CAEF00505C9384518199472F
:1043780005442380A4002315F10013069100930738
:10438800803E8545130550302316F100A3048100B3
:10439800EF60315217E6FF1F13064601E545130586
:1043A8007030EF601151138681819D45130560308F
:1043B800EF6031501306A100894513051031EF60F5
:1043C800514F7000894513052031EF60914E17E673
:1043D800FF1F130626FCD5450145EF503010930505
:1043E800000A0D45EF20D0659305000A1145EF201E
:1043F80030657000914513057040A30381002304C4
:104408008100A304810002C623050100EF50911327
:1044180013067100854513050040EF50B1123000B6
:10442800854513051040EF50F1111306A10085458D
:1044380013052040EF50111113069100854513050F
:104448005040EF5031107D55EF50B01A7D55EF7048
:10445800B062EFE01FEF170500001305459EEFF06F
:104468004FBEC1671387C188F9171CC323220700F1
:104478001385C187EF40E16403C504008545F12336
:10448800F2406244D24405618280411113058004E0
:1044980006C697C0FF1FE78080BF371700408327F5
:1044A800870A8D451305002093E707202324F70A80
:1044B800EFE09F8EEFE01FC1171502001305C5D965
:1044C800EFF0C15117150200130545B0EFF0015187
:1044D800EFE0DFFDEFF0AF90EF60D171AD3DEFF0B1
:1044E8006FEA752817150200130545B0EFF0014F64
:1044F80097C0FF1FE7806010411106C622C4EFE095
:104508005FB62A84EFE0DFAE9307803E3355F502AD
:10451800B2403355A40222444101828083C7618995
:10452800B5CF411106C622C4C13F938781899C43F8
:104538001D8DCD4763F0A706238B0188B717004070
:1045480003A7470C03A7470A2945054723AEE18877
:1045580003A7870A916637340040558F23A4E70ADA
:1045680097C0FF1FE780E0FE930710FA2304F4408A
:10457800154597C0FF1FE780C0FD930720FA230465
:10458800F440154597C0FF1FE780A0FC930730FA59
:104598002304F440B24022444101828082804111C8
:1045A80022C4056413050480854506C6EFE03F89EB
:1045B800130504808945EFE01F9B37E400E0B70747
:1045C80004002320F41085452165EFE0EFFC8945C0
:1045D8002165EFE03F91B70702002320F4108D45D5
:1045E8001165EFE06FFBB717004003A7C70A916694
:1045F8008545558F23A6E70A03A7870A13050010E8
:104608001367072023A4E70AEFE00FF98D45130588
:104618000020EFE06FF8EFE0FFAA716513050520B1
:10462800EFE05FA785450545EFE0FFACB707000859
:104638002320F41023AE0188B240224423A0018A2B
:10464800238B01884101828023AC05FE1C4191E740
:10465800010001000CC18280BA8703A787FF6DFFA4
:1046680023ACB7FE82801DC18346E5FF1307F00F18
:104678009147639EE600411106C697D0FF1FE78069
:10468800A034B24081473E854101828095473E85EE
:10469800828001E9014582800145B24022444101FE
:1046A800828095654111938505D022C4C98D2A84DD
:1046B8002105C2054205C181418106C697D0FF1F69
:1046C800E780602371D9FD57232005002312850058
:1046D8002303F5002105D1B7170700201307874BDF
:1046E8001C43411122C426C24AC006C601440149DE
:1046F800BA8489E7A165DD2D1DC401A803C7E7FFBA
:10470800631AA7020DCCA16589269840832784FFE8
:104718006319E40217070020232EF746FD57232CC0
:1047280004FE230FF4FE2285B2402244924402493B
:104738004101828011E03E8983A787FF5DBF3E84E7
:10474800E5BF232CF9FED9BFB1CD411122C406C65D
:104758002A849707002083C737442E856375F400A1
:10476800894763E8870001370D45B240224441017B
:10477800828083A785FF99E703C7E5FF9307F00FBA
:104788006305F700CD351545CDB7238F85FE170591
:104798000020130525404D3D22852244B240A165E5
:1047A800410165A4154582809707002023A4073E90
:1047B800828097070020938767439C4399E33E854F
:1047C800828003D727006316B70003C70700E308F2
:1047D800A7FEDC47E5B7C9C1797122D406D626D22F
:1047E8004AD04ECE01444147B3D78540858BA5C3F7
:1047F8001205314722953305E50297070020938774
:10480800E74203A907008544B3948400C204C18029
:10481800BE892A990327090011C7032549002EC616
:104828000297B24531473304E40283A709003E9456
:104838001C4489E72320090023220900B25022548E
:10484800A58D02599254F2492E854561828005044E
:10485800E31CE4F88144DDB72E858280411113976B
:10486800050122C406C626C24AC041872E84635E5B
:1048780007009D3511C1C53BA1673D8C2285B2401B
:1048880022449244024941018280EDD9AA87014716
:104898004146B356E440858A8DCE9207BA97B14611
:1048A800B387D702970600209386463803A90600E7
:1048B8008544B394E400C204C1803E99832709006B
:1048C8000325490082972320090023220900258C0B
:1048D80075B70507E31FC7FA8144D5BF97070020BE
:1048E800938707319C53411122C406C61384418221
:1048F80099C782971C403E9523A2A18239A09707A9
:1049080000209387272E9C43EDF70840B747030004
:104918009387D73F3305F502B7A72600938737EC6F
:10492800B24022443E9523A2A182410182807DC1EA
:10493800970700209387072B9C43797122D426D2AE
:104948004AD04ECE52CC56CA5AC806D65EC63A8A05
:10495800B689328BAE8A2A89829797070020938777
:10496800E72C9843BE840144B146C147B30BD40237
:1049780033067701104251EAC165938505F0414538
:1049880097D0FF1FE78020F71DE597070020938742
:1049980027269C5B2D4589C71145814582972D4562
:1049A800B250225492540259F249624AD24A424BB6
:1049B800B24B45618280970700209387272398434D
:1049C80029E39707002023A3A722230005009C4082
:1049D8000547331787002326050023246501231183
:1049E800E50023224501DE9723A0270123A25701D2
:1049F80023A447010145E38509FA238089004DB7BF
:104A08003E875C47F5FF48C7C9B70504E310F4F6CD
:104A1800214579B709458280970700209387472168
:104A28009C43411122C406C6170400201304C4166F
:104A380081CB82975C483E959707002023A8A7164C
:104A48004848B2402244410182809707002083C72A
:104A5800B7146371F502170700201307E7189317B7
:104A6800150008433E9583570500DD8D2310B500DA
:104A7800014582800D4582809707002083C7D711A2
:104A88006373F5021707002013070716931715001D
:104A9800084393C5F5FF3E9583570500FD8D231008
:104AA800B500014582800D458280130705FF137705
:104AB800F70FFD4763E9E70AB146B306D502970742
:104AC80000209387A716984389473697184349CFFC
:104AD800011122CC4EC60544935945003D89331532
:104AE800A40013140501418026CA4E85AE84A28510
:104AF8004AC806CE7D392A89814731CDA2854E859F
:104B0800A53F970700209387E70D9C438297970757
:104B1800002083D7A712338797022A848146130679
:104B28000064B3B7970213050732B335E500BE95A5
:104B3800EFE0B10FB3078500970600209386860F34
:104B48003E87D44263E4A70063E4D7003387D740A5
:104B58002324E9008147F2406244D2444249B249E1
:104B68003E850561828089473E858280011126CA7B
:104B780006CE22CC4AC84EC6BD47894463EFA70279
:104B880031473307E502970700209387270A9C439C
:104B98008944BA979C4395C305443314A40042043E
:104BA80041802E890145A2852931AA89814411C5F0
:104BB800A2850145D13523A42901F2406244268506
:104BC8004249D244B249056182809707002083C7D1
:104BD800B7FC6364F5000145828001119707002046
:104BE8009387470056C283AA070006CE22CC26CA5E
:104BF8004AC84EC652C4638D0A0A170A0020130A0F
:104C08006A0383244A00B74736FE938707C8AE89EC
:104C18009705002083D58502BE94B387C5022A84F0
:104C280032898146B3B5C50213850732B337F5001B
:104C380013060064BE95EFE0417F63EBA406829AF9
:104C48009705002083D585FFB3872503AA8413061B
:104C580000648146B3B5250313850732B337F500E1
:104C6800BE95EFE0817CB3079500BE8403274A0018
:104C780063E4A70063E4E700B384E740CE852285B8
:104C88000D3E01C504C505452DA0936504F0C20578
:104C9800C181414597D0FF1FE780E0C505E597072B
:104CA80000209387E7F49C5B81C7A2851145829712
:104CB8000145F2406244D2444249B249224A924AEA
:104CC8000561828097070020938747F29C439DE304
:104CD8009707002023ACA7F085472326050004C5C5
:104CE8002311350123008500A300F50023220500C8
:104CF80059BFBA87D84775FFC8C7F9BF59C979716D
:104D080022D426D24AD04ECE52CC56CA5EC662C4EF
:104D180066C206D65AC83689328AAE89AA84414400
:104D2800314C970A0020938A6AF0854C930B000354
:104D3800330B840303A70A005A971C43B1E7937502
:104D4800F400B395BC0013554440C2055286C18196
:104D58001375F50F9D3D0DC983A70A000145DA9724
:104D680084C323A237016304090023008900B250D9
:104D7800225492540259F249624AD24A424BB24BE7
:104D8800224C924C456182800504E31374FB214553
:104D9800F9BF09458280411122C426C24AC006C60D
:104DA8002A842E89B2841535CA852285EFF07FA022
:104DB80005CD9705002083D565E8B38795022A8439
:104DC800130600648146B3B5950213850732B337DD
:104DD800F500BE95EFE0616548C00145B240224448
:104DE80092440249410182802145CDBF411122C42C
:104DF80026C24AC006C62A892E84EFF09F9BAA8441
:104E080019C123110500A2854A85BD3197070020E5
:104E180083C787D8639B27019707002083D747DC80
:104E28005D8C97070020239D87DA014591E019459D
:104E3800B240224492440249410182809307F00221
:104E480063E8A7044111B14722C43304F50226C21E
:104E580097040020938484DD9C4006C6A29798435B
:104E680089470DC39377F5008545B395F500C205CD
:104E7800C1811181A53F9C40A29723A0070023A2CE
:104E880007008147B240224492443E854101828016
:104E980089473E858280411106C622C4EFF07F9182
:104EA80011E50145B2402244410182809707002064
:104EB800938747D39C4300458297970700209387A1
:104EC80067D76368A402D843B74636FE938606C8F8
:104ED8003305A4403697E376E5FC13070064B33541
:104EE800E50203D6870081463305E502EFE0E1538A
:104EF80055BFD8433A94C1BF411122C426C21704F2
:104F08000020130424D3970400209384E4C8944811
:104F18005840970700209387E7CC06C69C436393C5
:104F2800E60882975440B74736FE938707C8B69776
:104F38003387A7003A856364F7006364D7003305B5
:104F4800D740970400209384E4E79C4C81CF9707CF
:104F58000020938727EE94433707CDFF7D179C46A3
:104F6800F98F9CC611E1484097070020938747C8EE
:104F7800DC53829719E59C4C8DC3EF001101EFF0CB
:104F8800F0639C4C99CB970700209387A7EA984336
:104F9800B70633001C47D58F1CC7B2402244924441
:104FA80041018280829798489707002083C797C558
:104FB80054401D8FB307A7003E8563E4E700E3E292
:104FC800D7F83385D740B5BF411106C697070020EB
:104FD80023A0A7C60295B2409707002023AAA7BC22
:104FE800014541018280994763E9B7008A0597071F
:104FF8000020938727BDBE9588C1828041117146E4
:105008008145170500201305E5BB06C69707002054
:1050180023AE07BC9707002023AC07C097070020E2
:1050280023A207BC97C0FF1FE78060B21306800267
:10503800814517050020130525B697C0FF1FE78097
:1050480000B1EF60E1449707002083C7D7BB13D5B1
:1050580027008D8B3E958D473305F502854539052B
:105068001375F50F970700202389A7B299473305D1
:10507800F5021305052497D0FF1FE780C08717079F
:1050880000202325A7BA59CD9947170600200346C3
:10509800C6B03306F60281451306062497C0FF1FE3
:1050A800E780E0AA97070020938747B89C43938737
:1050B8000724170700202325F7B017070020034708
:1050C800C7AD0A07BA9717070020232FF7B0EFF0EC
:1050D800AFED052397070020938787AE9443970782
:1050E800002083C777AB13972700369717F6FFFF83
:1050F8001306A66E10C3138717001377F70F0A0756
:10510800369717F6FFFF1306A67510C313873700E7
:10511800890793F7F70F8A0797050020A38EE5A65E
:10512800B69790C3B240410182809707002083C799
:10513800B7A617070020034747A663F3E702170738
:1051480000201307E7A718439386170017060020C7
:10515800A304D6A493962700369708C33E85828079
:105168009307F00FE5BF1C41638A071641777D8FCF
:10517800B706002089476314D71603574500630014
:105188000716411122C419462A849305F00F6905B0
:1051980006C697C0FF1FE780A0A505478D47630A8D
:1051A800E5121C4481CB5858994763040712185CD0
:1051B800630107121306C003814517050020130574
:1051C80025A397C0FF1FE78080981306C003A28518
:1051D800170500201305C5A197C0FF1FE780A093FE
:1051E80017070020035787A197070020938747A038
:1051F80019E713070010970600202391E6A0170768
:1052080000200347C79F11E705479706002023881A
:10521800E69E170700200357A79E11E76D479706DC
:105228000020239FE69C170700200347579D11E79E
:10523800154797060020A384E69C1707002003471C
:10524800479C11E7054797060020238CE69A170725
:1052580000200347179B19E703C7F70097060020AC
:10526800A381E69A170700200347C79911E7354736
:10527800970600202388E698170700200347D79849
:1052880019E71307800297060020A38FE6961707F1
:1052980000200347379719E71307D0029706002025
:1052A800A382E6960347840119E71307C00397060C
:1052B8000020238BE6949C5791C78297970700207C
:1052C8002390A78EFD5717070020A307F7BC3D338F
:1052D8008147B24022443E854101828089473E850C
:1052E800828001114EC6970900209389A99483A74B
:1052F800090006CE22CC26CA4AC852C4829713098E
:105308000064B335250303DA8900814652863305E4
:105318002503EFE08111970700209387E787804FE7
:10532800AA8401456306940233858440636E940021
:1053380003A5490052868146B335A9023305A9025F
:10534800EFE0A10E018D26959707002023A29786EE
:10535800F2406244D2444249B249224A05618280FD
:10536800011122CC0A852E844146970502009385B7
:10537800E58106CEEFE0E144180806043A940355A7
:1053880004FF9707002083D7878BF2406244AA97CF
:1053980037450F00130505243355F5020561828052
:1053A8009707002083D7A78951471D45637CF702DB
:1053B800794719456378F702130720031545637386
:1053C800F7021307B0041145637EF7001307400680
:1053D8000D456379F7001307600909456374F70001
:1053E80013B5B70F8280011122CC06CE2A842EC6AF
:1053F800EFF0CFCEB245F240818D33A5A5022295BC
:1054080062441375F50F05618280011122CC06CE26
:105418002A842EC6EFF08FCCB245F240818D33A599
:10542800A5022295624442054181056182800111ED
:1054380022CC06CE2A842EC6EFF04FCAB245F240DF
:10544800818D33B5A502229562440561828097F764
:10545800FF1F9387E779985739CB411122C426C299
:1054680006C6BE84029717F7FF1F035767732A847F
:1054780015CBBA876373A700AA87C207C183BA8608
:105488006373E400A286C206C182958F5147635BAD
:10549800F700DC5491C38297EF00A11897F7FF1F1C
:1054A80023908770B24022449244410182808280D6
:1054B80097F7FF1F9387C773DC57011106CEAA859C
:1054C80081C72AC68297B245C1C59C410545B5CF5B
:1054D800DC41A5CF83D78500ADCB83D7A500B5C761
:1054E80083C7C500BDE3414617F5FF1F1305857443
:1054F80097B0FF1FE780206297F7FF1F9387877396
:105508009C4317F7FF1F232FF76C97F7FF1F83C7DD
:10551800B76F8DE79307800217F5FF1F03550572D4
:105528003305F50237460F001306062481468145E8
:10553800EFD0B16F97F7FF1FA388A76C170500007E
:10554800130565DAEFF05FA80145F2400561828036
:1055580097F7FF1F83C7276B1397870161876350EE
:10556800070497F7FF1F23A7076497C7FF1F9387B1
:10557800879D17F7FF1F232FF76AFD5717F7FF1FA0
:10558800232CF76AB7873200938727A117F7FF1FE5
:105598002326F76A97F7FF1F2384076AB1BF13F71B
:1055A800170005CBB7872003938707D017F7FF1F8E
:1055B8002326F768B707C0A817F7FF1F232EF7663B
:1055C80097C7FF1F9387479B17F7FF1F2324F7668B
:1055D800D1B7617797F6FF1F2392E66681CB9307D1
:1055E800003217F7FF1F231CF764E9B7930720035E
:1055F800CDBF011122CC17F4FF1F1304645F0844C8
:1056080006CE26CA4AC801E90545F2406244D2449A
:105618004249056182805C58E5DB185C75D77000EB
:10562800854582971844B247E300F7FE9305E004E6
:1056380017F5FF1F0355855C97C0FF1FE780A02B58
:1056480017F7FF1F232AA75661D117F6FF1F035626
:10565800E65A9305F00F97B0FF1FE780404F81444B
:1056680017F9FF1F1309495397F7FF1F83C72759D6
:105678000326090263C1F402328597C0FF1FE78041
:10568800A034014597F7FF1F23A8075297F7FF1F7C
:1056980023A607529DBF97F5FF1F83D52556B387CD
:1056A80095020844185C898185043E9508C20297D2
:1056B80065BF011156C297FAFF1F938A6A5383A7E1
:1056C8008A0022CC4AC84EC606CE26CA52C45AC040
:1056D800AA892E8432896385072203A74A036307B0
:1056E80007147D476366A71497F4FF1F9384C44A81
:1056F80003AA040263170A0A9565938515E017F54E
:10570800FF1F0355A54F97C0FF1FE780C01E97F7DF
:10571800FF1F23A3A74A2A86630A051083A74A0303
:1057280003A58A0097F5FF1F83D5454D8981829788
:1057380083A78A0003AA040217F7FF1F2320F7484C
:105748008947639CF908C1476312F40E97F5FF1F58
:1057580083D5C54A938505FC9147B3C5F5028A05EB
:10576800D29503C705009307A005631DF70A83C7F1
:1057780015006399370B4A852286910597B0FF1F5C
:10578800E78060399C505285639347150145F24084
:105798006244D2444249B249224A924A024B0561C4
:1057A8008280D850E38EE7F89565938525E017F554
:1057B800FF1F0355A54497C0FF1FE780C0132A8A1F
:1057C80035C52A8683A74A0303A58A0097F5FF1FD4
:1057D80083D5C54289818297A5B78D47639DF90016
:1057E800C1476315F40497F5FF1F83D525419385B9
:1057F80045FDF199B5B79147639AF90063183403E9
:1058080097F5FF1F83D5853FA115E5B7C147639F6E
:10581800F900A14763EC870097F5FF1F83D5053E84
:10582800C115C1BF9C5052856397470D294585B75F
:105838001307F006568B6361A70A130A05FE19477A
:10584800334AEA0217F7FF1F0357473B97FAFF1F30
:10585800938A8A34330AEA023E9A83A74A026395F6
:10586800470183A40A029DE49305E00417F5FF1F8E
:105878000355C53897C0FF1FE780E007AA845DD5A8
:1058880083274B0397F5FF1F83D545372A868981E0
:105898005285829791451307A00589819397250022
:1058A800A69783C607006393E60483C61700639C24
:1058B800360385058A052286A6954A8597B0FF1F77
:1058C800E780602583A70A02E38297EC268597C0C4
:1058D800FF1FE780600F5DBD1307E007E368A7F4CB
:1058E800130A05F985B783D5270045BF83A70A02A0
:1058F800E38E97F2268597C0FF1FE780E00C3DB73F
:1059080097F7FF1F938747298C538DD191479306AB
:10591800A0058983139727002E9703460700E317EE
:10592800D6F003461700631C360185078A072286CE
:10593800BE954A8597B0FF1FE780E01D81BD83575C
:105948002700C1BF97F7FF1F9387872A984739C752
:105958009C5FA9C705476313E504411122C417F4E6
:10596800FF1F13046423105006C60DC6485097F550
:10597800FF1F83D5A52889818297085097C0FF1FEC
:10598800E780800497F7FF1F23A8072297F7FF1FD8
:1059980023A60722B240224441018280828001115D
:1059A80017F7FF1F1307C7244EC68329870022CC89
:1059B80026CA4AC806CE52C456C2AA842E84328940
:1059C800638A09201C5FBA8A99EB2945F240624430
:1059D800D2444249B249224A924A056182805C5BBC
:1059E800EDD7FD4763E9A70E97F9FF1F9389C91AF9
:1059F80083A70902B1CB03A58A0083A7490263954F
:105A0800A70689476393F408C147E310F4FC17F528
:105A1800FF1F0355A51E9147130505FC3345F502E5
:105A28009317250003A509022286CA853E95930788
:105A3800A0052300F500A3009500110597B0FF1FEE
:105A4800E780600D014559B79305E00417F5FF1F7E
:105A58000355C51A97C0FF1FE780E0E997F7FF1FB6
:105A680023ACA71449F995B783A74A0303A60902EB
:105A780097F5FF1F83D585188981829783A78A00A8
:105A880017F7FF1F232CF712ADBF8D47639EF40055
:105A9800C147E31CF4F217F5FF1F0355251613053C
:105AA80045FD9377C5FFBDBF9147639AF400E31E98
:105AB80094F017F5FF1F035565142115DDB7C1478D
:105AC800E395F4F0A147E3E287F017F5FF1F0355CC
